{
  "_format": "hh-sol-artifact-1",
  "contractName": "DonationsToken",
  "sourceName": "contracts/DonationsToken.sol",
  "abi": [
    {
      "inputs": [
        {
          "internalType": "string",
          "name": "_title",
          "type": "string"
        },
        {
          "internalType": "address",
          "name": "_coin",
          "type": "address"
        },
        {
          "internalType": "string",
          "name": "_contractUri",
          "type": "string"
        },
        {
          "internalType": "string",
          "name": "_image",
          "type": "string"
        }
      ],
      "stateMutability": "nonpayable",
      "type": "constructor"
    },
    {
      "anonymous": false,
      "inputs": [
        {
          "indexed": true,
          "internalType": "address",
          "name": "owner",
          "type": "address"
        },
        {
          "indexed": true,
          "internalType": "address",
          "name": "approved",
          "type": "address"
        },
        {
          "indexed": true,
          "internalType": "uint256",
          "name": "tokenId",
          "type": "uint256"
        }
      ],
      "name": "Approval",
      "type": "event"
    },
    {
      "anonymous": false,
      "inputs": [
        {
          "indexed": true,
          "internalType": "address",
          "name": "owner",
          "type": "address"
        },
        {
          "indexed": true,
          "internalType": "address",
          "name": "operator",
          "type": "address"
        },
        {
          "indexed": false,
          "internalType": "bool",
          "name": "approved",
          "type": "bool"
        }
      ],
      "name": "ApprovalForAll",
      "type": "event"
    },
    {
      "anonymous": false,
      "inputs": [
        {
          "indexed": false,
          "internalType": "uint256",
          "name": "amount",
          "type": "uint256"
        }
      ],
      "name": "CashOut",
      "type": "event"
    },
    {
      "anonymous": false,
      "inputs": [],
      "name": "End",
      "type": "event"
    },
    {
      "anonymous": false,
      "inputs": [
        {
          "indexed": false,
          "internalType": "uint256",
          "name": "id",
          "type": "uint256"
        },
        {
          "indexed": false,
          "internalType": "address",
          "name": "sender",
          "type": "address"
        },
        {
          "indexed": false,
          "internalType": "uint256",
          "name": "amount",
          "type": "uint256"
        },
        {
          "indexed": false,
          "internalType": "string",
          "name": "message",
          "type": "string"
        },
        {
          "indexed": false,
          "internalType": "uint256",
          "name": "projectId",
          "type": "uint256"
        }
      ],
      "name": "NewDonation",
      "type": "event"
    },
    {
      "anonymous": false,
      "inputs": [
        {
          "indexed": false,
          "internalType": "string",
          "name": "image",
          "type": "string"
        }
      ],
      "name": "NewProject",
      "type": "event"
    },
    {
      "anonymous": false,
      "inputs": [
        {
          "indexed": true,
          "internalType": "address",
          "name": "previousOwner",
          "type": "address"
        },
        {
          "indexed": true,
          "internalType": "address",
          "name": "newOwner",
          "type": "address"
        }
      ],
      "name": "OwnershipTransferred",
      "type": "event"
    },
    {
      "anonymous": false,
      "inputs": [
        {
          "indexed": false,
          "internalType": "string",
          "name": "contractURI",
          "type": "string"
        }
      ],
      "name": "SetContractURI",
      "type": "event"
    },
    {
      "anonymous": false,
      "inputs": [
        {
          "indexed": true,
          "internalType": "address",
          "name": "from",
          "type": "address"
        },
        {
          "indexed": true,
          "internalType": "address",
          "name": "to",
          "type": "address"
        },
        {
          "indexed": true,
          "internalType": "uint256",
          "name": "tokenId",
          "type": "uint256"
        }
      ],
      "name": "Transfer",
      "type": "event"
    },
    {
      "inputs": [],
      "name": "active",
      "outputs": [
        {
          "internalType": "bool",
          "name": "",
          "type": "bool"
        }
      ],
      "stateMutability": "view",
      "type": "function"
    },
    {
      "inputs": [
        {
          "internalType": "address",
          "name": "to",
          "type": "address"
        },
        {
          "internalType": "uint256",
          "name": "tokenId",
          "type": "uint256"
        }
      ],
      "name": "approve",
      "outputs": [],
      "stateMutability": "nonpayable",
      "type": "function"
    },
    {
      "inputs": [
        {
          "internalType": "address",
          "name": "owner",
          "type": "address"
        }
      ],
      "name": "balanceOf",
      "outputs": [
        {
          "internalType": "uint256",
          "name": "",
          "type": "uint256"
        }
      ],
      "stateMutability": "view",
      "type": "function"
    },
    {
      "inputs": [],
      "name": "cashOut",
      "outputs": [],
      "stateMutability": "nonpayable",
      "type": "function"
    },
    {
      "inputs": [],
      "name": "coin",
      "outputs": [
        {
          "internalType": "contract IERC20",
          "name": "",
          "type": "address"
        }
      ],
      "stateMutability": "view",
      "type": "function"
    },
    {
      "inputs": [],
      "name": "contractURI",
      "outputs": [
        {
          "internalType": "string",
          "name": "",
          "type": "string"
        }
      ],
      "stateMutability": "view",
      "type": "function"
    },
    {
      "inputs": [],
      "name": "currentProject",
      "outputs": [
        {
          "internalType": "uint256",
          "name": "",
          "type": "uint256"
        }
      ],
      "stateMutability": "view",
      "type": "function"
    },
    {
      "inputs": [
        {
          "internalType": "uint256",
          "name": "_amount",
          "type": "uint256"
        },
        {
          "internalType": "string",
          "name": "_message",
          "type": "string"
        }
      ],
      "name": "donate",
      "outputs": [],
      "stateMutability": "nonpayable",
      "type": "function"
    },
    {
      "inputs": [],
      "name": "donated",
      "outputs": [
        {
          "internalType": "uint256",
          "name": "",
          "type": "uint256"
        }
      ],
      "stateMutability": "view",
      "type": "function"
    },
    {
      "inputs": [
        {
          "internalType": "uint256",
          "name": "",
          "type": "uint256"
        }
      ],
      "name": "donations",
      "outputs": [
        {
          "internalType": "address",
          "name": "sender",
          "type": "address"
        },
        {
          "internalType": "uint256",
          "name": "amount",
          "type": "uint256"
        },
        {
          "internalType": "string",
          "name": "message",
          "type": "string"
        },
        {
          "internalType": "uint256",
          "name": "projectId",
          "type": "uint256"
        }
      ],
      "stateMutability": "view",
      "type": "function"
    },
    {
      "inputs": [],
      "name": "donationsCount",
      "outputs": [
        {
          "internalType": "uint256",
          "name": "",
          "type": "uint256"
        }
      ],
      "stateMutability": "view",
      "type": "function"
    },
    {
      "inputs": [],
      "name": "end",
      "outputs": [],
      "stateMutability": "nonpayable",
      "type": "function"
    },
    {
      "inputs": [
        {
          "internalType": "uint256",
          "name": "tokenId",
          "type": "uint256"
        }
      ],
      "name": "getApproved",
      "outputs": [
        {
          "internalType": "address",
          "name": "",
          "type": "address"
        }
      ],
      "stateMutability": "view",
      "type": "function"
    },
    {
      "inputs": [
        {
          "internalType": "address",
          "name": "owner",
          "type": "address"
        },
        {
          "internalType": "address",
          "name": "operator",
          "type": "address"
        }
      ],
      "name": "isApprovedForAll",
      "outputs": [
        {
          "internalType": "bool",
          "name": "",
          "type": "bool"
        }
      ],
      "stateMutability": "view",
      "type": "function"
    },
    {
      "inputs": [],
      "name": "name",
      "outputs": [
        {
          "internalType": "string",
          "name": "",
          "type": "string"
        }
      ],
      "stateMutability": "view",
      "type": "function"
    },
    {
      "inputs": [
        {
          "internalType": "string",
          "name": "_image",
          "type": "string"
        }
      ],
      "name": "newProject",
      "outputs": [],
      "stateMutability": "nonpayable",
      "type": "function"
    },
    {
      "inputs": [],
      "name": "owner",
      "outputs": [
        {
          "internalType": "address",
          "name": "",
          "type": "address"
        }
      ],
      "stateMutability": "view",
      "type": "function"
    },
    {
      "inputs": [
        {
          "internalType": "uint256",
          "name": "tokenId",
          "type": "uint256"
        }
      ],
      "name": "ownerOf",
      "outputs": [
        {
          "internalType": "address",
          "name": "",
          "type": "address"
        }
      ],
      "stateMutability": "view",
      "type": "function"
    },
    {
      "inputs": [
        {
          "internalType": "uint256",
          "name": "",
          "type": "uint256"
        }
      ],
      "name": "projects",
      "outputs": [
        {
          "internalType": "string",
          "name": "",
          "type": "string"
        }
      ],
      "stateMutability": "view",
      "type": "function"
    },
    {
      "inputs": [],
      "name": "renounceOwnership",
      "outputs": [],
      "stateMutability": "nonpayable",
      "type": "function"
    },
    {
      "inputs": [
        {
          "internalType": "address",
          "name": "from",
          "type": "address"
        },
        {
          "internalType": "address",
          "name": "to",
          "type": "address"
        },
        {
          "internalType": "uint256",
          "name": "tokenId",
          "type": "uint256"
        }
      ],
      "name": "safeTransferFrom",
      "outputs": [],
      "stateMutability": "nonpayable",
      "type": "function"
    },
    {
      "inputs": [
        {
          "internalType": "address",
          "name": "from",
          "type": "address"
        },
        {
          "internalType": "address",
          "name": "to",
          "type": "address"
        },
        {
          "internalType": "uint256",
          "name": "tokenId",
          "type": "uint256"
        },
        {
          "internalType": "bytes",
          "name": "_data",
          "type": "bytes"
        }
      ],
      "name": "safeTransferFrom",
      "outputs": [],
      "stateMutability": "nonpayable",
      "type": "function"
    },
    {
      "inputs": [
        {
          "internalType": "address",
          "name": "operator",
          "type": "address"
        },
        {
          "internalType": "bool",
          "name": "approved",
          "type": "bool"
        }
      ],
      "name": "setApprovalForAll",
      "outputs": [],
      "stateMutability": "nonpayable",
      "type": "function"
    },
    {
      "inputs": [
        {
          "internalType": "string",
          "name": "_contractUri",
          "type": "string"
        }
      ],
      "name": "setContractURI",
      "outputs": [],
      "stateMutability": "nonpayable",
      "type": "function"
    },
    {
      "inputs": [
        {
          "internalType": "bytes4",
          "name": "interfaceId",
          "type": "bytes4"
        }
      ],
      "name": "supportsInterface",
      "outputs": [
        {
          "internalType": "bool",
          "name": "",
          "type": "bool"
        }
      ],
      "stateMutability": "view",
      "type": "function"
    },
    {
      "inputs": [],
      "name": "symbol",
      "outputs": [
        {
          "internalType": "string",
          "name": "",
          "type": "string"
        }
      ],
      "stateMutability": "view",
      "type": "function"
    },
    {
      "inputs": [],
      "name": "title",
      "outputs": [
        {
          "internalType": "string",
          "name": "",
          "type": "string"
        }
      ],
      "stateMutability": "view",
      "type": "function"
    },
    {
      "inputs": [
        {
          "internalType": "uint256",
          "name": "tokenId",
          "type": "uint256"
        }
      ],
      "name": "tokenURI",
      "outputs": [
        {
          "internalType": "string",
          "name": "",
          "type": "string"
        }
      ],
      "stateMutability": "view",
      "type": "function"
    },
    {
      "inputs": [
        {
          "internalType": "address",
          "name": "from",
          "type": "address"
        },
        {
          "internalType": "address",
          "name": "to",
          "type": "address"
        },
        {
          "internalType": "uint256",
          "name": "tokenId",
          "type": "uint256"
        }
      ],
      "name": "transferFrom",
      "outputs": [],
      "stateMutability": "nonpayable",
      "type": "function"
    },
    {
      "inputs": [
        {
          "internalType": "address",
          "name": "newOwner",
          "type": "address"
        }
      ],
      "name": "transferOwnership",
      "outputs": [],
      "stateMutability": "nonpayable",
      "type": "function"
    }
  ],
  "bytecode": "0x60806040526000600a556000600b556000600c553480156200002057600080fd5b5060405162004f0638038062004f06833981810160405281019062000046919062000367565b83848160009080519060200190620000609291906200022e565b508060019080519060200190620000799291906200022e565b5050506200009c620000906200016060201b60201c565b6200016860201b60201c565b82600860006101000a81548173ffffffffffffffffffffffffffffffffffffffff021916908373ffffffffffffffffffffffffffffffffffffffff1602179055508360079080519060200190620000f59291906200022e565b506001600860146101000a81548160ff0219169083151502179055508160099080519060200190620001299291906200022e565b5080600d6000600c5481526020019081526020016000209080519060200190620001559291906200022e565b5050505050620005dc565b600033905090565b6000600660009054906101000a900473ffffffffffffffffffffffffffffffffffffffff16905081600660006101000a81548173ffffffffffffffffffffffffffffffffffffffff021916908373ffffffffffffffffffffffffffffffffffffffff1602179055508173ffffffffffffffffffffffffffffffffffffffff168173ffffffffffffffffffffffffffffffffffffffff167f8be0079c531659141344cd1fd0a4f28419497f9722a3daafe3b4186f6b6457e060405160405180910390a35050565b8280546200023c90620004e7565b90600052602060002090601f016020900481019282620002605760008555620002ac565b82601f106200027b57805160ff1916838001178555620002ac565b82800160010185558215620002ac579182015b82811115620002ab5782518255916020019190600101906200028e565b5b509050620002bb9190620002bf565b5090565b5b80821115620002da576000816000905550600101620002c0565b5090565b6000620002f5620002ef8462000447565b6200041e565b9050828152602081018484840111156200030e57600080fd5b6200031b848285620004b1565b509392505050565b6000815190506200033481620005c2565b92915050565b600082601f8301126200034c57600080fd5b81516200035e848260208601620002de565b91505092915050565b600080600080608085870312156200037e57600080fd5b600085015167ffffffffffffffff8111156200039957600080fd5b620003a7878288016200033a565b9450506020620003ba8782880162000323565b935050604085015167ffffffffffffffff811115620003d857600080fd5b620003e6878288016200033a565b925050606085015167ffffffffffffffff8111156200040457600080fd5b62000412878288016200033a565b91505092959194509250565b60006200042a6200043d565b90506200043882826200051d565b919050565b6000604051905090565b600067ffffffffffffffff82111562000465576200046462000582565b5b6200047082620005b1565b9050602081019050919050565b60006200048a8262000491565b9050919050565b600073ffffffffffffffffffffffffffffffffffffffff82169050919050565b60005b83811015620004d1578082015181840152602081019050620004b4565b83811115620004e1576000848401525b50505050565b600060028204905060018216806200050057607f821691505b6020821081141562000517576200051662000553565b5b50919050565b6200052882620005b1565b810181811067ffffffffffffffff821117156200054a576200054962000582565b5b80604052505050565b7f4e487b7100000000000000000000000000000000000000000000000000000000600052602260045260246000fd5b7f4e487b7100000000000000000000000000000000000000000000000000000000600052604160045260246000fd5b6000601f19601f8301169050919050565b620005cd816200047d565b8114620005d957600080fd5b50565b61491a80620005ec6000396000f3fe608060405234801561001057600080fd5b50600436106101da5760003560e01c8063793cd71e11610104578063b8c7e21b116100a2578063e985e9c511610071578063e985e9c51461051f578063efbe1c1c1461054f578063f2fde38b14610559578063f8626af814610575576101da565b8063b8c7e21b14610497578063c87b56dd146104b5578063e1cac57b146104e5578063e8a3d48514610501576101da565b8063938e3d7b116100de578063938e3d7b1461042557806395d89b4114610441578063a22cb4651461045f578063b88d4fde1461047b576101da565b8063793cd71e146103e15780638d59d1f1146103eb5780638da5cb5b14610407576101da565b80631f5225951161017c5780636352211e1161014b5780636352211e14610359578063639bbb371461038957806370a08231146103a7578063715018a6146103d7576101da565b80631f522595146102e557806323b872dd1461030357806342842e0e1461031f5780634a79d50c1461033b576101da565b8063081812fc116101b8578063081812fc1461024b578063095ea7b31461027b578063107046bd1461029757806311df9995146102c7576101da565b806301ffc9a7146101df57806302fb0c5e1461020f57806306fdde031461022d575b600080fd5b6101f960048036038101906101f49190612f25565b6105a8565b60405161020691906137a5565b60405180910390f35b61021761068a565b60405161022491906137a5565b60405180910390f35b61023561069d565b60405161024291906137db565b60405180910390f35b61026560048036038101906102609190612fb8565b61072f565b6040516102729190613692565b60405180910390f35b61029560048036038101906102909190612ec0565b6107b4565b005b6102b160048036038101906102ac9190612fb8565b6108cc565b6040516102be91906137db565b60405180910390f35b6102cf61096c565b6040516102dc91906137c0565b60405180910390f35b6102ed610992565b6040516102fa9190613a1d565b60405180910390f35b61031d60048036038101906103189190612dba565b610998565b005b61033960048036038101906103349190612dba565b6109f8565b005b610343610a18565b60405161035091906137db565b60405180910390f35b610373600480360381019061036e9190612fb8565b610aa6565b6040516103809190613692565b60405180910390f35b610391610b58565b60405161039e9190613a1d565b60405180910390f35b6103c160048036038101906103bc9190612d55565b610b5e565b6040516103ce9190613a1d565b60405180910390f35b6103df610c16565b005b6103e9610c9e565b005b6104056004803603810190610400919061300a565b610eb3565b005b61040f611144565b60405161041c9190613692565b60405180910390f35b61043f600480360381019061043a9190612f77565b61116e565b005b61044961128a565b60405161045691906137db565b60405180910390f35b61047960048036038101906104749190612e84565b61131c565b005b61049560048036038101906104909190612e09565b611332565b005b61049f611394565b6040516104ac9190613a1d565b60405180910390f35b6104cf60048036038101906104ca9190612fb8565b61139a565b6040516104dc91906137db565b60405180910390f35b6104ff60048036038101906104fa9190612f77565b6114cd565b005b610509611614565b60405161051691906137db565b60405180910390f35b61053960048036038101906105349190612d7e565b6116a6565b60405161054691906137a5565b60405180910390f35b61055761173a565b005b610573600480360381019061056e9190612d55565b611856565b005b61058f600480360381019061058a9190612fb8565b61194e565b60405161059f9493929190613759565b60405180910390f35b60007f80ac58cd000000000000000000000000000000000000000000000000000000007bffffffffffffffffffffffffffffffffffffffffffffffffffffffff1916827bffffffffffffffffffffffffffffffffffffffffffffffffffffffff1916148061067357507f5b5e139f000000000000000000000000000000000000000000000000000000007bffffffffffffffffffffffffffffffffffffffffffffffffffffffff1916827bffffffffffffffffffffffffffffffffffffffffffffffffffffffff1916145b80610683575061068282611a26565b5b9050919050565b600860149054906101000a900460ff1681565b6060600080546106ac90613fb5565b80601f01602080910402602001604051908101604052809291908181526020018280546106d890613fb5565b80156107255780601f106106fa57610100808354040283529160200191610725565b820191906000526020600020905b81548152906001019060200180831161070857829003601f168201915b5050505050905090565b600061073a82611a90565b610779576040517f08c379a00000000000000000000000000000000000000000000000000000000081526004016107709061395d565b60405180910390fd5b6004600083815260200190815260200160002060009054906101000a900473ffffffffffffffffffffffffffffffffffffffff169050919050565b60006107bf82610aa6565b90508073ffffffffffffffffffffffffffffffffffffffff168373ffffffffffffffffffffffffffffffffffffffff161415610830576040517f08c379a0000000000000000000000000000000000000000000000000000000008152600401610827906139dd565b60405180910390fd5b8073ffffffffffffffffffffffffffffffffffffffff1661084f611afc565b73ffffffffffffffffffffffffffffffffffffffff16148061087e575061087d81610878611afc565b6116a6565b5b6108bd576040517f08c379a00000000000000000000000000000000000000000000000000000000081526004016108b4906138bd565b60405180910390fd5b6108c78383611b04565b505050565b600d60205280600052604060002060009150905080546108eb90613fb5565b80601f016020809104026020016040519081016040528092919081815260200182805461091790613fb5565b80156109645780601f1061093957610100808354040283529160200191610964565b820191906000526020600020905b81548152906001019060200180831161094757829003601f168201915b505050505081565b600860009054906101000a900473ffffffffffffffffffffffffffffffffffffffff1681565b600b5481565b6109a96109a3611afc565b82611bbd565b6109e8576040517f08c379a00000000000000000000000000000000000000000000000000000000081526004016109df906139fd565b60405180910390fd5b6109f3838383611c9b565b505050565b610a1383838360405180602001604052806000815250611332565b505050565b60078054610a2590613fb5565b80601f0160208091040260200160405190810160405280929190818152602001828054610a5190613fb5565b8015610a9e5780601f10610a7357610100808354040283529160200191610a9e565b820191906000526020600020905b815481529060010190602001808311610a8157829003601f168201915b505050505081565b6000806002600084815260200190815260200160002060009054906101000a900473ffffffffffffffffffffffffffffffffffffffff169050600073ffffffffffffffffffffffffffffffffffffffff168173ffffffffffffffffffffffffffffffffffffffff161415610b4f576040517f08c379a0000000000000000000000000000000000000000000000000000000008152600401610b46906138fd565b60405180910390fd5b80915050919050565b600a5481565b60008073ffffffffffffffffffffffffffffffffffffffff168273ffffffffffffffffffffffffffffffffffffffff161415610bcf576040517f08c379a0000000000000000000000000000000000000000000000000000000008152600401610bc6906138dd565b60405180910390fd5b600360008373ffffffffffffffffffffffffffffffffffffffff1673ffffffffffffffffffffffffffffffffffffffff168152602001908152602001600020549050919050565b610c1e611afc565b73ffffffffffffffffffffffffffffffffffffffff16610c3c611144565b73ffffffffffffffffffffffffffffffffffffffff1614610c92576040517f08c379a0000000000000000000000000000000000000000000000000000000008152600401610c899061397d565b60405180910390fd5b610c9c6000611ef7565b565b610ca6611afc565b73ffffffffffffffffffffffffffffffffffffffff16610cc4611144565b73ffffffffffffffffffffffffffffffffffffffff1614610d1a576040517f08c379a0000000000000000000000000000000000000000000000000000000008152600401610d119061397d565b60405180910390fd5b6000600860009054906101000a900473ffffffffffffffffffffffffffffffffffffffff1673ffffffffffffffffffffffffffffffffffffffff166370a08231306040518263ffffffff1660e01b8152600401610d779190613692565b60206040518083038186803b158015610d8f57600080fd5b505afa158015610da3573d6000803e3d6000fd5b505050506040513d601f19601f82011682018060405250810190610dc79190612fe1565b9050600860009054906101000a900473ffffffffffffffffffffffffffffffffffffffff1673ffffffffffffffffffffffffffffffffffffffff1663a9059cbb33836040518363ffffffff1660e01b8152600401610e26929190613730565b602060405180830381600087803b158015610e4057600080fd5b505af1158015610e54573d6000803e3d6000fd5b505050506040513d601f19601f82011682018060405250810190610e789190612efc565b507f9ffa0711edfcdbf44092ece07d71043b947402fc3af6f4ad8c2fdfe422ac510581604051610ea89190613a1d565b60405180910390a150565b600860149054906101000a900460ff16610f02576040517f08c379a0000000000000000000000000000000000000000000000000000000008152600401610ef99061391d565b60405180910390fd5b60008211610f45576040517f08c379a0000000000000000000000000000000000000000000000000000000008152600401610f3c9061399d565b60405180910390fd5b600860009054906101000a900473ffffffffffffffffffffffffffffffffffffffff1673ffffffffffffffffffffffffffffffffffffffff166323b872dd3330856040518463ffffffff1660e01b8152600401610fa4939291906136ad565b602060405180830381600087803b158015610fbe57600080fd5b505af1158015610fd2573d6000803e3d6000fd5b505050506040513d601f19601f82011682018060405250810190610ff69190612efc565b5081600a60008282546110099190613b71565b92505081905550600b600081548092919061102390614018565b919050555061103433600b54611fbd565b60405180608001604052803373ffffffffffffffffffffffffffffffffffffffff168152602001838152602001828152602001600c54815250600e6000600b54815260200190815260200160002060008201518160000160006101000a81548173ffffffffffffffffffffffffffffffffffffffff021916908373ffffffffffffffffffffffffffffffffffffffff1602179055506020820151816001015560408201518160020190805190602001906110ef929190612b4f565b50606082015181600301559050507f07406d87dd3f6ced218499e4df6c321bc96f77d38ae882c42987537e945947e9600b54338484600c54604051611138959493929190613a38565b60405180910390a15050565b6000600660009054906101000a900473ffffffffffffffffffffffffffffffffffffffff16905090565b611176611afc565b73ffffffffffffffffffffffffffffffffffffffff16611194611144565b73ffffffffffffffffffffffffffffffffffffffff16146111ea576040517f08c379a00000000000000000000000000000000000000000000000000000000081526004016111e19061397d565b60405180910390fd5b600860149054906101000a900460ff16611239576040517f08c379a00000000000000000000000000000000000000000000000000000000081526004016112309061391d565b60405180910390fd5b806009908051906020019061124f929190612b4f565b507f5ca9f750836b0b7efdace104f07b5c9f0df0650c0fd24f5163e99044ae36ea528160405161127f91906137db565b60405180910390a150565b60606001805461129990613fb5565b80601f01602080910402602001604051908101604052809291908181526020018280546112c590613fb5565b80156113125780601f106112e757610100808354040283529160200191611312565b820191906000526020600020905b8154815290600101906020018083116112f557829003601f168201915b5050505050905090565b61132e611327611afc565b8383611fdb565b5050565b61134361133d611afc565b83611bbd565b611382576040517f08c379a0000000000000000000000000000000000000000000000000000000008152600401611379906139fd565b60405180910390fd5b61138e84848484612148565b50505050565b600c5481565b60606114a7600d6000600e60008681526020019081526020016000206003015481526020019081526020016000206113d1846121a4565b600e60008681526020019081526020016000206002016007611408600e6000898152602001908152602001600020600101546121a4565b600e600089815260200190815260200160002060020161143d600e60008b8152602001908152602001600020600301546121a4565b61147c600e60008c815260200190815260200160002060000160009054906101000a900473ffffffffffffffffffffffffffffffffffffffff16612351565b6040516020016114939897969594939291906135b2565b604051602081830303815290604052612586565b6040516020016114b79190613590565b6040516020818303038152906040529050919050565b6114d5611afc565b73ffffffffffffffffffffffffffffffffffffffff166114f3611144565b73ffffffffffffffffffffffffffffffffffffffff1614611549576040517f08c379a00000000000000000000000000000000000000000000000000000000081526004016115409061397d565b60405180910390fd5b600860149054906101000a900460ff16611598576040517f08c379a000000000000000000000000000000000000000000000000000000000815260040161158f9061391d565b60405180910390fd5b600c60008154809291906115ab90614018565b919050555080600d6000600c54815260200190815260200160002090805190602001906115d9929190612b4f565b507fa574171d77e04cf709c4d16c4a88c4159627ae9e3d425580727b24823c4899468160405161160991906137db565b60405180910390a150565b60606009805461162390613fb5565b80601f016020809104026020016040519081016040528092919081815260200182805461164f90613fb5565b801561169c5780601f106116715761010080835404028352916020019161169c565b820191906000526020600020905b81548152906001019060200180831161167f57829003601f168201915b5050505050905090565b6000600560008473ffffffffffffffffffffffffffffffffffffffff1673ffffffffffffffffffffffffffffffffffffffff16815260200190815260200160002060008373ffffffffffffffffffffffffffffffffffffffff1673ffffffffffffffffffffffffffffffffffffffff16815260200190815260200160002060009054906101000a900460ff16905092915050565b611742611afc565b73ffffffffffffffffffffffffffffffffffffffff16611760611144565b73ffffffffffffffffffffffffffffffffffffffff16146117b6576040517f08c379a00000000000000000000000000000000000000000000000000000000081526004016117ad9061397d565b60405180910390fd5b600860149054906101000a900460ff16611805576040517f08c379a00000000000000000000000000000000000000000000000000000000081526004016117fc9061391d565b60405180910390fd5b6000600860146101000a81548160ff021916908315150217905550611828610c9e565b7f06e649079f276fcfc97b1e5cbfbb65937dac6a51ee164e3190e707e27ff345fa60405160405180910390a1565b61185e611afc565b73ffffffffffffffffffffffffffffffffffffffff1661187c611144565b73ffffffffffffffffffffffffffffffffffffffff16146118d2576040517f08c379a00000000000000000000000000000000000000000000000000000000081526004016118c99061397d565b60405180910390fd5b600073ffffffffffffffffffffffffffffffffffffffff168173ffffffffffffffffffffffffffffffffffffffff161415611942576040517f08c379a00000000000000000000000000000000000000000000000000000000081526004016119399061381d565b60405180910390fd5b61194b81611ef7565b50565b600e6020528060005260406000206000915090508060000160009054906101000a900473ffffffffffffffffffffffffffffffffffffffff169080600101549080600201805461199d90613fb5565b80601f01602080910402602001604051908101604052809291908181526020018280546119c990613fb5565b8015611a165780601f106119eb57610100808354040283529160200191611a16565b820191906000526020600020905b8154815290600101906020018083116119f957829003601f168201915b5050505050908060030154905084565b60007f01ffc9a7000000000000000000000000000000000000000000000000000000007bffffffffffffffffffffffffffffffffffffffffffffffffffffffff1916827bffffffffffffffffffffffffffffffffffffffffffffffffffffffff1916149050919050565b60008073ffffffffffffffffffffffffffffffffffffffff166002600084815260200190815260200160002060009054906101000a900473ffffffffffffffffffffffffffffffffffffffff1673ffffffffffffffffffffffffffffffffffffffff1614159050919050565b600033905090565b816004600083815260200190815260200160002060006101000a81548173ffffffffffffffffffffffffffffffffffffffff021916908373ffffffffffffffffffffffffffffffffffffffff160217905550808273ffffffffffffffffffffffffffffffffffffffff16611b7783610aa6565b73ffffffffffffffffffffffffffffffffffffffff167f8c5be1e5ebec7d5bd14f71427d1e84f3dd0314c0f7b2291e5b200ac8c7c3b92560405160405180910390a45050565b6000611bc882611a90565b611c07576040517f08c379a0000000000000000000000000000000000000000000000000000000008152600401611bfe9061389d565b60405180910390fd5b6000611c1283610aa6565b90508073ffffffffffffffffffffffffffffffffffffffff168473ffffffffffffffffffffffffffffffffffffffff161480611c8157508373ffffffffffffffffffffffffffffffffffffffff16611c698461072f565b73ffffffffffffffffffffffffffffffffffffffff16145b80611c925750611c9181856116a6565b5b91505092915050565b8273ffffffffffffffffffffffffffffffffffffffff16611cbb82610aa6565b73ffffffffffffffffffffffffffffffffffffffff1614611d11576040517f08c379a0000000000000000000000000000000000000000000000000000000008152600401611d08906139bd565b60405180910390fd5b600073ffffffffffffffffffffffffffffffffffffffff168273ffffffffffffffffffffffffffffffffffffffff161415611d81576040517f08c379a0000000000000000000000000000000000000000000000000000000008152600401611d789061385d565b60405180910390fd5b611d8c838383612731565b611d97600082611b04565b6001600360008573ffffffffffffffffffffffffffffffffffffffff1673ffffffffffffffffffffffffffffffffffffffff1681526020019081526020016000206000828254611de79190613e66565b925050819055506001600360008473ffffffffffffffffffffffffffffffffffffffff1673ffffffffffffffffffffffffffffffffffffffff1681526020019081526020016000206000828254611e3e9190613b71565b92505081905550816002600083815260200190815260200160002060006101000a81548173ffffffffffffffffffffffffffffffffffffffff021916908373ffffffffffffffffffffffffffffffffffffffff160217905550808273ffffffffffffffffffffffffffffffffffffffff168473ffffffffffffffffffffffffffffffffffffffff167fddf252ad1be2c89b69c2b068fc378daa952ba7f163c4a11628f55a4df523b3ef60405160405180910390a4505050565b6000600660009054906101000a900473ffffffffffffffffffffffffffffffffffffffff16905081600660006101000a81548173ffffffffffffffffffffffffffffffffffffffff021916908373ffffffffffffffffffffffffffffffffffffffff1602179055508173ffffffffffffffffffffffffffffffffffffffff168173ffffffffffffffffffffffffffffffffffffffff167f8be0079c531659141344cd1fd0a4f28419497f9722a3daafe3b4186f6b6457e060405160405180910390a35050565b611fd7828260405180602001604052806000815250612736565b5050565b8173ffffffffffffffffffffffffffffffffffffffff168373ffffffffffffffffffffffffffffffffffffffff16141561204a576040517f08c379a00000000000000000000000000000000000000000000000000000000081526004016120419061387d565b60405180910390fd5b80600560008573ffffffffffffffffffffffffffffffffffffffff1673ffffffffffffffffffffffffffffffffffffffff16815260200190815260200160002060008473ffffffffffffffffffffffffffffffffffffffff1673ffffffffffffffffffffffffffffffffffffffff16815260200190815260200160002060006101000a81548160ff0219169083151502179055508173ffffffffffffffffffffffffffffffffffffffff168373ffffffffffffffffffffffffffffffffffffffff167f17307eab39ab6107e8899845ad3d59bd9653f200f220920489ca2b5937696c318360405161213b91906137a5565b60405180910390a3505050565b612153848484611c9b565b61215f84848484612791565b61219e576040517f08c379a0000000000000000000000000000000000000000000000000000000008152600401612195906137fd565b60405180910390fd5b50505050565b606060008214156121ec576040518060400160405280600181526020017f3000000000000000000000000000000000000000000000000000000000000000815250905061234c565b600082905060005b6000821461221e57808061220790614018565b915050600a826122179190613bfe565b91506121f4565b60008167ffffffffffffffff811115612260577f4e487b7100000000000000000000000000000000000000000000000000000000600052604160045260246000fd5b6040519080825280601f01601f1916602001820160405280156122925781602001600182028036833780820191505090505b5090505b60008514612345576001826122ab9190613e66565b9150600a856122ba9190614061565b60306122c69190613b71565b60f81b818381518110612302577f4e487b7100000000000000000000000000000000000000000000000000000000600052603260045260246000fd5b60200101907effffffffffffffffffffffffffffffffffffffffffffffffffffffffffffff1916908160001a905350600a8561233e9190613bfe565b9450612296565b8093505050505b919050565b60606000602867ffffffffffffffff811115612396577f4e487b7100000000000000000000000000000000000000000000000000000000600052604160045260246000fd5b6040519080825280601f01601f1916602001820160405280156123c85781602001600182028036833780820191505090505b50905060005b601481101561257c5760008160136123e69190613e66565b60086123f29190613dd1565b60026123fe9190613cb3565b8573ffffffffffffffffffffffffffffffffffffffff1661241f9190613bfe565b60f81b9050600060108260f81c6124369190613c2f565b60f81b905060008160f81c601061244d9190613e2b565b8360f81c61245b9190613e9a565b60f81b905061246982612928565b858560026124779190613dd1565b815181106124ae577f4e487b7100000000000000000000000000000000000000000000000000000000600052603260045260246000fd5b60200101907effffffffffffffffffffffffffffffffffffffffffffffffffffffffffffff1916908160001a9053506124e681612928565b8560018660026124f69190613dd1565b6125009190613b71565b81518110612537577f4e487b7100000000000000000000000000000000000000000000000000000000600052603260045260246000fd5b60200101907effffffffffffffffffffffffffffffffffffffffffffffffffffffffffffff1916908160001a905350505050808061257490614018565b9150506123ce565b5080915050919050565b60606000825114156125a95760405180602001604052806000815250905061272c565b60006040518060600160405280604081526020016148a560409139905060006003600285516125d89190613b71565b6125e29190613bfe565b60046125ee9190613dd1565b905060006020826125ff9190613b71565b67ffffffffffffffff81111561263e577f4e487b7100000000000000000000000000000000000000000000000000000000600052604160045260246000fd5b6040519080825280601f01601f1916602001820160405280156126705781602001600182028036833780820191505090505b509050818152600183018586518101602084015b818310156126eb576003830192508251603f8160121c1685015160f81b8252600182019150603f81600c1c1685015160f81b8252600182019150603f8160061c1685015160f81b8252600182019150603f811685015160f81b825260018201915050612684565b600389510660018114612705576002811461271557612720565b613d3d60f01b6002830352612720565b603d60f81b60018303525b50505050508093505050505b919050565b505050565b612740838361296e565b61274d6000848484612791565b61278c576040517f08c379a0000000000000000000000000000000000000000000000000000000008152600401612783906137fd565b60405180910390fd5b505050565b60006127b28473ffffffffffffffffffffffffffffffffffffffff16612b3c565b1561291b578373ffffffffffffffffffffffffffffffffffffffff1663150b7a026127db611afc565b8786866040518563ffffffff1660e01b81526004016127fd94939291906136e4565b602060405180830381600087803b15801561281757600080fd5b505af192505050801561284857506040513d601f19601f820116820180604052508101906128459190612f4e565b60015b6128cb573d8060008114612878576040519150601f19603f3d011682016040523d82523d6000602084013e61287d565b606091505b506000815114156128c3576040517f08c379a00000000000000000000000000000000000000000000000000000000081526004016128ba906137fd565b60405180910390fd5b805181602001fd5b63150b7a0260e01b7bffffffffffffffffffffffffffffffffffffffffffffffffffffffff1916817bffffffffffffffffffffffffffffffffffffffffffffffffffffffff191614915050612920565b600190505b949350505050565b6000600a8260f81c60ff1610156129535760308260f81c6129499190613bc7565b60f81b9050612969565b60578260f81c6129639190613bc7565b60f81b90505b919050565b600073ffffffffffffffffffffffffffffffffffffffff168273ffffffffffffffffffffffffffffffffffffffff1614156129de576040517f08c379a00000000000000000000000000000000000000000000000000000000081526004016129d59061393d565b60405180910390fd5b6129e781611a90565b15612a27576040517f08c379a0000000000000000000000000000000000000000000000000000000008152600401612a1e9061383d565b60405180910390fd5b612a3360008383612731565b6001600360008473ffffffffffffffffffffffffffffffffffffffff1673ffffffffffffffffffffffffffffffffffffffff1681526020019081526020016000206000828254612a839190613b71565b92505081905550816002600083815260200190815260200160002060006101000a81548173ffffffffffffffffffffffffffffffffffffffff021916908373ffffffffffffffffffffffffffffffffffffffff160217905550808273ffffffffffffffffffffffffffffffffffffffff16600073ffffffffffffffffffffffffffffffffffffffff167fddf252ad1be2c89b69c2b068fc378daa952ba7f163c4a11628f55a4df523b3ef60405160405180910390a45050565b600080823b905060008111915050919050565b828054612b5b90613fb5565b90600052602060002090601f016020900481019282612b7d5760008555612bc4565b82601f10612b9657805160ff1916838001178555612bc4565b82800160010185558215612bc4579182015b82811115612bc3578251825591602001919060010190612ba8565b5b509050612bd19190612bd5565b5090565b5b80821115612bee576000816000905550600101612bd6565b5090565b6000612c05612c0084613ab7565b613a92565b905082815260208101848484011115612c1d57600080fd5b612c28848285613f73565b509392505050565b6000612c43612c3e84613ae8565b613a92565b905082815260208101848484011115612c5b57600080fd5b612c66848285613f73565b509392505050565b600081359050612c7d81614848565b92915050565b600081359050612c928161485f565b92915050565b600081519050612ca78161485f565b92915050565b600081359050612cbc81614876565b92915050565b600081519050612cd181614876565b92915050565b600082601f830112612ce857600080fd5b8135612cf8848260208601612bf2565b91505092915050565b600082601f830112612d1257600080fd5b8135612d22848260208601612c30565b91505092915050565b600081359050612d3a8161488d565b92915050565b600081519050612d4f8161488d565b92915050565b600060208284031215612d6757600080fd5b6000612d7584828501612c6e565b91505092915050565b60008060408385031215612d9157600080fd5b6000612d9f85828601612c6e565b9250506020612db085828601612c6e565b9150509250929050565b600080600060608486031215612dcf57600080fd5b6000612ddd86828701612c6e565b9350506020612dee86828701612c6e565b9250506040612dff86828701612d2b565b9150509250925092565b60008060008060808587031215612e1f57600080fd5b6000612e2d87828801612c6e565b9450506020612e3e87828801612c6e565b9350506040612e4f87828801612d2b565b925050606085013567ffffffffffffffff811115612e6c57600080fd5b612e7887828801612cd7565b91505092959194509250565b60008060408385031215612e9757600080fd5b6000612ea585828601612c6e565b9250506020612eb685828601612c83565b9150509250929050565b60008060408385031215612ed357600080fd5b6000612ee185828601612c6e565b9250506020612ef285828601612d2b565b9150509250929050565b600060208284031215612f0e57600080fd5b6000612f1c84828501612c98565b91505092915050565b600060208284031215612f3757600080fd5b6000612f4584828501612cad565b91505092915050565b600060208284031215612f6057600080fd5b6000612f6e84828501612cc2565b91505092915050565b600060208284031215612f8957600080fd5b600082013567ffffffffffffffff811115612fa357600080fd5b612faf84828501612d01565b91505092915050565b600060208284031215612fca57600080fd5b6000612fd884828501612d2b565b91505092915050565b600060208284031215612ff357600080fd5b600061300184828501612d40565b91505092915050565b6000806040838503121561301d57600080fd5b600061302b85828601612d2b565b925050602083013567ffffffffffffffff81111561304857600080fd5b61305485828601612d01565b9150509250929050565b61306781613ece565b82525050565b61307681613ee0565b82525050565b600061308782613b2e565b6130918185613b44565b93506130a1818560208601613f82565b6130aa8161414e565b840191505092915050565b6130be81613f4f565b82525050565b60006130cf82613b39565b6130d98185613b55565b93506130e9818560208601613f82565b6130f28161414e565b840191505092915050565b600061310882613b39565b6131128185613b66565b9350613122818560208601613f82565b80840191505092915050565b6000815461313b81613fb5565b6131458186613b66565b945060018216600081146131605760018114613171576131a4565b60ff198316865281860193506131a4565b61317a85613b19565b60005b8381101561319c5781548189015260018201915060208101905061317d565b838801955050505b50505092915050565b60006131ba603283613b55565b91506131c58261416c565b604082019050919050565b60006131dd602683613b55565b91506131e8826141bb565b604082019050919050565b6000613200602f83613b66565b915061320b8261420a565b602f82019050919050565b6000613223601c83613b55565b915061322e82614259565b602082019050919050565b6000613246602383613b66565b915061325182614282565b602382019050919050565b6000613269602d83613b66565b9150613274826142d1565b602d82019050919050565b600061328c602483613b55565b915061329782614320565b604082019050919050565b60006132af601983613b55565b91506132ba8261436f565b602082019050919050565b60006132d2600383613b66565b91506132dd82614398565b600382019050919050565b60006132f5602c83613b55565b9150613300826143c1565b604082019050919050565b6000613318603883613b55565b915061332382614410565b604082019050919050565b600061333b602a83613b55565b91506133468261445f565b604082019050919050565b600061335e602983613b55565b9150613369826144ae565b604082019050919050565b6000613381601683613b66565b915061338c826144fd565b601682019050919050565b60006133a4601383613b55565b91506133af82614526565b602082019050919050565b60006133c7602083613b55565b91506133d28261454f565b602082019050919050565b60006133ea600183613b66565b91506133f582614578565b600182019050919050565b600061340d602c83613b55565b9150613418826145a1565b604082019050919050565b6000613430601283613b66565b915061343b826145f0565b601282019050919050565b6000613453602083613b55565b915061345e82614619565b602082019050919050565b6000613476601483613b55565b915061348182614642565b602082019050919050565b6000613499602983613b55565b91506134a48261466b565b604082019050919050565b60006134bc602183613b55565b91506134c7826146ba565b604082019050919050565b60006134df603483613b66565b91506134ea82614709565b603482019050919050565b6000613502602683613b66565b915061350d82614758565b602682019050919050565b6000613525601d83613b66565b9150613530826147a7565b601d82019050919050565b6000613548603183613b55565b9150613553826147d0565b604082019050919050565b600061356b600a83613b66565b91506135768261481f565b600a82019050919050565b61358a81613f38565b82525050565b600061359b82613518565b91506135a782846130fd565b915081905092915050565b60006135bd8261355e565b91506135c9828b61312e565b91506135d482613374565b91506135e0828a6130fd565b91506135eb82613423565b91506135f7828961312e565b9150613602826131f3565b915061360e828861312e565b9150613619826134d2565b915061362582876130fd565b915061363082613239565b915061363c828661312e565b9150613647826134f5565b915061365382856130fd565b915061365e8261325c565b915061366a82846130fd565b9150613675826132c5565b9150613680826133dd565b91508190509998505050505050505050565b60006020820190506136a7600083018461305e565b92915050565b60006060820190506136c2600083018661305e565b6136cf602083018561305e565b6136dc6040830184613581565b949350505050565b60006080820190506136f9600083018761305e565b613706602083018661305e565b6137136040830185613581565b8181036060830152613725818461307c565b905095945050505050565b6000604082019050613745600083018561305e565b6137526020830184613581565b9392505050565b600060808201905061376e600083018761305e565b61377b6020830186613581565b818103604083015261378d81856130c4565b905061379c6060830184613581565b95945050505050565b60006020820190506137ba600083018461306d565b92915050565b60006020820190506137d560008301846130b5565b92915050565b600060208201905081810360008301526137f581846130c4565b905092915050565b60006020820190508181036000830152613816816131ad565b9050919050565b60006020820190508181036000830152613836816131d0565b9050919050565b6000602082019050818103600083015261385681613216565b9050919050565b600060208201905081810360008301526138768161327f565b9050919050565b60006020820190508181036000830152613896816132a2565b9050919050565b600060208201905081810360008301526138b6816132e8565b9050919050565b600060208201905081810360008301526138d68161330b565b9050919050565b600060208201905081810360008301526138f68161332e565b9050919050565b6000602082019050818103600083015261391681613351565b9050919050565b6000602082019050818103600083015261393681613397565b9050919050565b60006020820190508181036000830152613956816133ba565b9050919050565b6000602082019050818103600083015261397681613400565b9050919050565b6000602082019050818103600083015261399681613446565b9050919050565b600060208201905081810360008301526139b681613469565b9050919050565b600060208201905081810360008301526139d68161348c565b9050919050565b600060208201905081810360008301526139f6816134af565b9050919050565b60006020820190508181036000830152613a168161353b565b9050919050565b6000602082019050613a326000830184613581565b92915050565b600060a082019050613a4d6000830188613581565b613a5a602083018761305e565b613a676040830186613581565b8181036060830152613a7981856130c4565b9050613a886080830184613581565b9695505050505050565b6000613a9c613aad565b9050613aa88282613fe7565b919050565b6000604051905090565b600067ffffffffffffffff821115613ad257613ad161411f565b5b613adb8261414e565b9050602081019050919050565b600067ffffffffffffffff821115613b0357613b0261411f565b5b613b0c8261414e565b9050602081019050919050565b60008190508160005260206000209050919050565b600081519050919050565b600081519050919050565b600082825260208201905092915050565b600082825260208201905092915050565b600081905092915050565b6000613b7c82613f38565b9150613b8783613f38565b9250827fffffffffffffffffffffffffffffffffffffffffffffffffffffffffffffffff03821115613bbc57613bbb614092565b5b828201905092915050565b6000613bd282613f42565b9150613bdd83613f42565b92508260ff03821115613bf357613bf2614092565b5b828201905092915050565b6000613c0982613f38565b9150613c1483613f38565b925082613c2457613c236140c1565b5b828204905092915050565b6000613c3a82613f42565b9150613c4583613f42565b925082613c5557613c546140c1565b5b828204905092915050565b6000808291508390505b6001851115613caa57808604811115613c8657613c85614092565b5b6001851615613c955780820291505b8081029050613ca38561415f565b9450613c6a565b94509492505050565b6000613cbe82613f38565b9150613cc983613f38565b9250613cf67fffffffffffffffffffffffffffffffffffffffffffffffffffffffffffffffff8484613cfe565b905092915050565b600082613d0e5760019050613dca565b81613d1c5760009050613dca565b8160018114613d325760028114613d3c57613d6b565b6001915050613dca565b60ff841115613d4e57613d4d614092565b5b8360020a915084821115613d6557613d64614092565b5b50613dca565b5060208310610133831016604e8410600b8410161715613da05782820a905083811115613d9b57613d9a614092565b5b613dca565b613dad8484846001613c60565b92509050818404811115613dc457613dc3614092565b5b81810290505b9392505050565b6000613ddc82613f38565b9150613de783613f38565b9250817fffffffffffffffffffffffffffffffffffffffffffffffffffffffffffffffff0483118215151615613e2057613e1f614092565b5b828202905092915050565b6000613e3682613f42565b9150613e4183613f42565b92508160ff0483118215151615613e5b57613e5a614092565b5b828202905092915050565b6000613e7182613f38565b9150613e7c83613f38565b925082821015613e8f57613e8e614092565b5b828203905092915050565b6000613ea582613f42565b9150613eb083613f42565b925082821015613ec357613ec2614092565b5b828203905092915050565b6000613ed982613f18565b9050919050565b60008115159050919050565b60007fffffffff0000000000000000000000000000000000000000000000000000000082169050919050565b600073ffffffffffffffffffffffffffffffffffffffff82169050919050565b6000819050919050565b600060ff82169050919050565b6000613f5a82613f61565b9050919050565b6000613f6c82613f18565b9050919050565b82818337600083830152505050565b60005b83811015613fa0578082015181840152602081019050613f85565b83811115613faf576000848401525b50505050565b60006002820490506001821680613fcd57607f821691505b60208210811415613fe157613fe06140f0565b5b50919050565b613ff08261414e565b810181811067ffffffffffffffff8211171561400f5761400e61411f565b5b80604052505050565b600061402382613f38565b91507fffffffffffffffffffffffffffffffffffffffffffffffffffffffffffffffff82141561405657614055614092565b5b600182019050919050565b600061406c82613f38565b915061407783613f38565b925082614087576140866140c1565b5b828206905092915050565b7f4e487b7100000000000000000000000000000000000000000000000000000000600052601160045260246000fd5b7f4e487b7100000000000000000000000000000000000000000000000000000000600052601260045260246000fd5b7f4e487b7100000000000000000000000000000000000000000000000000000000600052602260045260246000fd5b7f4e487b7100000000000000000000000000000000000000000000000000000000600052604160045260246000fd5b6000601f19601f8301169050919050565b60008160011c9050919050565b7f4552433732313a207472616e7366657220746f206e6f6e20455243373231526560008201527f63656976657220696d706c656d656e7465720000000000000000000000000000602082015250565b7f4f776e61626c653a206e6577206f776e657220697320746865207a65726f206160008201527f6464726573730000000000000000000000000000000000000000000000000000602082015250565b7f222c202265787465726e616c5f75726c223a2268747470733a2f2f657468646f60008201527f6e2e78797a2f70726f6a656374732f0000000000000000000000000000000000602082015250565b7f4552433732313a20746f6b656e20616c7265616479206d696e74656400000000600082015250565b7f7d2c7b2274726169745f74797065223a224d657373616765222c2276616c756560008201527f223a220000000000000000000000000000000000000000000000000000000000602082015250565b7f7d2c7b2274726169745f74797065223a224f726967696e616c2073656e64657260008201527f222c2276616c7565223a22307800000000000000000000000000000000000000602082015250565b7f4552433732313a207472616e7366657220746f20746865207a65726f2061646460008201527f7265737300000000000000000000000000000000000000000000000000000000602082015250565b7f4552433732313a20617070726f766520746f2063616c6c657200000000000000600082015250565b7f227d5d0000000000000000000000000000000000000000000000000000000000600082015250565b7f4552433732313a206f70657261746f7220717565727920666f72206e6f6e657860008201527f697374656e7420746f6b656e0000000000000000000000000000000000000000602082015250565b7f4552433732313a20617070726f76652063616c6c6572206973206e6f74206f7760008201527f6e6572206e6f7220617070726f76656420666f7220616c6c0000000000000000602082015250565b7f4552433732313a2062616c616e636520717565727920666f7220746865207a6560008201527f726f206164647265737300000000000000000000000000000000000000000000602082015250565b7f4552433732313a206f776e657220717565727920666f72206e6f6e657869737460008201527f656e7420746f6b656e0000000000000000000000000000000000000000000000602082015250565b7f222c20226e616d65223a22537570706f72746572202300000000000000000000600082015250565b7f50726f6a656374206e6f74206163746976652100000000000000000000000000600082015250565b7f4552433732313a206d696e7420746f20746865207a65726f2061646472657373600082015250565b7f7d00000000000000000000000000000000000000000000000000000000000000600082015250565b7f4552433732313a20617070726f76656420717565727920666f72206e6f6e657860008201527f697374656e7420746f6b656e0000000000000000000000000000000000000000602082015250565b7f222c20226465736372697074696f6e223a220000000000000000000000000000600082015250565b7f4f776e61626c653a2063616c6c6572206973206e6f7420746865206f776e6572600082015250565b7f446f6e6174696f6e20616d6f756e742069732030000000000000000000000000600082015250565b7f4552433732313a207472616e73666572206f6620746f6b656e2074686174206960008201527f73206e6f74206f776e0000000000000000000000000000000000000000000000602082015250565b7f4552433732313a20617070726f76616c20746f2063757272656e74206f776e6560008201527f7200000000000000000000000000000000000000000000000000000000000000602082015250565b7f222c202261747472696275746573223a205b7b2274726169745f74797065223a60008201527f2022446f6e6174696f6e222c2276616c7565223a000000000000000000000000602082015250565b7f227d2c7b2274726169745f74797065223a2250726f6a656374204944222c227660008201527f616c7565223a0000000000000000000000000000000000000000000000000000602082015250565b7f646174613a6170706c69636174696f6e2f6a736f6e3b6261736536342c000000600082015250565b7f4552433732313a207472616e736665722063616c6c6572206973206e6f74206f60008201527f776e6572206e6f7220617070726f766564000000000000000000000000000000602082015250565b7f7b22696d616765223a2200000000000000000000000000000000000000000000600082015250565b61485181613ece565b811461485c57600080fd5b50565b61486881613ee0565b811461487357600080fd5b50565b61487f81613eec565b811461488a57600080fd5b50565b61489681613f38565b81146148a157600080fd5b5056fe4142434445464748494a4b4c4d4e4f505152535455565758595a6162636465666768696a6b6c6d6e6f707172737475767778797a303132333435363738392b2fa264697066735822122002f3f81ff14311ccc8fd895fb9aa7617a3dd432c632c04c9bea392257a4a4f9164736f6c63430008040033",
  "linkReferences": {},
  "deployedLinkReferences": {}
}