{
  "_format": "hh-sol-artifact-1",
  "contractName": "DonationsToken",
  "sourceName": "contracts/DonationsToken.sol",
  "abi": [
    {
      "inputs": [
        {
          "internalType": "string",
          "name": "title",
          "type": "string"
        },
        {
          "internalType": "address",
          "name": "coin",
          "type": "address"
        },
        {
          "internalType": "uint256",
          "name": "goal",
          "type": "uint256"
        },
        {
          "internalType": "string",
          "name": "styling",
          "type": "string"
        },
        {
          "internalType": "string",
          "name": "image",
          "type": "string"
        }
      ],
      "stateMutability": "nonpayable",
      "type": "constructor"
    },
    {
      "anonymous": false,
      "inputs": [
        {
          "indexed": true,
          "internalType": "address",
          "name": "owner",
          "type": "address"
        },
        {
          "indexed": true,
          "internalType": "address",
          "name": "approved",
          "type": "address"
        },
        {
          "indexed": true,
          "internalType": "uint256",
          "name": "tokenId",
          "type": "uint256"
        }
      ],
      "name": "Approval",
      "type": "event"
    },
    {
      "anonymous": false,
      "inputs": [
        {
          "indexed": true,
          "internalType": "address",
          "name": "owner",
          "type": "address"
        },
        {
          "indexed": true,
          "internalType": "address",
          "name": "operator",
          "type": "address"
        },
        {
          "indexed": false,
          "internalType": "bool",
          "name": "approved",
          "type": "bool"
        }
      ],
      "name": "ApprovalForAll",
      "type": "event"
    },
    {
      "anonymous": false,
      "inputs": [
        {
          "indexed": false,
          "internalType": "uint256",
          "name": "goal",
          "type": "uint256"
        },
        {
          "indexed": false,
          "internalType": "string",
          "name": "styling",
          "type": "string"
        },
        {
          "indexed": false,
          "internalType": "string",
          "name": "image",
          "type": "string"
        }
      ],
      "name": "Edit",
      "type": "event"
    },
    {
      "anonymous": false,
      "inputs": [],
      "name": "End",
      "type": "event"
    },
    {
      "anonymous": false,
      "inputs": [
        {
          "indexed": true,
          "internalType": "address",
          "name": "sender",
          "type": "address"
        },
        {
          "indexed": false,
          "internalType": "uint256",
          "name": "amount",
          "type": "uint256"
        },
        {
          "indexed": false,
          "internalType": "string",
          "name": "message",
          "type": "string"
        }
      ],
      "name": "NewDonation",
      "type": "event"
    },
    {
      "anonymous": false,
      "inputs": [
        {
          "indexed": true,
          "internalType": "address",
          "name": "previousOwner",
          "type": "address"
        },
        {
          "indexed": true,
          "internalType": "address",
          "name": "newOwner",
          "type": "address"
        }
      ],
      "name": "OwnershipTransferred",
      "type": "event"
    },
    {
      "anonymous": false,
      "inputs": [
        {
          "indexed": true,
          "internalType": "address",
          "name": "from",
          "type": "address"
        },
        {
          "indexed": true,
          "internalType": "address",
          "name": "to",
          "type": "address"
        },
        {
          "indexed": true,
          "internalType": "uint256",
          "name": "tokenId",
          "type": "uint256"
        }
      ],
      "name": "Transfer",
      "type": "event"
    },
    {
      "inputs": [
        {
          "internalType": "address",
          "name": "to",
          "type": "address"
        },
        {
          "internalType": "uint256",
          "name": "tokenId",
          "type": "uint256"
        }
      ],
      "name": "approve",
      "outputs": [],
      "stateMutability": "nonpayable",
      "type": "function"
    },
    {
      "inputs": [
        {
          "internalType": "address",
          "name": "owner",
          "type": "address"
        }
      ],
      "name": "balanceOf",
      "outputs": [
        {
          "internalType": "uint256",
          "name": "",
          "type": "uint256"
        }
      ],
      "stateMutability": "view",
      "type": "function"
    },
    {
      "inputs": [],
      "name": "cashOut",
      "outputs": [],
      "stateMutability": "nonpayable",
      "type": "function"
    },
    {
      "inputs": [],
      "name": "contractURI",
      "outputs": [
        {
          "internalType": "string",
          "name": "",
          "type": "string"
        }
      ],
      "stateMutability": "view",
      "type": "function"
    },
    {
      "inputs": [
        {
          "internalType": "uint256",
          "name": "amount",
          "type": "uint256"
        },
        {
          "internalType": "string",
          "name": "message",
          "type": "string"
        }
      ],
      "name": "donate",
      "outputs": [],
      "stateMutability": "nonpayable",
      "type": "function"
    },
    {
      "inputs": [
        {
          "internalType": "uint256",
          "name": "",
          "type": "uint256"
        }
      ],
      "name": "donations",
      "outputs": [
        {
          "internalType": "uint256",
          "name": "amount",
          "type": "uint256"
        },
        {
          "internalType": "string",
          "name": "message",
          "type": "string"
        },
        {
          "internalType": "address",
          "name": "donator",
          "type": "address"
        }
      ],
      "stateMutability": "view",
      "type": "function"
    },
    {
      "inputs": [
        {
          "internalType": "uint256",
          "name": "goal",
          "type": "uint256"
        },
        {
          "internalType": "string",
          "name": "styling",
          "type": "string"
        },
        {
          "internalType": "string",
          "name": "image",
          "type": "string"
        }
      ],
      "name": "edit",
      "outputs": [],
      "stateMutability": "nonpayable",
      "type": "function"
    },
    {
      "inputs": [],
      "name": "end",
      "outputs": [],
      "stateMutability": "nonpayable",
      "type": "function"
    },
    {
      "inputs": [
        {
          "internalType": "uint256",
          "name": "tokenId",
          "type": "uint256"
        }
      ],
      "name": "getApproved",
      "outputs": [
        {
          "internalType": "address",
          "name": "",
          "type": "address"
        }
      ],
      "stateMutability": "view",
      "type": "function"
    },
    {
      "inputs": [],
      "name": "info",
      "outputs": [
        {
          "internalType": "string",
          "name": "title",
          "type": "string"
        },
        {
          "internalType": "address",
          "name": "coin",
          "type": "address"
        },
        {
          "internalType": "address",
          "name": "currentOwner",
          "type": "address"
        },
        {
          "internalType": "uint256",
          "name": "balance",
          "type": "uint256"
        },
        {
          "internalType": "uint256",
          "name": "goal",
          "type": "uint256"
        },
        {
          "internalType": "bool",
          "name": "active",
          "type": "bool"
        },
        {
          "internalType": "string",
          "name": "styling",
          "type": "string"
        },
        {
          "internalType": "string",
          "name": "image",
          "type": "string"
        },
        {
          "internalType": "uint256",
          "name": "donationsCount",
          "type": "uint256"
        }
      ],
      "stateMutability": "view",
      "type": "function"
    },
    {
      "inputs": [
        {
          "internalType": "address",
          "name": "owner",
          "type": "address"
        },
        {
          "internalType": "address",
          "name": "operator",
          "type": "address"
        }
      ],
      "name": "isApprovedForAll",
      "outputs": [
        {
          "internalType": "bool",
          "name": "",
          "type": "bool"
        }
      ],
      "stateMutability": "view",
      "type": "function"
    },
    {
      "inputs": [],
      "name": "name",
      "outputs": [
        {
          "internalType": "string",
          "name": "",
          "type": "string"
        }
      ],
      "stateMutability": "view",
      "type": "function"
    },
    {
      "inputs": [],
      "name": "owner",
      "outputs": [
        {
          "internalType": "address",
          "name": "",
          "type": "address"
        }
      ],
      "stateMutability": "view",
      "type": "function"
    },
    {
      "inputs": [
        {
          "internalType": "uint256",
          "name": "tokenId",
          "type": "uint256"
        }
      ],
      "name": "ownerOf",
      "outputs": [
        {
          "internalType": "address",
          "name": "",
          "type": "address"
        }
      ],
      "stateMutability": "view",
      "type": "function"
    },
    {
      "inputs": [],
      "name": "renounceOwnership",
      "outputs": [],
      "stateMutability": "nonpayable",
      "type": "function"
    },
    {
      "inputs": [
        {
          "internalType": "address",
          "name": "from",
          "type": "address"
        },
        {
          "internalType": "address",
          "name": "to",
          "type": "address"
        },
        {
          "internalType": "uint256",
          "name": "tokenId",
          "type": "uint256"
        }
      ],
      "name": "safeTransferFrom",
      "outputs": [],
      "stateMutability": "nonpayable",
      "type": "function"
    },
    {
      "inputs": [
        {
          "internalType": "address",
          "name": "from",
          "type": "address"
        },
        {
          "internalType": "address",
          "name": "to",
          "type": "address"
        },
        {
          "internalType": "uint256",
          "name": "tokenId",
          "type": "uint256"
        },
        {
          "internalType": "bytes",
          "name": "_data",
          "type": "bytes"
        }
      ],
      "name": "safeTransferFrom",
      "outputs": [],
      "stateMutability": "nonpayable",
      "type": "function"
    },
    {
      "inputs": [
        {
          "internalType": "address",
          "name": "operator",
          "type": "address"
        },
        {
          "internalType": "bool",
          "name": "approved",
          "type": "bool"
        }
      ],
      "name": "setApprovalForAll",
      "outputs": [],
      "stateMutability": "nonpayable",
      "type": "function"
    },
    {
      "inputs": [
        {
          "internalType": "bytes4",
          "name": "interfaceId",
          "type": "bytes4"
        }
      ],
      "name": "supportsInterface",
      "outputs": [
        {
          "internalType": "bool",
          "name": "",
          "type": "bool"
        }
      ],
      "stateMutability": "view",
      "type": "function"
    },
    {
      "inputs": [],
      "name": "symbol",
      "outputs": [
        {
          "internalType": "string",
          "name": "",
          "type": "string"
        }
      ],
      "stateMutability": "view",
      "type": "function"
    },
    {
      "inputs": [
        {
          "internalType": "uint256",
          "name": "tokenId",
          "type": "uint256"
        }
      ],
      "name": "tokenURI",
      "outputs": [
        {
          "internalType": "string",
          "name": "",
          "type": "string"
        }
      ],
      "stateMutability": "view",
      "type": "function"
    },
    {
      "inputs": [
        {
          "internalType": "address",
          "name": "from",
          "type": "address"
        },
        {
          "internalType": "address",
          "name": "to",
          "type": "address"
        },
        {
          "internalType": "uint256",
          "name": "tokenId",
          "type": "uint256"
        }
      ],
      "name": "transferFrom",
      "outputs": [],
      "stateMutability": "nonpayable",
      "type": "function"
    },
    {
      "inputs": [
        {
          "internalType": "address",
          "name": "newOwner",
          "type": "address"
        }
      ],
      "name": "transferOwnership",
      "outputs": [],
      "stateMutability": "nonpayable",
      "type": "function"
    }
  ],
  "bytecode": "0x60806040526000600e553480156200001657600080fd5b5060405162004df938038062004df983398181016040528101906200003c91906200048d565b600780546200004b906200062d565b80601f016020809104026020016040519081016040528092919081815260200182805462000079906200062d565b8015620000ca5780601f106200009e57610100808354040283529160200191620000ca565b820191906000526020600020905b815481529060010190602001808311620000ac57829003601f168201915b505050505060078054620000de906200062d565b80601f01602080910402602001604051908101604052809291908181526020018280546200010c906200062d565b80156200015d5780601f1062000131576101008083540402835291602001916200015d565b820191906000526020600020905b8154815290600101906020018083116200013f57829003601f168201915b505050505081600090805190602001906200017a9291906200033d565b508060019080519060200190620001939291906200033d565b505050620001b6620001aa6200026f60201b60201c565b6200027760201b60201c565b83600860006101000a81548173ffffffffffffffffffffffffffffffffffffffff021916908373ffffffffffffffffffffffffffffffffffffffff16021790555084600790805190602001906200020f9291906200033d565b5082600a819055506001600b60006101000a81548160ff02191690831515021790555081600c90805190602001906200024a9291906200033d565b5080600d9080519060200190620002639291906200033d565b5050505050506200073c565b600033905090565b6000600660009054906101000a900473ffffffffffffffffffffffffffffffffffffffff16905081600660006101000a81548173ffffffffffffffffffffffffffffffffffffffff021916908373ffffffffffffffffffffffffffffffffffffffff1602179055508173ffffffffffffffffffffffffffffffffffffffff168173ffffffffffffffffffffffffffffffffffffffff167f8be0079c531659141344cd1fd0a4f28419497f9722a3daafe3b4186f6b6457e060405160405180910390a35050565b8280546200034b906200062d565b90600052602060002090601f0160209004810192826200036f5760008555620003bb565b82601f106200038a57805160ff1916838001178555620003bb565b82800160010185558215620003bb579182015b82811115620003ba5782518255916020019190600101906200039d565b5b509050620003ca9190620003ce565b5090565b5b80821115620003e9576000816000905550600101620003cf565b5090565b600062000404620003fe8462000583565b6200055a565b9050828152602081018484840111156200041d57600080fd5b6200042a848285620005f7565b509392505050565b600081519050620004438162000708565b92915050565b600082601f8301126200045b57600080fd5b81516200046d848260208601620003ed565b91505092915050565b600081519050620004878162000722565b92915050565b600080600080600060a08688031215620004a657600080fd5b600086015167ffffffffffffffff811115620004c157600080fd5b620004cf8882890162000449565b9550506020620004e28882890162000432565b9450506040620004f58882890162000476565b935050606086015167ffffffffffffffff8111156200051357600080fd5b620005218882890162000449565b925050608086015167ffffffffffffffff8111156200053f57600080fd5b6200054d8882890162000449565b9150509295509295909350565b60006200056662000579565b905062000574828262000663565b919050565b6000604051905090565b600067ffffffffffffffff821115620005a157620005a0620006c8565b5b620005ac82620006f7565b9050602081019050919050565b6000620005c682620005cd565b9050919050565b600073ffffffffffffffffffffffffffffffffffffffff82169050919050565b6000819050919050565b60005b8381101562000617578082015181840152602081019050620005fa565b8381111562000627576000848401525b50505050565b600060028204905060018216806200064657607f821691505b602082108114156200065d576200065c62000699565b5b50919050565b6200066e82620006f7565b810181811067ffffffffffffffff8211171562000690576200068f620006c8565b5b80604052505050565b7f4e487b7100000000000000000000000000000000000000000000000000000000600052602260045260246000fd5b7f4e487b7100000000000000000000000000000000000000000000000000000000600052604160045260246000fd5b6000601f19601f8301169050919050565b6200071381620005b9565b81146200071f57600080fd5b50565b6200072d81620005ed565b81146200073957600080fd5b50565b6146ad806200074c6000396000f3fe608060405234801561001057600080fd5b506004361061014d5760003560e01c8063793cd71e116100c3578063c87b56dd1161007c578063c87b56dd1461036a578063e8a3d4851461039a578063e985e9c5146103b8578063efbe1c1c146103e8578063f2fde38b146103f2578063f8626af81461040e5761014d565b8063793cd71e146102d05780638d59d1f1146102da5780638da5cb5b146102f657806395d89b4114610314578063a22cb46514610332578063b88d4fde1461034e5761014d565b806329f11c8d1161011557806329f11c8d14610208578063370158ea1461022457806342842e0e1461024a5780636352211e1461026657806370a0823114610296578063715018a6146102c65761014d565b806301ffc9a71461015257806306fdde0314610182578063081812fc146101a0578063095ea7b3146101d057806323b872dd146101ec575b600080fd5b61016c60048036038101906101679190612ca3565b610440565b60405161017991906134cb565b60405180910390f35b61018a610522565b60405161019791906134e6565b60405180910390f35b6101ba60048036038101906101b59190612cf5565b6105b4565b6040516101c79190613404565b60405180910390f35b6101ea60048036038101906101e59190612c3e565b610639565b005b61020660048036038101906102019190612b38565b610751565b005b610222600480360381019061021d9190612d9b565b6107b1565b005b61022c6108f1565b60405161024199989796959493929190613508565b60405180910390f35b610264600480360381019061025f9190612b38565b610b02565b005b610280600480360381019061027b9190612cf5565b610b22565b60405161028d9190613404565b60405180910390f35b6102b060048036038101906102ab9190612ad3565b610bd4565b6040516102bd91906137ca565b60405180910390f35b6102ce610c8c565b005b6102d8610d14565b005b6102f460048036038101906102ef9190612d47565b610eec565b005b6102fe611178565b60405161030b9190613404565b60405180910390f35b61031c6111a2565b60405161032991906134e6565b60405180910390f35b61034c60048036038101906103479190612c02565b611234565b005b61036860048036038101906103639190612b87565b61124a565b005b610384600480360381019061037f9190612cf5565b6112ac565b60405161039191906134e6565b60405180910390f35b6103a2611398565b6040516103af91906134e6565b60405180910390f35b6103d260048036038101906103cd9190612afc565b61142a565b6040516103df91906134cb565b60405180910390f35b6103f06114be565b005b61040c60048036038101906104079190612ad3565b6115da565b005b61042860048036038101906104239190612cf5565b6116d2565b60405161043793929190613815565b60405180910390f35b60007f80ac58cd000000000000000000000000000000000000000000000000000000007bffffffffffffffffffffffffffffffffffffffffffffffffffffffff1916827bffffffffffffffffffffffffffffffffffffffffffffffffffffffff1916148061050b57507f5b5e139f000000000000000000000000000000000000000000000000000000007bffffffffffffffffffffffffffffffffffffffffffffffffffffffff1916827bffffffffffffffffffffffffffffffffffffffffffffffffffffffff1916145b8061051b575061051a826117a4565b5b9050919050565b60606000805461053190613d97565b80601f016020809104026020016040519081016040528092919081815260200182805461055d90613d97565b80156105aa5780601f1061057f576101008083540402835291602001916105aa565b820191906000526020600020905b81548152906001019060200180831161058d57829003601f168201915b5050505050905090565b60006105bf8261180e565b6105fe576040517f08c379a00000000000000000000000000000000000000000000000000000000081526004016105f59061370a565b60405180910390fd5b6004600083815260200190815260200160002060009054906101000a900473ffffffffffffffffffffffffffffffffffffffff169050919050565b600061064482610b22565b90508073ffffffffffffffffffffffffffffffffffffffff168373ffffffffffffffffffffffffffffffffffffffff1614156106b5576040517f08c379a00000000000000000000000000000000000000000000000000000000081526004016106ac9061378a565b60405180910390fd5b8073ffffffffffffffffffffffffffffffffffffffff166106d461187a565b73ffffffffffffffffffffffffffffffffffffffff1614806107035750610702816106fd61187a565b61142a565b5b610742576040517f08c379a00000000000000000000000000000000000000000000000000000000081526004016107399061366a565b60405180910390fd5b61074c8383611882565b505050565b61076261075c61187a565b8261193b565b6107a1576040517f08c379a0000000000000000000000000000000000000000000000000000000008152600401610798906137aa565b60405180910390fd5b6107ac838383611a19565b505050565b6107b961187a565b73ffffffffffffffffffffffffffffffffffffffff166107d7611178565b73ffffffffffffffffffffffffffffffffffffffff161461082d576040517f08c379a00000000000000000000000000000000000000000000000000000000081526004016108249061372a565b60405180910390fd5b600b60009054906101000a900460ff1661087c576040517f08c379a0000000000000000000000000000000000000000000000000000000008152600401610873906136ca565b60405180910390fd5b82600a8190555081600c90805190602001906108999291906128cd565b5080600d90805190602001906108b09291906128cd565b507febfc45ee499cc06d22f0756c8582eb09b1672b8ca238a18a7bea40f7071a81a48383836040516108e493929190613853565b60405180910390a1505050565b6060600080600080600060608060006007805461090d90613d97565b80601f016020809104026020016040519081016040528092919081815260200182805461093990613d97565b80156109865780601f1061095b57610100808354040283529160200191610986565b820191906000526020600020905b81548152906001019060200180831161096957829003601f168201915b50505050509850600860009054906101000a900473ffffffffffffffffffffffffffffffffffffffff1697506109ba611178565b96506009549550600a549450600b60009054906101000a900460ff169350600c80546109e590613d97565b80601f0160208091040260200160405190810160405280929190818152602001828054610a1190613d97565b8015610a5e5780601f10610a3357610100808354040283529160200191610a5e565b820191906000526020600020905b815481529060010190602001808311610a4157829003601f168201915b50505050509250600d8054610a7290613d97565b80601f0160208091040260200160405190810160405280929190818152602001828054610a9e90613d97565b8015610aeb5780601f10610ac057610100808354040283529160200191610aeb565b820191906000526020600020905b815481529060010190602001808311610ace57829003601f168201915b50505050509150600e549050909192939495969798565b610b1d8383836040518060200160405280600081525061124a565b505050565b6000806002600084815260200190815260200160002060009054906101000a900473ffffffffffffffffffffffffffffffffffffffff169050600073ffffffffffffffffffffffffffffffffffffffff168173ffffffffffffffffffffffffffffffffffffffff161415610bcb576040517f08c379a0000000000000000000000000000000000000000000000000000000008152600401610bc2906136aa565b60405180910390fd5b80915050919050565b60008073ffffffffffffffffffffffffffffffffffffffff168273ffffffffffffffffffffffffffffffffffffffff161415610c45576040517f08c379a0000000000000000000000000000000000000000000000000000000008152600401610c3c9061368a565b60405180910390fd5b600360008373ffffffffffffffffffffffffffffffffffffffff1673ffffffffffffffffffffffffffffffffffffffff168152602001908152602001600020549050919050565b610c9461187a565b73ffffffffffffffffffffffffffffffffffffffff16610cb2611178565b73ffffffffffffffffffffffffffffffffffffffff1614610d08576040517f08c379a0000000000000000000000000000000000000000000000000000000008152600401610cff9061372a565b60405180910390fd5b610d126000611c75565b565b610d1c61187a565b73ffffffffffffffffffffffffffffffffffffffff16610d3a611178565b73ffffffffffffffffffffffffffffffffffffffff1614610d90576040517f08c379a0000000000000000000000000000000000000000000000000000000008152600401610d879061372a565b60405180910390fd5b600860009054906101000a900473ffffffffffffffffffffffffffffffffffffffff1673ffffffffffffffffffffffffffffffffffffffff1663a9059cbb33600860009054906101000a900473ffffffffffffffffffffffffffffffffffffffff1673ffffffffffffffffffffffffffffffffffffffff166370a08231306040518263ffffffff1660e01b8152600401610e2a9190613404565b60206040518083038186803b158015610e4257600080fd5b505afa158015610e56573d6000803e3d6000fd5b505050506040513d601f19601f82011682018060405250810190610e7a9190612d1e565b6040518363ffffffff1660e01b8152600401610e979291906134a2565b602060405180830381600087803b158015610eb157600080fd5b505af1158015610ec5573d6000803e3d6000fd5b505050506040513d601f19601f82011682018060405250810190610ee99190612c7a565b50565b600b60009054906101000a900460ff16610f3b576040517f08c379a0000000000000000000000000000000000000000000000000000000008152600401610f32906136ca565b60405180910390fd5b60008211610f7e576040517f08c379a0000000000000000000000000000000000000000000000000000000008152600401610f759061374a565b60405180910390fd5b600860009054906101000a900473ffffffffffffffffffffffffffffffffffffffff1673ffffffffffffffffffffffffffffffffffffffff166323b872dd3330856040518463ffffffff1660e01b8152600401610fdd9392919061341f565b602060405180830381600087803b158015610ff757600080fd5b505af115801561100b573d6000803e3d6000fd5b505050506040513d601f19601f8201168201806040525081019061102f9190612c7a565b5081600960008282546110429190613977565b92505081905550600e600081548092919061105c90613dfa565b919050555061106d33600e54611d3b565b60405180606001604052808381526020018281526020013373ffffffffffffffffffffffffffffffffffffffff16815250600f6000600e5481526020019081526020016000206000820151816000015560208201518160010190805190602001906110d99291906128cd565b5060408201518160020160006101000a81548173ffffffffffffffffffffffffffffffffffffffff021916908373ffffffffffffffffffffffffffffffffffffffff1602179055509050503373ffffffffffffffffffffffffffffffffffffffff167f5474ce903c2cd33b4ad8b830da193f8bf2db9c281f64fc473a02665b9dc2d20b838360405161116c9291906137e5565b60405180910390a25050565b6000600660009054906101000a900473ffffffffffffffffffffffffffffffffffffffff16905090565b6060600180546111b190613d97565b80601f01602080910402602001604051908101604052809291908181526020018280546111dd90613d97565b801561122a5780601f106111ff5761010080835404028352916020019161122a565b820191906000526020600020905b81548152906001019060200180831161120d57829003601f168201915b5050505050905090565b61124661123f61187a565b8383611d59565b5050565b61125b61125561187a565b8361193b565b61129a576040517f08c379a0000000000000000000000000000000000000000000000000000000008152600401611291906137aa565b60405180910390fd5b6112a684848484611ec6565b50505050565b6060611372600d6112bc84611f22565b600f600086815260200190815260200160002060010160076112f3600f600089815260200190815260200160002060000154611f22565b600f6000898152602001908152602001600020600101611348600f60008b815260200190815260200160002060020160009054906101000a900473ffffffffffffffffffffffffffffffffffffffff166120cf565b60405160200161135e979695949392919061333c565b604051602081830303815290604052612304565b604051602001611382919061331a565b6040516020818303038152906040529050919050565b6060600c80546113a790613d97565b80601f01602080910402602001604051908101604052809291908181526020018280546113d390613d97565b80156114205780601f106113f557610100808354040283529160200191611420565b820191906000526020600020905b81548152906001019060200180831161140357829003601f168201915b5050505050905090565b6000600560008473ffffffffffffffffffffffffffffffffffffffff1673ffffffffffffffffffffffffffffffffffffffff16815260200190815260200160002060008373ffffffffffffffffffffffffffffffffffffffff1673ffffffffffffffffffffffffffffffffffffffff16815260200190815260200160002060009054906101000a900460ff16905092915050565b6114c661187a565b73ffffffffffffffffffffffffffffffffffffffff166114e4611178565b73ffffffffffffffffffffffffffffffffffffffff161461153a576040517f08c379a00000000000000000000000000000000000000000000000000000000081526004016115319061372a565b60405180910390fd5b600b60009054906101000a900460ff16611589576040517f08c379a0000000000000000000000000000000000000000000000000000000008152600401611580906136ca565b60405180910390fd5b6000600b60006101000a81548160ff0219169083151502179055506115ac610d14565b7f06e649079f276fcfc97b1e5cbfbb65937dac6a51ee164e3190e707e27ff345fa60405160405180910390a1565b6115e261187a565b73ffffffffffffffffffffffffffffffffffffffff16611600611178565b73ffffffffffffffffffffffffffffffffffffffff1614611656576040517f08c379a000000000000000000000000000000000000000000000000000000000815260040161164d9061372a565b60405180910390fd5b600073ffffffffffffffffffffffffffffffffffffffff168173ffffffffffffffffffffffffffffffffffffffff1614156116c6576040517f08c379a00000000000000000000000000000000000000000000000000000000081526004016116bd906135ca565b60405180910390fd5b6116cf81611c75565b50565b600f6020528060005260406000206000915090508060000154908060010180546116fb90613d97565b80601f016020809104026020016040519081016040528092919081815260200182805461172790613d97565b80156117745780601f1061174957610100808354040283529160200191611774565b820191906000526020600020905b81548152906001019060200180831161175757829003601f168201915b5050505050908060020160009054906101000a900473ffffffffffffffffffffffffffffffffffffffff16905083565b60007f01ffc9a7000000000000000000000000000000000000000000000000000000007bffffffffffffffffffffffffffffffffffffffffffffffffffffffff1916827bffffffffffffffffffffffffffffffffffffffffffffffffffffffff1916149050919050565b60008073ffffffffffffffffffffffffffffffffffffffff166002600084815260200190815260200160002060009054906101000a900473ffffffffffffffffffffffffffffffffffffffff1673ffffffffffffffffffffffffffffffffffffffff1614159050919050565b600033905090565b816004600083815260200190815260200160002060006101000a81548173ffffffffffffffffffffffffffffffffffffffff021916908373ffffffffffffffffffffffffffffffffffffffff160217905550808273ffffffffffffffffffffffffffffffffffffffff166118f583610b22565b73ffffffffffffffffffffffffffffffffffffffff167f8c5be1e5ebec7d5bd14f71427d1e84f3dd0314c0f7b2291e5b200ac8c7c3b92560405160405180910390a45050565b60006119468261180e565b611985576040517f08c379a000000000000000000000000000000000000000000000000000000000815260040161197c9061364a565b60405180910390fd5b600061199083610b22565b90508073ffffffffffffffffffffffffffffffffffffffff168473ffffffffffffffffffffffffffffffffffffffff1614806119ff57508373ffffffffffffffffffffffffffffffffffffffff166119e7846105b4565b73ffffffffffffffffffffffffffffffffffffffff16145b80611a105750611a0f818561142a565b5b91505092915050565b8273ffffffffffffffffffffffffffffffffffffffff16611a3982610b22565b73ffffffffffffffffffffffffffffffffffffffff1614611a8f576040517f08c379a0000000000000000000000000000000000000000000000000000000008152600401611a869061376a565b60405180910390fd5b600073ffffffffffffffffffffffffffffffffffffffff168273ffffffffffffffffffffffffffffffffffffffff161415611aff576040517f08c379a0000000000000000000000000000000000000000000000000000000008152600401611af69061360a565b60405180910390fd5b611b0a8383836124af565b611b15600082611882565b6001600360008573ffffffffffffffffffffffffffffffffffffffff1673ffffffffffffffffffffffffffffffffffffffff1681526020019081526020016000206000828254611b659190613c6c565b925050819055506001600360008473ffffffffffffffffffffffffffffffffffffffff1673ffffffffffffffffffffffffffffffffffffffff1681526020019081526020016000206000828254611bbc9190613977565b92505081905550816002600083815260200190815260200160002060006101000a81548173ffffffffffffffffffffffffffffffffffffffff021916908373ffffffffffffffffffffffffffffffffffffffff160217905550808273ffffffffffffffffffffffffffffffffffffffff168473ffffffffffffffffffffffffffffffffffffffff167fddf252ad1be2c89b69c2b068fc378daa952ba7f163c4a11628f55a4df523b3ef60405160405180910390a4505050565b6000600660009054906101000a900473ffffffffffffffffffffffffffffffffffffffff16905081600660006101000a81548173ffffffffffffffffffffffffffffffffffffffff021916908373ffffffffffffffffffffffffffffffffffffffff1602179055508173ffffffffffffffffffffffffffffffffffffffff168173ffffffffffffffffffffffffffffffffffffffff167f8be0079c531659141344cd1fd0a4f28419497f9722a3daafe3b4186f6b6457e060405160405180910390a35050565b611d558282604051806020016040528060008152506124b4565b5050565b8173ffffffffffffffffffffffffffffffffffffffff168373ffffffffffffffffffffffffffffffffffffffff161415611dc8576040517f08c379a0000000000000000000000000000000000000000000000000000000008152600401611dbf9061362a565b60405180910390fd5b80600560008573ffffffffffffffffffffffffffffffffffffffff1673ffffffffffffffffffffffffffffffffffffffff16815260200190815260200160002060008473ffffffffffffffffffffffffffffffffffffffff1673ffffffffffffffffffffffffffffffffffffffff16815260200190815260200160002060006101000a81548160ff0219169083151502179055508173ffffffffffffffffffffffffffffffffffffffff168373ffffffffffffffffffffffffffffffffffffffff167f17307eab39ab6107e8899845ad3d59bd9653f200f220920489ca2b5937696c3183604051611eb991906134cb565b60405180910390a3505050565b611ed1848484611a19565b611edd8484848461250f565b611f1c576040517f08c379a0000000000000000000000000000000000000000000000000000000008152600401611f13906135aa565b60405180910390fd5b50505050565b60606000821415611f6a576040518060400160405280600181526020017f300000000000000000000000000000000000000000000000000000000000000081525090506120ca565b600082905060005b60008214611f9c578080611f8590613dfa565b915050600a82611f959190613a04565b9150611f72565b60008167ffffffffffffffff811115611fde577f4e487b7100000000000000000000000000000000000000000000000000000000600052604160045260246000fd5b6040519080825280601f01601f1916602001820160405280156120105781602001600182028036833780820191505090505b5090505b600085146120c3576001826120299190613c6c565b9150600a856120389190613e43565b60306120449190613977565b60f81b818381518110612080577f4e487b7100000000000000000000000000000000000000000000000000000000600052603260045260246000fd5b60200101907effffffffffffffffffffffffffffffffffffffffffffffffffffffffffffff1916908160001a905350600a856120bc9190613a04565b9450612014565b8093505050505b919050565b60606000602867ffffffffffffffff811115612114577f4e487b7100000000000000000000000000000000000000000000000000000000600052604160045260246000fd5b6040519080825280601f01601f1916602001820160405280156121465781602001600182028036833780820191505090505b50905060005b60148110156122fa5760008160136121649190613c6c565b60086121709190613bd7565b600261217c9190613ab9565b8573ffffffffffffffffffffffffffffffffffffffff1661219d9190613a04565b60f81b9050600060108260f81c6121b49190613a35565b60f81b905060008160f81c60106121cb9190613c31565b8360f81c6121d99190613ca0565b60f81b90506121e7826126a6565b858560026121f59190613bd7565b8151811061222c577f4e487b7100000000000000000000000000000000000000000000000000000000600052603260045260246000fd5b60200101907effffffffffffffffffffffffffffffffffffffffffffffffffffffffffffff1916908160001a905350612264816126a6565b8560018660026122749190613bd7565b61227e9190613977565b815181106122b5577f4e487b7100000000000000000000000000000000000000000000000000000000600052603260045260246000fd5b60200101907effffffffffffffffffffffffffffffffffffffffffffffffffffffffffffff1916908160001a90535050505080806122f290613dfa565b91505061214c565b5080915050919050565b6060600082511415612327576040518060200160405280600081525090506124aa565b600060405180606001604052806040815260200161463860409139905060006003600285516123569190613977565b6123609190613a04565b600461236c9190613bd7565b9050600060208261237d9190613977565b67ffffffffffffffff8111156123bc577f4e487b7100000000000000000000000000000000000000000000000000000000600052604160045260246000fd5b6040519080825280601f01601f1916602001820160405280156123ee5781602001600182028036833780820191505090505b509050818152600183018586518101602084015b81831015612469576003830192508251603f8160121c1685015160f81b8252600182019150603f81600c1c1685015160f81b8252600182019150603f8160061c1685015160f81b8252600182019150603f811685015160f81b825260018201915050612402565b60038951066001811461248357600281146124935761249e565b613d3d60f01b600283035261249e565b603d60f81b60018303525b50505050508093505050505b919050565b505050565b6124be83836126ec565b6124cb600084848461250f565b61250a576040517f08c379a0000000000000000000000000000000000000000000000000000000008152600401612501906135aa565b60405180910390fd5b505050565b60006125308473ffffffffffffffffffffffffffffffffffffffff166128ba565b15612699578373ffffffffffffffffffffffffffffffffffffffff1663150b7a0261255961187a565b8786866040518563ffffffff1660e01b815260040161257b9493929190613456565b602060405180830381600087803b15801561259557600080fd5b505af19250505080156125c657506040513d601f19601f820116820180604052508101906125c39190612ccc565b60015b612649573d80600081146125f6576040519150601f19603f3d011682016040523d82523d6000602084013e6125fb565b606091505b50600081511415612641576040517f08c379a0000000000000000000000000000000000000000000000000000000008152600401612638906135aa565b60405180910390fd5b805181602001fd5b63150b7a0260e01b7bffffffffffffffffffffffffffffffffffffffffffffffffffffffff1916817bffffffffffffffffffffffffffffffffffffffffffffffffffffffff19161491505061269e565b600190505b949350505050565b6000600a8260f81c60ff1610156126d15760308260f81c6126c791906139cd565b60f81b90506126e7565b60578260f81c6126e191906139cd565b60f81b90505b919050565b600073ffffffffffffffffffffffffffffffffffffffff168273ffffffffffffffffffffffffffffffffffffffff16141561275c576040517f08c379a0000000000000000000000000000000000000000000000000000000008152600401612753906136ea565b60405180910390fd5b6127658161180e565b156127a5576040517f08c379a000000000000000000000000000000000000000000000000000000000815260040161279c906135ea565b60405180910390fd5b6127b1600083836124af565b6001600360008473ffffffffffffffffffffffffffffffffffffffff1673ffffffffffffffffffffffffffffffffffffffff16815260200190815260200160002060008282546128019190613977565b92505081905550816002600083815260200190815260200160002060006101000a81548173ffffffffffffffffffffffffffffffffffffffff021916908373ffffffffffffffffffffffffffffffffffffffff160217905550808273ffffffffffffffffffffffffffffffffffffffff16600073ffffffffffffffffffffffffffffffffffffffff167fddf252ad1be2c89b69c2b068fc378daa952ba7f163c4a11628f55a4df523b3ef60405160405180910390a45050565b600080823b905060008111915050919050565b8280546128d990613d97565b90600052602060002090601f0160209004810192826128fb5760008555612942565b82601f1061291457805160ff1916838001178555612942565b82800160010185558215612942579182015b82811115612941578251825591602001919060010190612926565b5b50905061294f9190612953565b5090565b5b8082111561296c576000816000905550600101612954565b5090565b600061298361297e846138bd565b613898565b90508281526020810184848401111561299b57600080fd5b6129a6848285613d55565b509392505050565b60006129c16129bc846138ee565b613898565b9050828152602081018484840111156129d957600080fd5b6129e4848285613d55565b509392505050565b6000813590506129fb816145db565b92915050565b600081359050612a10816145f2565b92915050565b600081519050612a25816145f2565b92915050565b600081359050612a3a81614609565b92915050565b600081519050612a4f81614609565b92915050565b600082601f830112612a6657600080fd5b8135612a76848260208601612970565b91505092915050565b600082601f830112612a9057600080fd5b8135612aa08482602086016129ae565b91505092915050565b600081359050612ab881614620565b92915050565b600081519050612acd81614620565b92915050565b600060208284031215612ae557600080fd5b6000612af3848285016129ec565b91505092915050565b60008060408385031215612b0f57600080fd5b6000612b1d858286016129ec565b9250506020612b2e858286016129ec565b9150509250929050565b600080600060608486031215612b4d57600080fd5b6000612b5b868287016129ec565b9350506020612b6c868287016129ec565b9250506040612b7d86828701612aa9565b9150509250925092565b60008060008060808587031215612b9d57600080fd5b6000612bab878288016129ec565b9450506020612bbc878288016129ec565b9350506040612bcd87828801612aa9565b925050606085013567ffffffffffffffff811115612bea57600080fd5b612bf687828801612a55565b91505092959194509250565b60008060408385031215612c1557600080fd5b6000612c23858286016129ec565b9250506020612c3485828601612a01565b9150509250929050565b60008060408385031215612c5157600080fd5b6000612c5f858286016129ec565b9250506020612c7085828601612aa9565b9150509250929050565b600060208284031215612c8c57600080fd5b6000612c9a84828501612a16565b91505092915050565b600060208284031215612cb557600080fd5b6000612cc384828501612a2b565b91505092915050565b600060208284031215612cde57600080fd5b6000612cec84828501612a40565b91505092915050565b600060208284031215612d0757600080fd5b6000612d1584828501612aa9565b91505092915050565b600060208284031215612d3057600080fd5b6000612d3e84828501612abe565b91505092915050565b60008060408385031215612d5a57600080fd5b6000612d6885828601612aa9565b925050602083013567ffffffffffffffff811115612d8557600080fd5b612d9185828601612a7f565b9150509250929050565b600080600060608486031215612db057600080fd5b6000612dbe86828701612aa9565b935050602084013567ffffffffffffffff811115612ddb57600080fd5b612de786828701612a7f565b925050604084013567ffffffffffffffff811115612e0457600080fd5b612e1086828701612a7f565b9150509250925092565b612e2381613cd4565b82525050565b612e3281613ce6565b82525050565b6000612e4382613934565b612e4d818561394a565b9350612e5d818560208601613d64565b612e6681613f30565b840191505092915050565b6000612e7c8261393f565b612e86818561395b565b9350612e96818560208601613d64565b612e9f81613f30565b840191505092915050565b6000612eb58261393f565b612ebf818561396c565b9350612ecf818560208601613d64565b80840191505092915050565b60008154612ee881613d97565b612ef2818661396c565b94506001821660008114612f0d5760018114612f1e57612f51565b60ff19831686528186019350612f51565b612f278561391f565b60005b83811015612f4957815481890152600182019150602081019050612f2a565b838801955050505b50505092915050565b6000612f6760328361395b565b9150612f7282613f4e565b604082019050919050565b6000612f8a60268361395b565b9150612f9582613f9d565b604082019050919050565b6000612fad601c8361395b565b9150612fb882613fec565b602082019050919050565b6000612fd060238361396c565b9150612fdb82614015565b602382019050919050565b6000612ff360248361395b565b9150612ffe82614064565b604082019050919050565b600061301660198361395b565b9150613021826140b3565b602082019050919050565b600061303960038361396c565b9150613044826140dc565b600382019050919050565b600061305c602c8361395b565b915061306782614105565b604082019050919050565b600061307f60388361395b565b915061308a82614154565b604082019050919050565b60006130a2602a8361395b565b91506130ad826141a3565b604082019050919050565b60006130c560298361395b565b91506130d0826141f2565b604082019050919050565b60006130e860168361396c565b91506130f382614241565b601682019050919050565b600061310b60138361395b565b91506131168261426a565b602082019050919050565b600061312e60208361395b565b915061313982614293565b602082019050919050565b600061315160018361396c565b915061315c826142bc565b600182019050919050565b6000613174602f8361396c565b915061317f826142e5565b602f82019050919050565b6000613197602c8361395b565b91506131a282614334565b604082019050919050565b60006131ba60128361396c565b91506131c582614383565b601282019050919050565b60006131dd60208361395b565b91506131e8826143ac565b602082019050919050565b600061320060148361395b565b915061320b826143d5565b602082019050919050565b600061322360298361395b565b915061322e826143fe565b604082019050919050565b600061324660218361395b565b91506132518261444d565b604082019050919050565b600061326960348361396c565b91506132748261449c565b603482019050919050565b600061328c601d8361396c565b9150613297826144eb565b601d82019050919050565b60006132af60318361395b565b91506132ba82614514565b604082019050919050565b60006132d2600a8361396c565b91506132dd82614563565b600a82019050919050565b60006132f560288361396c565b91506133008261458c565b602882019050919050565b61331481613d3e565b82525050565b60006133258261327f565b91506133318284612eaa565b915081905092915050565b6000613347826132c5565b9150613353828a612edb565b915061335e826130db565b915061336a8289612eaa565b9150613375826131ad565b91506133818288612edb565b915061338c826132e8565b91506133988287612edb565b91506133a38261325c565b91506133af8286612eaa565b91506133ba82612fc3565b91506133c68285612edb565b91506133d182613167565b91506133dd8284612eaa565b91506133e88261302c565b91506133f382613144565b915081905098975050505050505050565b60006020820190506134196000830184612e1a565b92915050565b60006060820190506134346000830186612e1a565b6134416020830185612e1a565b61344e604083018461330b565b949350505050565b600060808201905061346b6000830187612e1a565b6134786020830186612e1a565b613485604083018561330b565b81810360608301526134978184612e38565b905095945050505050565b60006040820190506134b76000830185612e1a565b6134c4602083018461330b565b9392505050565b60006020820190506134e06000830184612e29565b92915050565b600060208201905081810360008301526135008184612e71565b905092915050565b6000610120820190508181036000830152613523818c612e71565b9050613532602083018b612e1a565b61353f604083018a612e1a565b61354c606083018961330b565b613559608083018861330b565b61356660a0830187612e29565b81810360c08301526135788186612e71565b905081810360e083015261358c8185612e71565b905061359c61010083018461330b565b9a9950505050505050505050565b600060208201905081810360008301526135c381612f5a565b9050919050565b600060208201905081810360008301526135e381612f7d565b9050919050565b6000602082019050818103600083015261360381612fa0565b9050919050565b6000602082019050818103600083015261362381612fe6565b9050919050565b6000602082019050818103600083015261364381613009565b9050919050565b600060208201905081810360008301526136638161304f565b9050919050565b6000602082019050818103600083015261368381613072565b9050919050565b600060208201905081810360008301526136a381613095565b9050919050565b600060208201905081810360008301526136c3816130b8565b9050919050565b600060208201905081810360008301526136e3816130fe565b9050919050565b6000602082019050818103600083015261370381613121565b9050919050565b600060208201905081810360008301526137238161318a565b9050919050565b60006020820190508181036000830152613743816131d0565b9050919050565b60006020820190508181036000830152613763816131f3565b9050919050565b6000602082019050818103600083015261378381613216565b9050919050565b600060208201905081810360008301526137a381613239565b9050919050565b600060208201905081810360008301526137c3816132a2565b9050919050565b60006020820190506137df600083018461330b565b92915050565b60006040820190506137fa600083018561330b565b818103602083015261380c8184612e71565b90509392505050565b600060608201905061382a600083018661330b565b818103602083015261383c8185612e71565b905061384b6040830184612e1a565b949350505050565b6000606082019050613868600083018661330b565b818103602083015261387a8185612e71565b9050818103604083015261388e8184612e71565b9050949350505050565b60006138a26138b3565b90506138ae8282613dc9565b919050565b6000604051905090565b600067ffffffffffffffff8211156138d8576138d7613f01565b5b6138e182613f30565b9050602081019050919050565b600067ffffffffffffffff82111561390957613908613f01565b5b61391282613f30565b9050602081019050919050565b60008190508160005260206000209050919050565b600081519050919050565b600081519050919050565b600082825260208201905092915050565b600082825260208201905092915050565b600081905092915050565b600061398282613d3e565b915061398d83613d3e565b9250827fffffffffffffffffffffffffffffffffffffffffffffffffffffffffffffffff038211156139c2576139c1613e74565b5b828201905092915050565b60006139d882613d48565b91506139e383613d48565b92508260ff038211156139f9576139f8613e74565b5b828201905092915050565b6000613a0f82613d3e565b9150613a1a83613d3e565b925082613a2a57613a29613ea3565b5b828204905092915050565b6000613a4082613d48565b9150613a4b83613d48565b925082613a5b57613a5a613ea3565b5b828204905092915050565b6000808291508390505b6001851115613ab057808604811115613a8c57613a8b613e74565b5b6001851615613a9b5780820291505b8081029050613aa985613f41565b9450613a70565b94509492505050565b6000613ac482613d3e565b9150613acf83613d3e565b9250613afc7fffffffffffffffffffffffffffffffffffffffffffffffffffffffffffffffff8484613b04565b905092915050565b600082613b145760019050613bd0565b81613b225760009050613bd0565b8160018114613b385760028114613b4257613b71565b6001915050613bd0565b60ff841115613b5457613b53613e74565b5b8360020a915084821115613b6b57613b6a613e74565b5b50613bd0565b5060208310610133831016604e8410600b8410161715613ba65782820a905083811115613ba157613ba0613e74565b5b613bd0565b613bb38484846001613a66565b92509050818404811115613bca57613bc9613e74565b5b81810290505b9392505050565b6000613be282613d3e565b9150613bed83613d3e565b9250817fffffffffffffffffffffffffffffffffffffffffffffffffffffffffffffffff0483118215151615613c2657613c25613e74565b5b828202905092915050565b6000613c3c82613d48565b9150613c4783613d48565b92508160ff0483118215151615613c6157613c60613e74565b5b828202905092915050565b6000613c7782613d3e565b9150613c8283613d3e565b925082821015613c9557613c94613e74565b5b828203905092915050565b6000613cab82613d48565b9150613cb683613d48565b925082821015613cc957613cc8613e74565b5b828203905092915050565b6000613cdf82613d1e565b9050919050565b60008115159050919050565b60007fffffffff0000000000000000000000000000000000000000000000000000000082169050919050565b600073ffffffffffffffffffffffffffffffffffffffff82169050919050565b6000819050919050565b600060ff82169050919050565b82818337600083830152505050565b60005b83811015613d82578082015181840152602081019050613d67565b83811115613d91576000848401525b50505050565b60006002820490506001821680613daf57607f821691505b60208210811415613dc357613dc2613ed2565b5b50919050565b613dd282613f30565b810181811067ffffffffffffffff82111715613df157613df0613f01565b5b80604052505050565b6000613e0582613d3e565b91507fffffffffffffffffffffffffffffffffffffffffffffffffffffffffffffffff821415613e3857613e37613e74565b5b600182019050919050565b6000613e4e82613d3e565b9150613e5983613d3e565b925082613e6957613e68613ea3565b5b828206905092915050565b7f4e487b7100000000000000000000000000000000000000000000000000000000600052601160045260246000fd5b7f4e487b7100000000000000000000000000000000000000000000000000000000600052601260045260246000fd5b7f4e487b7100000000000000000000000000000000000000000000000000000000600052602260045260246000fd5b7f4e487b7100000000000000000000000000000000000000000000000000000000600052604160045260246000fd5b6000601f19601f8301169050919050565b60008160011c9050919050565b7f4552433732313a207472616e7366657220746f206e6f6e20455243373231526560008201527f63656976657220696d706c656d656e7465720000000000000000000000000000602082015250565b7f4f776e61626c653a206e6577206f776e657220697320746865207a65726f206160008201527f6464726573730000000000000000000000000000000000000000000000000000602082015250565b7f4552433732313a20746f6b656e20616c7265616479206d696e74656400000000600082015250565b7f7d2c7b2274726169745f74797065223a224d657373616765222c2276616c756560008201527f223a220000000000000000000000000000000000000000000000000000000000602082015250565b7f4552433732313a207472616e7366657220746f20746865207a65726f2061646460008201527f7265737300000000000000000000000000000000000000000000000000000000602082015250565b7f4552433732313a20617070726f766520746f2063616c6c657200000000000000600082015250565b7f227d5d0000000000000000000000000000000000000000000000000000000000600082015250565b7f4552433732313a206f70657261746f7220717565727920666f72206e6f6e657860008201527f697374656e7420746f6b656e0000000000000000000000000000000000000000602082015250565b7f4552433732313a20617070726f76652063616c6c6572206973206e6f74206f7760008201527f6e6572206e6f7220617070726f76656420666f7220616c6c0000000000000000602082015250565b7f4552433732313a2062616c616e636520717565727920666f7220746865207a6560008201527f726f206164647265737300000000000000000000000000000000000000000000602082015250565b7f4552433732313a206f776e657220717565727920666f72206e6f6e657869737460008201527f656e7420746f6b656e0000000000000000000000000000000000000000000000602082015250565b7f222c20226e616d65223a22537570706f72746572202300000000000000000000600082015250565b7f50726f6a656374206e6f74206163746976652100000000000000000000000000600082015250565b7f4552433732313a206d696e7420746f20746865207a65726f2061646472657373600082015250565b7f7d00000000000000000000000000000000000000000000000000000000000000600082015250565b7f227d2c7b2274726169745f74797065223a224f726967696e616c20646f6e617460008201527f6f72222c2276616c7565223a2230780000000000000000000000000000000000602082015250565b7f4552433732313a20617070726f76656420717565727920666f72206e6f6e657860008201527f697374656e7420746f6b656e0000000000000000000000000000000000000000602082015250565b7f222c20226465736372697074696f6e223a220000000000000000000000000000600082015250565b7f4f776e61626c653a2063616c6c6572206973206e6f7420746865206f776e6572600082015250565b7f446f6e6174696f6e20616d6f756e742069732030000000000000000000000000600082015250565b7f4552433732313a207472616e73666572206f6620746f6b656e2074686174206960008201527f73206e6f74206f776e0000000000000000000000000000000000000000000000602082015250565b7f4552433732313a20617070726f76616c20746f2063757272656e74206f776e6560008201527f7200000000000000000000000000000000000000000000000000000000000000602082015250565b7f222c202261747472696275746573223a205b7b2274726169745f74797065223a60008201527f2022446f6e6174696f6e222c2276616c7565223a000000000000000000000000602082015250565b7f646174613a6170706c69636174696f6e2f6a736f6e3b6261736536342c000000600082015250565b7f4552433732313a207472616e736665722063616c6c6572206973206e6f74206f60008201527f776e6572206e6f7220617070726f766564000000000000000000000000000000602082015250565b7f7b22696d616765223a2200000000000000000000000000000000000000000000600082015250565b7f222c202265787465726e616c5f75726c223a2268747470733a2f2f657468646f60008201527f6e2e78797a2f232f000000000000000000000000000000000000000000000000602082015250565b6145e481613cd4565b81146145ef57600080fd5b50565b6145fb81613ce6565b811461460657600080fd5b50565b61461281613cf2565b811461461d57600080fd5b50565b61462981613d3e565b811461463457600080fd5b5056fe4142434445464748494a4b4c4d4e4f505152535455565758595a6162636465666768696a6b6c6d6e6f707172737475767778797a303132333435363738392b2fa264697066735822122041c693d848aeedd9ad8c806133c59cc55ee475c1dd1da4aecfc4160659dddd5564736f6c63430008040033",
  "linkReferences": {},
  "deployedLinkReferences": {}
}