{
  "_format": "hh-sol-artifact-1",
  "contractName": "DonationsToken",
  "sourceName": "contracts/DonationsToken.sol",
  "abi": [
    {
      "inputs": [
        {
          "internalType": "string",
          "name": "_title",
          "type": "string"
        },
        {
          "internalType": "address",
          "name": "_coin",
          "type": "address"
        },
        {
          "internalType": "string",
          "name": "_contractUri",
          "type": "string"
        },
        {
          "internalType": "string",
          "name": "_image",
          "type": "string"
        }
      ],
      "stateMutability": "nonpayable",
      "type": "constructor"
    },
    {
      "anonymous": false,
      "inputs": [
        {
          "indexed": true,
          "internalType": "address",
          "name": "owner",
          "type": "address"
        },
        {
          "indexed": true,
          "internalType": "address",
          "name": "approved",
          "type": "address"
        },
        {
          "indexed": true,
          "internalType": "uint256",
          "name": "tokenId",
          "type": "uint256"
        }
      ],
      "name": "Approval",
      "type": "event"
    },
    {
      "anonymous": false,
      "inputs": [
        {
          "indexed": true,
          "internalType": "address",
          "name": "owner",
          "type": "address"
        },
        {
          "indexed": true,
          "internalType": "address",
          "name": "operator",
          "type": "address"
        },
        {
          "indexed": false,
          "internalType": "bool",
          "name": "approved",
          "type": "bool"
        }
      ],
      "name": "ApprovalForAll",
      "type": "event"
    },
    {
      "anonymous": false,
      "inputs": [
        {
          "indexed": false,
          "internalType": "uint256",
          "name": "amount",
          "type": "uint256"
        }
      ],
      "name": "CashOut",
      "type": "event"
    },
    {
      "anonymous": false,
      "inputs": [],
      "name": "End",
      "type": "event"
    },
    {
      "anonymous": false,
      "inputs": [
        {
          "indexed": false,
          "internalType": "uint256",
          "name": "id",
          "type": "uint256"
        },
        {
          "indexed": false,
          "internalType": "address",
          "name": "sender",
          "type": "address"
        },
        {
          "indexed": false,
          "internalType": "uint256",
          "name": "amount",
          "type": "uint256"
        },
        {
          "indexed": false,
          "internalType": "string",
          "name": "message",
          "type": "string"
        },
        {
          "indexed": false,
          "internalType": "uint256",
          "name": "projectId",
          "type": "uint256"
        }
      ],
      "name": "NewDonation",
      "type": "event"
    },
    {
      "anonymous": false,
      "inputs": [
        {
          "indexed": false,
          "internalType": "string",
          "name": "image",
          "type": "string"
        }
      ],
      "name": "NewProject",
      "type": "event"
    },
    {
      "anonymous": false,
      "inputs": [
        {
          "indexed": true,
          "internalType": "address",
          "name": "previousOwner",
          "type": "address"
        },
        {
          "indexed": true,
          "internalType": "address",
          "name": "newOwner",
          "type": "address"
        }
      ],
      "name": "OwnershipTransferred",
      "type": "event"
    },
    {
      "anonymous": false,
      "inputs": [
        {
          "indexed": false,
          "internalType": "string",
          "name": "contractUri",
          "type": "string"
        }
      ],
      "name": "SetContractURI",
      "type": "event"
    },
    {
      "anonymous": false,
      "inputs": [
        {
          "indexed": true,
          "internalType": "address",
          "name": "from",
          "type": "address"
        },
        {
          "indexed": true,
          "internalType": "address",
          "name": "to",
          "type": "address"
        },
        {
          "indexed": true,
          "internalType": "uint256",
          "name": "tokenId",
          "type": "uint256"
        }
      ],
      "name": "Transfer",
      "type": "event"
    },
    {
      "inputs": [],
      "name": "active",
      "outputs": [
        {
          "internalType": "bool",
          "name": "",
          "type": "bool"
        }
      ],
      "stateMutability": "view",
      "type": "function"
    },
    {
      "inputs": [
        {
          "internalType": "address",
          "name": "to",
          "type": "address"
        },
        {
          "internalType": "uint256",
          "name": "tokenId",
          "type": "uint256"
        }
      ],
      "name": "approve",
      "outputs": [],
      "stateMutability": "nonpayable",
      "type": "function"
    },
    {
      "inputs": [
        {
          "internalType": "address",
          "name": "owner",
          "type": "address"
        }
      ],
      "name": "balanceOf",
      "outputs": [
        {
          "internalType": "uint256",
          "name": "",
          "type": "uint256"
        }
      ],
      "stateMutability": "view",
      "type": "function"
    },
    {
      "inputs": [],
      "name": "cashOut",
      "outputs": [],
      "stateMutability": "nonpayable",
      "type": "function"
    },
    {
      "inputs": [],
      "name": "coin",
      "outputs": [
        {
          "internalType": "contract IERC20",
          "name": "",
          "type": "address"
        }
      ],
      "stateMutability": "view",
      "type": "function"
    },
    {
      "inputs": [],
      "name": "contractURI",
      "outputs": [
        {
          "internalType": "string",
          "name": "",
          "type": "string"
        }
      ],
      "stateMutability": "view",
      "type": "function"
    },
    {
      "inputs": [],
      "name": "currentProject",
      "outputs": [
        {
          "internalType": "uint256",
          "name": "",
          "type": "uint256"
        }
      ],
      "stateMutability": "view",
      "type": "function"
    },
    {
      "inputs": [
        {
          "internalType": "uint256",
          "name": "_amount",
          "type": "uint256"
        },
        {
          "internalType": "string",
          "name": "_message",
          "type": "string"
        }
      ],
      "name": "donate",
      "outputs": [],
      "stateMutability": "nonpayable",
      "type": "function"
    },
    {
      "inputs": [],
      "name": "donated",
      "outputs": [
        {
          "internalType": "uint256",
          "name": "",
          "type": "uint256"
        }
      ],
      "stateMutability": "view",
      "type": "function"
    },
    {
      "inputs": [
        {
          "internalType": "uint256",
          "name": "",
          "type": "uint256"
        }
      ],
      "name": "donations",
      "outputs": [
        {
          "internalType": "address",
          "name": "sender",
          "type": "address"
        },
        {
          "internalType": "uint256",
          "name": "amount",
          "type": "uint256"
        },
        {
          "internalType": "string",
          "name": "message",
          "type": "string"
        },
        {
          "internalType": "uint256",
          "name": "projectId",
          "type": "uint256"
        }
      ],
      "stateMutability": "view",
      "type": "function"
    },
    {
      "inputs": [],
      "name": "donationsCount",
      "outputs": [
        {
          "internalType": "uint256",
          "name": "",
          "type": "uint256"
        }
      ],
      "stateMutability": "view",
      "type": "function"
    },
    {
      "inputs": [],
      "name": "end",
      "outputs": [],
      "stateMutability": "nonpayable",
      "type": "function"
    },
    {
      "inputs": [
        {
          "internalType": "uint256",
          "name": "tokenId",
          "type": "uint256"
        }
      ],
      "name": "getApproved",
      "outputs": [
        {
          "internalType": "address",
          "name": "",
          "type": "address"
        }
      ],
      "stateMutability": "view",
      "type": "function"
    },
    {
      "inputs": [
        {
          "internalType": "address",
          "name": "owner",
          "type": "address"
        },
        {
          "internalType": "address",
          "name": "operator",
          "type": "address"
        }
      ],
      "name": "isApprovedForAll",
      "outputs": [
        {
          "internalType": "bool",
          "name": "",
          "type": "bool"
        }
      ],
      "stateMutability": "view",
      "type": "function"
    },
    {
      "inputs": [],
      "name": "name",
      "outputs": [
        {
          "internalType": "string",
          "name": "",
          "type": "string"
        }
      ],
      "stateMutability": "view",
      "type": "function"
    },
    {
      "inputs": [
        {
          "internalType": "string",
          "name": "_image",
          "type": "string"
        }
      ],
      "name": "newProject",
      "outputs": [],
      "stateMutability": "nonpayable",
      "type": "function"
    },
    {
      "inputs": [],
      "name": "owner",
      "outputs": [
        {
          "internalType": "address",
          "name": "",
          "type": "address"
        }
      ],
      "stateMutability": "view",
      "type": "function"
    },
    {
      "inputs": [
        {
          "internalType": "uint256",
          "name": "tokenId",
          "type": "uint256"
        }
      ],
      "name": "ownerOf",
      "outputs": [
        {
          "internalType": "address",
          "name": "",
          "type": "address"
        }
      ],
      "stateMutability": "view",
      "type": "function"
    },
    {
      "inputs": [
        {
          "internalType": "uint256",
          "name": "",
          "type": "uint256"
        }
      ],
      "name": "projects",
      "outputs": [
        {
          "internalType": "string",
          "name": "",
          "type": "string"
        }
      ],
      "stateMutability": "view",
      "type": "function"
    },
    {
      "inputs": [],
      "name": "renounceOwnership",
      "outputs": [],
      "stateMutability": "nonpayable",
      "type": "function"
    },
    {
      "inputs": [
        {
          "internalType": "address",
          "name": "from",
          "type": "address"
        },
        {
          "internalType": "address",
          "name": "to",
          "type": "address"
        },
        {
          "internalType": "uint256",
          "name": "tokenId",
          "type": "uint256"
        }
      ],
      "name": "safeTransferFrom",
      "outputs": [],
      "stateMutability": "nonpayable",
      "type": "function"
    },
    {
      "inputs": [
        {
          "internalType": "address",
          "name": "from",
          "type": "address"
        },
        {
          "internalType": "address",
          "name": "to",
          "type": "address"
        },
        {
          "internalType": "uint256",
          "name": "tokenId",
          "type": "uint256"
        },
        {
          "internalType": "bytes",
          "name": "_data",
          "type": "bytes"
        }
      ],
      "name": "safeTransferFrom",
      "outputs": [],
      "stateMutability": "nonpayable",
      "type": "function"
    },
    {
      "inputs": [
        {
          "internalType": "address",
          "name": "operator",
          "type": "address"
        },
        {
          "internalType": "bool",
          "name": "approved",
          "type": "bool"
        }
      ],
      "name": "setApprovalForAll",
      "outputs": [],
      "stateMutability": "nonpayable",
      "type": "function"
    },
    {
      "inputs": [
        {
          "internalType": "string",
          "name": "_contractUri",
          "type": "string"
        }
      ],
      "name": "setContractURI",
      "outputs": [],
      "stateMutability": "nonpayable",
      "type": "function"
    },
    {
      "inputs": [
        {
          "internalType": "bytes4",
          "name": "interfaceId",
          "type": "bytes4"
        }
      ],
      "name": "supportsInterface",
      "outputs": [
        {
          "internalType": "bool",
          "name": "",
          "type": "bool"
        }
      ],
      "stateMutability": "view",
      "type": "function"
    },
    {
      "inputs": [],
      "name": "symbol",
      "outputs": [
        {
          "internalType": "string",
          "name": "",
          "type": "string"
        }
      ],
      "stateMutability": "view",
      "type": "function"
    },
    {
      "inputs": [],
      "name": "title",
      "outputs": [
        {
          "internalType": "string",
          "name": "",
          "type": "string"
        }
      ],
      "stateMutability": "view",
      "type": "function"
    },
    {
      "inputs": [
        {
          "internalType": "uint256",
          "name": "tokenId",
          "type": "uint256"
        }
      ],
      "name": "tokenURI",
      "outputs": [
        {
          "internalType": "string",
          "name": "",
          "type": "string"
        }
      ],
      "stateMutability": "view",
      "type": "function"
    },
    {
      "inputs": [
        {
          "internalType": "address",
          "name": "from",
          "type": "address"
        },
        {
          "internalType": "address",
          "name": "to",
          "type": "address"
        },
        {
          "internalType": "uint256",
          "name": "tokenId",
          "type": "uint256"
        }
      ],
      "name": "transferFrom",
      "outputs": [],
      "stateMutability": "nonpayable",
      "type": "function"
    },
    {
      "inputs": [
        {
          "internalType": "address",
          "name": "newOwner",
          "type": "address"
        }
      ],
      "name": "transferOwnership",
      "outputs": [],
      "stateMutability": "nonpayable",
      "type": "function"
    }
  ],
  "bytecode": "0x60806040526000600a556000600b556000600c553480156200002057600080fd5b5060405162004e5c38038062004e5c833981810160405281019062000046919062000367565b83848160009080519060200190620000609291906200022e565b508060019080519060200190620000799291906200022e565b5050506200009c620000906200016060201b60201c565b6200016860201b60201c565b82600860006101000a81548173ffffffffffffffffffffffffffffffffffffffff021916908373ffffffffffffffffffffffffffffffffffffffff1602179055508360079080519060200190620000f59291906200022e565b506001600860146101000a81548160ff0219169083151502179055508160099080519060200190620001299291906200022e565b5080600d6000600c5481526020019081526020016000209080519060200190620001559291906200022e565b5050505050620005dc565b600033905090565b6000600660009054906101000a900473ffffffffffffffffffffffffffffffffffffffff16905081600660006101000a81548173ffffffffffffffffffffffffffffffffffffffff021916908373ffffffffffffffffffffffffffffffffffffffff1602179055508173ffffffffffffffffffffffffffffffffffffffff168173ffffffffffffffffffffffffffffffffffffffff167f8be0079c531659141344cd1fd0a4f28419497f9722a3daafe3b4186f6b6457e060405160405180910390a35050565b8280546200023c90620004e7565b90600052602060002090601f016020900481019282620002605760008555620002ac565b82601f106200027b57805160ff1916838001178555620002ac565b82800160010185558215620002ac579182015b82811115620002ab5782518255916020019190600101906200028e565b5b509050620002bb9190620002bf565b5090565b5b80821115620002da576000816000905550600101620002c0565b5090565b6000620002f5620002ef8462000447565b6200041e565b9050828152602081018484840111156200030e57600080fd5b6200031b848285620004b1565b509392505050565b6000815190506200033481620005c2565b92915050565b600082601f8301126200034c57600080fd5b81516200035e848260208601620002de565b91505092915050565b600080600080608085870312156200037e57600080fd5b600085015167ffffffffffffffff8111156200039957600080fd5b620003a7878288016200033a565b9450506020620003ba8782880162000323565b935050604085015167ffffffffffffffff811115620003d857600080fd5b620003e6878288016200033a565b925050606085015167ffffffffffffffff8111156200040457600080fd5b62000412878288016200033a565b91505092959194509250565b60006200042a6200043d565b90506200043882826200051d565b919050565b6000604051905090565b600067ffffffffffffffff82111562000465576200046462000582565b5b6200047082620005b1565b9050602081019050919050565b60006200048a8262000491565b9050919050565b600073ffffffffffffffffffffffffffffffffffffffff82169050919050565b60005b83811015620004d1578082015181840152602081019050620004b4565b83811115620004e1576000848401525b50505050565b600060028204905060018216806200050057607f821691505b6020821081141562000517576200051662000553565b5b50919050565b6200052882620005b1565b810181811067ffffffffffffffff821117156200054a576200054962000582565b5b80604052505050565b7f4e487b7100000000000000000000000000000000000000000000000000000000600052602260045260246000fd5b7f4e487b7100000000000000000000000000000000000000000000000000000000600052604160045260246000fd5b6000601f19601f8301169050919050565b620005cd816200047d565b8114620005d957600080fd5b50565b61487080620005ec6000396000f3fe608060405234801561001057600080fd5b50600436106101da5760003560e01c8063793cd71e11610104578063b8c7e21b116100a2578063e985e9c511610071578063e985e9c51461051f578063efbe1c1c1461054f578063f2fde38b14610559578063f8626af814610575576101da565b8063b8c7e21b14610497578063c87b56dd146104b5578063e1cac57b146104e5578063e8a3d48514610501576101da565b8063938e3d7b116100de578063938e3d7b1461042557806395d89b4114610441578063a22cb4651461045f578063b88d4fde1461047b576101da565b8063793cd71e146103e15780638d59d1f1146103eb5780638da5cb5b14610407576101da565b80631f5225951161017c5780636352211e1161014b5780636352211e14610359578063639bbb371461038957806370a08231146103a7578063715018a6146103d7576101da565b80631f522595146102e557806323b872dd1461030357806342842e0e1461031f5780634a79d50c1461033b576101da565b8063081812fc116101b8578063081812fc1461024b578063095ea7b31461027b578063107046bd1461029757806311df9995146102c7576101da565b806301ffc9a7146101df57806302fb0c5e1461020f57806306fdde031461022d575b600080fd5b6101f960048036038101906101f49190612f05565b6105a8565b604051610206919061374a565b60405180910390f35b61021761068a565b604051610224919061374a565b60405180910390f35b61023561069d565b6040516102429190613780565b60405180910390f35b61026560048036038101906102609190612f98565b61072f565b6040516102729190613637565b60405180910390f35b61029560048036038101906102909190612ea0565b6107b4565b005b6102b160048036038101906102ac9190612f98565b6108cc565b6040516102be9190613780565b60405180910390f35b6102cf61096c565b6040516102dc9190613765565b60405180910390f35b6102ed610992565b6040516102fa91906139c2565b60405180910390f35b61031d60048036038101906103189190612d9a565b610998565b005b61033960048036038101906103349190612d9a565b6109f8565b005b610343610a18565b6040516103509190613780565b60405180910390f35b610373600480360381019061036e9190612f98565b610aa6565b6040516103809190613637565b60405180910390f35b610391610b58565b60405161039e91906139c2565b60405180910390f35b6103c160048036038101906103bc9190612d35565b610b5e565b6040516103ce91906139c2565b60405180910390f35b6103df610c16565b005b6103e9610c9e565b005b61040560048036038101906104009190612fea565b610eb3565b005b61040f611144565b60405161041c9190613637565b60405180910390f35b61043f600480360381019061043a9190612f57565b61116e565b005b61044961128a565b6040516104569190613780565b60405180910390f35b61047960048036038101906104749190612e64565b61131c565b005b61049560048036038101906104909190612de9565b611332565b005b61049f611394565b6040516104ac91906139c2565b60405180910390f35b6104cf60048036038101906104ca9190612f98565b61139a565b6040516104dc9190613780565b60405180910390f35b6104ff60048036038101906104fa9190612f57565b6114ad565b005b6105096115f4565b6040516105169190613780565b60405180910390f35b61053960048036038101906105349190612d5e565b611686565b604051610546919061374a565b60405180910390f35b61055761171a565b005b610573600480360381019061056e9190612d35565b611836565b005b61058f600480360381019061058a9190612f98565b61192e565b60405161059f94939291906136fe565b60405180910390f35b60007f80ac58cd000000000000000000000000000000000000000000000000000000007bffffffffffffffffffffffffffffffffffffffffffffffffffffffff1916827bffffffffffffffffffffffffffffffffffffffffffffffffffffffff1916148061067357507f5b5e139f000000000000000000000000000000000000000000000000000000007bffffffffffffffffffffffffffffffffffffffffffffffffffffffff1916827bffffffffffffffffffffffffffffffffffffffffffffffffffffffff1916145b80610683575061068282611a06565b5b9050919050565b600860149054906101000a900460ff1681565b6060600080546106ac90613f5a565b80601f01602080910402602001604051908101604052809291908181526020018280546106d890613f5a565b80156107255780601f106106fa57610100808354040283529160200191610725565b820191906000526020600020905b81548152906001019060200180831161070857829003601f168201915b5050505050905090565b600061073a82611a70565b610779576040517f08c379a000000000000000000000000000000000000000000000000000000000815260040161077090613902565b60405180910390fd5b6004600083815260200190815260200160002060009054906101000a900473ffffffffffffffffffffffffffffffffffffffff169050919050565b60006107bf82610aa6565b90508073ffffffffffffffffffffffffffffffffffffffff168373ffffffffffffffffffffffffffffffffffffffff161415610830576040517f08c379a000000000000000000000000000000000000000000000000000000000815260040161082790613982565b60405180910390fd5b8073ffffffffffffffffffffffffffffffffffffffff1661084f611adc565b73ffffffffffffffffffffffffffffffffffffffff16148061087e575061087d81610878611adc565b611686565b5b6108bd576040517f08c379a00000000000000000000000000000000000000000000000000000000081526004016108b490613862565b60405180910390fd5b6108c78383611ae4565b505050565b600d60205280600052604060002060009150905080546108eb90613f5a565b80601f016020809104026020016040519081016040528092919081815260200182805461091790613f5a565b80156109645780601f1061093957610100808354040283529160200191610964565b820191906000526020600020905b81548152906001019060200180831161094757829003601f168201915b505050505081565b600860009054906101000a900473ffffffffffffffffffffffffffffffffffffffff1681565b600b5481565b6109a96109a3611adc565b82611b9d565b6109e8576040517f08c379a00000000000000000000000000000000000000000000000000000000081526004016109df906139a2565b60405180910390fd5b6109f3838383611c7b565b505050565b610a1383838360405180602001604052806000815250611332565b505050565b60078054610a2590613f5a565b80601f0160208091040260200160405190810160405280929190818152602001828054610a5190613f5a565b8015610a9e5780601f10610a7357610100808354040283529160200191610a9e565b820191906000526020600020905b815481529060010190602001808311610a8157829003601f168201915b505050505081565b6000806002600084815260200190815260200160002060009054906101000a900473ffffffffffffffffffffffffffffffffffffffff169050600073ffffffffffffffffffffffffffffffffffffffff168173ffffffffffffffffffffffffffffffffffffffff161415610b4f576040517f08c379a0000000000000000000000000000000000000000000000000000000008152600401610b46906138a2565b60405180910390fd5b80915050919050565b600a5481565b60008073ffffffffffffffffffffffffffffffffffffffff168273ffffffffffffffffffffffffffffffffffffffff161415610bcf576040517f08c379a0000000000000000000000000000000000000000000000000000000008152600401610bc690613882565b60405180910390fd5b600360008373ffffffffffffffffffffffffffffffffffffffff1673ffffffffffffffffffffffffffffffffffffffff168152602001908152602001600020549050919050565b610c1e611adc565b73ffffffffffffffffffffffffffffffffffffffff16610c3c611144565b73ffffffffffffffffffffffffffffffffffffffff1614610c92576040517f08c379a0000000000000000000000000000000000000000000000000000000008152600401610c8990613922565b60405180910390fd5b610c9c6000611ed7565b565b610ca6611adc565b73ffffffffffffffffffffffffffffffffffffffff16610cc4611144565b73ffffffffffffffffffffffffffffffffffffffff1614610d1a576040517f08c379a0000000000000000000000000000000000000000000000000000000008152600401610d1190613922565b60405180910390fd5b6000600860009054906101000a900473ffffffffffffffffffffffffffffffffffffffff1673ffffffffffffffffffffffffffffffffffffffff166370a08231306040518263ffffffff1660e01b8152600401610d779190613637565b60206040518083038186803b158015610d8f57600080fd5b505afa158015610da3573d6000803e3d6000fd5b505050506040513d601f19601f82011682018060405250810190610dc79190612fc1565b9050600860009054906101000a900473ffffffffffffffffffffffffffffffffffffffff1673ffffffffffffffffffffffffffffffffffffffff1663a9059cbb33836040518363ffffffff1660e01b8152600401610e269291906136d5565b602060405180830381600087803b158015610e4057600080fd5b505af1158015610e54573d6000803e3d6000fd5b505050506040513d601f19601f82011682018060405250810190610e789190612edc565b507f9ffa0711edfcdbf44092ece07d71043b947402fc3af6f4ad8c2fdfe422ac510581604051610ea891906139c2565b60405180910390a150565b600860149054906101000a900460ff16610f02576040517f08c379a0000000000000000000000000000000000000000000000000000000008152600401610ef9906138c2565b60405180910390fd5b60008211610f45576040517f08c379a0000000000000000000000000000000000000000000000000000000008152600401610f3c90613942565b60405180910390fd5b600860009054906101000a900473ffffffffffffffffffffffffffffffffffffffff1673ffffffffffffffffffffffffffffffffffffffff166323b872dd3330856040518463ffffffff1660e01b8152600401610fa493929190613652565b602060405180830381600087803b158015610fbe57600080fd5b505af1158015610fd2573d6000803e3d6000fd5b505050506040513d601f19601f82011682018060405250810190610ff69190612edc565b5081600a60008282546110099190613b16565b92505081905550600b600081548092919061102390613fbd565b919050555061103433600b54611f9d565b60405180608001604052803373ffffffffffffffffffffffffffffffffffffffff168152602001838152602001828152602001600c54815250600e6000600b54815260200190815260200160002060008201518160000160006101000a81548173ffffffffffffffffffffffffffffffffffffffff021916908373ffffffffffffffffffffffffffffffffffffffff1602179055506020820151816001015560408201518160020190805190602001906110ef929190612b2f565b50606082015181600301559050507f07406d87dd3f6ced218499e4df6c321bc96f77d38ae882c42987537e945947e9600b54338484600c546040516111389594939291906139dd565b60405180910390a15050565b6000600660009054906101000a900473ffffffffffffffffffffffffffffffffffffffff16905090565b611176611adc565b73ffffffffffffffffffffffffffffffffffffffff16611194611144565b73ffffffffffffffffffffffffffffffffffffffff16146111ea576040517f08c379a00000000000000000000000000000000000000000000000000000000081526004016111e190613922565b60405180910390fd5b600860149054906101000a900460ff16611239576040517f08c379a0000000000000000000000000000000000000000000000000000000008152600401611230906138c2565b60405180910390fd5b806009908051906020019061124f929190612b2f565b507f5ca9f750836b0b7efdace104f07b5c9f0df0650c0fd24f5163e99044ae36ea528160405161127f9190613780565b60405180910390a150565b60606001805461129990613f5a565b80601f01602080910402602001604051908101604052809291908181526020018280546112c590613f5a565b80156113125780601f106112e757610100808354040283529160200191611312565b820191906000526020600020905b8154815290600101906020018083116112f557829003601f168201915b5050505050905090565b61132e611327611adc565b8383611fbb565b5050565b61134361133d611adc565b83611b9d565b611382576040517f08c379a0000000000000000000000000000000000000000000000000000000008152600401611379906139a2565b60405180910390fd5b61138e84848484612128565b50505050565b600c5481565b6060611487600d6000600e60008681526020019081526020016000206003015481526020019081526020016000206113d184612184565b600e60008681526020019081526020016000206002016007611408600e600089815260200190815260200160002060010154612184565b600e600089815260200190815260200160002060020161145d600e60008b815260200190815260200160002060000160009054906101000a900473ffffffffffffffffffffffffffffffffffffffff16612331565b604051602001611473979695949392919061356f565b604051602081830303815290604052612566565b604051602001611497919061354d565b6040516020818303038152906040529050919050565b6114b5611adc565b73ffffffffffffffffffffffffffffffffffffffff166114d3611144565b73ffffffffffffffffffffffffffffffffffffffff1614611529576040517f08c379a000000000000000000000000000000000000000000000000000000000815260040161152090613922565b60405180910390fd5b600860149054906101000a900460ff16611578576040517f08c379a000000000000000000000000000000000000000000000000000000000815260040161156f906138c2565b60405180910390fd5b600c600081548092919061158b90613fbd565b919050555080600d6000600c54815260200190815260200160002090805190602001906115b9929190612b2f565b507fa574171d77e04cf709c4d16c4a88c4159627ae9e3d425580727b24823c489946816040516115e99190613780565b60405180910390a150565b60606009805461160390613f5a565b80601f016020809104026020016040519081016040528092919081815260200182805461162f90613f5a565b801561167c5780601f106116515761010080835404028352916020019161167c565b820191906000526020600020905b81548152906001019060200180831161165f57829003601f168201915b5050505050905090565b6000600560008473ffffffffffffffffffffffffffffffffffffffff1673ffffffffffffffffffffffffffffffffffffffff16815260200190815260200160002060008373ffffffffffffffffffffffffffffffffffffffff1673ffffffffffffffffffffffffffffffffffffffff16815260200190815260200160002060009054906101000a900460ff16905092915050565b611722611adc565b73ffffffffffffffffffffffffffffffffffffffff16611740611144565b73ffffffffffffffffffffffffffffffffffffffff1614611796576040517f08c379a000000000000000000000000000000000000000000000000000000000815260040161178d90613922565b60405180910390fd5b600860149054906101000a900460ff166117e5576040517f08c379a00000000000000000000000000000000000000000000000000000000081526004016117dc906138c2565b60405180910390fd5b6000600860146101000a81548160ff021916908315150217905550611808610c9e565b7f06e649079f276fcfc97b1e5cbfbb65937dac6a51ee164e3190e707e27ff345fa60405160405180910390a1565b61183e611adc565b73ffffffffffffffffffffffffffffffffffffffff1661185c611144565b73ffffffffffffffffffffffffffffffffffffffff16146118b2576040517f08c379a00000000000000000000000000000000000000000000000000000000081526004016118a990613922565b60405180910390fd5b600073ffffffffffffffffffffffffffffffffffffffff168173ffffffffffffffffffffffffffffffffffffffff161415611922576040517f08c379a0000000000000000000000000000000000000000000000000000000008152600401611919906137c2565b60405180910390fd5b61192b81611ed7565b50565b600e6020528060005260406000206000915090508060000160009054906101000a900473ffffffffffffffffffffffffffffffffffffffff169080600101549080600201805461197d90613f5a565b80601f01602080910402602001604051908101604052809291908181526020018280546119a990613f5a565b80156119f65780601f106119cb576101008083540402835291602001916119f6565b820191906000526020600020905b8154815290600101906020018083116119d957829003601f168201915b5050505050908060030154905084565b60007f01ffc9a7000000000000000000000000000000000000000000000000000000007bffffffffffffffffffffffffffffffffffffffffffffffffffffffff1916827bffffffffffffffffffffffffffffffffffffffffffffffffffffffff1916149050919050565b60008073ffffffffffffffffffffffffffffffffffffffff166002600084815260200190815260200160002060009054906101000a900473ffffffffffffffffffffffffffffffffffffffff1673ffffffffffffffffffffffffffffffffffffffff1614159050919050565b600033905090565b816004600083815260200190815260200160002060006101000a81548173ffffffffffffffffffffffffffffffffffffffff021916908373ffffffffffffffffffffffffffffffffffffffff160217905550808273ffffffffffffffffffffffffffffffffffffffff16611b5783610aa6565b73ffffffffffffffffffffffffffffffffffffffff167f8c5be1e5ebec7d5bd14f71427d1e84f3dd0314c0f7b2291e5b200ac8c7c3b92560405160405180910390a45050565b6000611ba882611a70565b611be7576040517f08c379a0000000000000000000000000000000000000000000000000000000008152600401611bde90613842565b60405180910390fd5b6000611bf283610aa6565b90508073ffffffffffffffffffffffffffffffffffffffff168473ffffffffffffffffffffffffffffffffffffffff161480611c6157508373ffffffffffffffffffffffffffffffffffffffff16611c498461072f565b73ffffffffffffffffffffffffffffffffffffffff16145b80611c725750611c718185611686565b5b91505092915050565b8273ffffffffffffffffffffffffffffffffffffffff16611c9b82610aa6565b73ffffffffffffffffffffffffffffffffffffffff1614611cf1576040517f08c379a0000000000000000000000000000000000000000000000000000000008152600401611ce890613962565b60405180910390fd5b600073ffffffffffffffffffffffffffffffffffffffff168273ffffffffffffffffffffffffffffffffffffffff161415611d61576040517f08c379a0000000000000000000000000000000000000000000000000000000008152600401611d5890613802565b60405180910390fd5b611d6c838383612711565b611d77600082611ae4565b6001600360008573ffffffffffffffffffffffffffffffffffffffff1673ffffffffffffffffffffffffffffffffffffffff1681526020019081526020016000206000828254611dc79190613e0b565b925050819055506001600360008473ffffffffffffffffffffffffffffffffffffffff1673ffffffffffffffffffffffffffffffffffffffff1681526020019081526020016000206000828254611e1e9190613b16565b92505081905550816002600083815260200190815260200160002060006101000a81548173ffffffffffffffffffffffffffffffffffffffff021916908373ffffffffffffffffffffffffffffffffffffffff160217905550808273ffffffffffffffffffffffffffffffffffffffff168473ffffffffffffffffffffffffffffffffffffffff167fddf252ad1be2c89b69c2b068fc378daa952ba7f163c4a11628f55a4df523b3ef60405160405180910390a4505050565b6000600660009054906101000a900473ffffffffffffffffffffffffffffffffffffffff16905081600660006101000a81548173ffffffffffffffffffffffffffffffffffffffff021916908373ffffffffffffffffffffffffffffffffffffffff1602179055508173ffffffffffffffffffffffffffffffffffffffff168173ffffffffffffffffffffffffffffffffffffffff167f8be0079c531659141344cd1fd0a4f28419497f9722a3daafe3b4186f6b6457e060405160405180910390a35050565b611fb7828260405180602001604052806000815250612716565b5050565b8173ffffffffffffffffffffffffffffffffffffffff168373ffffffffffffffffffffffffffffffffffffffff16141561202a576040517f08c379a000000000000000000000000000000000000000000000000000000000815260040161202190613822565b60405180910390fd5b80600560008573ffffffffffffffffffffffffffffffffffffffff1673ffffffffffffffffffffffffffffffffffffffff16815260200190815260200160002060008473ffffffffffffffffffffffffffffffffffffffff1673ffffffffffffffffffffffffffffffffffffffff16815260200190815260200160002060006101000a81548160ff0219169083151502179055508173ffffffffffffffffffffffffffffffffffffffff168373ffffffffffffffffffffffffffffffffffffffff167f17307eab39ab6107e8899845ad3d59bd9653f200f220920489ca2b5937696c318360405161211b919061374a565b60405180910390a3505050565b612133848484611c7b565b61213f84848484612771565b61217e576040517f08c379a0000000000000000000000000000000000000000000000000000000008152600401612175906137a2565b60405180910390fd5b50505050565b606060008214156121cc576040518060400160405280600181526020017f3000000000000000000000000000000000000000000000000000000000000000815250905061232c565b600082905060005b600082146121fe5780806121e790613fbd565b915050600a826121f79190613ba3565b91506121d4565b60008167ffffffffffffffff811115612240577f4e487b7100000000000000000000000000000000000000000000000000000000600052604160045260246000fd5b6040519080825280601f01601f1916602001820160405280156122725781602001600182028036833780820191505090505b5090505b600085146123255760018261228b9190613e0b565b9150600a8561229a9190614006565b60306122a69190613b16565b60f81b8183815181106122e2577f4e487b7100000000000000000000000000000000000000000000000000000000600052603260045260246000fd5b60200101907effffffffffffffffffffffffffffffffffffffffffffffffffffffffffffff1916908160001a905350600a8561231e9190613ba3565b9450612276565b8093505050505b919050565b60606000602867ffffffffffffffff811115612376577f4e487b7100000000000000000000000000000000000000000000000000000000600052604160045260246000fd5b6040519080825280601f01601f1916602001820160405280156123a85781602001600182028036833780820191505090505b50905060005b601481101561255c5760008160136123c69190613e0b565b60086123d29190613d76565b60026123de9190613c58565b8573ffffffffffffffffffffffffffffffffffffffff166123ff9190613ba3565b60f81b9050600060108260f81c6124169190613bd4565b60f81b905060008160f81c601061242d9190613dd0565b8360f81c61243b9190613e3f565b60f81b905061244982612908565b858560026124579190613d76565b8151811061248e577f4e487b7100000000000000000000000000000000000000000000000000000000600052603260045260246000fd5b60200101907effffffffffffffffffffffffffffffffffffffffffffffffffffffffffffff1916908160001a9053506124c681612908565b8560018660026124d69190613d76565b6124e09190613b16565b81518110612517577f4e487b7100000000000000000000000000000000000000000000000000000000600052603260045260246000fd5b60200101907effffffffffffffffffffffffffffffffffffffffffffffffffffffffffffff1916908160001a905350505050808061255490613fbd565b9150506123ae565b5080915050919050565b60606000825114156125895760405180602001604052806000815250905061270c565b60006040518060600160405280604081526020016147fb60409139905060006003600285516125b89190613b16565b6125c29190613ba3565b60046125ce9190613d76565b905060006020826125df9190613b16565b67ffffffffffffffff81111561261e577f4e487b7100000000000000000000000000000000000000000000000000000000600052604160045260246000fd5b6040519080825280601f01601f1916602001820160405280156126505781602001600182028036833780820191505090505b509050818152600183018586518101602084015b818310156126cb576003830192508251603f8160121c1685015160f81b8252600182019150603f81600c1c1685015160f81b8252600182019150603f8160061c1685015160f81b8252600182019150603f811685015160f81b825260018201915050612664565b6003895106600181146126e557600281146126f557612700565b613d3d60f01b6002830352612700565b603d60f81b60018303525b50505050508093505050505b919050565b505050565b612720838361294e565b61272d6000848484612771565b61276c576040517f08c379a0000000000000000000000000000000000000000000000000000000008152600401612763906137a2565b60405180910390fd5b505050565b60006127928473ffffffffffffffffffffffffffffffffffffffff16612b1c565b156128fb578373ffffffffffffffffffffffffffffffffffffffff1663150b7a026127bb611adc565b8786866040518563ffffffff1660e01b81526004016127dd9493929190613689565b602060405180830381600087803b1580156127f757600080fd5b505af192505050801561282857506040513d601f19601f820116820180604052508101906128259190612f2e565b60015b6128ab573d8060008114612858576040519150601f19603f3d011682016040523d82523d6000602084013e61285d565b606091505b506000815114156128a3576040517f08c379a000000000000000000000000000000000000000000000000000000000815260040161289a906137a2565b60405180910390fd5b805181602001fd5b63150b7a0260e01b7bffffffffffffffffffffffffffffffffffffffffffffffffffffffff1916817bffffffffffffffffffffffffffffffffffffffffffffffffffffffff191614915050612900565b600190505b949350505050565b6000600a8260f81c60ff1610156129335760308260f81c6129299190613b6c565b60f81b9050612949565b60578260f81c6129439190613b6c565b60f81b90505b919050565b600073ffffffffffffffffffffffffffffffffffffffff168273ffffffffffffffffffffffffffffffffffffffff1614156129be576040517f08c379a00000000000000000000000000000000000000000000000000000000081526004016129b5906138e2565b60405180910390fd5b6129c781611a70565b15612a07576040517f08c379a00000000000000000000000000000000000000000000000000000000081526004016129fe906137e2565b60405180910390fd5b612a1360008383612711565b6001600360008473ffffffffffffffffffffffffffffffffffffffff1673ffffffffffffffffffffffffffffffffffffffff1681526020019081526020016000206000828254612a639190613b16565b92505081905550816002600083815260200190815260200160002060006101000a81548173ffffffffffffffffffffffffffffffffffffffff021916908373ffffffffffffffffffffffffffffffffffffffff160217905550808273ffffffffffffffffffffffffffffffffffffffff16600073ffffffffffffffffffffffffffffffffffffffff167fddf252ad1be2c89b69c2b068fc378daa952ba7f163c4a11628f55a4df523b3ef60405160405180910390a45050565b600080823b905060008111915050919050565b828054612b3b90613f5a565b90600052602060002090601f016020900481019282612b5d5760008555612ba4565b82601f10612b7657805160ff1916838001178555612ba4565b82800160010185558215612ba4579182015b82811115612ba3578251825591602001919060010190612b88565b5b509050612bb19190612bb5565b5090565b5b80821115612bce576000816000905550600101612bb6565b5090565b6000612be5612be084613a5c565b613a37565b905082815260208101848484011115612bfd57600080fd5b612c08848285613f18565b509392505050565b6000612c23612c1e84613a8d565b613a37565b905082815260208101848484011115612c3b57600080fd5b612c46848285613f18565b509392505050565b600081359050612c5d8161479e565b92915050565b600081359050612c72816147b5565b92915050565b600081519050612c87816147b5565b92915050565b600081359050612c9c816147cc565b92915050565b600081519050612cb1816147cc565b92915050565b600082601f830112612cc857600080fd5b8135612cd8848260208601612bd2565b91505092915050565b600082601f830112612cf257600080fd5b8135612d02848260208601612c10565b91505092915050565b600081359050612d1a816147e3565b92915050565b600081519050612d2f816147e3565b92915050565b600060208284031215612d4757600080fd5b6000612d5584828501612c4e565b91505092915050565b60008060408385031215612d7157600080fd5b6000612d7f85828601612c4e565b9250506020612d9085828601612c4e565b9150509250929050565b600080600060608486031215612daf57600080fd5b6000612dbd86828701612c4e565b9350506020612dce86828701612c4e565b9250506040612ddf86828701612d0b565b9150509250925092565b60008060008060808587031215612dff57600080fd5b6000612e0d87828801612c4e565b9450506020612e1e87828801612c4e565b9350506040612e2f87828801612d0b565b925050606085013567ffffffffffffffff811115612e4c57600080fd5b612e5887828801612cb7565b91505092959194509250565b60008060408385031215612e7757600080fd5b6000612e8585828601612c4e565b9250506020612e9685828601612c63565b9150509250929050565b60008060408385031215612eb357600080fd5b6000612ec185828601612c4e565b9250506020612ed285828601612d0b565b9150509250929050565b600060208284031215612eee57600080fd5b6000612efc84828501612c78565b91505092915050565b600060208284031215612f1757600080fd5b6000612f2584828501612c8d565b91505092915050565b600060208284031215612f4057600080fd5b6000612f4e84828501612ca2565b91505092915050565b600060208284031215612f6957600080fd5b600082013567ffffffffffffffff811115612f8357600080fd5b612f8f84828501612ce1565b91505092915050565b600060208284031215612faa57600080fd5b6000612fb884828501612d0b565b91505092915050565b600060208284031215612fd357600080fd5b6000612fe184828501612d20565b91505092915050565b60008060408385031215612ffd57600080fd5b600061300b85828601612d0b565b925050602083013567ffffffffffffffff81111561302857600080fd5b61303485828601612ce1565b9150509250929050565b61304781613e73565b82525050565b61305681613e85565b82525050565b600061306782613ad3565b6130718185613ae9565b9350613081818560208601613f27565b61308a816140f3565b840191505092915050565b61309e81613ef4565b82525050565b60006130af82613ade565b6130b98185613afa565b93506130c9818560208601613f27565b6130d2816140f3565b840191505092915050565b60006130e882613ade565b6130f28185613b0b565b9350613102818560208601613f27565b80840191505092915050565b6000815461311b81613f5a565b6131258186613b0b565b94506001821660008114613140576001811461315157613184565b60ff19831686528186019350613184565b61315a85613abe565b60005b8381101561317c5781548189015260018201915060208101905061315d565b838801955050505b50505092915050565b600061319a603283613afa565b91506131a582614111565b604082019050919050565b60006131bd602683613afa565b91506131c882614160565b604082019050919050565b60006131e0602f83613b0b565b91506131eb826141af565b602f82019050919050565b6000613203601c83613afa565b915061320e826141fe565b602082019050919050565b6000613226602383613b0b565b915061323182614227565b602382019050919050565b6000613249602483613afa565b915061325482614276565b604082019050919050565b600061326c601983613afa565b9150613277826142c5565b602082019050919050565b600061328f600383613b0b565b915061329a826142ee565b600382019050919050565b60006132b2602c83613afa565b91506132bd82614317565b604082019050919050565b60006132d5603883613afa565b91506132e082614366565b604082019050919050565b60006132f8602a83613afa565b9150613303826143b5565b604082019050919050565b600061331b602983613afa565b915061332682614404565b604082019050919050565b600061333e601683613b0b565b915061334982614453565b601682019050919050565b6000613361601383613afa565b915061336c8261447c565b602082019050919050565b6000613384602083613afa565b915061338f826144a5565b602082019050919050565b60006133a7600183613b0b565b91506133b2826144ce565b600182019050919050565b60006133ca602f83613b0b565b91506133d5826144f7565b602f82019050919050565b60006133ed602c83613afa565b91506133f882614546565b604082019050919050565b6000613410601283613b0b565b915061341b82614595565b601282019050919050565b6000613433602083613afa565b915061343e826145be565b602082019050919050565b6000613456601483613afa565b9150613461826145e7565b602082019050919050565b6000613479602983613afa565b915061348482614610565b604082019050919050565b600061349c602183613afa565b91506134a78261465f565b604082019050919050565b60006134bf603483613b0b565b91506134ca826146ae565b603482019050919050565b60006134e2601d83613b0b565b91506134ed826146fd565b601d82019050919050565b6000613505603183613afa565b915061351082614726565b604082019050919050565b6000613528600a83613b0b565b915061353382614775565b600a82019050919050565b61354781613edd565b82525050565b6000613558826134d5565b915061356482846130dd565b915081905092915050565b600061357a8261351b565b9150613586828a61310e565b915061359182613331565b915061359d82896130dd565b91506135a882613403565b91506135b4828861310e565b91506135bf826131d3565b91506135cb828761310e565b91506135d6826134b2565b91506135e282866130dd565b91506135ed82613219565b91506135f9828561310e565b9150613604826133bd565b915061361082846130dd565b915061361b82613282565b91506136268261339a565b915081905098975050505050505050565b600060208201905061364c600083018461303e565b92915050565b6000606082019050613667600083018661303e565b613674602083018561303e565b613681604083018461353e565b949350505050565b600060808201905061369e600083018761303e565b6136ab602083018661303e565b6136b8604083018561353e565b81810360608301526136ca818461305c565b905095945050505050565b60006040820190506136ea600083018561303e565b6136f7602083018461353e565b9392505050565b6000608082019050613713600083018761303e565b613720602083018661353e565b818103604083015261373281856130a4565b9050613741606083018461353e565b95945050505050565b600060208201905061375f600083018461304d565b92915050565b600060208201905061377a6000830184613095565b92915050565b6000602082019050818103600083015261379a81846130a4565b905092915050565b600060208201905081810360008301526137bb8161318d565b9050919050565b600060208201905081810360008301526137db816131b0565b9050919050565b600060208201905081810360008301526137fb816131f6565b9050919050565b6000602082019050818103600083015261381b8161323c565b9050919050565b6000602082019050818103600083015261383b8161325f565b9050919050565b6000602082019050818103600083015261385b816132a5565b9050919050565b6000602082019050818103600083015261387b816132c8565b9050919050565b6000602082019050818103600083015261389b816132eb565b9050919050565b600060208201905081810360008301526138bb8161330e565b9050919050565b600060208201905081810360008301526138db81613354565b9050919050565b600060208201905081810360008301526138fb81613377565b9050919050565b6000602082019050818103600083015261391b816133e0565b9050919050565b6000602082019050818103600083015261393b81613426565b9050919050565b6000602082019050818103600083015261395b81613449565b9050919050565b6000602082019050818103600083015261397b8161346c565b9050919050565b6000602082019050818103600083015261399b8161348f565b9050919050565b600060208201905081810360008301526139bb816134f8565b9050919050565b60006020820190506139d7600083018461353e565b92915050565b600060a0820190506139f2600083018861353e565b6139ff602083018761303e565b613a0c604083018661353e565b8181036060830152613a1e81856130a4565b9050613a2d608083018461353e565b9695505050505050565b6000613a41613a52565b9050613a4d8282613f8c565b919050565b6000604051905090565b600067ffffffffffffffff821115613a7757613a766140c4565b5b613a80826140f3565b9050602081019050919050565b600067ffffffffffffffff821115613aa857613aa76140c4565b5b613ab1826140f3565b9050602081019050919050565b60008190508160005260206000209050919050565b600081519050919050565b600081519050919050565b600082825260208201905092915050565b600082825260208201905092915050565b600081905092915050565b6000613b2182613edd565b9150613b2c83613edd565b9250827fffffffffffffffffffffffffffffffffffffffffffffffffffffffffffffffff03821115613b6157613b60614037565b5b828201905092915050565b6000613b7782613ee7565b9150613b8283613ee7565b92508260ff03821115613b9857613b97614037565b5b828201905092915050565b6000613bae82613edd565b9150613bb983613edd565b925082613bc957613bc8614066565b5b828204905092915050565b6000613bdf82613ee7565b9150613bea83613ee7565b925082613bfa57613bf9614066565b5b828204905092915050565b6000808291508390505b6001851115613c4f57808604811115613c2b57613c2a614037565b5b6001851615613c3a5780820291505b8081029050613c4885614104565b9450613c0f565b94509492505050565b6000613c6382613edd565b9150613c6e83613edd565b9250613c9b7fffffffffffffffffffffffffffffffffffffffffffffffffffffffffffffffff8484613ca3565b905092915050565b600082613cb35760019050613d6f565b81613cc15760009050613d6f565b8160018114613cd75760028114613ce157613d10565b6001915050613d6f565b60ff841115613cf357613cf2614037565b5b8360020a915084821115613d0a57613d09614037565b5b50613d6f565b5060208310610133831016604e8410600b8410161715613d455782820a905083811115613d4057613d3f614037565b5b613d6f565b613d528484846001613c05565b92509050818404811115613d6957613d68614037565b5b81810290505b9392505050565b6000613d8182613edd565b9150613d8c83613edd565b9250817fffffffffffffffffffffffffffffffffffffffffffffffffffffffffffffffff0483118215151615613dc557613dc4614037565b5b828202905092915050565b6000613ddb82613ee7565b9150613de683613ee7565b92508160ff0483118215151615613e0057613dff614037565b5b828202905092915050565b6000613e1682613edd565b9150613e2183613edd565b925082821015613e3457613e33614037565b5b828203905092915050565b6000613e4a82613ee7565b9150613e5583613ee7565b925082821015613e6857613e67614037565b5b828203905092915050565b6000613e7e82613ebd565b9050919050565b60008115159050919050565b60007fffffffff0000000000000000000000000000000000000000000000000000000082169050919050565b600073ffffffffffffffffffffffffffffffffffffffff82169050919050565b6000819050919050565b600060ff82169050919050565b6000613eff82613f06565b9050919050565b6000613f1182613ebd565b9050919050565b82818337600083830152505050565b60005b83811015613f45578082015181840152602081019050613f2a565b83811115613f54576000848401525b50505050565b60006002820490506001821680613f7257607f821691505b60208210811415613f8657613f85614095565b5b50919050565b613f95826140f3565b810181811067ffffffffffffffff82111715613fb457613fb36140c4565b5b80604052505050565b6000613fc882613edd565b91507fffffffffffffffffffffffffffffffffffffffffffffffffffffffffffffffff821415613ffb57613ffa614037565b5b600182019050919050565b600061401182613edd565b915061401c83613edd565b92508261402c5761402b614066565b5b828206905092915050565b7f4e487b7100000000000000000000000000000000000000000000000000000000600052601160045260246000fd5b7f4e487b7100000000000000000000000000000000000000000000000000000000600052601260045260246000fd5b7f4e487b7100000000000000000000000000000000000000000000000000000000600052602260045260246000fd5b7f4e487b7100000000000000000000000000000000000000000000000000000000600052604160045260246000fd5b6000601f19601f8301169050919050565b60008160011c9050919050565b7f4552433732313a207472616e7366657220746f206e6f6e20455243373231526560008201527f63656976657220696d706c656d656e7465720000000000000000000000000000602082015250565b7f4f776e61626c653a206e6577206f776e657220697320746865207a65726f206160008201527f6464726573730000000000000000000000000000000000000000000000000000602082015250565b7f222c202265787465726e616c5f75726c223a2268747470733a2f2f657468646f60008201527f6e2e78797a2f70726f6a656374732f0000000000000000000000000000000000602082015250565b7f4552433732313a20746f6b656e20616c7265616479206d696e74656400000000600082015250565b7f7d2c7b2274726169745f74797065223a224d657373616765222c2276616c756560008201527f223a220000000000000000000000000000000000000000000000000000000000602082015250565b7f4552433732313a207472616e7366657220746f20746865207a65726f2061646460008201527f7265737300000000000000000000000000000000000000000000000000000000602082015250565b7f4552433732313a20617070726f766520746f2063616c6c657200000000000000600082015250565b7f227d5d0000000000000000000000000000000000000000000000000000000000600082015250565b7f4552433732313a206f70657261746f7220717565727920666f72206e6f6e657860008201527f697374656e7420746f6b656e0000000000000000000000000000000000000000602082015250565b7f4552433732313a20617070726f76652063616c6c6572206973206e6f74206f7760008201527f6e6572206e6f7220617070726f76656420666f7220616c6c0000000000000000602082015250565b7f4552433732313a2062616c616e636520717565727920666f7220746865207a6560008201527f726f206164647265737300000000000000000000000000000000000000000000602082015250565b7f4552433732313a206f776e657220717565727920666f72206e6f6e657869737460008201527f656e7420746f6b656e0000000000000000000000000000000000000000000000602082015250565b7f222c20226e616d65223a22537570706f72746572202300000000000000000000600082015250565b7f50726f6a656374206e6f74206163746976652100000000000000000000000000600082015250565b7f4552433732313a206d696e7420746f20746865207a65726f2061646472657373600082015250565b7f7d00000000000000000000000000000000000000000000000000000000000000600082015250565b7f227d2c7b2274726169745f74797065223a224f726967696e616c20646f6e617460008201527f6f72222c2276616c7565223a2230780000000000000000000000000000000000602082015250565b7f4552433732313a20617070726f76656420717565727920666f72206e6f6e657860008201527f697374656e7420746f6b656e0000000000000000000000000000000000000000602082015250565b7f222c20226465736372697074696f6e223a220000000000000000000000000000600082015250565b7f4f776e61626c653a2063616c6c6572206973206e6f7420746865206f776e6572600082015250565b7f446f6e6174696f6e20616d6f756e742069732030000000000000000000000000600082015250565b7f4552433732313a207472616e73666572206f6620746f6b656e2074686174206960008201527f73206e6f74206f776e0000000000000000000000000000000000000000000000602082015250565b7f4552433732313a20617070726f76616c20746f2063757272656e74206f776e6560008201527f7200000000000000000000000000000000000000000000000000000000000000602082015250565b7f222c202261747472696275746573223a205b7b2274726169745f74797065223a60008201527f2022446f6e6174696f6e222c2276616c7565223a000000000000000000000000602082015250565b7f646174613a6170706c69636174696f6e2f6a736f6e3b6261736536342c000000600082015250565b7f4552433732313a207472616e736665722063616c6c6572206973206e6f74206f60008201527f776e6572206e6f7220617070726f766564000000000000000000000000000000602082015250565b7f7b22696d616765223a2200000000000000000000000000000000000000000000600082015250565b6147a781613e73565b81146147b257600080fd5b50565b6147be81613e85565b81146147c957600080fd5b50565b6147d581613e91565b81146147e057600080fd5b50565b6147ec81613edd565b81146147f757600080fd5b5056fe4142434445464748494a4b4c4d4e4f505152535455565758595a6162636465666768696a6b6c6d6e6f707172737475767778797a303132333435363738392b2fa26469706673582212208ac3cfca8df6e273f192229a0f4df043e4376e45b065a0a0cacab5e16a03c4eb64736f6c63430008040033",
  "linkReferences": {},
  "deployedLinkReferences": {}
}