{
  "_format": "hh-sol-artifact-1",
  "contractName": "Factory",
  "sourceName": "contracts/Factory.sol",
  "abi": [
    {
      "anonymous": false,
      "inputs": [
        {
          "indexed": false,
          "internalType": "address",
          "name": "previousAdmin",
          "type": "address"
        },
        {
          "indexed": false,
          "internalType": "address",
          "name": "newAdmin",
          "type": "address"
        }
      ],
      "name": "AdminChanged",
      "type": "event"
    },
    {
      "anonymous": false,
      "inputs": [
        {
          "indexed": true,
          "internalType": "address",
          "name": "beacon",
          "type": "address"
        }
      ],
      "name": "BeaconUpgraded",
      "type": "event"
    },
    {
      "anonymous": false,
      "inputs": [
        {
          "indexed": false,
          "internalType": "uint8",
          "name": "version",
          "type": "uint8"
        }
      ],
      "name": "Initialized",
      "type": "event"
    },
    {
      "anonymous": false,
      "inputs": [
        {
          "indexed": false,
          "internalType": "string",
          "name": "title",
          "type": "string"
        },
        {
          "indexed": false,
          "internalType": "address",
          "name": "collection",
          "type": "address"
        },
        {
          "indexed": false,
          "internalType": "address",
          "name": "coin",
          "type": "address"
        },
        {
          "indexed": false,
          "internalType": "string",
          "name": "ipfs",
          "type": "string"
        },
        {
          "indexed": false,
          "internalType": "address",
          "name": "sender",
          "type": "address"
        }
      ],
      "name": "NewCollection",
      "type": "event"
    },
    {
      "anonymous": false,
      "inputs": [
        {
          "indexed": true,
          "internalType": "address",
          "name": "previousOwner",
          "type": "address"
        },
        {
          "indexed": true,
          "internalType": "address",
          "name": "newOwner",
          "type": "address"
        }
      ],
      "name": "OwnershipTransferred",
      "type": "event"
    },
    {
      "anonymous": false,
      "inputs": [
        {
          "indexed": false,
          "internalType": "string",
          "name": "uri",
          "type": "string"
        }
      ],
      "name": "SetURI",
      "type": "event"
    },
    {
      "anonymous": false,
      "inputs": [
        {
          "indexed": true,
          "internalType": "address",
          "name": "implementation",
          "type": "address"
        }
      ],
      "name": "Upgraded",
      "type": "event"
    },
    {
      "inputs": [
        {
          "internalType": "string",
          "name": "",
          "type": "string"
        }
      ],
      "name": "collections",
      "outputs": [
        {
          "internalType": "address",
          "name": "",
          "type": "address"
        }
      ],
      "stateMutability": "view",
      "type": "function"
    },
    {
      "inputs": [
        {
          "internalType": "string",
          "name": "title",
          "type": "string"
        }
      ],
      "name": "getContractURI",
      "outputs": [
        {
          "internalType": "string",
          "name": "",
          "type": "string"
        }
      ],
      "stateMutability": "view",
      "type": "function"
    },
    {
      "inputs": [
        {
          "internalType": "string",
          "name": "title",
          "type": "string"
        },
        {
          "internalType": "uint256",
          "name": "tokenId",
          "type": "uint256"
        }
      ],
      "name": "getTokenURI",
      "outputs": [
        {
          "internalType": "string",
          "name": "",
          "type": "string"
        }
      ],
      "stateMutability": "view",
      "type": "function"
    },
    {
      "inputs": [
        {
          "internalType": "string",
          "name": "uri",
          "type": "string"
        }
      ],
      "name": "initialize",
      "outputs": [],
      "stateMutability": "nonpayable",
      "type": "function"
    },
    {
      "inputs": [
        {
          "internalType": "string",
          "name": "title",
          "type": "string"
        },
        {
          "internalType": "address",
          "name": "coin",
          "type": "address"
        },
        {
          "internalType": "string",
          "name": "ipfs",
          "type": "string"
        }
      ],
      "name": "newCollection",
      "outputs": [],
      "stateMutability": "nonpayable",
      "type": "function"
    },
    {
      "inputs": [],
      "name": "owner",
      "outputs": [
        {
          "internalType": "address",
          "name": "",
          "type": "address"
        }
      ],
      "stateMutability": "view",
      "type": "function"
    },
    {
      "inputs": [],
      "name": "proxiableUUID",
      "outputs": [
        {
          "internalType": "bytes32",
          "name": "",
          "type": "bytes32"
        }
      ],
      "stateMutability": "view",
      "type": "function"
    },
    {
      "inputs": [],
      "name": "renounceOwnership",
      "outputs": [],
      "stateMutability": "nonpayable",
      "type": "function"
    },
    {
      "inputs": [
        {
          "internalType": "string",
          "name": "uri",
          "type": "string"
        }
      ],
      "name": "setURI",
      "outputs": [],
      "stateMutability": "nonpayable",
      "type": "function"
    },
    {
      "inputs": [
        {
          "internalType": "address",
          "name": "newOwner",
          "type": "address"
        }
      ],
      "name": "transferOwnership",
      "outputs": [],
      "stateMutability": "nonpayable",
      "type": "function"
    },
    {
      "inputs": [
        {
          "internalType": "address",
          "name": "newImplementation",
          "type": "address"
        }
      ],
      "name": "upgradeTo",
      "outputs": [],
      "stateMutability": "nonpayable",
      "type": "function"
    },
    {
      "inputs": [
        {
          "internalType": "address",
          "name": "newImplementation",
          "type": "address"
        },
        {
          "internalType": "bytes",
          "name": "data",
          "type": "bytes"
        }
      ],
      "name": "upgradeToAndCall",
      "outputs": [],
      "stateMutability": "payable",
      "type": "function"
    }
  ],
  "bytecode": "0x60a06040523060805234801561001457600080fd5b5060805161375461004c60003960008181610378015281816103bb01528181610463015281816104a6015261054201526137546000f3fe608060405260043610620000b55760003560e01c806366e54d7b116200006c57806366e54d7b14620001a6578063715018a614620002045780637d71f70c146200021c5780638da5cb5b1462000241578063f2fde38b1462000261578063f62d1888146200028657600080fd5b806302fe530514620000ba5780630ebf131114620000e15780633659cfe6146200011e5780634f1ef286146200014357806352d1902d146200015a57806360c1eb671462000181575b600080fd5b348015620000c757600080fd5b50620000df620000d936600462001196565b620002ab565b005b348015620000ee57600080fd5b506200010662000100366004620011cf565b62000333565b60405162000115919062001275565b60405180910390f35b3480156200012b57600080fd5b50620000df6200013d366004620012a2565b6200036e565b620000df62000154366004620012c0565b62000459565b3480156200016757600080fd5b506200017262000535565b60405190815260200162000115565b3480156200018e57600080fd5b50620000df620001a036600462001329565b620005eb565b348015620001b357600080fd5b50620001eb620001c536600462001196565b805160208183018101805160c9825292820191909301209152546001600160a01b031681565b6040516001600160a01b03909116815260200162000115565b3480156200021157600080fd5b50620000df620007b7565b3480156200022957600080fd5b50620001066200023b36600462001196565b620007f2565b3480156200024e57600080fd5b506033546001600160a01b0316620001eb565b3480156200026e57600080fd5b50620000df62000280366004620012a2565b62000820565b3480156200029357600080fd5b50620000df620002a536600462001196565b620008bf565b6033546001600160a01b03163314620002e15760405162461bcd60e51b8152600401620002d890620013a6565b60405180910390fd5b8051620002f69060ca9060208401906200102c565b507f562bf0237fa5139edc73ec903039c3a552e19ae62cc8292da62afeea43024b0a8160405162000328919062001275565b60405180910390a150565b606060ca83620003438462000993565b6040516020016200035793929190620014b8565b604051602081830303815290604052905092915050565b6001600160a01b037f0000000000000000000000000000000000000000000000000000000000000000163003620003b95760405162461bcd60e51b8152600401620002d89062001504565b7f00000000000000000000000000000000000000000000000000000000000000006001600160a01b031662000404600080516020620036d8833981519152546001600160a01b031690565b6001600160a01b0316146200042d5760405162461bcd60e51b8152600401620002d89062001550565b620004388162000ab4565b60408051600080825260208201909252620004569183919062000ae1565b50565b6001600160a01b037f0000000000000000000000000000000000000000000000000000000000000000163003620004a45760405162461bcd60e51b8152600401620002d89062001504565b7f00000000000000000000000000000000000000000000000000000000000000006001600160a01b0316620004ef600080516020620036d8833981519152546001600160a01b031690565b6001600160a01b031614620005185760405162461bcd60e51b8152600401620002d89062001550565b620005238262000ab4565b620005318282600162000ae1565b5050565b6000306001600160a01b037f00000000000000000000000000000000000000000000000000000000000000001614620005d75760405162461bcd60e51b815260206004820152603860248201527f555550535570677261646561626c653a206d757374206e6f742062652063616c60448201527f6c6564207468726f7567682064656c656761746563616c6c00000000000000006064820152608401620002d8565b50600080516020620036d883398151915290565b60006001600160a01b031660c9846040516200060891906200159c565b908152604051908190036020019020546001600160a01b031614620006675760405162461bcd60e51b81526020600482015260146024820152735469746c6520616c72656164792065786973747360601b6044820152606401620002d8565b600083836040516200067990620010bb565b62000686929190620015ba565b604051809103906000f080158015620006a3573d6000803e3d6000fd5b5060405163f2fde38b60e01b81523360048201529091506001600160a01b0382169063f2fde38b90602401600060405180830381600087803b158015620006e957600080fd5b505af1158015620006fe573d6000803e3d6000fd5b505050508060c9856040516200071591906200159c565b908152602001604051809103902060006101000a8154816001600160a01b0302191690836001600160a01b031602179055507ff7d319d8ec315dfae2045b25007f9eda5f3b5155f7cca94bd226a851b05d9d598460c9866040516200077b91906200159c565b90815260405190819003602001812054620007a992916001600160a01b0390911690879087903390620015e6565b60405180910390a150505050565b6033546001600160a01b03163314620007e45760405162461bcd60e51b8152600401620002d890620013a6565b620007f0600062000c5e565b565b606060ca826040516020016200080a9291906200163d565b6040516020818303038152906040529050919050565b6033546001600160a01b031633146200084d5760405162461bcd60e51b8152600401620002d890620013a6565b6001600160a01b038116620008b45760405162461bcd60e51b815260206004820152602660248201527f4f776e61626c653a206e6577206f776e657220697320746865207a65726f206160448201526564647265737360d01b6064820152608401620002d8565b620004568162000c5e565b6000620008cd600162000cb0565b90508015620008e6576000805461ff0019166101001790555b620008f062000d45565b620008fa62000d79565b81516200090f9060ca9060208501906200102c565b507f562bf0237fa5139edc73ec903039c3a552e19ae62cc8292da62afeea43024b0a8260405162000941919062001275565b60405180910390a1801562000531576000805461ff0019169055604051600181527f7f26b83ff96e1f2b6a682f133852f6798a09c465da95921460cefb38474024989060200160405180910390a15050565b606081600003620009bb5750506040805180820190915260018152600360fc1b602082015290565b8160005b8115620009eb5780620009d2816200167c565b9150620009e39050600a83620016ae565b9150620009bf565b60008167ffffffffffffffff81111562000a095762000a09620010e0565b6040519080825280601f01601f19166020018201604052801562000a34576020820181803683370190505b5090505b841562000aac5762000a4c600183620016c5565b915062000a5b600a86620016df565b62000a68906030620016f6565b60f81b81838151811062000a805762000a8062001711565b60200101906001600160f81b031916908160001a90535062000aa4600a86620016ae565b945062000a38565b949350505050565b6033546001600160a01b03163314620004565760405162461bcd60e51b8152600401620002d890620013a6565b7f4910fdfa16fed3260ed0e7147f7cc6da11a60208b5b9406d12a635614ffd91435460ff161562000b1c5762000b178362000da3565b505050565b826001600160a01b03166352d1902d6040518163ffffffff1660e01b8152600401602060405180830381865afa92505050801562000b79575060408051601f3d908101601f1916820190925262000b769181019062001727565b60015b62000bde5760405162461bcd60e51b815260206004820152602e60248201527f45524331393637557067726164653a206e657720696d706c656d656e7461746960448201526d6f6e206973206e6f74205555505360901b6064820152608401620002d8565b600080516020620036d8833981519152811462000c505760405162461bcd60e51b815260206004820152602960248201527f45524331393637557067726164653a20756e737570706f727465642070726f786044820152681a58589b195555525160ba1b6064820152608401620002d8565b5062000b1783838362000e42565b603380546001600160a01b038381166001600160a01b0319831681179093556040519116919082907f8be0079c531659141344cd1fd0a4f28419497f9722a3daafe3b4186f6b6457e090600090a35050565b60008054610100900460ff161562000cfc578160ff16600114801562000cd55750303b155b62000cf45760405162461bcd60e51b8152600401620002d89062001741565b506000919050565b60005460ff80841691161062000d265760405162461bcd60e51b8152600401620002d89062001741565b506000805460ff191660ff92909216919091179055600190565b919050565b600054610100900460ff1662000d6f5760405162461bcd60e51b8152600401620002d8906200178f565b620007f062000e73565b600054610100900460ff16620007f05760405162461bcd60e51b8152600401620002d8906200178f565b6001600160a01b0381163b62000e125760405162461bcd60e51b815260206004820152602d60248201527f455243313936373a206e657720696d706c656d656e746174696f6e206973206e60448201526c1bdd08184818dbdb9d1c9858dd609a1b6064820152608401620002d8565b600080516020620036d883398151915280546001600160a01b0319166001600160a01b0392909216919091179055565b62000e4d8362000ea8565b60008251118062000e5b5750805b1562000b175762000e6d838362000eea565b50505050565b600054610100900460ff1662000e9d5760405162461bcd60e51b8152600401620002d8906200178f565b620007f03362000c5e565b62000eb38162000da3565b6040516001600160a01b038216907fbc7cd75a20ee27fd9adebab32041f755214dbc6bffa90cc0225b39da2e5c2d3b90600090a250565b60606001600160a01b0383163b62000f545760405162461bcd60e51b815260206004820152602660248201527f416464726573733a2064656c65676174652063616c6c20746f206e6f6e2d636f6044820152651b9d1c9858dd60d21b6064820152608401620002d8565b600080846001600160a01b03168460405162000f7191906200159c565b600060405180830381855af49150503d806000811462000fae576040519150601f19603f3d011682016040523d82523d6000602084013e62000fb3565b606091505b509150915062000fde8282604051806060016040528060278152602001620036f86027913962000fe7565b95945050505050565b6060831562000ff857508162001025565b825115620010095782518084602001fd5b8160405162461bcd60e51b8152600401620002d8919062001275565b9392505050565b8280546200103a90620013db565b90600052602060002090601f0160209004810192826200105e5760008555620010a9565b82601f106200107957805160ff1916838001178555620010a9565b82800160010185558215620010a9579182015b82811115620010a95782518255916020019190600101906200108c565b50620010b7929150620010c9565b5090565b611efd80620017db83390190565b5b80821115620010b75760008155600101620010ca565b634e487b7160e01b600052604160045260246000fd5b600067ffffffffffffffff80841115620011145762001114620010e0565b604051601f8501601f19908116603f011681019082821181831017156200113f576200113f620010e0565b816040528093508581528686860111156200115957600080fd5b858560208301376000602087830101525050509392505050565b600082601f8301126200118557600080fd5b6200102583833560208501620010f6565b600060208284031215620011a957600080fd5b813567ffffffffffffffff811115620011c157600080fd5b62000aac8482850162001173565b60008060408385031215620011e357600080fd5b823567ffffffffffffffff811115620011fb57600080fd5b620012098582860162001173565b95602094909401359450505050565b60005b83811015620012355781810151838201526020016200121b565b8381111562000e6d5750506000910152565b600081518084526200126181602086016020860162001218565b601f01601f19169290920160200192915050565b60208152600062001025602083018462001247565b80356001600160a01b038116811462000d4057600080fd5b600060208284031215620012b557600080fd5b62001025826200128a565b60008060408385031215620012d457600080fd5b620012df836200128a565b9150602083013567ffffffffffffffff811115620012fc57600080fd5b8301601f810185136200130e57600080fd5b6200131f85823560208401620010f6565b9150509250929050565b6000806000606084860312156200133f57600080fd5b833567ffffffffffffffff808211156200135857600080fd5b620013668783880162001173565b945062001376602087016200128a565b935060408601359150808211156200138d57600080fd5b506200139c8682870162001173565b9150509250925092565b6020808252818101527f4f776e61626c653a2063616c6c6572206973206e6f7420746865206f776e6572604082015260600190565b600181811c90821680620013f057607f821691505b6020821081036200141157634e487b7160e01b600052602260045260246000fd5b50919050565b8054600090600181811c90808316806200143257607f831692505b602080841082036200145457634e487b7160e01b600052602260045260246000fd5b8180156200146b57600181146200147d57620014ac565b60ff19861689528489019650620014ac565b60008881526020902060005b86811015620014a45781548b82015290850190830162001489565b505084890196505b50505050505092915050565b6000620014c6828662001417565b8451620014d881836020890162001218565b602f60f81b91019081528351620014f781600184016020880162001218565b0160010195945050505050565b6020808252602c908201527f46756e6374696f6e206d7573742062652063616c6c6564207468726f7567682060408201526b19195b1959d85d1958d85b1b60a21b606082015260800190565b6020808252602c908201527f46756e6374696f6e206d7573742062652063616c6c6564207468726f7567682060408201526b6163746976652070726f787960a01b606082015260800190565b60008251620015b081846020870162001218565b9190910192915050565b604081526000620015cf604083018562001247565b905060018060a01b03831660208301529392505050565b60a081526000620015fb60a083018862001247565b6001600160a01b0387811660208501528681166040850152838203606085015262001627828762001247565b9250808516608085015250509695505050505050565b60006200164b828562001417565b83516200165d81836020880162001218565b01949350505050565b634e487b7160e01b600052601160045260246000fd5b60006001820162001691576200169162001666565b5060010190565b634e487b7160e01b600052601260045260246000fd5b600082620016c057620016c062001698565b500490565b600082821015620016da57620016da62001666565b500390565b600082620016f157620016f162001698565b500690565b600082198211156200170c576200170c62001666565b500190565b634e487b7160e01b600052603260045260246000fd5b6000602082840312156200173a57600080fd5b5051919050565b6020808252602e908201527f496e697469616c697a61626c653a20636f6e747261637420697320616c72656160408201526d191e481a5b9a5d1a585b1a5e995960921b606082015260800190565b6020808252602b908201527f496e697469616c697a61626c653a20636f6e7472616374206973206e6f74206960408201526a6e697469616c697a696e6760a81b60608201526080019056fe60806040523480156200001157600080fd5b5060405162001efd38038062001efd8339810160408190526200003491620001f5565b8151829081906200004d9060009060208401906200011c565b508051620000639060019060208401906200011c565b505050620000806200007a620000c660201b60201c565b620000ca565b81516200009590600a9060208501906200011c565b50600b80546001600160a01b039092166001600160a01b0319928316179055600d8054909116331790555062000322565b3390565b600680546001600160a01b038381166001600160a01b0319831681179093556040519116919082907f8be0079c531659141344cd1fd0a4f28419497f9722a3daafe3b4186f6b6457e090600090a35050565b8280546200012a90620002e6565b90600052602060002090601f0160209004810192826200014e576000855562000199565b82601f106200016957805160ff191683800117855562000199565b8280016001018555821562000199579182015b82811115620001995782518255916020019190600101906200017c565b50620001a7929150620001ab565b5090565b5b80821115620001a75760008155600101620001ac565b634e487b7160e01b600052604160045260246000fd5b80516001600160a01b0381168114620001f057600080fd5b919050565b600080604083850312156200020957600080fd5b82516001600160401b03808211156200022157600080fd5b818501915085601f8301126200023657600080fd5b8151818111156200024b576200024b620001c2565b604051601f8201601f19908116603f01168101908382118183101715620002765762000276620001c2565b816040528281526020935088848487010111156200029357600080fd5b600091505b82821015620002b7578482018401518183018501529083019062000298565b82821115620002c95760008484830101525b9550620002db915050858201620001d8565b925050509250929050565b600181811c90821680620002fb57607f821691505b6020821081036200031c57634e487b7160e01b600052602260045260246000fd5b50919050565b611bcb80620003326000396000f3fe608060405234801561001057600080fd5b506004361061018e5760003560e01c80638da5cb5b116100de578063cc5519f911610097578063d7959cf911610071578063d7959cf914610351578063e8a3d48514610359578063e985e9c514610361578063f2fde38b1461039d57600080fd5b8063cc5519f914610318578063d19ac77a1461032b578063d53b92931461033e57600080fd5b80638da5cb5b146102b357806395d89b41146102c4578063a22cb465146102cc578063b88d4fde146102df578063c45a0155146102f2578063c87b56dd1461030557600080fd5b806342842e0e1161014b57806370a082311161012557806370a0823114610264578063715018a61461028557806382f8fc5d1461028d5780638d59d1f1146102a057600080fd5b806342842e0e146102365780634a79d50c146102495780636352211e1461025157600080fd5b806301ffc9a71461019357806306fdde03146101bb578063081812fc146101d0578063095ea7b3146101fb57806311df99951461021057806323b872dd14610223575b600080fd5b6101a66101a1366004611481565b6103b0565b60405190151581526020015b60405180910390f35b6101c3610402565b6040516101b291906114fd565b6101e36101de366004611510565b610494565b6040516001600160a01b0390911681526020016101b2565b61020e610209366004611545565b61052e565b005b600b546101e3906001600160a01b031681565b61020e61023136600461156f565b610643565b61020e61024436600461156f565b610674565b6101c361068f565b6101e361025f366004611510565b61071d565b6102776102723660046115ab565b610794565b6040519081526020016101b2565b61020e61081b565b61020e61029b366004611693565b610851565b61020e6102ae3660046116c8565b6108b5565b6006546001600160a01b03166101e3565b6101c3610a02565b61020e6102da36600461171d565b610a11565b61020e6102ed366004611754565b610a20565b600d546101e3906001600160a01b031681565b6101c3610313366004611510565b610a58565b61020e6103263660046116c8565b610ad1565b61020e610339366004611693565b610b87565b61020e61034c3660046117d0565b610be0565b6101c3610c63565b6101c3610c70565b6101a661036f3660046117f2565b6001600160a01b03918216600090815260056020908152604080832093909416825291909152205460ff1690565b61020e6103ab3660046115ab565b610cec565b60006001600160e01b031982166380ac58cd60e01b14806103e157506001600160e01b03198216635b5e139f60e01b145b806103fc57506301ffc9a760e01b6001600160e01b03198316145b92915050565b60606000805461041190611825565b80601f016020809104026020016040519081016040528092919081815260200182805461043d90611825565b801561048a5780601f1061045f5761010080835404028352916020019161048a565b820191906000526020600020905b81548152906001019060200180831161046d57829003601f168201915b5050505050905090565b6000818152600260205260408120546001600160a01b03166105125760405162461bcd60e51b815260206004820152602c60248201527f4552433732313a20617070726f76656420717565727920666f72206e6f6e657860448201526b34b9ba32b73a103a37b5b2b760a11b60648201526084015b60405180910390fd5b506000908152600460205260409020546001600160a01b031690565b60006105398261071d565b9050806001600160a01b0316836001600160a01b0316036105a65760405162461bcd60e51b815260206004820152602160248201527f4552433732313a20617070726f76616c20746f2063757272656e74206f776e656044820152603960f91b6064820152608401610509565b336001600160a01b03821614806105c257506105c2813361036f565b6106345760405162461bcd60e51b815260206004820152603860248201527f4552433732313a20617070726f76652063616c6c6572206973206e6f74206f7760448201527f6e6572206e6f7220617070726f76656420666f7220616c6c00000000000000006064820152608401610509565b61063e8383610d87565b505050565b61064d3382610df5565b6106695760405162461bcd60e51b81526004016105099061185f565b61063e838383610eec565b61063e83838360405180602001604052806000815250610a20565b600a805461069c90611825565b80601f01602080910402602001604051908101604052809291908181526020018280546106c890611825565b80156107155780601f106106ea57610100808354040283529160200191610715565b820191906000526020600020905b8154815290600101906020018083116106f857829003601f168201915b505050505081565b6000818152600260205260408120546001600160a01b0316806103fc5760405162461bcd60e51b815260206004820152602960248201527f4552433732313a206f776e657220717565727920666f72206e6f6e657869737460448201526832b73a103a37b5b2b760b91b6064820152608401610509565b60006001600160a01b0382166107ff5760405162461bcd60e51b815260206004820152602a60248201527f4552433732313a2062616c616e636520717565727920666f7220746865207a65604482015269726f206164647265737360b01b6064820152608401610509565b506001600160a01b031660009081526003602052604090205490565b6006546001600160a01b031633146108455760405162461bcd60e51b8152600401610509906118b0565b61084f6000611088565b565b6006546001600160a01b0316331461087b5760405162461bcd60e51b8152600401610509906118b0565b7f6aa6a2f540f772686aecbd6928e19156e3ac4772a42c85728503142247a321eb816040516108aa91906114fd565b60405180910390a150565b600082116108fc5760405162461bcd60e51b81526020600482015260146024820152730446f6e6174696f6e20616d6f756e7420697320360641b6044820152606401610509565b600b546001600160a01b03166323b872dd336109206006546001600160a01b031690565b6040516001600160e01b031960e085901b1681526001600160a01b03928316600482015291166024820152604481018590526064016020604051808303816000875af1158015610974573d6000803e3d6000fd5b505050506040513d601f19601f8201168201806040525081019061099891906118e5565b506109a7600780546001019055565b6109b9336109b460075490565b6110da565b7f9efd1c20b721b108b8066d3f3ae9227dc1fe9c63f8d9f1340897983a904ade356109e360075490565b8383336040516109f69493929190611902565b60405180910390a15050565b60606001805461041190611825565b610a1c3383836110f4565b5050565b610a2a3383610df5565b610a465760405162461bcd60e51b81526004016105099061185f565b610a52848484846111c2565b50505050565b600d54604051630ebf131160e01b81526060916001600160a01b031690630ebf131190610a8c90600a9086906004016119d9565b600060405180830381865afa158015610aa9573d6000803e3d6000fd5b505050506040513d6000823e601f3d908101601f191682016040526103fc91908101906119fb565b6006546001600160a01b03163314610afb5760405162461bcd60e51b8152600401610509906118b0565b610b09600880546001019055565b610b138242611a88565b60096000610b2060085490565b81526020810191909152604001600020557f9ab89bae6d8cd7aa1a93b96e5c42476e6b826d7cd7f68ed94e889556f91b2b3d610b5b60085490565b60096000610b6860085490565b815260200190815260200160002054836040516109f693929190611aa0565b6006546001600160a01b03163314610bb15760405162461bcd60e51b8152600401610509906118b0565b7faf8ddd065c6a5fccdffbc9192f91e03ec528681278d78523226450646da138ed816040516108aa91906114fd565b600082815260096020526040902054421115610c2d5760405162461bcd60e51b815260206004820152600c60248201526b159bdd1a5b99c8195b99195960a21b6044820152606401610509565b60408051838152602081018390527f210e6029641352a94c63d645e8bfeebcda1cc84abf4e95efb3dfdc58fc891f4291016109f6565b600c805461069c90611825565b600d54604051631f5c7dc360e21b81526060916001600160a01b031690637d71f70c90610ca290600a90600401611abf565b600060405180830381865afa158015610cbf573d6000803e3d6000fd5b505050506040513d6000823e601f3d908101601f19168201604052610ce791908101906119fb565b905090565b6006546001600160a01b03163314610d165760405162461bcd60e51b8152600401610509906118b0565b6001600160a01b038116610d7b5760405162461bcd60e51b815260206004820152602660248201527f4f776e61626c653a206e6577206f776e657220697320746865207a65726f206160448201526564647265737360d01b6064820152608401610509565b610d8481611088565b50565b600081815260046020526040902080546001600160a01b0319166001600160a01b0384169081179091558190610dbc8261071d565b6001600160a01b03167f8c5be1e5ebec7d5bd14f71427d1e84f3dd0314c0f7b2291e5b200ac8c7c3b92560405160405180910390a45050565b6000818152600260205260408120546001600160a01b0316610e6e5760405162461bcd60e51b815260206004820152602c60248201527f4552433732313a206f70657261746f7220717565727920666f72206e6f6e657860448201526b34b9ba32b73a103a37b5b2b760a11b6064820152608401610509565b6000610e798361071d565b9050806001600160a01b0316846001600160a01b03161480610ec057506001600160a01b0380821660009081526005602090815260408083209388168352929052205460ff165b80610ee45750836001600160a01b0316610ed984610494565b6001600160a01b0316145b949350505050565b826001600160a01b0316610eff8261071d565b6001600160a01b031614610f635760405162461bcd60e51b815260206004820152602560248201527f4552433732313a207472616e736665722066726f6d20696e636f72726563742060448201526437bbb732b960d91b6064820152608401610509565b6001600160a01b038216610fc55760405162461bcd60e51b8152602060048201526024808201527f4552433732313a207472616e7366657220746f20746865207a65726f206164646044820152637265737360e01b6064820152608401610509565b610fd0600082610d87565b6001600160a01b0383166000908152600360205260408120805460019290610ff9908490611ad2565b90915550506001600160a01b0382166000908152600360205260408120805460019290611027908490611a88565b909155505060008181526002602052604080822080546001600160a01b0319166001600160a01b0386811691821790925591518493918716917fddf252ad1be2c89b69c2b068fc378daa952ba7f163c4a11628f55a4df523b3ef91a4505050565b600680546001600160a01b038381166001600160a01b0319831681179093556040519116919082907f8be0079c531659141344cd1fd0a4f28419497f9722a3daafe3b4186f6b6457e090600090a35050565b610a1c8282604051806020016040528060008152506111f5565b816001600160a01b0316836001600160a01b0316036111555760405162461bcd60e51b815260206004820152601960248201527f4552433732313a20617070726f766520746f2063616c6c6572000000000000006044820152606401610509565b6001600160a01b03838116600081815260056020908152604080832094871680845294825291829020805460ff191686151590811790915591519182527f17307eab39ab6107e8899845ad3d59bd9653f200f220920489ca2b5937696c31910160405180910390a3505050565b6111cd848484610eec565b6111d984848484611228565b610a525760405162461bcd60e51b815260040161050990611ae9565b6111ff8383611329565b61120c6000848484611228565b61063e5760405162461bcd60e51b815260040161050990611ae9565b60006001600160a01b0384163b1561131e57604051630a85bd0160e11b81526001600160a01b0385169063150b7a029061126c903390899088908890600401611b3b565b6020604051808303816000875af19250505080156112a7575060408051601f3d908101601f191682019092526112a491810190611b78565b60015b611304573d8080156112d5576040519150601f19603f3d011682016040523d82523d6000602084013e6112da565b606091505b5080516000036112fc5760405162461bcd60e51b815260040161050990611ae9565b805181602001fd5b6001600160e01b031916630a85bd0160e11b149050610ee4565b506001949350505050565b6001600160a01b03821661137f5760405162461bcd60e51b815260206004820181905260248201527f4552433732313a206d696e7420746f20746865207a65726f20616464726573736044820152606401610509565b6000818152600260205260409020546001600160a01b0316156113e45760405162461bcd60e51b815260206004820152601c60248201527f4552433732313a20746f6b656e20616c7265616479206d696e746564000000006044820152606401610509565b6001600160a01b038216600090815260036020526040812080546001929061140d908490611a88565b909155505060008181526002602052604080822080546001600160a01b0319166001600160a01b03861690811790915590518392907fddf252ad1be2c89b69c2b068fc378daa952ba7f163c4a11628f55a4df523b3ef908290a45050565b6001600160e01b031981168114610d8457600080fd5b60006020828403121561149357600080fd5b813561149e8161146b565b9392505050565b60005b838110156114c05781810151838201526020016114a8565b83811115610a525750506000910152565b600081518084526114e98160208601602086016114a5565b601f01601f19169290920160200192915050565b60208152600061149e60208301846114d1565b60006020828403121561152257600080fd5b5035919050565b80356001600160a01b038116811461154057600080fd5b919050565b6000806040838503121561155857600080fd5b61156183611529565b946020939093013593505050565b60008060006060848603121561158457600080fd5b61158d84611529565b925061159b60208501611529565b9150604084013590509250925092565b6000602082840312156115bd57600080fd5b61149e82611529565b634e487b7160e01b600052604160045260246000fd5b604051601f8201601f1916810167ffffffffffffffff81118282101715611605576116056115c6565b604052919050565b600067ffffffffffffffff821115611627576116276115c6565b50601f01601f191660200190565b60006116486116438461160d565b6115dc565b905082815283838301111561165c57600080fd5b828260208301376000602084830101529392505050565b600082601f83011261168457600080fd5b61149e83833560208501611635565b6000602082840312156116a557600080fd5b813567ffffffffffffffff8111156116bc57600080fd5b610ee484828501611673565b600080604083850312156116db57600080fd5b82359150602083013567ffffffffffffffff8111156116f957600080fd5b61170585828601611673565b9150509250929050565b8015158114610d8457600080fd5b6000806040838503121561173057600080fd5b61173983611529565b915060208301356117498161170f565b809150509250929050565b6000806000806080858703121561176a57600080fd5b61177385611529565b935061178160208601611529565b925060408501359150606085013567ffffffffffffffff8111156117a457600080fd5b8501601f810187136117b557600080fd5b6117c487823560208401611635565b91505092959194509250565b600080604083850312156117e357600080fd5b50508035926020909101359150565b6000806040838503121561180557600080fd5b61180e83611529565b915061181c60208401611529565b90509250929050565b600181811c9082168061183957607f821691505b60208210810361185957634e487b7160e01b600052602260045260246000fd5b50919050565b60208082526031908201527f4552433732313a207472616e736665722063616c6c6572206973206e6f74206f6040820152701ddb995c881b9bdc88185c1c1c9bdd9959607a1b606082015260800190565b6020808252818101527f4f776e61626c653a2063616c6c6572206973206e6f7420746865206f776e6572604082015260600190565b6000602082840312156118f757600080fd5b815161149e8161170f565b84815283602082015260806040820152600061192160808301856114d1565b905060018060a01b038316606083015295945050505050565b8054600090600181811c908083168061195457607f831692505b6020808410820361197557634e487b7160e01b600052602260045260246000fd5b8388526020880182801561199057600181146119a1576119cc565b60ff198716825282820197506119cc565b60008981526020902060005b878110156119c6578154848201529086019084016119ad565b83019850505b5050505050505092915050565b6040815260006119ec604083018561193a565b90508260208301529392505050565b600060208284031215611a0d57600080fd5b815167ffffffffffffffff811115611a2457600080fd5b8201601f81018413611a3557600080fd5b8051611a436116438261160d565b818152856020838501011115611a5857600080fd5b611a698260208301602086016114a5565b95945050505050565b634e487b7160e01b600052601160045260246000fd5b60008219821115611a9b57611a9b611a72565b500190565b838152826020820152606060408201526000611a6960608301846114d1565b60208152600061149e602083018461193a565b600082821015611ae457611ae4611a72565b500390565b60208082526032908201527f4552433732313a207472616e7366657220746f206e6f6e20455243373231526560408201527131b2b4bb32b91034b6b83632b6b2b73a32b960711b606082015260800190565b6001600160a01b0385811682528416602082015260408101839052608060608201819052600090611b6e908301846114d1565b9695505050505050565b600060208284031215611b8a57600080fd5b815161149e8161146b56fea26469706673582212204a72e50be96d82a6aba2e56aeab026c68d21aaaa59e264fb13643ab0ff9954c664736f6c634300080d0033360894a13ba1a3210667c828492db98dca3e2076cc3735a920a3ca505d382bbc416464726573733a206c6f772d6c6576656c2064656c65676174652063616c6c206661696c6564a26469706673582212207470525ad626059a7bf2f1a469f8f6745e71f1b6c7d4369b0283b8aedb658c5c64736f6c634300080d0033",
  "linkReferences": {},
  "deployedLinkReferences": {}
}