{
  "_format": "hh-sol-artifact-1",
  "contractName": "Factory",
  "sourceName": "contracts/Factory.sol",
  "abi": [
    {
      "inputs": [
        {
          "internalType": "string",
          "name": "uri",
          "type": "string"
        }
      ],
      "stateMutability": "nonpayable",
      "type": "constructor"
    },
    {
      "anonymous": false,
      "inputs": [
        {
          "indexed": false,
          "internalType": "string",
          "name": "title",
          "type": "string"
        },
        {
          "indexed": false,
          "internalType": "address",
          "name": "collection",
          "type": "address"
        },
        {
          "indexed": false,
          "internalType": "address",
          "name": "owner",
          "type": "address"
        },
        {
          "indexed": false,
          "internalType": "address",
          "name": "projectCoin",
          "type": "address"
        },
        {
          "indexed": false,
          "internalType": "address",
          "name": "projectOwner",
          "type": "address"
        },
        {
          "indexed": false,
          "internalType": "string",
          "name": "projectIpfs",
          "type": "string"
        }
      ],
      "name": "NewCollection",
      "type": "event"
    },
    {
      "anonymous": false,
      "inputs": [
        {
          "indexed": true,
          "internalType": "address",
          "name": "previousOwner",
          "type": "address"
        },
        {
          "indexed": true,
          "internalType": "address",
          "name": "newOwner",
          "type": "address"
        }
      ],
      "name": "OwnershipTransferred",
      "type": "event"
    },
    {
      "anonymous": false,
      "inputs": [
        {
          "indexed": false,
          "internalType": "string",
          "name": "uri",
          "type": "string"
        }
      ],
      "name": "SetURI",
      "type": "event"
    },
    {
      "inputs": [
        {
          "internalType": "string",
          "name": "",
          "type": "string"
        }
      ],
      "name": "collections",
      "outputs": [
        {
          "internalType": "address",
          "name": "",
          "type": "address"
        }
      ],
      "stateMutability": "view",
      "type": "function"
    },
    {
      "inputs": [
        {
          "internalType": "string",
          "name": "title",
          "type": "string"
        }
      ],
      "name": "getContractURI",
      "outputs": [
        {
          "internalType": "string",
          "name": "",
          "type": "string"
        }
      ],
      "stateMutability": "view",
      "type": "function"
    },
    {
      "inputs": [
        {
          "internalType": "string",
          "name": "title",
          "type": "string"
        },
        {
          "internalType": "uint256",
          "name": "tokenId",
          "type": "uint256"
        }
      ],
      "name": "getTokenURI",
      "outputs": [
        {
          "internalType": "string",
          "name": "",
          "type": "string"
        }
      ],
      "stateMutability": "view",
      "type": "function"
    },
    {
      "inputs": [
        {
          "internalType": "string",
          "name": "title",
          "type": "string"
        },
        {
          "internalType": "address",
          "name": "projectCoin",
          "type": "address"
        },
        {
          "internalType": "address",
          "name": "projectOwner",
          "type": "address"
        },
        {
          "internalType": "string",
          "name": "projectIpfs",
          "type": "string"
        }
      ],
      "name": "newCollection",
      "outputs": [],
      "stateMutability": "nonpayable",
      "type": "function"
    },
    {
      "inputs": [],
      "name": "owner",
      "outputs": [
        {
          "internalType": "address",
          "name": "",
          "type": "address"
        }
      ],
      "stateMutability": "view",
      "type": "function"
    },
    {
      "inputs": [],
      "name": "renounceOwnership",
      "outputs": [],
      "stateMutability": "nonpayable",
      "type": "function"
    },
    {
      "inputs": [
        {
          "internalType": "string",
          "name": "uri",
          "type": "string"
        }
      ],
      "name": "setURI",
      "outputs": [],
      "stateMutability": "nonpayable",
      "type": "function"
    },
    {
      "inputs": [
        {
          "internalType": "address",
          "name": "newOwner",
          "type": "address"
        }
      ],
      "name": "transferOwnership",
      "outputs": [],
      "stateMutability": "nonpayable",
      "type": "function"
    }
  ],
  "bytecode": "0x60806040523480156200001157600080fd5b506040516200593f3803806200593f83398181016040528101906200003791906200029e565b620000576200004b620000b060201b60201c565b620000b860201b60201c565b80600290805190602001906200006f9291906200017c565b507f562bf0237fa5139edc73ec903039c3a552e19ae62cc8292da62afeea43024b0a81604051620000a1919062000324565b60405180910390a150620004d4565b600033905090565b60008060009054906101000a900473ffffffffffffffffffffffffffffffffffffffff169050816000806101000a81548173ffffffffffffffffffffffffffffffffffffffff021916908373ffffffffffffffffffffffffffffffffffffffff1602179055508173ffffffffffffffffffffffffffffffffffffffff168173ffffffffffffffffffffffffffffffffffffffff167f8be0079c531659141344cd1fd0a4f28419497f9722a3daafe3b4186f6b6457e060405160405180910390a35050565b8280546200018a90620003f9565b90600052602060002090601f016020900481019282620001ae5760008555620001fa565b82601f10620001c957805160ff1916838001178555620001fa565b82800160010185558215620001fa579182015b82811115620001f9578251825591602001919060010190620001dc565b5b5090506200020991906200020d565b5090565b5b80821115620002285760008160009055506001016200020e565b5090565b6000620002436200023d8462000371565b62000348565b9050828152602081018484840111156200025c57600080fd5b62000269848285620003c3565b509392505050565b600082601f8301126200028357600080fd5b8151620002958482602086016200022c565b91505092915050565b600060208284031215620002b157600080fd5b600082015167ffffffffffffffff811115620002cc57600080fd5b620002da8482850162000271565b91505092915050565b6000620002f082620003a7565b620002fc8185620003b2565b93506200030e818560208601620003c3565b6200031981620004c3565b840191505092915050565b60006020820190508181036000830152620003408184620002e3565b905092915050565b60006200035462000367565b90506200036282826200042f565b919050565b6000604051905090565b600067ffffffffffffffff8211156200038f576200038e62000494565b5b6200039a82620004c3565b9050602081019050919050565b600081519050919050565b600082825260208201905092915050565b60005b83811015620003e3578082015181840152602081019050620003c6565b83811115620003f3576000848401525b50505050565b600060028204905060018216806200041257607f821691505b6020821081141562000429576200042862000465565b5b50919050565b6200043a82620004c3565b810181811067ffffffffffffffff821117156200045c576200045b62000494565b5b80604052505050565b7f4e487b7100000000000000000000000000000000000000000000000000000000600052602260045260246000fd5b7f4e487b7100000000000000000000000000000000000000000000000000000000600052604160045260246000fd5b6000601f19601f8301169050919050565b61545b80620004e46000396000f3fe60806040523480156200001157600080fd5b5060043610620000945760003560e01c8063715018a61162000063578063715018a614620001455780637d71f70c14620001515780638da5cb5b1462000187578063f2fde38b14620001a95762000094565b806302fe530514620000995780630ebf131114620000b9578063522453fb14620000ef57806366e54d7b146200010f575b600080fd5b620000b76004803603810190620000b1919062000b76565b620001c9565b005b620000d76004803603810190620000d1919062000c59565b620002a1565b604051620000e6919062000f05565b60405180910390f35b6200010d600480360381019062000107919062000bbb565b620002dc565b005b6200012d600480360381019062000127919062000b76565b62000529565b6040516200013c919062000ee8565b60405180910390f35b6200014f62000572565b005b6200016f600480360381019062000169919062000b76565b62000603565b6040516200017e919062000f05565b60405180910390f35b6200019162000631565b604051620001a0919062000ee8565b60405180910390f35b620001c76004803603810190620001c1919062000b4a565b6200065a565b005b620001d36200075e565b73ffffffffffffffffffffffffffffffffffffffff16620001f362000631565b73ffffffffffffffffffffffffffffffffffffffff16146200024c576040517f08c379a0000000000000000000000000000000000000000000000000000000008152600401620002439062001021565b60405180910390fd5b806002908051906020019062000264929190620009ec565b507f562bf0237fa5139edc73ec903039c3a552e19ae62cc8292da62afeea43024b0a8160405162000296919062000f05565b60405180910390a150565b6060600283620002b18462000766565b604051602001620002c59392919062000ea4565b604051602081830303815290604052905092915050565b600073ffffffffffffffffffffffffffffffffffffffff1660018560405162000306919062000e63565b908152602001604051809103902060009054906101000a900473ffffffffffffffffffffffffffffffffffffffff1673ffffffffffffffffffffffffffffffffffffffff16146200038e576040517f08c379a0000000000000000000000000000000000000000000000000000000008152600401620003859062001043565b60405180910390fd5b600084848484604051620003a29062000a7d565b620003b1949392919062000fa4565b604051809103906000f080158015620003ce573d6000803e3d6000fd5b5090508073ffffffffffffffffffffffffffffffffffffffff1663f2fde38b336040518263ffffffff1660e01b81526004016200040c919062000ee8565b600060405180830381600087803b1580156200042757600080fd5b505af11580156200043c573d6000803e3d6000fd5b505050508060018660405162000453919062000e63565b908152602001604051809103902060006101000a81548173ffffffffffffffffffffffffffffffffffffffff021916908373ffffffffffffffffffffffffffffffffffffffff1602179055507f2a0d50acba9b8a871019f02f87c3cbc0026dc5670ac0612e9df22ae581a3411185600187604051620004d3919062000e63565b908152602001604051809103902060009054906101000a900473ffffffffffffffffffffffffffffffffffffffff16338787876040516200051a9695949392919062000f29565b60405180910390a15050505050565b6001818051602081018201805184825260208301602085012081835280955050505050506000915054906101000a900473ffffffffffffffffffffffffffffffffffffffff1681565b6200057c6200075e565b73ffffffffffffffffffffffffffffffffffffffff166200059c62000631565b73ffffffffffffffffffffffffffffffffffffffff1614620005f5576040517f08c379a0000000000000000000000000000000000000000000000000000000008152600401620005ec9062001021565b60405180910390fd5b62000601600062000928565b565b60606002826040516020016200061b92919062000e7c565b6040516020818303038152906040529050919050565b60008060009054906101000a900473ffffffffffffffffffffffffffffffffffffffff16905090565b620006646200075e565b73ffffffffffffffffffffffffffffffffffffffff166200068462000631565b73ffffffffffffffffffffffffffffffffffffffff1614620006dd576040517f08c379a0000000000000000000000000000000000000000000000000000000008152600401620006d49062001021565b60405180910390fd5b600073ffffffffffffffffffffffffffffffffffffffff168173ffffffffffffffffffffffffffffffffffffffff16141562000750576040517f08c379a0000000000000000000000000000000000000000000000000000000008152600401620007479062000fff565b60405180910390fd5b6200075b8162000928565b50565b600033905090565b60606000821415620007b0576040518060400160405280600181526020017f3000000000000000000000000000000000000000000000000000000000000000815250905062000923565b600082905060005b60008214620007e8578080620007ce90620012bf565b915050600a82620007e091906200115d565b9150620007b8565b60008167ffffffffffffffff8111156200082b577f4e487b7100000000000000000000000000000000000000000000000000000000600052604160045260246000fd5b6040519080825280601f01601f1916602001820160405280156200085e5781602001600182028036833780820191505090505b5090505b600085146200091c576001826200087a919062001195565b9150600a856200088b91906200130d565b603062000899919062001100565b60f81b818381518110620008d6577f4e487b7100000000000000000000000000000000000000000000000000000000600052603260045260246000fd5b60200101907effffffffffffffffffffffffffffffffffffffffffffffffffffffffffffff1916908160001a905350600a856200091491906200115d565b945062000862565b8093505050505b919050565b60008060009054906101000a900473ffffffffffffffffffffffffffffffffffffffff169050816000806101000a81548173ffffffffffffffffffffffffffffffffffffffff021916908373ffffffffffffffffffffffffffffffffffffffff1602179055508173ffffffffffffffffffffffffffffffffffffffff168173ffffffffffffffffffffffffffffffffffffffff167f8be0079c531659141344cd1fd0a4f28419497f9722a3daafe3b4186f6b6457e060405160405180910390a35050565b828054620009fa9062001253565b90600052602060002090601f01602090048101928262000a1e576000855562000a6a565b82601f1062000a3957805160ff191683800117855562000a6a565b8280016001018555821562000a6a579182015b8281111562000a6957825182559160200191906001019062000a4c565b5b50905062000a79919062000a8b565b5090565b613f15806200151183390190565b5b8082111562000aa657600081600090555060010162000a8c565b5090565b600062000ac162000abb846200108e565b62001065565b90508281526020810184848401111562000ada57600080fd5b62000ae78482856200120e565b509392505050565b60008135905062000b0081620014dc565b92915050565b600082601f83011262000b1857600080fd5b813562000b2a84826020860162000aaa565b91505092915050565b60008135905062000b4481620014f6565b92915050565b60006020828403121562000b5d57600080fd5b600062000b6d8482850162000aef565b91505092915050565b60006020828403121562000b8957600080fd5b600082013567ffffffffffffffff81111562000ba457600080fd5b62000bb28482850162000b06565b91505092915050565b6000806000806080858703121562000bd257600080fd5b600085013567ffffffffffffffff81111562000bed57600080fd5b62000bfb8782880162000b06565b945050602062000c0e8782880162000aef565b935050604062000c218782880162000aef565b925050606085013567ffffffffffffffff81111562000c3f57600080fd5b62000c4d8782880162000b06565b91505092959194509250565b6000806040838503121562000c6d57600080fd5b600083013567ffffffffffffffff81111562000c8857600080fd5b62000c968582860162000b06565b925050602062000ca98582860162000b33565b9150509250929050565b62000cbe81620011d0565b82525050565b600062000cd182620010d9565b62000cdd8185620010e4565b935062000cef8185602086016200121d565b62000cfa8162001401565b840191505092915050565b600062000d1282620010d9565b62000d1e8185620010f5565b935062000d308185602086016200121d565b80840191505092915050565b6000815462000d4b8162001253565b62000d578186620010f5565b9450600182166000811462000d75576001811462000d875762000dbe565b60ff1983168652818601935062000dbe565b62000d9285620010c4565b60005b8381101562000db65781548189015260018201915060208101905062000d95565b838801955050505b50505092915050565b600062000dd6602683620010e4565b915062000de38262001412565b604082019050919050565b600062000dfd602083620010e4565b915062000e0a8262001461565b602082019050919050565b600062000e24601483620010e4565b915062000e31826200148a565b602082019050919050565b600062000e4b600183620010f5565b915062000e5882620014b3565b600182019050919050565b600062000e71828462000d05565b915081905092915050565b600062000e8a828562000d3c565b915062000e98828462000d05565b91508190509392505050565b600062000eb2828662000d3c565b915062000ec0828562000d05565b915062000ecd8262000e3c565b915062000edb828462000d05565b9150819050949350505050565b600060208201905062000eff600083018462000cb3565b92915050565b6000602082019050818103600083015262000f21818462000cc4565b905092915050565b600060c082019050818103600083015262000f45818962000cc4565b905062000f56602083018862000cb3565b62000f65604083018762000cb3565b62000f74606083018662000cb3565b62000f83608083018562000cb3565b81810360a083015262000f97818462000cc4565b9050979650505050505050565b6000608082019050818103600083015262000fc0818762000cc4565b905062000fd1602083018662000cb3565b62000fe0604083018562000cb3565b818103606083015262000ff4818462000cc4565b905095945050505050565b600060208201905081810360008301526200101a8162000dc7565b9050919050565b600060208201905081810360008301526200103c8162000dee565b9050919050565b600060208201905081810360008301526200105e8162000e15565b9050919050565b60006200107162001084565b90506200107f828262001289565b919050565b6000604051905090565b600067ffffffffffffffff821115620010ac57620010ab620013d2565b5b620010b78262001401565b9050602081019050919050565b60008190508160005260206000209050919050565b600081519050919050565b600082825260208201905092915050565b600081905092915050565b60006200110d8262001204565b91506200111a8362001204565b9250827fffffffffffffffffffffffffffffffffffffffffffffffffffffffffffffffff0382111562001152576200115162001345565b5b828201905092915050565b60006200116a8262001204565b9150620011778362001204565b9250826200118a576200118962001374565b5b828204905092915050565b6000620011a28262001204565b9150620011af8362001204565b925082821015620011c557620011c462001345565b5b828203905092915050565b6000620011dd82620011e4565b9050919050565b600073ffffffffffffffffffffffffffffffffffffffff82169050919050565b6000819050919050565b82818337600083830152505050565b60005b838110156200123d57808201518184015260208101905062001220565b838111156200124d576000848401525b50505050565b600060028204905060018216806200126c57607f821691505b60208210811415620012835762001282620013a3565b5b50919050565b620012948262001401565b810181811067ffffffffffffffff82111715620012b657620012b5620013d2565b5b80604052505050565b6000620012cc8262001204565b91507fffffffffffffffffffffffffffffffffffffffffffffffffffffffffffffffff82141562001302576200130162001345565b5b600182019050919050565b60006200131a8262001204565b9150620013278362001204565b9250826200133a576200133962001374565b5b828206905092915050565b7f4e487b7100000000000000000000000000000000000000000000000000000000600052601160045260246000fd5b7f4e487b7100000000000000000000000000000000000000000000000000000000600052601260045260246000fd5b7f4e487b7100000000000000000000000000000000000000000000000000000000600052602260045260246000fd5b7f4e487b7100000000000000000000000000000000000000000000000000000000600052604160045260246000fd5b6000601f19601f8301169050919050565b7f4f776e61626c653a206e6577206f776e657220697320746865207a65726f206160008201527f6464726573730000000000000000000000000000000000000000000000000000602082015250565b7f4f776e61626c653a2063616c6c6572206973206e6f7420746865206f776e6572600082015250565b7f5469746c6520616c726561647920657869737473000000000000000000000000600082015250565b7f2f00000000000000000000000000000000000000000000000000000000000000600082015250565b620014e781620011d0565b8114620014f357600080fd5b50565b620015018162001204565b81146200150d57600080fd5b5056fe60806040523480156200001157600080fd5b5060405162003f1538038062003f15833981810160405281019062000037919062000494565b83848160009080519060200190620000519291906200035b565b5080600190805190602001906200006a9291906200035b565b5050506200008d620000816200010460201b60201c565b6200010c60201b60201c565b8360099080519060200190620000a59291906200035b565b5033600a60006101000a81548173ffffffffffffffffffffffffffffffffffffffff021916908373ffffffffffffffffffffffffffffffffffffffff160217905550620000fa838383620001d260201b60201c565b50505050620006f0565b600033905090565b6000600660009054906101000a900473ffffffffffffffffffffffffffffffffffffffff16905081600660006101000a81548173ffffffffffffffffffffffffffffffffffffffff021916908373ffffffffffffffffffffffffffffffffffffffff1602179055508173ffffffffffffffffffffffffffffffffffffffff168173ffffffffffffffffffffffffffffffffffffffff167f8be0079c531659141344cd1fd0a4f28419497f9722a3daafe3b4186f6b6457e060405160405180910390a35050565b620001e960086200033760201b6200151a1760201c565b60405180608001604052806001151581526020018473ffffffffffffffffffffffffffffffffffffffff1681526020018373ffffffffffffffffffffffffffffffffffffffff16815260200182815250600b60006200025460086200034d60201b620015301760201c565b815260200190815260200160002060008201518160000160006101000a81548160ff02191690831515021790555060208201518160000160016101000a81548173ffffffffffffffffffffffffffffffffffffffff021916908373ffffffffffffffffffffffffffffffffffffffff16021790555060408201518160010160006101000a81548173ffffffffffffffffffffffffffffffffffffffff021916908373ffffffffffffffffffffffffffffffffffffffff16021790555060608201518160020190805190602001906200032e9291906200035b565b50905050505050565b6001816000016000828254019250508190555050565b600081600001549050919050565b8280546200036990620005fb565b90600052602060002090601f0160209004810192826200038d5760008555620003d9565b82601f10620003a857805160ff1916838001178555620003d9565b82800160010185558215620003d9579182015b82811115620003d8578251825591602001919060010190620003bb565b5b509050620003e89190620003ec565b5090565b5b8082111562000407576000816000905550600101620003ed565b5090565b6000620004226200041c846200055b565b62000532565b9050828152602081018484840111156200043b57600080fd5b62000448848285620005c5565b509392505050565b6000815190506200046181620006d6565b92915050565b600082601f8301126200047957600080fd5b81516200048b8482602086016200040b565b91505092915050565b60008060008060808587031215620004ab57600080fd5b600085015167ffffffffffffffff811115620004c657600080fd5b620004d48782880162000467565b9450506020620004e78782880162000450565b9350506040620004fa8782880162000450565b925050606085015167ffffffffffffffff8111156200051857600080fd5b620005268782880162000467565b91505092959194509250565b60006200053e62000551565b90506200054c828262000631565b919050565b6000604051905090565b600067ffffffffffffffff82111562000579576200057862000696565b5b6200058482620006c5565b9050602081019050919050565b60006200059e82620005a5565b9050919050565b600073ffffffffffffffffffffffffffffffffffffffff82169050919050565b60005b83811015620005e5578082015181840152602081019050620005c8565b83811115620005f5576000848401525b50505050565b600060028204905060018216806200061457607f821691505b602082108114156200062b576200062a62000667565b5b50919050565b6200063c82620006c5565b810181811067ffffffffffffffff821117156200065e576200065d62000696565b5b80604052505050565b7f4e487b7100000000000000000000000000000000000000000000000000000000600052602260045260246000fd5b7f4e487b7100000000000000000000000000000000000000000000000000000000600052604160045260246000fd5b6000601f19601f8301169050919050565b620006e18162000591565b8114620006ed57600080fd5b50565b61381580620007006000396000f3fe608060405234801561001057600080fd5b506004361061014d5760003560e01c80636352211e116100c3578063a22cb4651161007c578063a22cb4651461038b578063b88d4fde146103a7578063c87b56dd146103c3578063e8a3d485146103f3578063e985e9c514610411578063f2fde38b146104415761014d565b80636352211e146102c957806370a08231146102f9578063715018a6146103295780638da5cb5b1461033357806395d89b41146103515780639c986c2a1461036f5761014d565b8063107046bd11610115578063107046bd1461020857806316c3cdf51461023b57806323b872dd1461025757806342842e0e146102735780634a79d50c1461028f578063616e5d44146102ad5761014d565b806301ffc9a71461015257806306fdde0314610182578063081812fc146101a0578063095ea7b3146101d05780630ad24528146101ec575b600080fd5b61016c6004803603810190610167919061266d565b61045d565b6040516101799190612c03565b60405180910390f35b61018a61053f565b6040516101979190612c6a565b60405180910390f35b6101ba60048036038101906101b59190612700565b6105d1565b6040516101c79190612b65565b60405180910390f35b6101ea60048036038101906101e59190612608565b610656565b005b61020660048036038101906102019190612700565b61076e565b005b610222600480360381019061021d9190612700565b6108b8565b6040516102329493929190612c1e565b60405180910390f35b6102556004803603810190610250919061277d565b6109bd565b005b610271600480360381019061026c9190612502565b610bcb565b005b61028d60048036038101906102889190612502565b610c2b565b005b610297610c4b565b6040516102a49190612c6a565b60405180910390f35b6102c760048036038101906102c2919061249b565b610cd9565b005b6102e360048036038101906102de9190612700565b610dab565b6040516102f09190612b65565b60405180910390f35b610313600480360381019061030e9190612436565b610e5d565b6040516103209190612efe565b60405180910390f35b610331610f15565b005b61033b610f9d565b6040516103489190612b65565b60405180910390f35b610359610fc7565b6040516103669190612c6a565b60405180910390f35b61038960048036038101906103849190612729565b611059565b005b6103a560048036038101906103a091906125cc565b6111a2565b005b6103c160048036038101906103bc9190612551565b6111b8565b005b6103dd60048036038101906103d89190612700565b61121a565b6040516103ea9190612c6a565b60405180910390f35b6103fb6112d6565b6040516104089190612c6a565b60405180910390f35b61042b6004803603810190610426919061245f565b61138e565b6040516104389190612c03565b60405180910390f35b61045b60048036038101906104569190612436565b611422565b005b60007f80ac58cd000000000000000000000000000000000000000000000000000000007bffffffffffffffffffffffffffffffffffffffffffffffffffffffff1916827bffffffffffffffffffffffffffffffffffffffffffffffffffffffff1916148061052857507f5b5e139f000000000000000000000000000000000000000000000000000000007bffffffffffffffffffffffffffffffffffffffffffffffffffffffff1916827bffffffffffffffffffffffffffffffffffffffffffffffffffffffff1916145b8061053857506105378261153e565b5b9050919050565b60606000805461054e90613227565b80601f016020809104026020016040519081016040528092919081815260200182805461057a90613227565b80156105c75780601f1061059c576101008083540402835291602001916105c7565b820191906000526020600020905b8154815290600101906020018083116105aa57829003601f168201915b5050505050905090565b60006105dc826115a8565b61061b576040517f08c379a000000000000000000000000000000000000000000000000000000000815260040161061290612e3e565b60405180910390fd5b6004600083815260200190815260200160002060009054906101000a900473ffffffffffffffffffffffffffffffffffffffff169050919050565b600061066182610dab565b90508073ffffffffffffffffffffffffffffffffffffffff168373ffffffffffffffffffffffffffffffffffffffff1614156106d2576040517f08c379a00000000000000000000000000000000000000000000000000000000081526004016106c990612ebe565b60405180910390fd5b8073ffffffffffffffffffffffffffffffffffffffff166106f1611614565b73ffffffffffffffffffffffffffffffffffffffff161480610720575061071f8161071a611614565b61138e565b5b61075f576040517f08c379a000000000000000000000000000000000000000000000000000000000815260040161075690612d9e565b60405180910390fd5b610769838361161c565b505050565b610776611614565b73ffffffffffffffffffffffffffffffffffffffff16610794610f9d565b73ffffffffffffffffffffffffffffffffffffffff16146107ea576040517f08c379a00000000000000000000000000000000000000000000000000000000081526004016107e190612e5e565b60405180910390fd5b80600b600082815260200190815260200160002060000160009054906101000a900460ff1661084e576040517f08c379a000000000000000000000000000000000000000000000000000000000815260040161084590612dfe565b60405180910390fd5b6000600b600084815260200190815260200160002060000160006101000a81548160ff0219169083151502179055507f2c03d2f09622b67ee91478a7e43219c7ced47eff3a3f8bda2eef920181e86766826040516108ac9190612efe565b60405180910390a15050565b600b6020528060005260406000206000915090508060000160009054906101000a900460ff16908060000160019054906101000a900473ffffffffffffffffffffffffffffffffffffffff16908060010160009054906101000a900473ffffffffffffffffffffffffffffffffffffffff169080600201805461093a90613227565b80601f016020809104026020016040519081016040528092919081815260200182805461096690613227565b80156109b35780601f10610988576101008083540402835291602001916109b3565b820191906000526020600020905b81548152906001019060200180831161099657829003601f168201915b5050505050905084565b82600b600082815260200190815260200160002060000160009054906101000a900460ff16610a21576040517f08c379a0000000000000000000000000000000000000000000000000000000008152600401610a1890612dfe565b60405180910390fd5b60008311610a64576040517f08c379a0000000000000000000000000000000000000000000000000000000008152600401610a5b90612e7e565b60405180910390fd5b600b600085815260200190815260200160002060000160019054906101000a900473ffffffffffffffffffffffffffffffffffffffff1673ffffffffffffffffffffffffffffffffffffffff166323b872dd33600b600088815260200190815260200160002060010160009054906101000a900473ffffffffffffffffffffffffffffffffffffffff16866040518463ffffffff1660e01b8152600401610b0d93929190612b80565b602060405180830381600087803b158015610b2757600080fd5b505af1158015610b3b573d6000803e3d6000fd5b505050506040513d601f19601f82011682018060405250810190610b5f9190612644565b50610b6a600761151a565b610b7d33610b786007611530565b6116d5565b7f3c3b44e1ab33da12078cac96e7aa5a3706fe93a9df720b71e866a7c535cb525a610ba86007611530565b85338686604051610bbd959493929190612f95565b60405180910390a150505050565b610bdc610bd6611614565b826116f3565b610c1b576040517f08c379a0000000000000000000000000000000000000000000000000000000008152600401610c1290612ede565b60405180910390fd5b610c268383836117d1565b505050565b610c46838383604051806020016040528060008152506111b8565b505050565b60098054610c5890613227565b80601f0160208091040260200160405190810160405280929190818152602001828054610c8490613227565b8015610cd15780601f10610ca657610100808354040283529160200191610cd1565b820191906000526020600020905b815481529060010190602001808311610cb457829003601f168201915b505050505081565b610ce1611614565b73ffffffffffffffffffffffffffffffffffffffff16610cff610f9d565b73ffffffffffffffffffffffffffffffffffffffff1614610d55576040517f08c379a0000000000000000000000000000000000000000000000000000000008152600401610d4c90612e5e565b60405180910390fd5b610d60838383611a2d565b7f7bb1010a6f440817598a764b1acb4bb3154dc782767e5f421db57c9f40e1fa47610d8b6008611530565b848484604051610d9e9493929190612f19565b60405180910390a1505050565b6000806002600084815260200190815260200160002060009054906101000a900473ffffffffffffffffffffffffffffffffffffffff169050600073ffffffffffffffffffffffffffffffffffffffff168173ffffffffffffffffffffffffffffffffffffffff161415610e54576040517f08c379a0000000000000000000000000000000000000000000000000000000008152600401610e4b90612dde565b60405180910390fd5b80915050919050565b60008073ffffffffffffffffffffffffffffffffffffffff168273ffffffffffffffffffffffffffffffffffffffff161415610ece576040517f08c379a0000000000000000000000000000000000000000000000000000000008152600401610ec590612dbe565b60405180910390fd5b600360008373ffffffffffffffffffffffffffffffffffffffff1673ffffffffffffffffffffffffffffffffffffffff168152602001908152602001600020549050919050565b610f1d611614565b73ffffffffffffffffffffffffffffffffffffffff16610f3b610f9d565b73ffffffffffffffffffffffffffffffffffffffff1614610f91576040517f08c379a0000000000000000000000000000000000000000000000000000000008152600401610f8890612e5e565b60405180910390fd5b610f9b6000611b76565b565b6000600660009054906101000a900473ffffffffffffffffffffffffffffffffffffffff16905090565b606060018054610fd690613227565b80601f016020809104026020016040519081016040528092919081815260200182805461100290613227565b801561104f5780601f106110245761010080835404028352916020019161104f565b820191906000526020600020905b81548152906001019060200180831161103257829003601f168201915b5050505050905090565b611061611614565b73ffffffffffffffffffffffffffffffffffffffff1661107f610f9d565b73ffffffffffffffffffffffffffffffffffffffff16146110d5576040517f08c379a00000000000000000000000000000000000000000000000000000000081526004016110cc90612e5e565b60405180910390fd5b81600b600082815260200190815260200160002060000160009054906101000a900460ff16611139576040517f08c379a000000000000000000000000000000000000000000000000000000000815260040161113090612dfe565b60405180910390fd5b81600b600085815260200190815260200160002060020190805190602001906111639291906121dd565b507f20650de8ff024ce9a29ea838a7d927500cdcaebce78b783a1dd67bcddd29031e8383604051611195929190612f65565b60405180910390a1505050565b6111b46111ad611614565b8383611c3c565b5050565b6111c96111c3611614565b836116f3565b611208576040517f08c379a00000000000000000000000000000000000000000000000000000000081526004016111ff90612ede565b60405180910390fd5b61121484848484611da9565b50505050565b6060600a60009054906101000a900473ffffffffffffffffffffffffffffffffffffffff1673ffffffffffffffffffffffffffffffffffffffff16630ebf13116009846040518363ffffffff1660e01b815260040161127a929190612cae565b60006040518083038186803b15801561129257600080fd5b505afa1580156112a6573d6000803e3d6000fd5b505050506040513d6000823e3d601f19601f820116820180604052508101906112cf91906126bf565b9050919050565b6060600a60009054906101000a900473ffffffffffffffffffffffffffffffffffffffff1673ffffffffffffffffffffffffffffffffffffffff16637d71f70c60096040518263ffffffff1660e01b81526004016113349190612c8c565b60006040518083038186803b15801561134c57600080fd5b505afa158015611360573d6000803e3d6000fd5b505050506040513d6000823e3d601f19601f8201168201806040525081019061138991906126bf565b905090565b6000600560008473ffffffffffffffffffffffffffffffffffffffff1673ffffffffffffffffffffffffffffffffffffffff16815260200190815260200160002060008373ffffffffffffffffffffffffffffffffffffffff1673ffffffffffffffffffffffffffffffffffffffff16815260200190815260200160002060009054906101000a900460ff16905092915050565b61142a611614565b73ffffffffffffffffffffffffffffffffffffffff16611448610f9d565b73ffffffffffffffffffffffffffffffffffffffff161461149e576040517f08c379a000000000000000000000000000000000000000000000000000000000815260040161149590612e5e565b60405180910390fd5b600073ffffffffffffffffffffffffffffffffffffffff168173ffffffffffffffffffffffffffffffffffffffff16141561150e576040517f08c379a000000000000000000000000000000000000000000000000000000000815260040161150590612cfe565b60405180910390fd5b61151781611b76565b50565b6001816000016000828254019250508190555050565b600081600001549050919050565b60007f01ffc9a7000000000000000000000000000000000000000000000000000000007bffffffffffffffffffffffffffffffffffffffffffffffffffffffff1916827bffffffffffffffffffffffffffffffffffffffffffffffffffffffff1916149050919050565b60008073ffffffffffffffffffffffffffffffffffffffff166002600084815260200190815260200160002060009054906101000a900473ffffffffffffffffffffffffffffffffffffffff1673ffffffffffffffffffffffffffffffffffffffff1614159050919050565b600033905090565b816004600083815260200190815260200160002060006101000a81548173ffffffffffffffffffffffffffffffffffffffff021916908373ffffffffffffffffffffffffffffffffffffffff160217905550808273ffffffffffffffffffffffffffffffffffffffff1661168f83610dab565b73ffffffffffffffffffffffffffffffffffffffff167f8c5be1e5ebec7d5bd14f71427d1e84f3dd0314c0f7b2291e5b200ac8c7c3b92560405160405180910390a45050565b6116ef828260405180602001604052806000815250611e05565b5050565b60006116fe826115a8565b61173d576040517f08c379a000000000000000000000000000000000000000000000000000000000815260040161173490612d7e565b60405180910390fd5b600061174883610dab565b90508073ffffffffffffffffffffffffffffffffffffffff168473ffffffffffffffffffffffffffffffffffffffff1614806117b757508373ffffffffffffffffffffffffffffffffffffffff1661179f846105d1565b73ffffffffffffffffffffffffffffffffffffffff16145b806117c857506117c7818561138e565b5b91505092915050565b8273ffffffffffffffffffffffffffffffffffffffff166117f182610dab565b73ffffffffffffffffffffffffffffffffffffffff1614611847576040517f08c379a000000000000000000000000000000000000000000000000000000000815260040161183e90612e9e565b60405180910390fd5b600073ffffffffffffffffffffffffffffffffffffffff168273ffffffffffffffffffffffffffffffffffffffff1614156118b7576040517f08c379a00000000000000000000000000000000000000000000000000000000081526004016118ae90612d3e565b60405180910390fd5b6118c2838383611e60565b6118cd60008261161c565b6001600360008573ffffffffffffffffffffffffffffffffffffffff1673ffffffffffffffffffffffffffffffffffffffff168152602001908152602001600020600082825461191d9190613119565b925050819055506001600360008473ffffffffffffffffffffffffffffffffffffffff1673ffffffffffffffffffffffffffffffffffffffff168152602001908152602001600020600082825461197491906130c3565b92505081905550816002600083815260200190815260200160002060006101000a81548173ffffffffffffffffffffffffffffffffffffffff021916908373ffffffffffffffffffffffffffffffffffffffff160217905550808273ffffffffffffffffffffffffffffffffffffffff168473ffffffffffffffffffffffffffffffffffffffff167fddf252ad1be2c89b69c2b068fc378daa952ba7f163c4a11628f55a4df523b3ef60405160405180910390a4505050565b611a37600861151a565b60405180608001604052806001151581526020018473ffffffffffffffffffffffffffffffffffffffff1681526020018373ffffffffffffffffffffffffffffffffffffffff16815260200182815250600b6000611a956008611530565b815260200190815260200160002060008201518160000160006101000a81548160ff02191690831515021790555060208201518160000160016101000a81548173ffffffffffffffffffffffffffffffffffffffff021916908373ffffffffffffffffffffffffffffffffffffffff16021790555060408201518160010160006101000a81548173ffffffffffffffffffffffffffffffffffffffff021916908373ffffffffffffffffffffffffffffffffffffffff1602179055506060820151816002019080519060200190611b6d9291906121dd565b50905050505050565b6000600660009054906101000a900473ffffffffffffffffffffffffffffffffffffffff16905081600660006101000a81548173ffffffffffffffffffffffffffffffffffffffff021916908373ffffffffffffffffffffffffffffffffffffffff1602179055508173ffffffffffffffffffffffffffffffffffffffff168173ffffffffffffffffffffffffffffffffffffffff167f8be0079c531659141344cd1fd0a4f28419497f9722a3daafe3b4186f6b6457e060405160405180910390a35050565b8173ffffffffffffffffffffffffffffffffffffffff168373ffffffffffffffffffffffffffffffffffffffff161415611cab576040517f08c379a0000000000000000000000000000000000000000000000000000000008152600401611ca290612d5e565b60405180910390fd5b80600560008573ffffffffffffffffffffffffffffffffffffffff1673ffffffffffffffffffffffffffffffffffffffff16815260200190815260200160002060008473ffffffffffffffffffffffffffffffffffffffff1673ffffffffffffffffffffffffffffffffffffffff16815260200190815260200160002060006101000a81548160ff0219169083151502179055508173ffffffffffffffffffffffffffffffffffffffff168373ffffffffffffffffffffffffffffffffffffffff167f17307eab39ab6107e8899845ad3d59bd9653f200f220920489ca2b5937696c3183604051611d9c9190612c03565b60405180910390a3505050565b611db48484846117d1565b611dc084848484611e65565b611dff576040517f08c379a0000000000000000000000000000000000000000000000000000000008152600401611df690612cde565b60405180910390fd5b50505050565b611e0f8383611ffc565b611e1c6000848484611e65565b611e5b576040517f08c379a0000000000000000000000000000000000000000000000000000000008152600401611e5290612cde565b60405180910390fd5b505050565b505050565b6000611e868473ffffffffffffffffffffffffffffffffffffffff166121ca565b15611fef578373ffffffffffffffffffffffffffffffffffffffff1663150b7a02611eaf611614565b8786866040518563ffffffff1660e01b8152600401611ed19493929190612bb7565b602060405180830381600087803b158015611eeb57600080fd5b505af1925050508015611f1c57506040513d601f19601f82011682018060405250810190611f199190612696565b60015b611f9f573d8060008114611f4c576040519150601f19603f3d011682016040523d82523d6000602084013e611f51565b606091505b50600081511415611f97576040517f08c379a0000000000000000000000000000000000000000000000000000000008152600401611f8e90612cde565b60405180910390fd5b805181602001fd5b63150b7a0260e01b7bffffffffffffffffffffffffffffffffffffffffffffffffffffffff1916817bffffffffffffffffffffffffffffffffffffffffffffffffffffffff191614915050611ff4565b600190505b949350505050565b600073ffffffffffffffffffffffffffffffffffffffff168273ffffffffffffffffffffffffffffffffffffffff16141561206c576040517f08c379a000000000000000000000000000000000000000000000000000000000815260040161206390612e1e565b60405180910390fd5b612075816115a8565b156120b5576040517f08c379a00000000000000000000000000000000000000000000000000000000081526004016120ac90612d1e565b60405180910390fd5b6120c160008383611e60565b6001600360008473ffffffffffffffffffffffffffffffffffffffff1673ffffffffffffffffffffffffffffffffffffffff168152602001908152602001600020600082825461211191906130c3565b92505081905550816002600083815260200190815260200160002060006101000a81548173ffffffffffffffffffffffffffffffffffffffff021916908373ffffffffffffffffffffffffffffffffffffffff160217905550808273ffffffffffffffffffffffffffffffffffffffff16600073ffffffffffffffffffffffffffffffffffffffff167fddf252ad1be2c89b69c2b068fc378daa952ba7f163c4a11628f55a4df523b3ef60405160405180910390a45050565b600080823b905060008111915050919050565b8280546121e990613227565b90600052602060002090601f01602090048101928261220b5760008555612252565b82601f1061222457805160ff1916838001178555612252565b82800160010185558215612252579182015b82811115612251578251825591602001919060010190612236565b5b50905061225f9190612263565b5090565b5b8082111561227c576000816000905550600101612264565b5090565b600061229361228e84613014565b612fef565b9050828152602081018484840111156122ab57600080fd5b6122b68482856131e5565b509392505050565b60006122d16122cc84613045565b612fef565b9050828152602081018484840111156122e957600080fd5b6122f48482856131e5565b509392505050565b600061230f61230a84613045565b612fef565b90508281526020810184848401111561232757600080fd5b6123328482856131f4565b509392505050565b60008135905061234981613783565b92915050565b60008135905061235e8161379a565b92915050565b6000815190506123738161379a565b92915050565b600081359050612388816137b1565b92915050565b60008151905061239d816137b1565b92915050565b600082601f8301126123b457600080fd5b81356123c4848260208601612280565b91505092915050565b600082601f8301126123de57600080fd5b81356123ee8482602086016122be565b91505092915050565b600082601f83011261240857600080fd5b81516124188482602086016122fc565b91505092915050565b600081359050612430816137c8565b92915050565b60006020828403121561244857600080fd5b60006124568482850161233a565b91505092915050565b6000806040838503121561247257600080fd5b60006124808582860161233a565b92505060206124918582860161233a565b9150509250929050565b6000806000606084860312156124b057600080fd5b60006124be8682870161233a565b93505060206124cf8682870161233a565b925050604084013567ffffffffffffffff8111156124ec57600080fd5b6124f8868287016123cd565b9150509250925092565b60008060006060848603121561251757600080fd5b60006125258682870161233a565b93505060206125368682870161233a565b925050604061254786828701612421565b9150509250925092565b6000806000806080858703121561256757600080fd5b60006125758782880161233a565b94505060206125868782880161233a565b935050604061259787828801612421565b925050606085013567ffffffffffffffff8111156125b457600080fd5b6125c0878288016123a3565b91505092959194509250565b600080604083850312156125df57600080fd5b60006125ed8582860161233a565b92505060206125fe8582860161234f565b9150509250929050565b6000806040838503121561261b57600080fd5b60006126298582860161233a565b925050602061263a85828601612421565b9150509250929050565b60006020828403121561265657600080fd5b600061266484828501612364565b91505092915050565b60006020828403121561267f57600080fd5b600061268d84828501612379565b91505092915050565b6000602082840312156126a857600080fd5b60006126b68482850161238e565b91505092915050565b6000602082840312156126d157600080fd5b600082015167ffffffffffffffff8111156126eb57600080fd5b6126f7848285016123f7565b91505092915050565b60006020828403121561271257600080fd5b600061272084828501612421565b91505092915050565b6000806040838503121561273c57600080fd5b600061274a85828601612421565b925050602083013567ffffffffffffffff81111561276757600080fd5b612773858286016123cd565b9150509250929050565b60008060006060848603121561279257600080fd5b60006127a086828701612421565b93505060206127b186828701612421565b925050604084013567ffffffffffffffff8111156127ce57600080fd5b6127da868287016123cd565b9150509250925092565b6127ed8161314d565b82525050565b6127fc8161315f565b82525050565b600061280d8261308b565b61281781856130a1565b93506128278185602086016131f4565b61283081613317565b840191505092915050565b612844816131c1565b82525050565b600061285582613096565b61285f81856130b2565b935061286f8185602086016131f4565b61287881613317565b840191505092915050565b6000815461289081613227565b61289a81866130b2565b945060018216600081146128b557600181146128c7576128fa565b60ff19831686526020860193506128fa565b6128d085613076565b60005b838110156128f2578154818901526001820191506020810190506128d3565b808801955050505b50505092915050565b60006129106032836130b2565b915061291b82613328565b604082019050919050565b60006129336026836130b2565b915061293e82613377565b604082019050919050565b6000612956601c836130b2565b9150612961826133c6565b602082019050919050565b60006129796024836130b2565b9150612984826133ef565b604082019050919050565b600061299c6019836130b2565b91506129a78261343e565b602082019050919050565b60006129bf602c836130b2565b91506129ca82613467565b604082019050919050565b60006129e26038836130b2565b91506129ed826134b6565b604082019050919050565b6000612a05602a836130b2565b9150612a1082613505565b604082019050919050565b6000612a286029836130b2565b9150612a3382613554565b604082019050919050565b6000612a4b6013836130b2565b9150612a56826135a3565b602082019050919050565b6000612a6e6020836130b2565b9150612a79826135cc565b602082019050919050565b6000612a91602c836130b2565b9150612a9c826135f5565b604082019050919050565b6000612ab46020836130b2565b9150612abf82613644565b602082019050919050565b6000612ad76014836130b2565b9150612ae28261366d565b602082019050919050565b6000612afa6029836130b2565b9150612b0582613696565b604082019050919050565b6000612b1d6021836130b2565b9150612b28826136e5565b604082019050919050565b6000612b406031836130b2565b9150612b4b82613734565b604082019050919050565b612b5f816131b7565b82525050565b6000602082019050612b7a60008301846127e4565b92915050565b6000606082019050612b9560008301866127e4565b612ba260208301856127e4565b612baf6040830184612b56565b949350505050565b6000608082019050612bcc60008301876127e4565b612bd960208301866127e4565b612be66040830185612b56565b8181036060830152612bf88184612802565b905095945050505050565b6000602082019050612c1860008301846127f3565b92915050565b6000608082019050612c3360008301876127f3565b612c40602083018661283b565b612c4d60408301856127e4565b8181036060830152612c5f818461284a565b905095945050505050565b60006020820190508181036000830152612c84818461284a565b905092915050565b60006020820190508181036000830152612ca68184612883565b905092915050565b60006040820190508181036000830152612cc88185612883565b9050612cd76020830184612b56565b9392505050565b60006020820190508181036000830152612cf781612903565b9050919050565b60006020820190508181036000830152612d1781612926565b9050919050565b60006020820190508181036000830152612d3781612949565b9050919050565b60006020820190508181036000830152612d578161296c565b9050919050565b60006020820190508181036000830152612d778161298f565b9050919050565b60006020820190508181036000830152612d97816129b2565b9050919050565b60006020820190508181036000830152612db7816129d5565b9050919050565b60006020820190508181036000830152612dd7816129f8565b9050919050565b60006020820190508181036000830152612df781612a1b565b9050919050565b60006020820190508181036000830152612e1781612a3e565b9050919050565b60006020820190508181036000830152612e3781612a61565b9050919050565b60006020820190508181036000830152612e5781612a84565b9050919050565b60006020820190508181036000830152612e7781612aa7565b9050919050565b60006020820190508181036000830152612e9781612aca565b9050919050565b60006020820190508181036000830152612eb781612aed565b9050919050565b60006020820190508181036000830152612ed781612b10565b9050919050565b60006020820190508181036000830152612ef781612b33565b9050919050565b6000602082019050612f136000830184612b56565b92915050565b6000608082019050612f2e6000830187612b56565b612f3b60208301866127e4565b612f4860408301856127e4565b8181036060830152612f5a818461284a565b905095945050505050565b6000604082019050612f7a6000830185612b56565b8181036020830152612f8c818461284a565b90509392505050565b600060a082019050612faa6000830188612b56565b612fb76020830187612b56565b612fc460408301866127e4565b612fd16060830185612b56565b8181036080830152612fe3818461284a565b90509695505050505050565b6000612ff961300a565b90506130058282613259565b919050565b6000604051905090565b600067ffffffffffffffff82111561302f5761302e6132e8565b5b61303882613317565b9050602081019050919050565b600067ffffffffffffffff8211156130605761305f6132e8565b5b61306982613317565b9050602081019050919050565b60008190508160005260206000209050919050565b600081519050919050565b600081519050919050565b600082825260208201905092915050565b600082825260208201905092915050565b60006130ce826131b7565b91506130d9836131b7565b9250827fffffffffffffffffffffffffffffffffffffffffffffffffffffffffffffffff0382111561310e5761310d61328a565b5b828201905092915050565b6000613124826131b7565b915061312f836131b7565b9250828210156131425761314161328a565b5b828203905092915050565b600061315882613197565b9050919050565b60008115159050919050565b60007fffffffff0000000000000000000000000000000000000000000000000000000082169050919050565b600073ffffffffffffffffffffffffffffffffffffffff82169050919050565b6000819050919050565b60006131cc826131d3565b9050919050565b60006131de82613197565b9050919050565b82818337600083830152505050565b60005b838110156132125780820151818401526020810190506131f7565b83811115613221576000848401525b50505050565b6000600282049050600182168061323f57607f821691505b60208210811415613253576132526132b9565b5b50919050565b61326282613317565b810181811067ffffffffffffffff82111715613281576132806132e8565b5b80604052505050565b7f4e487b7100000000000000000000000000000000000000000000000000000000600052601160045260246000fd5b7f4e487b7100000000000000000000000000000000000000000000000000000000600052602260045260246000fd5b7f4e487b7100000000000000000000000000000000000000000000000000000000600052604160045260246000fd5b6000601f19601f8301169050919050565b7f4552433732313a207472616e7366657220746f206e6f6e20455243373231526560008201527f63656976657220696d706c656d656e7465720000000000000000000000000000602082015250565b7f4f776e61626c653a206e6577206f776e657220697320746865207a65726f206160008201527f6464726573730000000000000000000000000000000000000000000000000000602082015250565b7f4552433732313a20746f6b656e20616c7265616479206d696e74656400000000600082015250565b7f4552433732313a207472616e7366657220746f20746865207a65726f2061646460008201527f7265737300000000000000000000000000000000000000000000000000000000602082015250565b7f4552433732313a20617070726f766520746f2063616c6c657200000000000000600082015250565b7f4552433732313a206f70657261746f7220717565727920666f72206e6f6e657860008201527f697374656e7420746f6b656e0000000000000000000000000000000000000000602082015250565b7f4552433732313a20617070726f76652063616c6c6572206973206e6f74206f7760008201527f6e6572206e6f7220617070726f76656420666f7220616c6c0000000000000000602082015250565b7f4552433732313a2062616c616e636520717565727920666f7220746865207a6560008201527f726f206164647265737300000000000000000000000000000000000000000000602082015250565b7f4552433732313a206f776e657220717565727920666f72206e6f6e657869737460008201527f656e7420746f6b656e0000000000000000000000000000000000000000000000602082015250565b7f50726f6a656374206e6f74206163746976652100000000000000000000000000600082015250565b7f4552433732313a206d696e7420746f20746865207a65726f2061646472657373600082015250565b7f4552433732313a20617070726f76656420717565727920666f72206e6f6e657860008201527f697374656e7420746f6b656e0000000000000000000000000000000000000000602082015250565b7f4f776e61626c653a2063616c6c6572206973206e6f7420746865206f776e6572600082015250565b7f446f6e6174696f6e20616d6f756e742069732030000000000000000000000000600082015250565b7f4552433732313a207472616e73666572206f6620746f6b656e2074686174206960008201527f73206e6f74206f776e0000000000000000000000000000000000000000000000602082015250565b7f4552433732313a20617070726f76616c20746f2063757272656e74206f776e6560008201527f7200000000000000000000000000000000000000000000000000000000000000602082015250565b7f4552433732313a207472616e736665722063616c6c6572206973206e6f74206f60008201527f776e6572206e6f7220617070726f766564000000000000000000000000000000602082015250565b61378c8161314d565b811461379757600080fd5b50565b6137a38161315f565b81146137ae57600080fd5b50565b6137ba8161316b565b81146137c557600080fd5b50565b6137d1816131b7565b81146137dc57600080fd5b5056fea264697066735822122048cc86a3c702ce2d50a96090f5065ac8429dc72a7f88fd01fd546117fac9eff464736f6c63430008040033a2646970667358221220849d4146b00bf9b595ac7ebfe77fbb62eb9af73b3e88b58b0ae9577c7aaa1e7464736f6c63430008040033",
  "linkReferences": {},
  "deployedLinkReferences": {}
}