{
  "_format": "hh-sol-artifact-1",
  "contractName": "Factory",
  "sourceName": "contracts/Factory.sol",
  "abi": [
    {
      "anonymous": false,
      "inputs": [
        {
          "indexed": false,
          "internalType": "string",
          "name": "title",
          "type": "string"
        },
        {
          "indexed": false,
          "internalType": "address",
          "name": "token",
          "type": "address"
        },
        {
          "indexed": false,
          "internalType": "address",
          "name": "owner",
          "type": "address"
        },
        {
          "indexed": false,
          "internalType": "address",
          "name": "coin",
          "type": "address"
        },
        {
          "indexed": false,
          "internalType": "address",
          "name": "projectOwner",
          "type": "address"
        }
      ],
      "name": "NewToken",
      "type": "event"
    },
    {
      "anonymous": false,
      "inputs": [
        {
          "indexed": true,
          "internalType": "address",
          "name": "previousOwner",
          "type": "address"
        },
        {
          "indexed": true,
          "internalType": "address",
          "name": "newOwner",
          "type": "address"
        }
      ],
      "name": "OwnershipTransferred",
      "type": "event"
    },
    {
      "anonymous": false,
      "inputs": [
        {
          "indexed": false,
          "internalType": "string",
          "name": "uri",
          "type": "string"
        }
      ],
      "name": "SetURI",
      "type": "event"
    },
    {
      "inputs": [],
      "name": "getURI",
      "outputs": [
        {
          "internalType": "string",
          "name": "",
          "type": "string"
        }
      ],
      "stateMutability": "view",
      "type": "function"
    },
    {
      "inputs": [
        {
          "internalType": "string",
          "name": "_title",
          "type": "string"
        },
        {
          "internalType": "address",
          "name": "_coin",
          "type": "address"
        },
        {
          "internalType": "address",
          "name": "_projectOwner",
          "type": "address"
        }
      ],
      "name": "newToken",
      "outputs": [],
      "stateMutability": "nonpayable",
      "type": "function"
    },
    {
      "inputs": [],
      "name": "owner",
      "outputs": [
        {
          "internalType": "address",
          "name": "",
          "type": "address"
        }
      ],
      "stateMutability": "view",
      "type": "function"
    },
    {
      "inputs": [],
      "name": "renounceOwnership",
      "outputs": [],
      "stateMutability": "nonpayable",
      "type": "function"
    },
    {
      "inputs": [
        {
          "internalType": "string",
          "name": "_uri",
          "type": "string"
        }
      ],
      "name": "setURI",
      "outputs": [],
      "stateMutability": "nonpayable",
      "type": "function"
    },
    {
      "inputs": [
        {
          "internalType": "string",
          "name": "",
          "type": "string"
        }
      ],
      "name": "tokens",
      "outputs": [
        {
          "internalType": "contract Token",
          "name": "",
          "type": "address"
        }
      ],
      "stateMutability": "view",
      "type": "function"
    },
    {
      "inputs": [
        {
          "internalType": "address",
          "name": "newOwner",
          "type": "address"
        }
      ],
      "name": "transferOwnership",
      "outputs": [],
      "stateMutability": "nonpayable",
      "type": "function"
    }
  ],
  "bytecode": "0x60806040526040518060400160405280601e81526020017f68747470733a2f2f657468646f6e2e78797a2f6170692f746f6b656e732f0000815250600290805190602001906200005192919062000152565b503480156200005f57600080fd5b5062000080620000746200008660201b60201c565b6200008e60201b60201c565b62000267565b600033905090565b60008060009054906101000a900473ffffffffffffffffffffffffffffffffffffffff169050816000806101000a81548173ffffffffffffffffffffffffffffffffffffffff021916908373ffffffffffffffffffffffffffffffffffffffff1602179055508173ffffffffffffffffffffffffffffffffffffffff168173ffffffffffffffffffffffffffffffffffffffff167f8be0079c531659141344cd1fd0a4f28419497f9722a3daafe3b4186f6b6457e060405160405180910390a35050565b828054620001609062000202565b90600052602060002090601f016020900481019282620001845760008555620001d0565b82601f106200019f57805160ff1916838001178555620001d0565b82800160010185558215620001d0579182015b82811115620001cf578251825591602001919060010190620001b2565b5b509050620001df9190620001e3565b5090565b5b80821115620001fe576000816000905550600101620001e4565b5090565b600060028204905060018216806200021b57607f821691505b6020821081141562000232576200023162000238565b5b50919050565b7f4e487b7100000000000000000000000000000000000000000000000000000000600052602260045260246000fd5b61523580620002776000396000f3fe60806040523480156200001157600080fd5b5060043610620000885760003560e01c80637754305c11620000635780637754305c14620000ef5780638da5cb5b1462000111578063cace0b121462000133578063f2fde38b14620001535762000088565b806302fe5305146200008d57806304c2320b14620000ad578063715018a614620000e3575b600080fd5b620000ab6004803603810190620000a59190620009ad565b62000173565b005b620000cb6004803603810190620000c59190620009ad565b6200024b565b604051620000da919062000ba6565b60405180910390f35b620000ed62000294565b005b620000f962000325565b60405162000108919062000bc3565b60405180910390f35b6200011b620003bf565b6040516200012a919062000b89565b60405180910390f35b6200015160048036038101906200014b9190620009f2565b620003e8565b005b6200017160048036038101906200016b919062000981565b6200066a565b005b6200017d6200076e565b73ffffffffffffffffffffffffffffffffffffffff166200019d620003bf565b73ffffffffffffffffffffffffffffffffffffffff1614620001f6576040517f08c379a0000000000000000000000000000000000000000000000000000000008152600401620001ed9062000cb1565b60405180910390fd5b80600290805190602001906200020e9291906200083a565b507f562bf0237fa5139edc73ec903039c3a552e19ae62cc8292da62afeea43024b0a8160405162000240919062000bc3565b60405180910390a150565b6001818051602081018201805184825260208301602085012081835280955050505050506000915054906101000a900473ffffffffffffffffffffffffffffffffffffffff1681565b6200029e6200076e565b73ffffffffffffffffffffffffffffffffffffffff16620002be620003bf565b73ffffffffffffffffffffffffffffffffffffffff161462000317576040517f08c379a00000000000000000000000000000000000000000000000000000000081526004016200030e9062000cb1565b60405180910390fd5b62000323600062000776565b565b606060028054620003369062000e1c565b80601f0160208091040260200160405190810160405280929190818152602001828054620003649062000e1c565b8015620003b55780601f106200038957610100808354040283529160200191620003b5565b820191906000526020600020905b8154815290600101906020018083116200039757829003601f168201915b5050505050905090565b60008060009054906101000a900473ffffffffffffffffffffffffffffffffffffffff16905090565b600073ffffffffffffffffffffffffffffffffffffffff1660018460405162000412919062000b70565b908152602001604051809103902060009054906101000a900473ffffffffffffffffffffffffffffffffffffffff1673ffffffffffffffffffffffffffffffffffffffff16146200049a576040517f08c379a0000000000000000000000000000000000000000000000000000000008152600401620004919062000cd3565b60405180910390fd5b828282604051620004ab90620008cb565b620004b99392919062000be7565b604051809103906000f080158015620004d6573d6000803e3d6000fd5b50600184604051620004e9919062000b70565b908152602001604051809103902060006101000a81548173ffffffffffffffffffffffffffffffffffffffff021916908373ffffffffffffffffffffffffffffffffffffffff16021790555060018360405162000547919062000b70565b908152602001604051809103902060009054906101000a900473ffffffffffffffffffffffffffffffffffffffff1673ffffffffffffffffffffffffffffffffffffffff1663f2fde38b336040518263ffffffff1660e01b8152600401620005b0919062000b89565b600060405180830381600087803b158015620005cb57600080fd5b505af1158015620005e0573d6000803e3d6000fd5b505050507fdbb932dfd1ec4294e235c1447112cc738a6b5a6cdbd8c85f08a9a0be06499b888360018560405162000618919062000b70565b908152602001604051809103902060009054906101000a900473ffffffffffffffffffffffffffffffffffffffff163385856040516200065d95949392919062000c2b565b60405180910390a1505050565b620006746200076e565b73ffffffffffffffffffffffffffffffffffffffff1662000694620003bf565b73ffffffffffffffffffffffffffffffffffffffff1614620006ed576040517f08c379a0000000000000000000000000000000000000000000000000000000008152600401620006e49062000cb1565b60405180910390fd5b600073ffffffffffffffffffffffffffffffffffffffff168173ffffffffffffffffffffffffffffffffffffffff16141562000760576040517f08c379a0000000000000000000000000000000000000000000000000000000008152600401620007579062000c8f565b60405180910390fd5b6200076b8162000776565b50565b600033905090565b60008060009054906101000a900473ffffffffffffffffffffffffffffffffffffffff169050816000806101000a81548173ffffffffffffffffffffffffffffffffffffffff021916908373ffffffffffffffffffffffffffffffffffffffff1602179055508173ffffffffffffffffffffffffffffffffffffffff168173ffffffffffffffffffffffffffffffffffffffff167f8be0079c531659141344cd1fd0a4f28419497f9722a3daafe3b4186f6b6457e060405160405180910390a35050565b828054620008489062000e1c565b90600052602060002090601f0160209004810192826200086c5760008555620008b8565b82601f106200088757805160ff1916838001178555620008b8565b82800160010185558215620008b8579182015b82811115620008b75782518255916020019190600101906200089a565b5b509050620008c79190620008d9565b5090565b61424d8062000fb383390190565b5b80821115620008f4576000816000905550600101620008da565b5090565b60006200090f620009098462000d1e565b62000cf5565b9050828152602081018484840111156200092857600080fd5b6200093584828562000dd7565b509392505050565b6000813590506200094e8162000f98565b92915050565b600082601f8301126200096657600080fd5b813562000978848260208601620008f8565b91505092915050565b6000602082840312156200099457600080fd5b6000620009a4848285016200093d565b91505092915050565b600060208284031215620009c057600080fd5b600082013567ffffffffffffffff811115620009db57600080fd5b620009e98482850162000954565b91505092915050565b60008060006060848603121562000a0857600080fd5b600084013567ffffffffffffffff81111562000a2357600080fd5b62000a318682870162000954565b935050602062000a44868287016200093d565b925050604062000a57868287016200093d565b9150509250925092565b62000a6c8162000d7b565b82525050565b62000a7d8162000daf565b82525050565b600062000a908262000d54565b62000a9c818562000d5f565b935062000aae81856020860162000de6565b62000ab98162000ee6565b840191505092915050565b600062000ad18262000d54565b62000add818562000d70565b935062000aef81856020860162000de6565b80840191505092915050565b600062000b0a60268362000d5f565b915062000b178262000ef7565b604082019050919050565b600062000b3160208362000d5f565b915062000b3e8262000f46565b602082019050919050565b600062000b5860148362000d5f565b915062000b658262000f6f565b602082019050919050565b600062000b7e828462000ac4565b915081905092915050565b600060208201905062000ba0600083018462000a61565b92915050565b600060208201905062000bbd600083018462000a72565b92915050565b6000602082019050818103600083015262000bdf818462000a83565b905092915050565b6000606082019050818103600083015262000c03818662000a83565b905062000c14602083018562000a61565b62000c23604083018462000a61565b949350505050565b600060a082019050818103600083015262000c47818862000a83565b905062000c58602083018762000a61565b62000c67604083018662000a61565b62000c76606083018562000a61565b62000c85608083018462000a61565b9695505050505050565b6000602082019050818103600083015262000caa8162000afb565b9050919050565b6000602082019050818103600083015262000ccc8162000b22565b9050919050565b6000602082019050818103600083015262000cee8162000b49565b9050919050565b600062000d0162000d14565b905062000d0f828262000e52565b919050565b6000604051905090565b600067ffffffffffffffff82111562000d3c5762000d3b62000eb7565b5b62000d478262000ee6565b9050602081019050919050565b600081519050919050565b600082825260208201905092915050565b600081905092915050565b600062000d888262000d8f565b9050919050565b600073ffffffffffffffffffffffffffffffffffffffff82169050919050565b600062000dbc8262000dc3565b9050919050565b600062000dd08262000d8f565b9050919050565b82818337600083830152505050565b60005b8381101562000e0657808201518184015260208101905062000de9565b8381111562000e16576000848401525b50505050565b6000600282049050600182168062000e3557607f821691505b6020821081141562000e4c5762000e4b62000e88565b5b50919050565b62000e5d8262000ee6565b810181811067ffffffffffffffff8211171562000e7f5762000e7e62000eb7565b5b80604052505050565b7f4e487b7100000000000000000000000000000000000000000000000000000000600052602260045260246000fd5b7f4e487b7100000000000000000000000000000000000000000000000000000000600052604160045260246000fd5b6000601f19601f8301169050919050565b7f4f776e61626c653a206e6577206f776e657220697320746865207a65726f206160008201527f6464726573730000000000000000000000000000000000000000000000000000602082015250565b7f4f776e61626c653a2063616c6c6572206973206e6f7420746865206f776e6572600082015250565b7f5469746c6520616c726561647920657869737473000000000000000000000000600082015250565b62000fa38162000d7b565b811462000faf57600080fd5b5056fe608060405260016009556001600a553480156200001b57600080fd5b506040516200424d3803806200424d83398181016040528101906200004191906200043c565b828381600090805190602001906200005b92919062000303565b5080600190805190602001906200007492919062000303565b505050620000976200008b6200023560201b60201c565b6200023d60201b60201c565b8260079080519060200190620000af92919062000303565b5033600860006101000a81548173ffffffffffffffffffffffffffffffffffffffff021916908373ffffffffffffffffffffffffffffffffffffffff16021790555060405180608001604052806001151581526020018373ffffffffffffffffffffffffffffffffffffffff1681526020018273ffffffffffffffffffffffffffffffffffffffff1681526020016000815250600b6000600a54815260200190815260200160002060008201518160000160006101000a81548160ff02191690831515021790555060208201518160000160016101000a81548173ffffffffffffffffffffffffffffffffffffffff021916908373ffffffffffffffffffffffffffffffffffffffff16021790555060408201518160010160006101000a81548173ffffffffffffffffffffffffffffffffffffffff021916908373ffffffffffffffffffffffffffffffffffffffff16021790555060608201518160020155905050600a60008154809291906200022790620005ea565b9190505550505050620006f0565b600033905090565b6000600660009054906101000a900473ffffffffffffffffffffffffffffffffffffffff16905081600660006101000a81548173ffffffffffffffffffffffffffffffffffffffff021916908373ffffffffffffffffffffffffffffffffffffffff1602179055508173ffffffffffffffffffffffffffffffffffffffff168173ffffffffffffffffffffffffffffffffffffffff167f8be0079c531659141344cd1fd0a4f28419497f9722a3daafe3b4186f6b6457e060405160405180910390a35050565b82805462000311906200057e565b90600052602060002090601f01602090048101928262000335576000855562000381565b82601f106200035057805160ff191683800117855562000381565b8280016001018555821562000381579182015b828111156200038057825182559160200191906001019062000363565b5b50905062000390919062000394565b5090565b5b80821115620003af57600081600090555060010162000395565b5090565b6000620003ca620003c484620004d4565b620004ab565b905082815260208101848484011115620003e357600080fd5b620003f084828562000548565b509392505050565b6000815190506200040981620006d6565b92915050565b600082601f8301126200042157600080fd5b815162000433848260208601620003b3565b91505092915050565b6000806000606084860312156200045257600080fd5b600084015167ffffffffffffffff8111156200046d57600080fd5b6200047b868287016200040f565b93505060206200048e86828701620003f8565b9250506040620004a186828701620003f8565b9150509250925092565b6000620004b7620004ca565b9050620004c58282620005b4565b919050565b6000604051905090565b600067ffffffffffffffff821115620004f257620004f162000696565b5b620004fd82620006c5565b9050602081019050919050565b600062000517826200051e565b9050919050565b600073ffffffffffffffffffffffffffffffffffffffff82169050919050565b6000819050919050565b60005b83811015620005685780820151818401526020810190506200054b565b8381111562000578576000848401525b50505050565b600060028204905060018216806200059757607f821691505b60208210811415620005ae57620005ad62000667565b5b50919050565b620005bf82620006c5565b810181811067ffffffffffffffff82111715620005e157620005e062000696565b5b80604052505050565b6000620005f7826200053e565b91507fffffffffffffffffffffffffffffffffffffffffffffffffffffffffffffffff8214156200062d576200062c62000638565b5b600182019050919050565b7f4e487b7100000000000000000000000000000000000000000000000000000000600052601160045260246000fd5b7f4e487b7100000000000000000000000000000000000000000000000000000000600052602260045260246000fd5b7f4e487b7100000000000000000000000000000000000000000000000000000000600052604160045260246000fd5b6000601f19601f8301169050919050565b620006e1816200050a565b8114620006ed57600080fd5b50565b613b4d80620007006000396000f3fe608060405234801561001057600080fd5b50600436106101735760003560e01c80636352211e116100de578063b88d4fde11610097578063e8a3d48511610071578063e8a3d48514610439578063e985e9c514610457578063f2fde38b14610487578063f8626af8146104a357610173565b8063b88d4fde146103d1578063c87b56dd146103ed578063ce45aa741461041d57610173565b80636352211e1461030f57806370a082311461033f578063715018a61461036f5780638da5cb5b1461037957806395d89b4114610397578063a22cb465146103b557610173565b806316c3cdf51161013057806316c3cdf51461026157806323b872dd1461027d5780632abfab4d1461029957806336fbad26146102b757806342842e0e146102d55780634a79d50c146102f157610173565b806301ffc9a71461017857806306fdde03146101a8578063081812fc146101c6578063095ea7b3146101f65780630ad2452814610212578063107046bd1461022e575b600080fd5b610192600480360381019061018d919061280a565b6104d5565b60405161019f9190612e4b565b60405180910390f35b6101b06105b7565b6040516101bd9190612eab565b60405180910390f35b6101e060048036038101906101db919061289d565b610649565b6040516101ed9190612d84565b60405180910390f35b610210600480360381019061020b91906127a5565b6106ce565b005b61022c6004803603810190610227919061289d565b6107e6565b005b6102486004803603810190610243919061289d565b610aa7565b6040516102589493929190612e66565b60405180910390f35b61027b600480360381019061027691906128c6565b610b24565b005b6102976004803603810190610292919061269f565b610dcd565b005b6102a1610e2d565b6040516102ae919061310d565b60405180910390f35b6102bf610e33565b6040516102cc919061310d565b60405180910390f35b6102ef60048036038101906102ea919061269f565b610e39565b005b6102f9610e59565b6040516103069190612eab565b60405180910390f35b6103296004803603810190610324919061289d565b610ee7565b6040516103369190612d84565b60405180910390f35b6103596004803603810190610354919061263a565b610f99565b604051610366919061310d565b60405180910390f35b610377611051565b005b6103816110d9565b60405161038e9190612d84565b60405180910390f35b61039f611103565b6040516103ac9190612eab565b60405180910390f35b6103cf60048036038101906103ca9190612769565b611195565b005b6103eb60048036038101906103e691906126ee565b6111ab565b005b6104076004803603810190610402919061289d565b61120d565b6040516104149190612eab565b60405180910390f35b61043760048036038101906104329190612663565b6112e7565b005b6104416114dd565b60405161044e9190612eab565b60405180910390f35b610471600480360381019061046c9190612663565b6115ab565b60405161047e9190612e4b565b60405180910390f35b6104a1600480360381019061049c919061263a565b61163f565b005b6104bd60048036038101906104b8919061289d565b611737565b6040516104cc9392919061315f565b60405180910390f35b60007f80ac58cd000000000000000000000000000000000000000000000000000000007bffffffffffffffffffffffffffffffffffffffffffffffffffffffff1916827bffffffffffffffffffffffffffffffffffffffffffffffffffffffff191614806105a057507f5b5e139f000000000000000000000000000000000000000000000000000000007bffffffffffffffffffffffffffffffffffffffffffffffffffffffff1916827bffffffffffffffffffffffffffffffffffffffffffffffffffffffff1916145b806105b057506105af82611781565b5b9050919050565b6060600080546105c690613464565b80601f01602080910402602001604051908101604052809291908181526020018280546105f290613464565b801561063f5780601f106106145761010080835404028352916020019161063f565b820191906000526020600020905b81548152906001019060200180831161062257829003601f168201915b5050505050905090565b6000610654826117eb565b610693576040517f08c379a000000000000000000000000000000000000000000000000000000000815260040161068a9061304d565b60405180910390fd5b6004600083815260200190815260200160002060009054906101000a900473ffffffffffffffffffffffffffffffffffffffff169050919050565b60006106d982610ee7565b90508073ffffffffffffffffffffffffffffffffffffffff168373ffffffffffffffffffffffffffffffffffffffff16141561074a576040517f08c379a0000000000000000000000000000000000000000000000000000000008152600401610741906130cd565b60405180910390fd5b8073ffffffffffffffffffffffffffffffffffffffff16610769611857565b73ffffffffffffffffffffffffffffffffffffffff161480610798575061079781610792611857565b6115ab565b5b6107d7576040517f08c379a00000000000000000000000000000000000000000000000000000000081526004016107ce90612fad565b60405180910390fd5b6107e1838361185f565b505050565b803373ffffffffffffffffffffffffffffffffffffffff16600b600083815260200190815260200160002060010160009054906101000a900473ffffffffffffffffffffffffffffffffffffffff1673ffffffffffffffffffffffffffffffffffffffff16148061088957503373ffffffffffffffffffffffffffffffffffffffff166108716110d9565b73ffffffffffffffffffffffffffffffffffffffff16145b6108c8576040517f08c379a00000000000000000000000000000000000000000000000000000000081526004016108bf90612f2d565b60405180910390fd5b81600b600082815260200190815260200160002060000160009054906101000a900460ff1661092c576040517f08c379a00000000000000000000000000000000000000000000000000000000081526004016109239061300d565b60405180910390fd5b6000600b600085815260200190815260200160002060000160006101000a81548160ff021916908315150217905550600b600084815260200190815260200160002060000160019054906101000a900473ffffffffffffffffffffffffffffffffffffffff1673ffffffffffffffffffffffffffffffffffffffff1663a9059cbb600b600086815260200190815260200160002060010160009054906101000a900473ffffffffffffffffffffffffffffffffffffffff16600b6000878152602001908152602001600020600201546040518363ffffffff1660e01b8152600401610a18929190612e22565b602060405180830381600087803b158015610a3257600080fd5b505af1158015610a46573d6000803e3d6000fd5b505050506040513d601f19601f82011682018060405250810190610a6a91906127e1565b507f2c03d2f09622b67ee91478a7e43219c7ced47eff3a3f8bda2eef920181e8676683604051610a9a919061310d565b60405180910390a1505050565b600b6020528060005260406000206000915090508060000160009054906101000a900460ff16908060000160019054906101000a900473ffffffffffffffffffffffffffffffffffffffff16908060010160009054906101000a900473ffffffffffffffffffffffffffffffffffffffff16908060020154905084565b82600b600082815260200190815260200160002060000160009054906101000a900460ff16610b88576040517f08c379a0000000000000000000000000000000000000000000000000000000008152600401610b7f9061300d565b60405180910390fd5b60008311610bcb576040517f08c379a0000000000000000000000000000000000000000000000000000000008152600401610bc29061308d565b60405180910390fd5b600b600085815260200190815260200160002060000160019054906101000a900473ffffffffffffffffffffffffffffffffffffffff1673ffffffffffffffffffffffffffffffffffffffff166323b872dd3330866040518463ffffffff1660e01b8152600401610c3e93929190612d9f565b602060405180830381600087803b158015610c5857600080fd5b505af1158015610c6c573d6000803e3d6000fd5b505050506040513d601f19601f82011682018060405250810190610c9091906127e1565b5082600b60008681526020019081526020016000206002016000828254610cb791906132cf565b92505081905550610cca33600954611918565b60405180606001604052808581526020013373ffffffffffffffffffffffffffffffffffffffff16815260200184815250600c600060095481526020019081526020016000206000820151816000015560208201518160010160006101000a81548173ffffffffffffffffffffffffffffffffffffffff021916908373ffffffffffffffffffffffffffffffffffffffff160217905550604082015181600201559050507f3c3b44e1ab33da12078cac96e7aa5a3706fe93a9df720b71e866a7c535cb525a60095485338686604051610da7959493929190613196565b60405180910390a160096000815480929190610dc2906134c7565b919050555050505050565b610dde610dd8611857565b82611936565b610e1d576040517f08c379a0000000000000000000000000000000000000000000000000000000008152600401610e14906130ed565b60405180910390fd5b610e28838383611a14565b505050565b60095481565b600a5481565b610e54838383604051806020016040528060008152506111ab565b505050565b60078054610e6690613464565b80601f0160208091040260200160405190810160405280929190818152602001828054610e9290613464565b8015610edf5780601f10610eb457610100808354040283529160200191610edf565b820191906000526020600020905b815481529060010190602001808311610ec257829003601f168201915b505050505081565b6000806002600084815260200190815260200160002060009054906101000a900473ffffffffffffffffffffffffffffffffffffffff169050600073ffffffffffffffffffffffffffffffffffffffff168173ffffffffffffffffffffffffffffffffffffffff161415610f90576040517f08c379a0000000000000000000000000000000000000000000000000000000008152600401610f8790612fed565b60405180910390fd5b80915050919050565b60008073ffffffffffffffffffffffffffffffffffffffff168273ffffffffffffffffffffffffffffffffffffffff16141561100a576040517f08c379a000000000000000000000000000000000000000000000000000000000815260040161100190612fcd565b60405180910390fd5b600360008373ffffffffffffffffffffffffffffffffffffffff1673ffffffffffffffffffffffffffffffffffffffff168152602001908152602001600020549050919050565b611059611857565b73ffffffffffffffffffffffffffffffffffffffff166110776110d9565b73ffffffffffffffffffffffffffffffffffffffff16146110cd576040517f08c379a00000000000000000000000000000000000000000000000000000000081526004016110c49061306d565b60405180910390fd5b6110d76000611c70565b565b6000600660009054906101000a900473ffffffffffffffffffffffffffffffffffffffff16905090565b60606001805461111290613464565b80601f016020809104026020016040519081016040528092919081815260200182805461113e90613464565b801561118b5780601f106111605761010080835404028352916020019161118b565b820191906000526020600020905b81548152906001019060200180831161116e57829003601f168201915b5050505050905090565b6111a76111a0611857565b8383611d36565b5050565b6111bc6111b6611857565b83611936565b6111fb576040517f08c379a00000000000000000000000000000000000000000000000000000000081526004016111f2906130ed565b60405180910390fd5b61120784848484611ea3565b50505050565b6060600860009054906101000a900473ffffffffffffffffffffffffffffffffffffffff1673ffffffffffffffffffffffffffffffffffffffff16637754305c6040518163ffffffff1660e01b815260040160006040518083038186803b15801561127757600080fd5b505afa15801561128b573d6000803e3d6000fd5b505050506040513d6000823e3d601f19601f820116820180604052508101906112b4919061285c565b60076112bf84611eff565b6040516020016112d193929190612d48565b6040516020818303038152906040529050919050565b6112ef611857565b73ffffffffffffffffffffffffffffffffffffffff1661130d6110d9565b73ffffffffffffffffffffffffffffffffffffffff1614611363576040517f08c379a000000000000000000000000000000000000000000000000000000000815260040161135a9061306d565b60405180910390fd5b60405180608001604052806001151581526020018373ffffffffffffffffffffffffffffffffffffffff1681526020018273ffffffffffffffffffffffffffffffffffffffff1681526020016000815250600b6000600a54815260200190815260200160002060008201518160000160006101000a81548160ff02191690831515021790555060208201518160000160016101000a81548173ffffffffffffffffffffffffffffffffffffffff021916908373ffffffffffffffffffffffffffffffffffffffff16021790555060408201518160010160006101000a81548173ffffffffffffffffffffffffffffffffffffffff021916908373ffffffffffffffffffffffffffffffffffffffff160217905550606082015181600201559050507fd5a069f277e62d5424460614fb30a4acf02de4b972fcb7e56a216d134e7092ba600a5483836040516114b993929190613128565b60405180910390a1600a60008154809291906114d4906134c7565b91905055505050565b6060600860009054906101000a900473ffffffffffffffffffffffffffffffffffffffff1673ffffffffffffffffffffffffffffffffffffffff16637754305c6040518163ffffffff1660e01b815260040160006040518083038186803b15801561154757600080fd5b505afa15801561155b573d6000803e3d6000fd5b505050506040513d6000823e3d601f19601f82011682018060405250810190611584919061285c565b6007604051602001611597929190612d24565b604051602081830303815290604052905090565b6000600560008473ffffffffffffffffffffffffffffffffffffffff1673ffffffffffffffffffffffffffffffffffffffff16815260200190815260200160002060008373ffffffffffffffffffffffffffffffffffffffff1673ffffffffffffffffffffffffffffffffffffffff16815260200190815260200160002060009054906101000a900460ff16905092915050565b611647611857565b73ffffffffffffffffffffffffffffffffffffffff166116656110d9565b73ffffffffffffffffffffffffffffffffffffffff16146116bb576040517f08c379a00000000000000000000000000000000000000000000000000000000081526004016116b29061306d565b60405180910390fd5b600073ffffffffffffffffffffffffffffffffffffffff168173ffffffffffffffffffffffffffffffffffffffff16141561172b576040517f08c379a000000000000000000000000000000000000000000000000000000000815260040161172290612eed565b60405180910390fd5b61173481611c70565b50565b600c6020528060005260406000206000915090508060000154908060010160009054906101000a900473ffffffffffffffffffffffffffffffffffffffff16908060020154905083565b60007f01ffc9a7000000000000000000000000000000000000000000000000000000007bffffffffffffffffffffffffffffffffffffffffffffffffffffffff1916827bffffffffffffffffffffffffffffffffffffffffffffffffffffffff1916149050919050565b60008073ffffffffffffffffffffffffffffffffffffffff166002600084815260200190815260200160002060009054906101000a900473ffffffffffffffffffffffffffffffffffffffff1673ffffffffffffffffffffffffffffffffffffffff1614159050919050565b600033905090565b816004600083815260200190815260200160002060006101000a81548173ffffffffffffffffffffffffffffffffffffffff021916908373ffffffffffffffffffffffffffffffffffffffff160217905550808273ffffffffffffffffffffffffffffffffffffffff166118d283610ee7565b73ffffffffffffffffffffffffffffffffffffffff167f8c5be1e5ebec7d5bd14f71427d1e84f3dd0314c0f7b2291e5b200ac8c7c3b92560405160405180910390a45050565b6119328282604051806020016040528060008152506120ac565b5050565b6000611941826117eb565b611980576040517f08c379a000000000000000000000000000000000000000000000000000000000815260040161197790612f8d565b60405180910390fd5b600061198b83610ee7565b90508073ffffffffffffffffffffffffffffffffffffffff168473ffffffffffffffffffffffffffffffffffffffff1614806119fa57508373ffffffffffffffffffffffffffffffffffffffff166119e284610649565b73ffffffffffffffffffffffffffffffffffffffff16145b80611a0b5750611a0a81856115ab565b5b91505092915050565b8273ffffffffffffffffffffffffffffffffffffffff16611a3482610ee7565b73ffffffffffffffffffffffffffffffffffffffff1614611a8a576040517f08c379a0000000000000000000000000000000000000000000000000000000008152600401611a81906130ad565b60405180910390fd5b600073ffffffffffffffffffffffffffffffffffffffff168273ffffffffffffffffffffffffffffffffffffffff161415611afa576040517f08c379a0000000000000000000000000000000000000000000000000000000008152600401611af190612f4d565b60405180910390fd5b611b05838383612107565b611b1060008261185f565b6001600360008573ffffffffffffffffffffffffffffffffffffffff1673ffffffffffffffffffffffffffffffffffffffff1681526020019081526020016000206000828254611b609190613356565b925050819055506001600360008473ffffffffffffffffffffffffffffffffffffffff1673ffffffffffffffffffffffffffffffffffffffff1681526020019081526020016000206000828254611bb791906132cf565b92505081905550816002600083815260200190815260200160002060006101000a81548173ffffffffffffffffffffffffffffffffffffffff021916908373ffffffffffffffffffffffffffffffffffffffff160217905550808273ffffffffffffffffffffffffffffffffffffffff168473ffffffffffffffffffffffffffffffffffffffff167fddf252ad1be2c89b69c2b068fc378daa952ba7f163c4a11628f55a4df523b3ef60405160405180910390a4505050565b6000600660009054906101000a900473ffffffffffffffffffffffffffffffffffffffff16905081600660006101000a81548173ffffffffffffffffffffffffffffffffffffffff021916908373ffffffffffffffffffffffffffffffffffffffff1602179055508173ffffffffffffffffffffffffffffffffffffffff168173ffffffffffffffffffffffffffffffffffffffff167f8be0079c531659141344cd1fd0a4f28419497f9722a3daafe3b4186f6b6457e060405160405180910390a35050565b8173ffffffffffffffffffffffffffffffffffffffff168373ffffffffffffffffffffffffffffffffffffffff161415611da5576040517f08c379a0000000000000000000000000000000000000000000000000000000008152600401611d9c90612f6d565b60405180910390fd5b80600560008573ffffffffffffffffffffffffffffffffffffffff1673ffffffffffffffffffffffffffffffffffffffff16815260200190815260200160002060008473ffffffffffffffffffffffffffffffffffffffff1673ffffffffffffffffffffffffffffffffffffffff16815260200190815260200160002060006101000a81548160ff0219169083151502179055508173ffffffffffffffffffffffffffffffffffffffff168373ffffffffffffffffffffffffffffffffffffffff167f17307eab39ab6107e8899845ad3d59bd9653f200f220920489ca2b5937696c3183604051611e969190612e4b565b60405180910390a3505050565b611eae848484611a14565b611eba8484848461210c565b611ef9576040517f08c379a0000000000000000000000000000000000000000000000000000000008152600401611ef090612ecd565b60405180910390fd5b50505050565b60606000821415611f47576040518060400160405280600181526020017f300000000000000000000000000000000000000000000000000000000000000081525090506120a7565b600082905060005b60008214611f79578080611f62906134c7565b915050600a82611f729190613325565b9150611f4f565b60008167ffffffffffffffff811115611fbb577f4e487b7100000000000000000000000000000000000000000000000000000000600052604160045260246000fd5b6040519080825280601f01601f191660200182016040528015611fed5781602001600182028036833780820191505090505b5090505b600085146120a0576001826120069190613356565b9150600a856120159190613510565b603061202191906132cf565b60f81b81838151811061205d577f4e487b7100000000000000000000000000000000000000000000000000000000600052603260045260246000fd5b60200101907effffffffffffffffffffffffffffffffffffffffffffffffffffffffffffff1916908160001a905350600a856120999190613325565b9450611ff1565b8093505050505b919050565b6120b683836122a3565b6120c3600084848461210c565b612102576040517f08c379a00000000000000000000000000000000000000000000000000000000081526004016120f990612ecd565b60405180910390fd5b505050565b505050565b600061212d8473ffffffffffffffffffffffffffffffffffffffff16612471565b15612296578373ffffffffffffffffffffffffffffffffffffffff1663150b7a02612156611857565b8786866040518563ffffffff1660e01b81526004016121789493929190612dd6565b602060405180830381600087803b15801561219257600080fd5b505af19250505080156121c357506040513d601f19601f820116820180604052508101906121c09190612833565b60015b612246573d80600081146121f3576040519150601f19603f3d011682016040523d82523d6000602084013e6121f8565b606091505b5060008151141561223e576040517f08c379a000000000000000000000000000000000000000000000000000000000815260040161223590612ecd565b60405180910390fd5b805181602001fd5b63150b7a0260e01b7bffffffffffffffffffffffffffffffffffffffffffffffffffffffff1916817bffffffffffffffffffffffffffffffffffffffffffffffffffffffff19161491505061229b565b600190505b949350505050565b600073ffffffffffffffffffffffffffffffffffffffff168273ffffffffffffffffffffffffffffffffffffffff161415612313576040517f08c379a000000000000000000000000000000000000000000000000000000000815260040161230a9061302d565b60405180910390fd5b61231c816117eb565b1561235c576040517f08c379a000000000000000000000000000000000000000000000000000000000815260040161235390612f0d565b60405180910390fd5b61236860008383612107565b6001600360008473ffffffffffffffffffffffffffffffffffffffff1673ffffffffffffffffffffffffffffffffffffffff16815260200190815260200160002060008282546123b891906132cf565b92505081905550816002600083815260200190815260200160002060006101000a81548173ffffffffffffffffffffffffffffffffffffffff021916908373ffffffffffffffffffffffffffffffffffffffff160217905550808273ffffffffffffffffffffffffffffffffffffffff16600073ffffffffffffffffffffffffffffffffffffffff167fddf252ad1be2c89b69c2b068fc378daa952ba7f163c4a11628f55a4df523b3ef60405160405180910390a45050565b600080823b905060008111915050919050565b600061249761249284613215565b6131f0565b9050828152602081018484840111156124af57600080fd5b6124ba848285613422565b509392505050565b60006124d56124d084613246565b6131f0565b9050828152602081018484840111156124ed57600080fd5b6124f8848285613422565b509392505050565b600061251361250e84613246565b6131f0565b90508281526020810184848401111561252b57600080fd5b612536848285613431565b509392505050565b60008135905061254d81613abb565b92915050565b60008135905061256281613ad2565b92915050565b60008151905061257781613ad2565b92915050565b60008135905061258c81613ae9565b92915050565b6000815190506125a181613ae9565b92915050565b600082601f8301126125b857600080fd5b81356125c8848260208601612484565b91505092915050565b600082601f8301126125e257600080fd5b81356125f28482602086016124c2565b91505092915050565b600082601f83011261260c57600080fd5b815161261c848260208601612500565b91505092915050565b60008135905061263481613b00565b92915050565b60006020828403121561264c57600080fd5b600061265a8482850161253e565b91505092915050565b6000806040838503121561267657600080fd5b60006126848582860161253e565b92505060206126958582860161253e565b9150509250929050565b6000806000606084860312156126b457600080fd5b60006126c28682870161253e565b93505060206126d38682870161253e565b92505060406126e486828701612625565b9150509250925092565b6000806000806080858703121561270457600080fd5b60006127128782880161253e565b94505060206127238782880161253e565b935050604061273487828801612625565b925050606085013567ffffffffffffffff81111561275157600080fd5b61275d878288016125a7565b91505092959194509250565b6000806040838503121561277c57600080fd5b600061278a8582860161253e565b925050602061279b85828601612553565b9150509250929050565b600080604083850312156127b857600080fd5b60006127c68582860161253e565b92505060206127d785828601612625565b9150509250929050565b6000602082840312156127f357600080fd5b600061280184828501612568565b91505092915050565b60006020828403121561281c57600080fd5b600061282a8482850161257d565b91505092915050565b60006020828403121561284557600080fd5b600061285384828501612592565b91505092915050565b60006020828403121561286e57600080fd5b600082015167ffffffffffffffff81111561288857600080fd5b612894848285016125fb565b91505092915050565b6000602082840312156128af57600080fd5b60006128bd84828501612625565b91505092915050565b6000806000606084860312156128db57600080fd5b60006128e986828701612625565b93505060206128fa86828701612625565b925050604084013567ffffffffffffffff81111561291757600080fd5b612923868287016125d1565b9150509250925092565b6129368161338a565b82525050565b6129458161339c565b82525050565b60006129568261328c565b61296081856132a2565b9350612970818560208601613431565b612979816135fd565b840191505092915050565b61298d816133fe565b82525050565b600061299e82613297565b6129a881856132b3565b93506129b8818560208601613431565b6129c1816135fd565b840191505092915050565b60006129d782613297565b6129e181856132c4565b93506129f1818560208601613431565b80840191505092915050565b60008154612a0a81613464565b612a1481866132c4565b94506001821660008114612a2f5760018114612a4057612a73565b60ff19831686528186019350612a73565b612a4985613277565b60005b83811015612a6b57815481890152600182019150602081019050612a4c565b838801955050505b50505092915050565b6000612a896032836132b3565b9150612a948261360e565b604082019050919050565b6000612aac6026836132b3565b9150612ab78261365d565b604082019050919050565b6000612acf601c836132b3565b9150612ada826136ac565b602082019050919050565b6000612af26011836132b3565b9150612afd826136d5565b602082019050919050565b6000612b156024836132b3565b9150612b20826136fe565b604082019050919050565b6000612b386019836132b3565b9150612b438261374d565b602082019050919050565b6000612b5b602c836132b3565b9150612b6682613776565b604082019050919050565b6000612b7e6038836132b3565b9150612b89826137c5565b604082019050919050565b6000612ba1602a836132b3565b9150612bac82613814565b604082019050919050565b6000612bc46029836132b3565b9150612bcf82613863565b604082019050919050565b6000612be76013836132b3565b9150612bf2826138b2565b602082019050919050565b6000612c0a6020836132b3565b9150612c15826138db565b602082019050919050565b6000612c2d602c836132b3565b9150612c3882613904565b604082019050919050565b6000612c506020836132b3565b9150612c5b82613953565b602082019050919050565b6000612c736014836132b3565b9150612c7e8261397c565b602082019050919050565b6000612c966029836132b3565b9150612ca1826139a5565b604082019050919050565b6000612cb96021836132b3565b9150612cc4826139f4565b604082019050919050565b6000612cdc6031836132b3565b9150612ce782613a43565b604082019050919050565b6000612cff6001836132c4565b9150612d0a82613a92565b600182019050919050565b612d1e816133f4565b82525050565b6000612d3082856129cc565b9150612d3c82846129fd565b91508190509392505050565b6000612d5482866129cc565b9150612d6082856129fd565b9150612d6b82612cf2565b9150612d7782846129cc565b9150819050949350505050565b6000602082019050612d99600083018461292d565b92915050565b6000606082019050612db4600083018661292d565b612dc1602083018561292d565b612dce6040830184612d15565b949350505050565b6000608082019050612deb600083018761292d565b612df8602083018661292d565b612e056040830185612d15565b8181036060830152612e17818461294b565b905095945050505050565b6000604082019050612e37600083018561292d565b612e446020830184612d15565b9392505050565b6000602082019050612e60600083018461293c565b92915050565b6000608082019050612e7b600083018761293c565b612e886020830186612984565b612e95604083018561292d565b612ea26060830184612d15565b95945050505050565b60006020820190508181036000830152612ec58184612993565b905092915050565b60006020820190508181036000830152612ee681612a7c565b9050919050565b60006020820190508181036000830152612f0681612a9f565b9050919050565b60006020820190508181036000830152612f2681612ac2565b9050919050565b60006020820190508181036000830152612f4681612ae5565b9050919050565b60006020820190508181036000830152612f6681612b08565b9050919050565b60006020820190508181036000830152612f8681612b2b565b9050919050565b60006020820190508181036000830152612fa681612b4e565b9050919050565b60006020820190508181036000830152612fc681612b71565b9050919050565b60006020820190508181036000830152612fe681612b94565b9050919050565b6000602082019050818103600083015261300681612bb7565b9050919050565b6000602082019050818103600083015261302681612bda565b9050919050565b6000602082019050818103600083015261304681612bfd565b9050919050565b6000602082019050818103600083015261306681612c20565b9050919050565b6000602082019050818103600083015261308681612c43565b9050919050565b600060208201905081810360008301526130a681612c66565b9050919050565b600060208201905081810360008301526130c681612c89565b9050919050565b600060208201905081810360008301526130e681612cac565b9050919050565b6000602082019050818103600083015261310681612ccf565b9050919050565b60006020820190506131226000830184612d15565b92915050565b600060608201905061313d6000830186612d15565b61314a602083018561292d565b613157604083018461292d565b949350505050565b60006060820190506131746000830186612d15565b613181602083018561292d565b61318e6040830184612d15565b949350505050565b600060a0820190506131ab6000830188612d15565b6131b86020830187612d15565b6131c5604083018661292d565b6131d26060830185612d15565b81810360808301526131e48184612993565b90509695505050505050565b60006131fa61320b565b90506132068282613496565b919050565b6000604051905090565b600067ffffffffffffffff8211156132305761322f6135ce565b5b613239826135fd565b9050602081019050919050565b600067ffffffffffffffff821115613261576132606135ce565b5b61326a826135fd565b9050602081019050919050565b60008190508160005260206000209050919050565b600081519050919050565b600081519050919050565b600082825260208201905092915050565b600082825260208201905092915050565b600081905092915050565b60006132da826133f4565b91506132e5836133f4565b9250827fffffffffffffffffffffffffffffffffffffffffffffffffffffffffffffffff0382111561331a57613319613541565b5b828201905092915050565b6000613330826133f4565b915061333b836133f4565b92508261334b5761334a613570565b5b828204905092915050565b6000613361826133f4565b915061336c836133f4565b92508282101561337f5761337e613541565b5b828203905092915050565b6000613395826133d4565b9050919050565b60008115159050919050565b60007fffffffff0000000000000000000000000000000000000000000000000000000082169050919050565b600073ffffffffffffffffffffffffffffffffffffffff82169050919050565b6000819050919050565b600061340982613410565b9050919050565b600061341b826133d4565b9050919050565b82818337600083830152505050565b60005b8381101561344f578082015181840152602081019050613434565b8381111561345e576000848401525b50505050565b6000600282049050600182168061347c57607f821691505b602082108114156134905761348f61359f565b5b50919050565b61349f826135fd565b810181811067ffffffffffffffff821117156134be576134bd6135ce565b5b80604052505050565b60006134d2826133f4565b91507fffffffffffffffffffffffffffffffffffffffffffffffffffffffffffffffff82141561350557613504613541565b5b600182019050919050565b600061351b826133f4565b9150613526836133f4565b92508261353657613535613570565b5b828206905092915050565b7f4e487b7100000000000000000000000000000000000000000000000000000000600052601160045260246000fd5b7f4e487b7100000000000000000000000000000000000000000000000000000000600052601260045260246000fd5b7f4e487b7100000000000000000000000000000000000000000000000000000000600052602260045260246000fd5b7f4e487b7100000000000000000000000000000000000000000000000000000000600052604160045260246000fd5b6000601f19601f8301169050919050565b7f4552433732313a207472616e7366657220746f206e6f6e20455243373231526560008201527f63656976657220696d706c656d656e7465720000000000000000000000000000602082015250565b7f4f776e61626c653a206e6577206f776e657220697320746865207a65726f206160008201527f6464726573730000000000000000000000000000000000000000000000000000602082015250565b7f4552433732313a20746f6b656e20616c7265616479206d696e74656400000000600082015250565b7f4e6f742070726f6a656374206f776e6572000000000000000000000000000000600082015250565b7f4552433732313a207472616e7366657220746f20746865207a65726f2061646460008201527f7265737300000000000000000000000000000000000000000000000000000000602082015250565b7f4552433732313a20617070726f766520746f2063616c6c657200000000000000600082015250565b7f4552433732313a206f70657261746f7220717565727920666f72206e6f6e657860008201527f697374656e7420746f6b656e0000000000000000000000000000000000000000602082015250565b7f4552433732313a20617070726f76652063616c6c6572206973206e6f74206f7760008201527f6e6572206e6f7220617070726f76656420666f7220616c6c0000000000000000602082015250565b7f4552433732313a2062616c616e636520717565727920666f7220746865207a6560008201527f726f206164647265737300000000000000000000000000000000000000000000602082015250565b7f4552433732313a206f776e657220717565727920666f72206e6f6e657869737460008201527f656e7420746f6b656e0000000000000000000000000000000000000000000000602082015250565b7f50726f6a656374206e6f74206163746976652100000000000000000000000000600082015250565b7f4552433732313a206d696e7420746f20746865207a65726f2061646472657373600082015250565b7f4552433732313a20617070726f76656420717565727920666f72206e6f6e657860008201527f697374656e7420746f6b656e0000000000000000000000000000000000000000602082015250565b7f4f776e61626c653a2063616c6c6572206973206e6f7420746865206f776e6572600082015250565b7f446f6e6174696f6e20616d6f756e742069732030000000000000000000000000600082015250565b7f4552433732313a207472616e73666572206f6620746f6b656e2074686174206960008201527f73206e6f74206f776e0000000000000000000000000000000000000000000000602082015250565b7f4552433732313a20617070726f76616c20746f2063757272656e74206f776e6560008201527f7200000000000000000000000000000000000000000000000000000000000000602082015250565b7f4552433732313a207472616e736665722063616c6c6572206973206e6f74206f60008201527f776e6572206e6f7220617070726f766564000000000000000000000000000000602082015250565b7f2f00000000000000000000000000000000000000000000000000000000000000600082015250565b613ac48161338a565b8114613acf57600080fd5b50565b613adb8161339c565b8114613ae657600080fd5b50565b613af2816133a8565b8114613afd57600080fd5b50565b613b09816133f4565b8114613b1457600080fd5b5056fea26469706673582212204f3335e901c905b6d5518d9709596ae06f9a7aeab10681ef490babbd23e6460364736f6c63430008040033a26469706673582212208afa5c7135abf201fd132f6011ceeea5fc4fe1351f278393a3a8ee345868ac2a64736f6c63430008040033",
  "linkReferences": {},
  "deployedLinkReferences": {}
}