{
  "_format": "hh-sol-artifact-1",
  "contractName": "Collection",
  "sourceName": "contracts/Collection.sol",
  "abi": [
    {
      "inputs": [
        {
          "internalType": "string",
          "name": "_title",
          "type": "string"
        },
        {
          "internalType": "address",
          "name": "projectCoin",
          "type": "address"
        },
        {
          "internalType": "address",
          "name": "projectOwner",
          "type": "address"
        },
        {
          "internalType": "string",
          "name": "projectIpfs",
          "type": "string"
        }
      ],
      "stateMutability": "nonpayable",
      "type": "constructor"
    },
    {
      "anonymous": false,
      "inputs": [
        {
          "indexed": true,
          "internalType": "address",
          "name": "owner",
          "type": "address"
        },
        {
          "indexed": true,
          "internalType": "address",
          "name": "approved",
          "type": "address"
        },
        {
          "indexed": true,
          "internalType": "uint256",
          "name": "tokenId",
          "type": "uint256"
        }
      ],
      "name": "Approval",
      "type": "event"
    },
    {
      "anonymous": false,
      "inputs": [
        {
          "indexed": true,
          "internalType": "address",
          "name": "owner",
          "type": "address"
        },
        {
          "indexed": true,
          "internalType": "address",
          "name": "operator",
          "type": "address"
        },
        {
          "indexed": false,
          "internalType": "bool",
          "name": "approved",
          "type": "bool"
        }
      ],
      "name": "ApprovalForAll",
      "type": "event"
    },
    {
      "anonymous": false,
      "inputs": [
        {
          "indexed": false,
          "internalType": "uint256",
          "name": "id",
          "type": "uint256"
        }
      ],
      "name": "End",
      "type": "event"
    },
    {
      "anonymous": false,
      "inputs": [
        {
          "indexed": false,
          "internalType": "uint256",
          "name": "id",
          "type": "uint256"
        },
        {
          "indexed": false,
          "internalType": "uint256",
          "name": "projectId",
          "type": "uint256"
        },
        {
          "indexed": false,
          "internalType": "address",
          "name": "owner",
          "type": "address"
        },
        {
          "indexed": false,
          "internalType": "uint256",
          "name": "amount",
          "type": "uint256"
        },
        {
          "indexed": false,
          "internalType": "string",
          "name": "message",
          "type": "string"
        }
      ],
      "name": "NewDonation",
      "type": "event"
    },
    {
      "anonymous": false,
      "inputs": [
        {
          "indexed": false,
          "internalType": "uint256",
          "name": "id",
          "type": "uint256"
        },
        {
          "indexed": false,
          "internalType": "address",
          "name": "coin",
          "type": "address"
        },
        {
          "indexed": false,
          "internalType": "address",
          "name": "owner",
          "type": "address"
        },
        {
          "indexed": false,
          "internalType": "string",
          "name": "ipfs",
          "type": "string"
        }
      ],
      "name": "NewProject",
      "type": "event"
    },
    {
      "anonymous": false,
      "inputs": [
        {
          "indexed": true,
          "internalType": "address",
          "name": "previousOwner",
          "type": "address"
        },
        {
          "indexed": true,
          "internalType": "address",
          "name": "newOwner",
          "type": "address"
        }
      ],
      "name": "OwnershipTransferred",
      "type": "event"
    },
    {
      "anonymous": false,
      "inputs": [
        {
          "indexed": false,
          "internalType": "uint256",
          "name": "id",
          "type": "uint256"
        },
        {
          "indexed": false,
          "internalType": "string",
          "name": "ipfs",
          "type": "string"
        }
      ],
      "name": "SetIPFS",
      "type": "event"
    },
    {
      "anonymous": false,
      "inputs": [
        {
          "indexed": true,
          "internalType": "address",
          "name": "from",
          "type": "address"
        },
        {
          "indexed": true,
          "internalType": "address",
          "name": "to",
          "type": "address"
        },
        {
          "indexed": true,
          "internalType": "uint256",
          "name": "tokenId",
          "type": "uint256"
        }
      ],
      "name": "Transfer",
      "type": "event"
    },
    {
      "inputs": [
        {
          "internalType": "address",
          "name": "to",
          "type": "address"
        },
        {
          "internalType": "uint256",
          "name": "tokenId",
          "type": "uint256"
        }
      ],
      "name": "approve",
      "outputs": [],
      "stateMutability": "nonpayable",
      "type": "function"
    },
    {
      "inputs": [
        {
          "internalType": "address",
          "name": "owner",
          "type": "address"
        }
      ],
      "name": "balanceOf",
      "outputs": [
        {
          "internalType": "uint256",
          "name": "",
          "type": "uint256"
        }
      ],
      "stateMutability": "view",
      "type": "function"
    },
    {
      "inputs": [],
      "name": "contractURI",
      "outputs": [
        {
          "internalType": "string",
          "name": "",
          "type": "string"
        }
      ],
      "stateMutability": "view",
      "type": "function"
    },
    {
      "inputs": [
        {
          "internalType": "uint256",
          "name": "id",
          "type": "uint256"
        },
        {
          "internalType": "uint256",
          "name": "amount",
          "type": "uint256"
        },
        {
          "internalType": "string",
          "name": "message",
          "type": "string"
        }
      ],
      "name": "donate",
      "outputs": [],
      "stateMutability": "nonpayable",
      "type": "function"
    },
    {
      "inputs": [
        {
          "internalType": "uint256",
          "name": "id",
          "type": "uint256"
        }
      ],
      "name": "end",
      "outputs": [],
      "stateMutability": "nonpayable",
      "type": "function"
    },
    {
      "inputs": [
        {
          "internalType": "uint256",
          "name": "tokenId",
          "type": "uint256"
        }
      ],
      "name": "getApproved",
      "outputs": [
        {
          "internalType": "address",
          "name": "",
          "type": "address"
        }
      ],
      "stateMutability": "view",
      "type": "function"
    },
    {
      "inputs": [
        {
          "internalType": "address",
          "name": "owner",
          "type": "address"
        },
        {
          "internalType": "address",
          "name": "operator",
          "type": "address"
        }
      ],
      "name": "isApprovedForAll",
      "outputs": [
        {
          "internalType": "bool",
          "name": "",
          "type": "bool"
        }
      ],
      "stateMutability": "view",
      "type": "function"
    },
    {
      "inputs": [],
      "name": "name",
      "outputs": [
        {
          "internalType": "string",
          "name": "",
          "type": "string"
        }
      ],
      "stateMutability": "view",
      "type": "function"
    },
    {
      "inputs": [
        {
          "internalType": "address",
          "name": "coin",
          "type": "address"
        },
        {
          "internalType": "address",
          "name": "owner",
          "type": "address"
        },
        {
          "internalType": "string",
          "name": "ipfs",
          "type": "string"
        }
      ],
      "name": "newProject",
      "outputs": [],
      "stateMutability": "nonpayable",
      "type": "function"
    },
    {
      "inputs": [],
      "name": "owner",
      "outputs": [
        {
          "internalType": "address",
          "name": "",
          "type": "address"
        }
      ],
      "stateMutability": "view",
      "type": "function"
    },
    {
      "inputs": [
        {
          "internalType": "uint256",
          "name": "tokenId",
          "type": "uint256"
        }
      ],
      "name": "ownerOf",
      "outputs": [
        {
          "internalType": "address",
          "name": "",
          "type": "address"
        }
      ],
      "stateMutability": "view",
      "type": "function"
    },
    {
      "inputs": [
        {
          "internalType": "uint256",
          "name": "",
          "type": "uint256"
        }
      ],
      "name": "projects",
      "outputs": [
        {
          "internalType": "bool",
          "name": "active",
          "type": "bool"
        },
        {
          "internalType": "contract IERC20",
          "name": "coin",
          "type": "address"
        },
        {
          "internalType": "address",
          "name": "owner",
          "type": "address"
        },
        {
          "internalType": "string",
          "name": "ipfs",
          "type": "string"
        }
      ],
      "stateMutability": "view",
      "type": "function"
    },
    {
      "inputs": [],
      "name": "renounceOwnership",
      "outputs": [],
      "stateMutability": "nonpayable",
      "type": "function"
    },
    {
      "inputs": [
        {
          "internalType": "address",
          "name": "from",
          "type": "address"
        },
        {
          "internalType": "address",
          "name": "to",
          "type": "address"
        },
        {
          "internalType": "uint256",
          "name": "tokenId",
          "type": "uint256"
        }
      ],
      "name": "safeTransferFrom",
      "outputs": [],
      "stateMutability": "nonpayable",
      "type": "function"
    },
    {
      "inputs": [
        {
          "internalType": "address",
          "name": "from",
          "type": "address"
        },
        {
          "internalType": "address",
          "name": "to",
          "type": "address"
        },
        {
          "internalType": "uint256",
          "name": "tokenId",
          "type": "uint256"
        },
        {
          "internalType": "bytes",
          "name": "_data",
          "type": "bytes"
        }
      ],
      "name": "safeTransferFrom",
      "outputs": [],
      "stateMutability": "nonpayable",
      "type": "function"
    },
    {
      "inputs": [
        {
          "internalType": "address",
          "name": "operator",
          "type": "address"
        },
        {
          "internalType": "bool",
          "name": "approved",
          "type": "bool"
        }
      ],
      "name": "setApprovalForAll",
      "outputs": [],
      "stateMutability": "nonpayable",
      "type": "function"
    },
    {
      "inputs": [
        {
          "internalType": "uint256",
          "name": "id",
          "type": "uint256"
        },
        {
          "internalType": "string",
          "name": "ipfs",
          "type": "string"
        }
      ],
      "name": "setIPFS",
      "outputs": [],
      "stateMutability": "nonpayable",
      "type": "function"
    },
    {
      "inputs": [
        {
          "internalType": "bytes4",
          "name": "interfaceId",
          "type": "bytes4"
        }
      ],
      "name": "supportsInterface",
      "outputs": [
        {
          "internalType": "bool",
          "name": "",
          "type": "bool"
        }
      ],
      "stateMutability": "view",
      "type": "function"
    },
    {
      "inputs": [],
      "name": "symbol",
      "outputs": [
        {
          "internalType": "string",
          "name": "",
          "type": "string"
        }
      ],
      "stateMutability": "view",
      "type": "function"
    },
    {
      "inputs": [],
      "name": "title",
      "outputs": [
        {
          "internalType": "string",
          "name": "",
          "type": "string"
        }
      ],
      "stateMutability": "view",
      "type": "function"
    },
    {
      "inputs": [
        {
          "internalType": "uint256",
          "name": "tokenId",
          "type": "uint256"
        }
      ],
      "name": "tokenURI",
      "outputs": [
        {
          "internalType": "string",
          "name": "",
          "type": "string"
        }
      ],
      "stateMutability": "view",
      "type": "function"
    },
    {
      "inputs": [
        {
          "internalType": "address",
          "name": "from",
          "type": "address"
        },
        {
          "internalType": "address",
          "name": "to",
          "type": "address"
        },
        {
          "internalType": "uint256",
          "name": "tokenId",
          "type": "uint256"
        }
      ],
      "name": "transferFrom",
      "outputs": [],
      "stateMutability": "nonpayable",
      "type": "function"
    },
    {
      "inputs": [
        {
          "internalType": "address",
          "name": "newOwner",
          "type": "address"
        }
      ],
      "name": "transferOwnership",
      "outputs": [],
      "stateMutability": "nonpayable",
      "type": "function"
    }
  ],
  "bytecode": "0x60806040523480156200001157600080fd5b506040516200230f3803806200230f8339810160408190526200003491620003a6565b8351849081906200004d90600090602084019062000216565b5080516200006390600190602084019062000216565b505050620000806200007a620000bf60201b60201c565b620000c3565b83516200009590600990602087019062000216565b50600a80546001600160a01b03191633179055620000b583838362000115565b5050505062000471565b3390565b600680546001600160a01b038381166001600160a01b0319831681179093556040519116919082907f8be0079c531659141344cd1fd0a4f28419497f9722a3daafe3b4186f6b6457e090600090a35050565b6200012c60086200020960201b62000df51760201c565b6040518060800160405280600115158152602001846001600160a01b03168152602001836001600160a01b0316815260200182815250600b60006200017d60086200021260201b62000dfe1760201c565b8152602080820192909252604090810160002083518154858501516001600160a81b0319909116911515610100600160a81b031916919091176101006001600160a01b0392831602178255918401516001820180546001600160a01b0319169190931617909155606083015180519192620002019260028501929091019062000216565b505050505050565b80546001019055565b5490565b828054620002249062000435565b90600052602060002090601f01602090048101928262000248576000855562000293565b82601f106200026357805160ff191683800117855562000293565b8280016001018555821562000293579182015b828111156200029357825182559160200191906001019062000276565b50620002a1929150620002a5565b5090565b5b80821115620002a15760008155600101620002a6565b634e487b7160e01b600052604160045260246000fd5b600082601f830112620002e457600080fd5b81516001600160401b0380821115620003015762000301620002bc565b604051601f8301601f19908116603f011681019082821181831017156200032c576200032c620002bc565b816040528381526020925086838588010111156200034957600080fd5b600091505b838210156200036d57858201830151818301840152908201906200034e565b838211156200037f5760008385830101525b9695505050505050565b80516001600160a01b0381168114620003a157600080fd5b919050565b60008060008060808587031215620003bd57600080fd5b84516001600160401b0380821115620003d557600080fd5b620003e388838901620002d2565b9550620003f36020880162000389565b9450620004036040880162000389565b935060608701519150808211156200041a57600080fd5b506200042987828801620002d2565b91505092959194509250565b600181811c908216806200044a57607f821691505b6020821081036200046b57634e487b7160e01b600052602260045260246000fd5b50919050565b611e8e80620004816000396000f3fe608060405234801561001057600080fd5b506004361061014d5760003560e01c80636352211e116100c3578063a22cb4651161007c578063a22cb465146102c1578063b88d4fde146102d4578063c87b56dd146102e7578063e8a3d485146102fa578063e985e9c514610302578063f2fde38b1461033e57600080fd5b80636352211e1461025957806370a082311461026c578063715018a61461028d5780638da5cb5b1461029557806395d89b41146102a65780639c986c2a146102ae57600080fd5b8063107046bd11610115578063107046bd146101e257806316c3cdf51461020557806323b872dd1461021857806342842e0e1461022b5780634a79d50c1461023e578063616e5d441461024657600080fd5b806301ffc9a71461015257806306fdde031461017a578063081812fc1461018f578063095ea7b3146101ba5780630ad24528146101cf575b600080fd5b610165610160366004611670565b610351565b60405190151581526020015b60405180910390f35b6101826103a3565b60405161017191906116ec565b6101a261019d3660046116ff565b610435565b6040516001600160a01b039091168152602001610171565b6101cd6101c8366004611734565b6104cf565b005b6101cd6101dd3660046116ff565b6105e4565b6101f56101f03660046116ff565b610692565b604051610171949392919061175e565b6101cd610213366004611869565b610755565b6101cd6102263660046118b9565b6108d1565b6101cd6102393660046118b9565b610902565b61018261091d565b6101cd6102543660046118f5565b6109ab565b6101a26102673660046116ff565b610a2a565b61027f61027a36600461193d565b610aa1565b604051908152602001610171565b6101cd610b28565b6006546001600160a01b03166101a2565b610182610b5e565b6101cd6102bc366004611958565b610b6d565b6101cd6102cf3660046119ad565b610c1e565b6101cd6102e23660046119e4565b610c2d565b6101826102f53660046116ff565b610c65565b610182610cde565b610165610310366004611a60565b6001600160a01b03918216600090815260056020908152604080832093909416825291909152205460ff1690565b6101cd61034c36600461193d565b610d5a565b60006001600160e01b031982166380ac58cd60e01b148061038257506001600160e01b03198216635b5e139f60e01b145b8061039d57506301ffc9a760e01b6001600160e01b03198316145b92915050565b6060600080546103b290611a93565b80601f01602080910402602001604051908101604052809291908181526020018280546103de90611a93565b801561042b5780601f106104005761010080835404028352916020019161042b565b820191906000526020600020905b81548152906001019060200180831161040e57829003601f168201915b5050505050905090565b6000818152600260205260408120546001600160a01b03166104b35760405162461bcd60e51b815260206004820152602c60248201527f4552433732313a20617070726f76656420717565727920666f72206e6f6e657860448201526b34b9ba32b73a103a37b5b2b760a11b60648201526084015b60405180910390fd5b506000908152600460205260409020546001600160a01b031690565b60006104da82610a2a565b9050806001600160a01b0316836001600160a01b0316036105475760405162461bcd60e51b815260206004820152602160248201527f4552433732313a20617070726f76616c20746f2063757272656e74206f776e656044820152603960f91b60648201526084016104aa565b336001600160a01b038216148061056357506105638133610310565b6105d55760405162461bcd60e51b815260206004820152603860248201527f4552433732313a20617070726f76652063616c6c6572206973206e6f74206f7760448201527f6e6572206e6f7220617070726f76656420666f7220616c6c000000000000000060648201526084016104aa565b6105df8383610e02565b505050565b6006546001600160a01b0316331461060e5760405162461bcd60e51b81526004016104aa90611acd565b6000818152600b6020526040902054819060ff1661063e5760405162461bcd60e51b81526004016104aa90611b02565b6000828152600b602052604090819020805460ff19169055517f2c03d2f09622b67ee91478a7e43219c7ced47eff3a3f8bda2eef920181e86766906106869084815260200190565b60405180910390a15050565b600b6020526000908152604090208054600182015460028301805460ff8416946101009094046001600160a01b039081169493169291906106d290611a93565b80601f01602080910402602001604051908101604052809291908181526020018280546106fe90611a93565b801561074b5780601f106107205761010080835404028352916020019161074b565b820191906000526020600020905b81548152906001019060200180831161072e57829003601f168201915b5050505050905084565b6000838152600b6020526040902054839060ff166107855760405162461bcd60e51b81526004016104aa90611b02565b600083116107cc5760405162461bcd60e51b81526020600482015260146024820152730446f6e6174696f6e20616d6f756e7420697320360641b60448201526064016104aa565b6000848152600b602052604090819020805460019091015491516323b872dd60e01b81523360048201526001600160a01b03928316602482015260448101869052610100909104909116906323b872dd906064016020604051808303816000875af115801561083f573d6000803e3d6000fd5b505050506040513d601f19601f820116820180604052508101906108639190611b2f565b50610872600780546001019055565b6108843361087f60075490565b610e70565b7f3c3b44e1ab33da12078cac96e7aa5a3706fe93a9df720b71e866a7c535cb525a6108ae60075490565b853386866040516108c3959493929190611b4c565b60405180910390a150505050565b6108db3382610e8a565b6108f75760405162461bcd60e51b81526004016104aa90611b8a565b6105df838383610f81565b6105df83838360405180602001604052806000815250610c2d565b6009805461092a90611a93565b80601f016020809104026020016040519081016040528092919081815260200182805461095690611a93565b80156109a35780601f10610978576101008083540402835291602001916109a3565b820191906000526020600020905b81548152906001019060200180831161098657829003601f168201915b505050505081565b6006546001600160a01b031633146109d55760405162461bcd60e51b81526004016104aa90611acd565b6109e083838361111d565b7f7bb1010a6f440817598a764b1acb4bb3154dc782767e5f421db57c9f40e1fa47610a0a60085490565b848484604051610a1d9493929190611bdb565b60405180910390a1505050565b6000818152600260205260408120546001600160a01b03168061039d5760405162461bcd60e51b815260206004820152602960248201527f4552433732313a206f776e657220717565727920666f72206e6f6e657869737460448201526832b73a103a37b5b2b760b91b60648201526084016104aa565b60006001600160a01b038216610b0c5760405162461bcd60e51b815260206004820152602a60248201527f4552433732313a2062616c616e636520717565727920666f7220746865207a65604482015269726f206164647265737360b01b60648201526084016104aa565b506001600160a01b031660009081526003602052604090205490565b6006546001600160a01b03163314610b525760405162461bcd60e51b81526004016104aa90611acd565b610b5c60006111f8565b565b6060600180546103b290611a93565b6006546001600160a01b03163314610b975760405162461bcd60e51b81526004016104aa90611acd565b6000828152600b6020526040902054829060ff16610bc75760405162461bcd60e51b81526004016104aa90611b02565b6000838152600b602090815260409091208351610bec926002909201918501906115c1565b507f20650de8ff024ce9a29ea838a7d927500cdcaebce78b783a1dd67bcddd29031e8383604051610a1d929190611c0d565b610c2933838361124a565b5050565b610c373383610e8a565b610c535760405162461bcd60e51b81526004016104aa90611b8a565b610c5f84848484611318565b50505050565b600a54604051630ebf131160e01b81526060916001600160a01b031690630ebf131190610c99906009908690600401611cc5565b600060405180830381865afa158015610cb6573d6000803e3d6000fd5b505050506040513d6000823e601f3d908101601f1916820160405261039d9190810190611ce7565b600a54604051631f5c7dc360e21b81526060916001600160a01b031690637d71f70c90610d1090600990600401611d5e565b600060405180830381865afa158015610d2d573d6000803e3d6000fd5b505050506040513d6000823e601f3d908101601f19168201604052610d559190810190611ce7565b905090565b6006546001600160a01b03163314610d845760405162461bcd60e51b81526004016104aa90611acd565b6001600160a01b038116610de95760405162461bcd60e51b815260206004820152602660248201527f4f776e61626c653a206e6577206f776e657220697320746865207a65726f206160448201526564647265737360d01b60648201526084016104aa565b610df2816111f8565b50565b80546001019055565b5490565b600081815260046020526040902080546001600160a01b0319166001600160a01b0384169081179091558190610e3782610a2a565b6001600160a01b03167f8c5be1e5ebec7d5bd14f71427d1e84f3dd0314c0f7b2291e5b200ac8c7c3b92560405160405180910390a45050565b610c2982826040518060200160405280600081525061134b565b6000818152600260205260408120546001600160a01b0316610f035760405162461bcd60e51b815260206004820152602c60248201527f4552433732313a206f70657261746f7220717565727920666f72206e6f6e657860448201526b34b9ba32b73a103a37b5b2b760a11b60648201526084016104aa565b6000610f0e83610a2a565b9050806001600160a01b0316846001600160a01b03161480610f495750836001600160a01b0316610f3e84610435565b6001600160a01b0316145b80610f7957506001600160a01b0380821660009081526005602090815260408083209388168352929052205460ff165b949350505050565b826001600160a01b0316610f9482610a2a565b6001600160a01b031614610ff85760405162461bcd60e51b815260206004820152602560248201527f4552433732313a207472616e736665722066726f6d20696e636f72726563742060448201526437bbb732b960d91b60648201526084016104aa565b6001600160a01b03821661105a5760405162461bcd60e51b8152602060048201526024808201527f4552433732313a207472616e7366657220746f20746865207a65726f206164646044820152637265737360e01b60648201526084016104aa565b611065600082610e02565b6001600160a01b038316600090815260036020526040812080546001929061108e908490611d87565b90915550506001600160a01b03821660009081526003602052604081208054600192906110bc908490611d9e565b909155505060008181526002602052604080822080546001600160a01b0319166001600160a01b0386811691821790925591518493918716917fddf252ad1be2c89b69c2b068fc378daa952ba7f163c4a11628f55a4df523b3ef91a4505050565b61112b600880546001019055565b6040518060800160405280600115158152602001846001600160a01b03168152602001836001600160a01b0316815260200182815250600b600061116e60085490565b8152602080820192909252604090810160002083518154858501516001600160a81b0319909116911515610100600160a81b031916919091176101006001600160a01b0392831602178255918401516001820180546001600160a01b03191691909316179091556060830151805191926111f0926002850192909101906115c1565b505050505050565b600680546001600160a01b038381166001600160a01b0319831681179093556040519116919082907f8be0079c531659141344cd1fd0a4f28419497f9722a3daafe3b4186f6b6457e090600090a35050565b816001600160a01b0316836001600160a01b0316036112ab5760405162461bcd60e51b815260206004820152601960248201527f4552433732313a20617070726f766520746f2063616c6c65720000000000000060448201526064016104aa565b6001600160a01b03838116600081815260056020908152604080832094871680845294825291829020805460ff191686151590811790915591519182527f17307eab39ab6107e8899845ad3d59bd9653f200f220920489ca2b5937696c31910160405180910390a3505050565b611323848484610f81565b61132f8484848461137e565b610c5f5760405162461bcd60e51b81526004016104aa90611db6565b611355838361147f565b611362600084848461137e565b6105df5760405162461bcd60e51b81526004016104aa90611db6565b60006001600160a01b0384163b1561147457604051630a85bd0160e11b81526001600160a01b0385169063150b7a02906113c2903390899088908890600401611e08565b6020604051808303816000875af19250505080156113fd575060408051601f3d908101601f191682019092526113fa91810190611e3b565b60015b61145a573d80801561142b576040519150601f19603f3d011682016040523d82523d6000602084013e611430565b606091505b5080516000036114525760405162461bcd60e51b81526004016104aa90611db6565b805181602001fd5b6001600160e01b031916630a85bd0160e11b149050610f79565b506001949350505050565b6001600160a01b0382166114d55760405162461bcd60e51b815260206004820181905260248201527f4552433732313a206d696e7420746f20746865207a65726f206164647265737360448201526064016104aa565b6000818152600260205260409020546001600160a01b03161561153a5760405162461bcd60e51b815260206004820152601c60248201527f4552433732313a20746f6b656e20616c7265616479206d696e7465640000000060448201526064016104aa565b6001600160a01b0382166000908152600360205260408120805460019290611563908490611d9e565b909155505060008181526002602052604080822080546001600160a01b0319166001600160a01b03861690811790915590518392907fddf252ad1be2c89b69c2b068fc378daa952ba7f163c4a11628f55a4df523b3ef908290a45050565b8280546115cd90611a93565b90600052602060002090601f0160209004810192826115ef5760008555611635565b82601f1061160857805160ff1916838001178555611635565b82800160010185558215611635579182015b8281111561163557825182559160200191906001019061161a565b50611641929150611645565b5090565b5b808211156116415760008155600101611646565b6001600160e01b031981168114610df257600080fd5b60006020828403121561168257600080fd5b813561168d8161165a565b9392505050565b60005b838110156116af578181015183820152602001611697565b83811115610c5f5750506000910152565b600081518084526116d8816020860160208601611694565b601f01601f19169290920160200192915050565b60208152600061168d60208301846116c0565b60006020828403121561171157600080fd5b5035919050565b80356001600160a01b038116811461172f57600080fd5b919050565b6000806040838503121561174757600080fd5b61175083611718565b946020939093013593505050565b84151581526001600160a01b03848116602083015283166040820152608060608201819052600090611792908301846116c0565b9695505050505050565b634e487b7160e01b600052604160045260246000fd5b604051601f8201601f1916810167ffffffffffffffff811182821017156117db576117db61179c565b604052919050565b600067ffffffffffffffff8211156117fd576117fd61179c565b50601f01601f191660200190565b600061181e611819846117e3565b6117b2565b905082815283838301111561183257600080fd5b828260208301376000602084830101529392505050565b600082601f83011261185a57600080fd5b61168d8383356020850161180b565b60008060006060848603121561187e57600080fd5b8335925060208401359150604084013567ffffffffffffffff8111156118a357600080fd5b6118af86828701611849565b9150509250925092565b6000806000606084860312156118ce57600080fd5b6118d784611718565b92506118e560208501611718565b9150604084013590509250925092565b60008060006060848603121561190a57600080fd5b61191384611718565b925061192160208501611718565b9150604084013567ffffffffffffffff8111156118a357600080fd5b60006020828403121561194f57600080fd5b61168d82611718565b6000806040838503121561196b57600080fd5b82359150602083013567ffffffffffffffff81111561198957600080fd5b61199585828601611849565b9150509250929050565b8015158114610df257600080fd5b600080604083850312156119c057600080fd5b6119c983611718565b915060208301356119d98161199f565b809150509250929050565b600080600080608085870312156119fa57600080fd5b611a0385611718565b9350611a1160208601611718565b925060408501359150606085013567ffffffffffffffff811115611a3457600080fd5b8501601f81018713611a4557600080fd5b611a548782356020840161180b565b91505092959194509250565b60008060408385031215611a7357600080fd5b611a7c83611718565b9150611a8a60208401611718565b90509250929050565b600181811c90821680611aa757607f821691505b602082108103611ac757634e487b7160e01b600052602260045260246000fd5b50919050565b6020808252818101527f4f776e61626c653a2063616c6c6572206973206e6f7420746865206f776e6572604082015260600190565b60208082526013908201527250726f6a656374206e6f74206163746976652160681b604082015260600190565b600060208284031215611b4157600080fd5b815161168d8161199f565b85815284602082015260018060a01b038416604082015282606082015260a060808201526000611b7f60a08301846116c0565b979650505050505050565b60208082526031908201527f4552433732313a207472616e736665722063616c6c6572206973206e6f74206f6040820152701ddb995c881b9bdc88185c1c1c9bdd9959607a1b606082015260800190565b8481526001600160a01b03848116602083015283166040820152608060608201819052600090611792908301846116c0565b828152604060208201526000610f7960408301846116c0565b8054600090600181811c9080831680611c4057607f831692505b60208084108203611c6157634e487b7160e01b600052602260045260246000fd5b83885260208801828015611c7c5760018114611c8d57611cb8565b60ff19871682528282019750611cb8565b60008981526020902060005b87811015611cb257815484820152908601908401611c99565b83019850505b5050505050505092915050565b604081526000611cd86040830185611c26565b90508260208301529392505050565b600060208284031215611cf957600080fd5b815167ffffffffffffffff811115611d1057600080fd5b8201601f81018413611d2157600080fd5b8051611d2f611819826117e3565b818152856020838501011115611d4457600080fd5b611d55826020830160208601611694565b95945050505050565b60208152600061168d6020830184611c26565b634e487b7160e01b600052601160045260246000fd5b600082821015611d9957611d99611d71565b500390565b60008219821115611db157611db1611d71565b500190565b60208082526032908201527f4552433732313a207472616e7366657220746f206e6f6e20455243373231526560408201527131b2b4bb32b91034b6b83632b6b2b73a32b960711b606082015260800190565b6001600160a01b0385811682528416602082015260408101839052608060608201819052600090611792908301846116c0565b600060208284031215611e4d57600080fd5b815161168d8161165a56fea2646970667358221220967f944f4db6d1d4e5b39956cb65d3fd5eb330d23688ff5827cdec0422e2c51464736f6c634300080d0033",
  "linkReferences": {},
  "deployedLinkReferences": {}
}