{
  "_format": "hh-sol-artifact-1",
  "contractName": "Collection",
  "sourceName": "contracts/Collection.sol",
  "abi": [
    {
      "inputs": [
        {
          "internalType": "string",
          "name": "_title",
          "type": "string"
        },
        {
          "internalType": "address",
          "name": "_coin",
          "type": "address"
        }
      ],
      "stateMutability": "nonpayable",
      "type": "constructor"
    },
    {
      "anonymous": false,
      "inputs": [
        {
          "indexed": false,
          "internalType": "string",
          "name": "ipfs",
          "type": "string"
        }
      ],
      "name": "AddContent",
      "type": "event"
    },
    {
      "anonymous": false,
      "inputs": [
        {
          "indexed": true,
          "internalType": "address",
          "name": "owner",
          "type": "address"
        },
        {
          "indexed": true,
          "internalType": "address",
          "name": "approved",
          "type": "address"
        },
        {
          "indexed": true,
          "internalType": "uint256",
          "name": "tokenId",
          "type": "uint256"
        }
      ],
      "name": "Approval",
      "type": "event"
    },
    {
      "anonymous": false,
      "inputs": [
        {
          "indexed": true,
          "internalType": "address",
          "name": "owner",
          "type": "address"
        },
        {
          "indexed": true,
          "internalType": "address",
          "name": "operator",
          "type": "address"
        },
        {
          "indexed": false,
          "internalType": "bool",
          "name": "approved",
          "type": "bool"
        }
      ],
      "name": "ApprovalForAll",
      "type": "event"
    },
    {
      "anonymous": false,
      "inputs": [
        {
          "indexed": false,
          "internalType": "uint256",
          "name": "id",
          "type": "uint256"
        },
        {
          "indexed": false,
          "internalType": "uint256",
          "name": "amount",
          "type": "uint256"
        },
        {
          "indexed": false,
          "internalType": "string",
          "name": "message",
          "type": "string"
        },
        {
          "indexed": false,
          "internalType": "address",
          "name": "sender",
          "type": "address"
        }
      ],
      "name": "NewDonation",
      "type": "event"
    },
    {
      "anonymous": false,
      "inputs": [
        {
          "indexed": false,
          "internalType": "uint256",
          "name": "voteId",
          "type": "uint256"
        },
        {
          "indexed": false,
          "internalType": "uint256",
          "name": "answer",
          "type": "uint256"
        }
      ],
      "name": "NewVote",
      "type": "event"
    },
    {
      "anonymous": false,
      "inputs": [
        {
          "indexed": true,
          "internalType": "address",
          "name": "previousOwner",
          "type": "address"
        },
        {
          "indexed": true,
          "internalType": "address",
          "name": "newOwner",
          "type": "address"
        }
      ],
      "name": "OwnershipTransferred",
      "type": "event"
    },
    {
      "anonymous": false,
      "inputs": [
        {
          "indexed": false,
          "internalType": "string",
          "name": "ipfs",
          "type": "string"
        }
      ],
      "name": "SetIPFS",
      "type": "event"
    },
    {
      "anonymous": false,
      "inputs": [
        {
          "indexed": false,
          "internalType": "uint256",
          "name": "voteId",
          "type": "uint256"
        },
        {
          "indexed": false,
          "internalType": "uint256",
          "name": "endTime",
          "type": "uint256"
        },
        {
          "indexed": false,
          "internalType": "string",
          "name": "data",
          "type": "string"
        }
      ],
      "name": "StartVote",
      "type": "event"
    },
    {
      "anonymous": false,
      "inputs": [
        {
          "indexed": true,
          "internalType": "address",
          "name": "from",
          "type": "address"
        },
        {
          "indexed": true,
          "internalType": "address",
          "name": "to",
          "type": "address"
        },
        {
          "indexed": true,
          "internalType": "uint256",
          "name": "tokenId",
          "type": "uint256"
        }
      ],
      "name": "Transfer",
      "type": "event"
    },
    {
      "inputs": [
        {
          "internalType": "string",
          "name": "_ipfs",
          "type": "string"
        }
      ],
      "name": "addContent",
      "outputs": [],
      "stateMutability": "nonpayable",
      "type": "function"
    },
    {
      "inputs": [
        {
          "internalType": "address",
          "name": "to",
          "type": "address"
        },
        {
          "internalType": "uint256",
          "name": "tokenId",
          "type": "uint256"
        }
      ],
      "name": "approve",
      "outputs": [],
      "stateMutability": "nonpayable",
      "type": "function"
    },
    {
      "inputs": [
        {
          "internalType": "address",
          "name": "owner",
          "type": "address"
        }
      ],
      "name": "balanceOf",
      "outputs": [
        {
          "internalType": "uint256",
          "name": "",
          "type": "uint256"
        }
      ],
      "stateMutability": "view",
      "type": "function"
    },
    {
      "inputs": [],
      "name": "coin",
      "outputs": [
        {
          "internalType": "contract IERC20",
          "name": "",
          "type": "address"
        }
      ],
      "stateMutability": "view",
      "type": "function"
    },
    {
      "inputs": [],
      "name": "contractURI",
      "outputs": [
        {
          "internalType": "string",
          "name": "",
          "type": "string"
        }
      ],
      "stateMutability": "view",
      "type": "function"
    },
    {
      "inputs": [
        {
          "internalType": "uint256",
          "name": "amount",
          "type": "uint256"
        },
        {
          "internalType": "string",
          "name": "message",
          "type": "string"
        }
      ],
      "name": "donate",
      "outputs": [],
      "stateMutability": "nonpayable",
      "type": "function"
    },
    {
      "inputs": [],
      "name": "factory",
      "outputs": [
        {
          "internalType": "contract IFactory",
          "name": "",
          "type": "address"
        }
      ],
      "stateMutability": "view",
      "type": "function"
    },
    {
      "inputs": [
        {
          "internalType": "uint256",
          "name": "tokenId",
          "type": "uint256"
        }
      ],
      "name": "getApproved",
      "outputs": [
        {
          "internalType": "address",
          "name": "",
          "type": "address"
        }
      ],
      "stateMutability": "view",
      "type": "function"
    },
    {
      "inputs": [],
      "name": "ipfs",
      "outputs": [
        {
          "internalType": "string",
          "name": "",
          "type": "string"
        }
      ],
      "stateMutability": "view",
      "type": "function"
    },
    {
      "inputs": [
        {
          "internalType": "address",
          "name": "owner",
          "type": "address"
        },
        {
          "internalType": "address",
          "name": "operator",
          "type": "address"
        }
      ],
      "name": "isApprovedForAll",
      "outputs": [
        {
          "internalType": "bool",
          "name": "",
          "type": "bool"
        }
      ],
      "stateMutability": "view",
      "type": "function"
    },
    {
      "inputs": [],
      "name": "name",
      "outputs": [
        {
          "internalType": "string",
          "name": "",
          "type": "string"
        }
      ],
      "stateMutability": "view",
      "type": "function"
    },
    {
      "inputs": [
        {
          "internalType": "uint256",
          "name": "voteId",
          "type": "uint256"
        },
        {
          "internalType": "uint256",
          "name": "answer",
          "type": "uint256"
        }
      ],
      "name": "newVote",
      "outputs": [],
      "stateMutability": "nonpayable",
      "type": "function"
    },
    {
      "inputs": [],
      "name": "owner",
      "outputs": [
        {
          "internalType": "address",
          "name": "",
          "type": "address"
        }
      ],
      "stateMutability": "view",
      "type": "function"
    },
    {
      "inputs": [
        {
          "internalType": "uint256",
          "name": "tokenId",
          "type": "uint256"
        }
      ],
      "name": "ownerOf",
      "outputs": [
        {
          "internalType": "address",
          "name": "",
          "type": "address"
        }
      ],
      "stateMutability": "view",
      "type": "function"
    },
    {
      "inputs": [],
      "name": "renounceOwnership",
      "outputs": [],
      "stateMutability": "nonpayable",
      "type": "function"
    },
    {
      "inputs": [
        {
          "internalType": "address",
          "name": "from",
          "type": "address"
        },
        {
          "internalType": "address",
          "name": "to",
          "type": "address"
        },
        {
          "internalType": "uint256",
          "name": "tokenId",
          "type": "uint256"
        }
      ],
      "name": "safeTransferFrom",
      "outputs": [],
      "stateMutability": "nonpayable",
      "type": "function"
    },
    {
      "inputs": [
        {
          "internalType": "address",
          "name": "from",
          "type": "address"
        },
        {
          "internalType": "address",
          "name": "to",
          "type": "address"
        },
        {
          "internalType": "uint256",
          "name": "tokenId",
          "type": "uint256"
        },
        {
          "internalType": "bytes",
          "name": "_data",
          "type": "bytes"
        }
      ],
      "name": "safeTransferFrom",
      "outputs": [],
      "stateMutability": "nonpayable",
      "type": "function"
    },
    {
      "inputs": [
        {
          "internalType": "address",
          "name": "operator",
          "type": "address"
        },
        {
          "internalType": "bool",
          "name": "approved",
          "type": "bool"
        }
      ],
      "name": "setApprovalForAll",
      "outputs": [],
      "stateMutability": "nonpayable",
      "type": "function"
    },
    {
      "inputs": [
        {
          "internalType": "string",
          "name": "_ipfs",
          "type": "string"
        }
      ],
      "name": "setIPFS",
      "outputs": [],
      "stateMutability": "nonpayable",
      "type": "function"
    },
    {
      "inputs": [
        {
          "internalType": "uint256",
          "name": "time",
          "type": "uint256"
        },
        {
          "internalType": "string",
          "name": "data",
          "type": "string"
        }
      ],
      "name": "startVote",
      "outputs": [],
      "stateMutability": "nonpayable",
      "type": "function"
    },
    {
      "inputs": [
        {
          "internalType": "bytes4",
          "name": "interfaceId",
          "type": "bytes4"
        }
      ],
      "name": "supportsInterface",
      "outputs": [
        {
          "internalType": "bool",
          "name": "",
          "type": "bool"
        }
      ],
      "stateMutability": "view",
      "type": "function"
    },
    {
      "inputs": [],
      "name": "symbol",
      "outputs": [
        {
          "internalType": "string",
          "name": "",
          "type": "string"
        }
      ],
      "stateMutability": "view",
      "type": "function"
    },
    {
      "inputs": [],
      "name": "title",
      "outputs": [
        {
          "internalType": "string",
          "name": "",
          "type": "string"
        }
      ],
      "stateMutability": "view",
      "type": "function"
    },
    {
      "inputs": [
        {
          "internalType": "uint256",
          "name": "tokenId",
          "type": "uint256"
        }
      ],
      "name": "tokenURI",
      "outputs": [
        {
          "internalType": "string",
          "name": "",
          "type": "string"
        }
      ],
      "stateMutability": "view",
      "type": "function"
    },
    {
      "inputs": [
        {
          "internalType": "address",
          "name": "from",
          "type": "address"
        },
        {
          "internalType": "address",
          "name": "to",
          "type": "address"
        },
        {
          "internalType": "uint256",
          "name": "tokenId",
          "type": "uint256"
        }
      ],
      "name": "transferFrom",
      "outputs": [],
      "stateMutability": "nonpayable",
      "type": "function"
    },
    {
      "inputs": [
        {
          "internalType": "address",
          "name": "newOwner",
          "type": "address"
        }
      ],
      "name": "transferOwnership",
      "outputs": [],
      "stateMutability": "nonpayable",
      "type": "function"
    }
  ],
  "bytecode": "0x60806040523480156200001157600080fd5b5060405162001efd38038062001efd8339810160408190526200003491620001f5565b8151829081906200004d9060009060208401906200011c565b508051620000639060019060208401906200011c565b505050620000806200007a620000c660201b60201c565b620000ca565b81516200009590600a9060208501906200011c565b50600b80546001600160a01b039092166001600160a01b0319928316179055600d8054909116331790555062000322565b3390565b600680546001600160a01b038381166001600160a01b0319831681179093556040519116919082907f8be0079c531659141344cd1fd0a4f28419497f9722a3daafe3b4186f6b6457e090600090a35050565b8280546200012a90620002e6565b90600052602060002090601f0160209004810192826200014e576000855562000199565b82601f106200016957805160ff191683800117855562000199565b8280016001018555821562000199579182015b82811115620001995782518255916020019190600101906200017c565b50620001a7929150620001ab565b5090565b5b80821115620001a75760008155600101620001ac565b634e487b7160e01b600052604160045260246000fd5b80516001600160a01b0381168114620001f057600080fd5b919050565b600080604083850312156200020957600080fd5b82516001600160401b03808211156200022157600080fd5b818501915085601f8301126200023657600080fd5b8151818111156200024b576200024b620001c2565b604051601f8201601f19908116603f01168101908382118183101715620002765762000276620001c2565b816040528281526020935088848487010111156200029357600080fd5b600091505b82821015620002b7578482018401518183018501529083019062000298565b82821115620002c95760008484830101525b9550620002db915050858201620001d8565b925050509250929050565b600181811c90821680620002fb57607f821691505b6020821081036200031c57634e487b7160e01b600052602260045260246000fd5b50919050565b611bcb80620003326000396000f3fe608060405234801561001057600080fd5b506004361061018e5760003560e01c80638da5cb5b116100de578063cc5519f911610097578063d7959cf911610071578063d7959cf914610351578063e8a3d48514610359578063e985e9c514610361578063f2fde38b1461039d57600080fd5b8063cc5519f914610318578063d19ac77a1461032b578063d53b92931461033e57600080fd5b80638da5cb5b146102b357806395d89b41146102c4578063a22cb465146102cc578063b88d4fde146102df578063c45a0155146102f2578063c87b56dd1461030557600080fd5b806342842e0e1161014b57806370a082311161012557806370a0823114610264578063715018a61461028557806382f8fc5d1461028d5780638d59d1f1146102a057600080fd5b806342842e0e146102365780634a79d50c146102495780636352211e1461025157600080fd5b806301ffc9a71461019357806306fdde03146101bb578063081812fc146101d0578063095ea7b3146101fb57806311df99951461021057806323b872dd14610223575b600080fd5b6101a66101a1366004611481565b6103b0565b60405190151581526020015b60405180910390f35b6101c3610402565b6040516101b291906114fd565b6101e36101de366004611510565b610494565b6040516001600160a01b0390911681526020016101b2565b61020e610209366004611545565b61052e565b005b600b546101e3906001600160a01b031681565b61020e61023136600461156f565b610643565b61020e61024436600461156f565b610674565b6101c361068f565b6101e361025f366004611510565b61071d565b6102776102723660046115ab565b610794565b6040519081526020016101b2565b61020e61081b565b61020e61029b366004611693565b610851565b61020e6102ae3660046116c8565b6108b5565b6006546001600160a01b03166101e3565b6101c3610a02565b61020e6102da36600461171d565b610a11565b61020e6102ed366004611754565b610a20565b600d546101e3906001600160a01b031681565b6101c3610313366004611510565b610a58565b61020e6103263660046116c8565b610ad1565b61020e610339366004611693565b610b87565b61020e61034c3660046117d0565b610be0565b6101c3610c63565b6101c3610c70565b6101a661036f3660046117f2565b6001600160a01b03918216600090815260056020908152604080832093909416825291909152205460ff1690565b61020e6103ab3660046115ab565b610cec565b60006001600160e01b031982166380ac58cd60e01b14806103e157506001600160e01b03198216635b5e139f60e01b145b806103fc57506301ffc9a760e01b6001600160e01b03198316145b92915050565b60606000805461041190611825565b80601f016020809104026020016040519081016040528092919081815260200182805461043d90611825565b801561048a5780601f1061045f5761010080835404028352916020019161048a565b820191906000526020600020905b81548152906001019060200180831161046d57829003601f168201915b5050505050905090565b6000818152600260205260408120546001600160a01b03166105125760405162461bcd60e51b815260206004820152602c60248201527f4552433732313a20617070726f76656420717565727920666f72206e6f6e657860448201526b34b9ba32b73a103a37b5b2b760a11b60648201526084015b60405180910390fd5b506000908152600460205260409020546001600160a01b031690565b60006105398261071d565b9050806001600160a01b0316836001600160a01b0316036105a65760405162461bcd60e51b815260206004820152602160248201527f4552433732313a20617070726f76616c20746f2063757272656e74206f776e656044820152603960f91b6064820152608401610509565b336001600160a01b03821614806105c257506105c2813361036f565b6106345760405162461bcd60e51b815260206004820152603860248201527f4552433732313a20617070726f76652063616c6c6572206973206e6f74206f7760448201527f6e6572206e6f7220617070726f76656420666f7220616c6c00000000000000006064820152608401610509565b61063e8383610d87565b505050565b61064d3382610df5565b6106695760405162461bcd60e51b81526004016105099061185f565b61063e838383610eec565b61063e83838360405180602001604052806000815250610a20565b600a805461069c90611825565b80601f01602080910402602001604051908101604052809291908181526020018280546106c890611825565b80156107155780601f106106ea57610100808354040283529160200191610715565b820191906000526020600020905b8154815290600101906020018083116106f857829003601f168201915b505050505081565b6000818152600260205260408120546001600160a01b0316806103fc5760405162461bcd60e51b815260206004820152602960248201527f4552433732313a206f776e657220717565727920666f72206e6f6e657869737460448201526832b73a103a37b5b2b760b91b6064820152608401610509565b60006001600160a01b0382166107ff5760405162461bcd60e51b815260206004820152602a60248201527f4552433732313a2062616c616e636520717565727920666f7220746865207a65604482015269726f206164647265737360b01b6064820152608401610509565b506001600160a01b031660009081526003602052604090205490565b6006546001600160a01b031633146108455760405162461bcd60e51b8152600401610509906118b0565b61084f6000611088565b565b6006546001600160a01b0316331461087b5760405162461bcd60e51b8152600401610509906118b0565b7f6aa6a2f540f772686aecbd6928e19156e3ac4772a42c85728503142247a321eb816040516108aa91906114fd565b60405180910390a150565b600082116108fc5760405162461bcd60e51b81526020600482015260146024820152730446f6e6174696f6e20616d6f756e7420697320360641b6044820152606401610509565b600b546001600160a01b03166323b872dd336109206006546001600160a01b031690565b6040516001600160e01b031960e085901b1681526001600160a01b03928316600482015291166024820152604481018590526064016020604051808303816000875af1158015610974573d6000803e3d6000fd5b505050506040513d601f19601f8201168201806040525081019061099891906118e5565b506109a7600780546001019055565b6109b9336109b460075490565b6110da565b7f9efd1c20b721b108b8066d3f3ae9227dc1fe9c63f8d9f1340897983a904ade356109e360075490565b8383336040516109f69493929190611902565b60405180910390a15050565b60606001805461041190611825565b610a1c3383836110f4565b5050565b610a2a3383610df5565b610a465760405162461bcd60e51b81526004016105099061185f565b610a52848484846111c2565b50505050565b600d54604051630ebf131160e01b81526060916001600160a01b031690630ebf131190610a8c90600a9086906004016119d9565b600060405180830381865afa158015610aa9573d6000803e3d6000fd5b505050506040513d6000823e601f3d908101601f191682016040526103fc91908101906119fb565b6006546001600160a01b03163314610afb5760405162461bcd60e51b8152600401610509906118b0565b610b09600880546001019055565b610b138242611a88565b60096000610b2060085490565b81526020810191909152604001600020557f9ab89bae6d8cd7aa1a93b96e5c42476e6b826d7cd7f68ed94e889556f91b2b3d610b5b60085490565b60096000610b6860085490565b815260200190815260200160002054836040516109f693929190611aa0565b6006546001600160a01b03163314610bb15760405162461bcd60e51b8152600401610509906118b0565b7faf8ddd065c6a5fccdffbc9192f91e03ec528681278d78523226450646da138ed816040516108aa91906114fd565b600082815260096020526040902054421115610c2d5760405162461bcd60e51b815260206004820152600c60248201526b159bdd1a5b99c8195b99195960a21b6044820152606401610509565b60408051838152602081018390527f210e6029641352a94c63d645e8bfeebcda1cc84abf4e95efb3dfdc58fc891f4291016109f6565b600c805461069c90611825565b600d54604051631f5c7dc360e21b81526060916001600160a01b031690637d71f70c90610ca290600a90600401611abf565b600060405180830381865afa158015610cbf573d6000803e3d6000fd5b505050506040513d6000823e601f3d908101601f19168201604052610ce791908101906119fb565b905090565b6006546001600160a01b03163314610d165760405162461bcd60e51b8152600401610509906118b0565b6001600160a01b038116610d7b5760405162461bcd60e51b815260206004820152602660248201527f4f776e61626c653a206e6577206f776e657220697320746865207a65726f206160448201526564647265737360d01b6064820152608401610509565b610d8481611088565b50565b600081815260046020526040902080546001600160a01b0319166001600160a01b0384169081179091558190610dbc8261071d565b6001600160a01b03167f8c5be1e5ebec7d5bd14f71427d1e84f3dd0314c0f7b2291e5b200ac8c7c3b92560405160405180910390a45050565b6000818152600260205260408120546001600160a01b0316610e6e5760405162461bcd60e51b815260206004820152602c60248201527f4552433732313a206f70657261746f7220717565727920666f72206e6f6e657860448201526b34b9ba32b73a103a37b5b2b760a11b6064820152608401610509565b6000610e798361071d565b9050806001600160a01b0316846001600160a01b03161480610ec057506001600160a01b0380821660009081526005602090815260408083209388168352929052205460ff165b80610ee45750836001600160a01b0316610ed984610494565b6001600160a01b0316145b949350505050565b826001600160a01b0316610eff8261071d565b6001600160a01b031614610f635760405162461bcd60e51b815260206004820152602560248201527f4552433732313a207472616e736665722066726f6d20696e636f72726563742060448201526437bbb732b960d91b6064820152608401610509565b6001600160a01b038216610fc55760405162461bcd60e51b8152602060048201526024808201527f4552433732313a207472616e7366657220746f20746865207a65726f206164646044820152637265737360e01b6064820152608401610509565b610fd0600082610d87565b6001600160a01b0383166000908152600360205260408120805460019290610ff9908490611ad2565b90915550506001600160a01b0382166000908152600360205260408120805460019290611027908490611a88565b909155505060008181526002602052604080822080546001600160a01b0319166001600160a01b0386811691821790925591518493918716917fddf252ad1be2c89b69c2b068fc378daa952ba7f163c4a11628f55a4df523b3ef91a4505050565b600680546001600160a01b038381166001600160a01b0319831681179093556040519116919082907f8be0079c531659141344cd1fd0a4f28419497f9722a3daafe3b4186f6b6457e090600090a35050565b610a1c8282604051806020016040528060008152506111f5565b816001600160a01b0316836001600160a01b0316036111555760405162461bcd60e51b815260206004820152601960248201527f4552433732313a20617070726f766520746f2063616c6c6572000000000000006044820152606401610509565b6001600160a01b03838116600081815260056020908152604080832094871680845294825291829020805460ff191686151590811790915591519182527f17307eab39ab6107e8899845ad3d59bd9653f200f220920489ca2b5937696c31910160405180910390a3505050565b6111cd848484610eec565b6111d984848484611228565b610a525760405162461bcd60e51b815260040161050990611ae9565b6111ff8383611329565b61120c6000848484611228565b61063e5760405162461bcd60e51b815260040161050990611ae9565b60006001600160a01b0384163b1561131e57604051630a85bd0160e11b81526001600160a01b0385169063150b7a029061126c903390899088908890600401611b3b565b6020604051808303816000875af19250505080156112a7575060408051601f3d908101601f191682019092526112a491810190611b78565b60015b611304573d8080156112d5576040519150601f19603f3d011682016040523d82523d6000602084013e6112da565b606091505b5080516000036112fc5760405162461bcd60e51b815260040161050990611ae9565b805181602001fd5b6001600160e01b031916630a85bd0160e11b149050610ee4565b506001949350505050565b6001600160a01b03821661137f5760405162461bcd60e51b815260206004820181905260248201527f4552433732313a206d696e7420746f20746865207a65726f20616464726573736044820152606401610509565b6000818152600260205260409020546001600160a01b0316156113e45760405162461bcd60e51b815260206004820152601c60248201527f4552433732313a20746f6b656e20616c7265616479206d696e746564000000006044820152606401610509565b6001600160a01b038216600090815260036020526040812080546001929061140d908490611a88565b909155505060008181526002602052604080822080546001600160a01b0319166001600160a01b03861690811790915590518392907fddf252ad1be2c89b69c2b068fc378daa952ba7f163c4a11628f55a4df523b3ef908290a45050565b6001600160e01b031981168114610d8457600080fd5b60006020828403121561149357600080fd5b813561149e8161146b565b9392505050565b60005b838110156114c05781810151838201526020016114a8565b83811115610a525750506000910152565b600081518084526114e98160208601602086016114a5565b601f01601f19169290920160200192915050565b60208152600061149e60208301846114d1565b60006020828403121561152257600080fd5b5035919050565b80356001600160a01b038116811461154057600080fd5b919050565b6000806040838503121561155857600080fd5b61156183611529565b946020939093013593505050565b60008060006060848603121561158457600080fd5b61158d84611529565b925061159b60208501611529565b9150604084013590509250925092565b6000602082840312156115bd57600080fd5b61149e82611529565b634e487b7160e01b600052604160045260246000fd5b604051601f8201601f1916810167ffffffffffffffff81118282101715611605576116056115c6565b604052919050565b600067ffffffffffffffff821115611627576116276115c6565b50601f01601f191660200190565b60006116486116438461160d565b6115dc565b905082815283838301111561165c57600080fd5b828260208301376000602084830101529392505050565b600082601f83011261168457600080fd5b61149e83833560208501611635565b6000602082840312156116a557600080fd5b813567ffffffffffffffff8111156116bc57600080fd5b610ee484828501611673565b600080604083850312156116db57600080fd5b82359150602083013567ffffffffffffffff8111156116f957600080fd5b61170585828601611673565b9150509250929050565b8015158114610d8457600080fd5b6000806040838503121561173057600080fd5b61173983611529565b915060208301356117498161170f565b809150509250929050565b6000806000806080858703121561176a57600080fd5b61177385611529565b935061178160208601611529565b925060408501359150606085013567ffffffffffffffff8111156117a457600080fd5b8501601f810187136117b557600080fd5b6117c487823560208401611635565b91505092959194509250565b600080604083850312156117e357600080fd5b50508035926020909101359150565b6000806040838503121561180557600080fd5b61180e83611529565b915061181c60208401611529565b90509250929050565b600181811c9082168061183957607f821691505b60208210810361185957634e487b7160e01b600052602260045260246000fd5b50919050565b60208082526031908201527f4552433732313a207472616e736665722063616c6c6572206973206e6f74206f6040820152701ddb995c881b9bdc88185c1c1c9bdd9959607a1b606082015260800190565b6020808252818101527f4f776e61626c653a2063616c6c6572206973206e6f7420746865206f776e6572604082015260600190565b6000602082840312156118f757600080fd5b815161149e8161170f565b84815283602082015260806040820152600061192160808301856114d1565b905060018060a01b038316606083015295945050505050565b8054600090600181811c908083168061195457607f831692505b6020808410820361197557634e487b7160e01b600052602260045260246000fd5b8388526020880182801561199057600181146119a1576119cc565b60ff198716825282820197506119cc565b60008981526020902060005b878110156119c6578154848201529086019084016119ad565b83019850505b5050505050505092915050565b6040815260006119ec604083018561193a565b90508260208301529392505050565b600060208284031215611a0d57600080fd5b815167ffffffffffffffff811115611a2457600080fd5b8201601f81018413611a3557600080fd5b8051611a436116438261160d565b818152856020838501011115611a5857600080fd5b611a698260208301602086016114a5565b95945050505050565b634e487b7160e01b600052601160045260246000fd5b60008219821115611a9b57611a9b611a72565b500190565b838152826020820152606060408201526000611a6960608301846114d1565b60208152600061149e602083018461193a565b600082821015611ae457611ae4611a72565b500390565b60208082526032908201527f4552433732313a207472616e7366657220746f206e6f6e20455243373231526560408201527131b2b4bb32b91034b6b83632b6b2b73a32b960711b606082015260800190565b6001600160a01b0385811682528416602082015260408101839052608060608201819052600090611b6e908301846114d1565b9695505050505050565b600060208284031215611b8a57600080fd5b815161149e8161146b56fea26469706673582212204a72e50be96d82a6aba2e56aeab026c68d21aaaa59e264fb13643ab0ff9954c664736f6c634300080d0033",
  "linkReferences": {},
  "deployedLinkReferences": {}
}