{
  "_format": "hh-sol-artifact-1",
  "contractName": "Collection",
  "sourceName": "contracts/Collection.sol",
  "abi": [
    {
      "inputs": [
        {
          "internalType": "string",
          "name": "_title",
          "type": "string"
        },
        {
          "internalType": "address",
          "name": "_coin",
          "type": "address"
        },
        {
          "internalType": "string",
          "name": "_ipfs",
          "type": "string"
        }
      ],
      "stateMutability": "nonpayable",
      "type": "constructor"
    },
    {
      "anonymous": false,
      "inputs": [
        {
          "indexed": true,
          "internalType": "address",
          "name": "owner",
          "type": "address"
        },
        {
          "indexed": true,
          "internalType": "address",
          "name": "approved",
          "type": "address"
        },
        {
          "indexed": true,
          "internalType": "uint256",
          "name": "tokenId",
          "type": "uint256"
        }
      ],
      "name": "Approval",
      "type": "event"
    },
    {
      "anonymous": false,
      "inputs": [
        {
          "indexed": true,
          "internalType": "address",
          "name": "owner",
          "type": "address"
        },
        {
          "indexed": true,
          "internalType": "address",
          "name": "operator",
          "type": "address"
        },
        {
          "indexed": false,
          "internalType": "bool",
          "name": "approved",
          "type": "bool"
        }
      ],
      "name": "ApprovalForAll",
      "type": "event"
    },
    {
      "anonymous": false,
      "inputs": [
        {
          "indexed": false,
          "internalType": "uint256",
          "name": "id",
          "type": "uint256"
        },
        {
          "indexed": false,
          "internalType": "address",
          "name": "owner",
          "type": "address"
        },
        {
          "indexed": false,
          "internalType": "uint256",
          "name": "amount",
          "type": "uint256"
        },
        {
          "indexed": false,
          "internalType": "string",
          "name": "message",
          "type": "string"
        }
      ],
      "name": "NewDonation",
      "type": "event"
    },
    {
      "anonymous": false,
      "inputs": [
        {
          "indexed": true,
          "internalType": "address",
          "name": "previousOwner",
          "type": "address"
        },
        {
          "indexed": true,
          "internalType": "address",
          "name": "newOwner",
          "type": "address"
        }
      ],
      "name": "OwnershipTransferred",
      "type": "event"
    },
    {
      "anonymous": false,
      "inputs": [
        {
          "indexed": false,
          "internalType": "string",
          "name": "ipfs",
          "type": "string"
        }
      ],
      "name": "SetIPFS",
      "type": "event"
    },
    {
      "anonymous": false,
      "inputs": [
        {
          "indexed": true,
          "internalType": "address",
          "name": "from",
          "type": "address"
        },
        {
          "indexed": true,
          "internalType": "address",
          "name": "to",
          "type": "address"
        },
        {
          "indexed": true,
          "internalType": "uint256",
          "name": "tokenId",
          "type": "uint256"
        }
      ],
      "name": "Transfer",
      "type": "event"
    },
    {
      "inputs": [
        {
          "internalType": "address",
          "name": "to",
          "type": "address"
        },
        {
          "internalType": "uint256",
          "name": "tokenId",
          "type": "uint256"
        }
      ],
      "name": "approve",
      "outputs": [],
      "stateMutability": "nonpayable",
      "type": "function"
    },
    {
      "inputs": [
        {
          "internalType": "address",
          "name": "owner",
          "type": "address"
        }
      ],
      "name": "balanceOf",
      "outputs": [
        {
          "internalType": "uint256",
          "name": "",
          "type": "uint256"
        }
      ],
      "stateMutability": "view",
      "type": "function"
    },
    {
      "inputs": [],
      "name": "coin",
      "outputs": [
        {
          "internalType": "contract IERC20",
          "name": "",
          "type": "address"
        }
      ],
      "stateMutability": "view",
      "type": "function"
    },
    {
      "inputs": [],
      "name": "contractURI",
      "outputs": [
        {
          "internalType": "string",
          "name": "",
          "type": "string"
        }
      ],
      "stateMutability": "view",
      "type": "function"
    },
    {
      "inputs": [
        {
          "internalType": "uint256",
          "name": "amount",
          "type": "uint256"
        },
        {
          "internalType": "string",
          "name": "message",
          "type": "string"
        }
      ],
      "name": "donate",
      "outputs": [],
      "stateMutability": "nonpayable",
      "type": "function"
    },
    {
      "inputs": [
        {
          "internalType": "uint256",
          "name": "tokenId",
          "type": "uint256"
        }
      ],
      "name": "getApproved",
      "outputs": [
        {
          "internalType": "address",
          "name": "",
          "type": "address"
        }
      ],
      "stateMutability": "view",
      "type": "function"
    },
    {
      "inputs": [],
      "name": "ipfs",
      "outputs": [
        {
          "internalType": "string",
          "name": "",
          "type": "string"
        }
      ],
      "stateMutability": "view",
      "type": "function"
    },
    {
      "inputs": [
        {
          "internalType": "address",
          "name": "owner",
          "type": "address"
        },
        {
          "internalType": "address",
          "name": "operator",
          "type": "address"
        }
      ],
      "name": "isApprovedForAll",
      "outputs": [
        {
          "internalType": "bool",
          "name": "",
          "type": "bool"
        }
      ],
      "stateMutability": "view",
      "type": "function"
    },
    {
      "inputs": [],
      "name": "name",
      "outputs": [
        {
          "internalType": "string",
          "name": "",
          "type": "string"
        }
      ],
      "stateMutability": "view",
      "type": "function"
    },
    {
      "inputs": [],
      "name": "owner",
      "outputs": [
        {
          "internalType": "address",
          "name": "",
          "type": "address"
        }
      ],
      "stateMutability": "view",
      "type": "function"
    },
    {
      "inputs": [
        {
          "internalType": "uint256",
          "name": "tokenId",
          "type": "uint256"
        }
      ],
      "name": "ownerOf",
      "outputs": [
        {
          "internalType": "address",
          "name": "",
          "type": "address"
        }
      ],
      "stateMutability": "view",
      "type": "function"
    },
    {
      "inputs": [],
      "name": "renounceOwnership",
      "outputs": [],
      "stateMutability": "nonpayable",
      "type": "function"
    },
    {
      "inputs": [
        {
          "internalType": "address",
          "name": "from",
          "type": "address"
        },
        {
          "internalType": "address",
          "name": "to",
          "type": "address"
        },
        {
          "internalType": "uint256",
          "name": "tokenId",
          "type": "uint256"
        }
      ],
      "name": "safeTransferFrom",
      "outputs": [],
      "stateMutability": "nonpayable",
      "type": "function"
    },
    {
      "inputs": [
        {
          "internalType": "address",
          "name": "from",
          "type": "address"
        },
        {
          "internalType": "address",
          "name": "to",
          "type": "address"
        },
        {
          "internalType": "uint256",
          "name": "tokenId",
          "type": "uint256"
        },
        {
          "internalType": "bytes",
          "name": "_data",
          "type": "bytes"
        }
      ],
      "name": "safeTransferFrom",
      "outputs": [],
      "stateMutability": "nonpayable",
      "type": "function"
    },
    {
      "inputs": [
        {
          "internalType": "address",
          "name": "operator",
          "type": "address"
        },
        {
          "internalType": "bool",
          "name": "approved",
          "type": "bool"
        }
      ],
      "name": "setApprovalForAll",
      "outputs": [],
      "stateMutability": "nonpayable",
      "type": "function"
    },
    {
      "inputs": [
        {
          "internalType": "string",
          "name": "_ipfs",
          "type": "string"
        }
      ],
      "name": "setIPFS",
      "outputs": [],
      "stateMutability": "nonpayable",
      "type": "function"
    },
    {
      "inputs": [
        {
          "internalType": "bytes4",
          "name": "interfaceId",
          "type": "bytes4"
        }
      ],
      "name": "supportsInterface",
      "outputs": [
        {
          "internalType": "bool",
          "name": "",
          "type": "bool"
        }
      ],
      "stateMutability": "view",
      "type": "function"
    },
    {
      "inputs": [],
      "name": "symbol",
      "outputs": [
        {
          "internalType": "string",
          "name": "",
          "type": "string"
        }
      ],
      "stateMutability": "view",
      "type": "function"
    },
    {
      "inputs": [],
      "name": "title",
      "outputs": [
        {
          "internalType": "string",
          "name": "",
          "type": "string"
        }
      ],
      "stateMutability": "view",
      "type": "function"
    },
    {
      "inputs": [
        {
          "internalType": "uint256",
          "name": "tokenId",
          "type": "uint256"
        }
      ],
      "name": "tokenURI",
      "outputs": [
        {
          "internalType": "string",
          "name": "",
          "type": "string"
        }
      ],
      "stateMutability": "view",
      "type": "function"
    },
    {
      "inputs": [
        {
          "internalType": "address",
          "name": "from",
          "type": "address"
        },
        {
          "internalType": "address",
          "name": "to",
          "type": "address"
        },
        {
          "internalType": "uint256",
          "name": "tokenId",
          "type": "uint256"
        }
      ],
      "name": "transferFrom",
      "outputs": [],
      "stateMutability": "nonpayable",
      "type": "function"
    },
    {
      "inputs": [
        {
          "internalType": "address",
          "name": "newOwner",
          "type": "address"
        }
      ],
      "name": "transferOwnership",
      "outputs": [],
      "stateMutability": "nonpayable",
      "type": "function"
    }
  ],
  "bytecode": "0x60806040523480156200001157600080fd5b5060405162001d8538038062001d858339810160408190526200003491620002ac565b8251839081906200004d90600090602084019062000139565b5080516200006390600190602084019062000139565b505050620000806200007a620000e360201b60201c565b620000e7565b82516200009590600890602086019062000139565b50600980546001600160a01b0319166001600160a01b0384161790558051620000c690600a90602084019062000139565b5050600b80546001600160a01b0319163317905550620003739050565b3390565b600680546001600160a01b038381166001600160a01b0319831681179093556040519116919082907f8be0079c531659141344cd1fd0a4f28419497f9722a3daafe3b4186f6b6457e090600090a35050565b828054620001479062000337565b90600052602060002090601f0160209004810192826200016b5760008555620001b6565b82601f106200018657805160ff1916838001178555620001b6565b82800160010185558215620001b6579182015b82811115620001b657825182559160200191906001019062000199565b50620001c4929150620001c8565b5090565b5b80821115620001c45760008155600101620001c9565b634e487b7160e01b600052604160045260246000fd5b600082601f8301126200020757600080fd5b81516001600160401b0380821115620002245762000224620001df565b604051601f8301601f19908116603f011681019082821181831017156200024f576200024f620001df565b816040528381526020925086838588010111156200026c57600080fd5b600091505b8382101562000290578582018301518183018401529082019062000271565b83821115620002a25760008385830101525b9695505050505050565b600080600060608486031215620002c257600080fd5b83516001600160401b0380821115620002da57600080fd5b620002e887838801620001f5565b602087015190955091506001600160a01b03821682146200030857600080fd5b6040860151919350808211156200031e57600080fd5b506200032d86828701620001f5565b9150509250925092565b600181811c908216806200034c57607f821691505b6020821081036200036d57634e487b7160e01b600052602260045260246000fd5b50919050565b611a0280620003836000396000f3fe608060405234801561001057600080fd5b50600436106101425760003560e01c80638d59d1f1116100b8578063c87b56dd1161007c578063c87b56dd14610293578063d19ac77a146102a6578063d7959cf9146102b9578063e8a3d485146102c1578063e985e9c5146102c9578063f2fde38b1461030557600080fd5b80638d59d1f1146102415780638da5cb5b1461025457806395d89b4114610265578063a22cb4651461026d578063b88d4fde1461028057600080fd5b806323b872dd1161010a57806323b872dd146101d757806342842e0e146101ea5780634a79d50c146101fd5780636352211e1461020557806370a0823114610218578063715018a61461023957600080fd5b806301ffc9a71461014757806306fdde031461016f578063081812fc14610184578063095ea7b3146101af57806311df9995146101c4575b600080fd5b61015a610155366004611304565b610318565b60405190151581526020015b60405180910390f35b61017761036a565b6040516101669190611380565b610197610192366004611393565b6103fc565b6040516001600160a01b039091168152602001610166565b6101c26101bd3660046113c8565b610496565b005b600954610197906001600160a01b031681565b6101c26101e53660046113f2565b6105ab565b6101c26101f83660046113f2565b6105dc565b6101776105f7565b610197610213366004611393565b610685565b61022b61022636600461142e565b6106fc565b604051908152602001610166565b6101c2610783565b6101c261024f366004611516565b6107b9565b6006546001600160a01b0316610197565b610177610906565b6101c261027b36600461156b565b610915565b6101c261028e3660046115a2565b610924565b6101776102a1366004611393565b61095c565b6101c26102b436600461161e565b6109d5565b610177610a4d565b610177610a5a565b61015a6102d7366004611653565b6001600160a01b03918216600090815260056020908152604080832093909416825291909152205460ff1690565b6101c261031336600461142e565b610ad6565b60006001600160e01b031982166380ac58cd60e01b148061034957506001600160e01b03198216635b5e139f60e01b145b8061036457506301ffc9a760e01b6001600160e01b03198316145b92915050565b60606000805461037990611686565b80601f01602080910402602001604051908101604052809291908181526020018280546103a590611686565b80156103f25780601f106103c7576101008083540402835291602001916103f2565b820191906000526020600020905b8154815290600101906020018083116103d557829003601f168201915b5050505050905090565b6000818152600260205260408120546001600160a01b031661047a5760405162461bcd60e51b815260206004820152602c60248201527f4552433732313a20617070726f76656420717565727920666f72206e6f6e657860448201526b34b9ba32b73a103a37b5b2b760a11b60648201526084015b60405180910390fd5b506000908152600460205260409020546001600160a01b031690565b60006104a182610685565b9050806001600160a01b0316836001600160a01b03160361050e5760405162461bcd60e51b815260206004820152602160248201527f4552433732313a20617070726f76616c20746f2063757272656e74206f776e656044820152603960f91b6064820152608401610471565b336001600160a01b038216148061052a575061052a81336102d7565b61059c5760405162461bcd60e51b815260206004820152603860248201527f4552433732313a20617070726f76652063616c6c6572206973206e6f74206f7760448201527f6e6572206e6f7220617070726f76656420666f7220616c6c00000000000000006064820152608401610471565b6105a68383610b71565b505050565b6105b53382610bdf565b6105d15760405162461bcd60e51b8152600401610471906116c0565b6105a6838383610cd6565b6105a683838360405180602001604052806000815250610924565b6008805461060490611686565b80601f016020809104026020016040519081016040528092919081815260200182805461063090611686565b801561067d5780601f106106525761010080835404028352916020019161067d565b820191906000526020600020905b81548152906001019060200180831161066057829003601f168201915b505050505081565b6000818152600260205260408120546001600160a01b0316806103645760405162461bcd60e51b815260206004820152602960248201527f4552433732313a206f776e657220717565727920666f72206e6f6e657869737460448201526832b73a103a37b5b2b760b91b6064820152608401610471565b60006001600160a01b0382166107675760405162461bcd60e51b815260206004820152602a60248201527f4552433732313a2062616c616e636520717565727920666f7220746865207a65604482015269726f206164647265737360b01b6064820152608401610471565b506001600160a01b031660009081526003602052604090205490565b6006546001600160a01b031633146107ad5760405162461bcd60e51b815260040161047190611711565b6107b76000610e72565b565b600082116108005760405162461bcd60e51b81526020600482015260146024820152730446f6e6174696f6e20616d6f756e7420697320360641b6044820152606401610471565b6009546001600160a01b03166323b872dd336108246006546001600160a01b031690565b6040516001600160e01b031960e085901b1681526001600160a01b03928316600482015291166024820152604481018590526064016020604051808303816000875af1158015610878573d6000803e3d6000fd5b505050506040513d601f19601f8201168201806040525081019061089c9190611746565b506108ab600780546001019055565b6108bd336108b860075490565b610ec4565b7f9662b680260443ee5fb3c090055afd9612722df53cce4f9f33a880c5494418736108e760075490565b3384846040516108fa9493929190611763565b60405180910390a15050565b60606001805461037990611686565b610920338383610ede565b5050565b61092e3383610bdf565b61094a5760405162461bcd60e51b8152600401610471906116c0565b61095684848484610fac565b50505050565b600b54604051630ebf131160e01b81526060916001600160a01b031690630ebf131190610990906008908690600401611839565b600060405180830381865afa1580156109ad573d6000803e3d6000fd5b505050506040513d6000823e601f3d908101601f19168201604052610364919081019061185b565b6006546001600160a01b031633146109ff5760405162461bcd60e51b815260040161047190611711565b8051610a1290600a906020840190611255565b507faf8ddd065c6a5fccdffbc9192f91e03ec528681278d78523226450646da138ed81604051610a429190611380565b60405180910390a150565b600a805461060490611686565b600b54604051631f5c7dc360e21b81526060916001600160a01b031690637d71f70c90610a8c906008906004016118d2565b600060405180830381865afa158015610aa9573d6000803e3d6000fd5b505050506040513d6000823e601f3d908101601f19168201604052610ad1919081019061185b565b905090565b6006546001600160a01b03163314610b005760405162461bcd60e51b815260040161047190611711565b6001600160a01b038116610b655760405162461bcd60e51b815260206004820152602660248201527f4f776e61626c653a206e6577206f776e657220697320746865207a65726f206160448201526564647265737360d01b6064820152608401610471565b610b6e81610e72565b50565b600081815260046020526040902080546001600160a01b0319166001600160a01b0384169081179091558190610ba682610685565b6001600160a01b03167f8c5be1e5ebec7d5bd14f71427d1e84f3dd0314c0f7b2291e5b200ac8c7c3b92560405160405180910390a45050565b6000818152600260205260408120546001600160a01b0316610c585760405162461bcd60e51b815260206004820152602c60248201527f4552433732313a206f70657261746f7220717565727920666f72206e6f6e657860448201526b34b9ba32b73a103a37b5b2b760a11b6064820152608401610471565b6000610c6383610685565b9050806001600160a01b0316846001600160a01b03161480610caa57506001600160a01b0380821660009081526005602090815260408083209388168352929052205460ff165b80610cce5750836001600160a01b0316610cc3846103fc565b6001600160a01b0316145b949350505050565b826001600160a01b0316610ce982610685565b6001600160a01b031614610d4d5760405162461bcd60e51b815260206004820152602560248201527f4552433732313a207472616e736665722066726f6d20696e636f72726563742060448201526437bbb732b960d91b6064820152608401610471565b6001600160a01b038216610daf5760405162461bcd60e51b8152602060048201526024808201527f4552433732313a207472616e7366657220746f20746865207a65726f206164646044820152637265737360e01b6064820152608401610471565b610dba600082610b71565b6001600160a01b0383166000908152600360205260408120805460019290610de39084906118fb565b90915550506001600160a01b0382166000908152600360205260408120805460019290610e11908490611912565b909155505060008181526002602052604080822080546001600160a01b0319166001600160a01b0386811691821790925591518493918716917fddf252ad1be2c89b69c2b068fc378daa952ba7f163c4a11628f55a4df523b3ef91a4505050565b600680546001600160a01b038381166001600160a01b0319831681179093556040519116919082907f8be0079c531659141344cd1fd0a4f28419497f9722a3daafe3b4186f6b6457e090600090a35050565b610920828260405180602001604052806000815250610fdf565b816001600160a01b0316836001600160a01b031603610f3f5760405162461bcd60e51b815260206004820152601960248201527f4552433732313a20617070726f766520746f2063616c6c6572000000000000006044820152606401610471565b6001600160a01b03838116600081815260056020908152604080832094871680845294825291829020805460ff191686151590811790915591519182527f17307eab39ab6107e8899845ad3d59bd9653f200f220920489ca2b5937696c31910160405180910390a3505050565b610fb7848484610cd6565b610fc384848484611012565b6109565760405162461bcd60e51b81526004016104719061192a565b610fe98383611113565b610ff66000848484611012565b6105a65760405162461bcd60e51b81526004016104719061192a565b60006001600160a01b0384163b1561110857604051630a85bd0160e11b81526001600160a01b0385169063150b7a029061105690339089908890889060040161197c565b6020604051808303816000875af1925050508015611091575060408051601f3d908101601f1916820190925261108e918101906119af565b60015b6110ee573d8080156110bf576040519150601f19603f3d011682016040523d82523d6000602084013e6110c4565b606091505b5080516000036110e65760405162461bcd60e51b81526004016104719061192a565b805181602001fd5b6001600160e01b031916630a85bd0160e11b149050610cce565b506001949350505050565b6001600160a01b0382166111695760405162461bcd60e51b815260206004820181905260248201527f4552433732313a206d696e7420746f20746865207a65726f20616464726573736044820152606401610471565b6000818152600260205260409020546001600160a01b0316156111ce5760405162461bcd60e51b815260206004820152601c60248201527f4552433732313a20746f6b656e20616c7265616479206d696e746564000000006044820152606401610471565b6001600160a01b03821660009081526003602052604081208054600192906111f7908490611912565b909155505060008181526002602052604080822080546001600160a01b0319166001600160a01b03861690811790915590518392907fddf252ad1be2c89b69c2b068fc378daa952ba7f163c4a11628f55a4df523b3ef908290a45050565b82805461126190611686565b90600052602060002090601f01602090048101928261128357600085556112c9565b82601f1061129c57805160ff19168380011785556112c9565b828001600101855582156112c9579182015b828111156112c95782518255916020019190600101906112ae565b506112d59291506112d9565b5090565b5b808211156112d557600081556001016112da565b6001600160e01b031981168114610b6e57600080fd5b60006020828403121561131657600080fd5b8135611321816112ee565b9392505050565b60005b8381101561134357818101518382015260200161132b565b838111156109565750506000910152565b6000815180845261136c816020860160208601611328565b601f01601f19169290920160200192915050565b6020815260006113216020830184611354565b6000602082840312156113a557600080fd5b5035919050565b80356001600160a01b03811681146113c357600080fd5b919050565b600080604083850312156113db57600080fd5b6113e4836113ac565b946020939093013593505050565b60008060006060848603121561140757600080fd5b611410846113ac565b925061141e602085016113ac565b9150604084013590509250925092565b60006020828403121561144057600080fd5b611321826113ac565b634e487b7160e01b600052604160045260246000fd5b604051601f8201601f1916810167ffffffffffffffff8111828210171561148857611488611449565b604052919050565b600067ffffffffffffffff8211156114aa576114aa611449565b50601f01601f191660200190565b60006114cb6114c684611490565b61145f565b90508281528383830111156114df57600080fd5b828260208301376000602084830101529392505050565b600082601f83011261150757600080fd5b611321838335602085016114b8565b6000806040838503121561152957600080fd5b82359150602083013567ffffffffffffffff81111561154757600080fd5b611553858286016114f6565b9150509250929050565b8015158114610b6e57600080fd5b6000806040838503121561157e57600080fd5b611587836113ac565b915060208301356115978161155d565b809150509250929050565b600080600080608085870312156115b857600080fd5b6115c1856113ac565b93506115cf602086016113ac565b925060408501359150606085013567ffffffffffffffff8111156115f257600080fd5b8501601f8101871361160357600080fd5b611612878235602084016114b8565b91505092959194509250565b60006020828403121561163057600080fd5b813567ffffffffffffffff81111561164757600080fd5b610cce848285016114f6565b6000806040838503121561166657600080fd5b61166f836113ac565b915061167d602084016113ac565b90509250929050565b600181811c9082168061169a57607f821691505b6020821081036116ba57634e487b7160e01b600052602260045260246000fd5b50919050565b60208082526031908201527f4552433732313a207472616e736665722063616c6c6572206973206e6f74206f6040820152701ddb995c881b9bdc88185c1c1c9bdd9959607a1b606082015260800190565b6020808252818101527f4f776e61626c653a2063616c6c6572206973206e6f7420746865206f776e6572604082015260600190565b60006020828403121561175857600080fd5b81516113218161155d565b84815260018060a01b03841660208201528260408201526080606082015260006117906080830184611354565b9695505050505050565b8054600090600181811c90808316806117b457607f831692505b602080841082036117d557634e487b7160e01b600052602260045260246000fd5b838852602088018280156117f057600181146118015761182c565b60ff1987168252828201975061182c565b60008981526020902060005b878110156118265781548482015290860190840161180d565b83019850505b5050505050505092915050565b60408152600061184c604083018561179a565b90508260208301529392505050565b60006020828403121561186d57600080fd5b815167ffffffffffffffff81111561188457600080fd5b8201601f8101841361189557600080fd5b80516118a36114c682611490565b8181528560208385010111156118b857600080fd5b6118c9826020830160208601611328565b95945050505050565b602081526000611321602083018461179a565b634e487b7160e01b600052601160045260246000fd5b60008282101561190d5761190d6118e5565b500390565b60008219821115611925576119256118e5565b500190565b60208082526032908201527f4552433732313a207472616e7366657220746f206e6f6e20455243373231526560408201527131b2b4bb32b91034b6b83632b6b2b73a32b960711b606082015260800190565b6001600160a01b038581168252841660208201526040810183905260806060820181905260009061179090830184611354565b6000602082840312156119c157600080fd5b8151611321816112ee56fea2646970667358221220780cdd488244dd3c6af66a3e24f3b4762f2b276e45e0ae1f2d4451fcfd7cf84264736f6c634300080d0033",
  "linkReferences": {},
  "deployedLinkReferences": {}
}