{
  "_format": "hh-sol-artifact-1",
  "contractName": "Donations",
  "sourceName": "contracts/Donations.sol",
  "abi": [
    {
      "anonymous": false,
      "inputs": [
        {
          "indexed": true,
          "internalType": "string",
          "name": "title",
          "type": "string"
        },
        {
          "indexed": true,
          "internalType": "address",
          "name": "owner",
          "type": "address"
        }
      ],
      "name": "NewProject",
      "type": "event"
    },
    {
      "anonymous": false,
      "inputs": [
        {
          "indexed": true,
          "internalType": "address",
          "name": "previousOwner",
          "type": "address"
        },
        {
          "indexed": true,
          "internalType": "address",
          "name": "newOwner",
          "type": "address"
        }
      ],
      "name": "OwnershipTransferred",
      "type": "event"
    },
    {
      "inputs": [],
      "name": "owner",
      "outputs": [
        {
          "internalType": "address",
          "name": "",
          "type": "address"
        }
      ],
      "stateMutability": "view",
      "type": "function"
    },
    {
      "inputs": [],
      "name": "projectCount",
      "outputs": [
        {
          "internalType": "uint256",
          "name": "",
          "type": "uint256"
        }
      ],
      "stateMutability": "view",
      "type": "function"
    },
    {
      "inputs": [],
      "name": "renounceOwnership",
      "outputs": [],
      "stateMutability": "nonpayable",
      "type": "function"
    },
    {
      "inputs": [
        {
          "internalType": "string",
          "name": "title",
          "type": "string"
        },
        {
          "internalType": "address",
          "name": "coin",
          "type": "address"
        },
        {
          "internalType": "uint256",
          "name": "goal",
          "type": "uint256"
        },
        {
          "internalType": "string",
          "name": "styling",
          "type": "string"
        },
        {
          "internalType": "string",
          "name": "image",
          "type": "string"
        }
      ],
      "name": "startProject",
      "outputs": [],
      "stateMutability": "nonpayable",
      "type": "function"
    },
    {
      "inputs": [
        {
          "internalType": "uint256",
          "name": "",
          "type": "uint256"
        }
      ],
      "name": "titles",
      "outputs": [
        {
          "internalType": "string",
          "name": "",
          "type": "string"
        }
      ],
      "stateMutability": "view",
      "type": "function"
    },
    {
      "inputs": [
        {
          "internalType": "string",
          "name": "",
          "type": "string"
        }
      ],
      "name": "tokens",
      "outputs": [
        {
          "internalType": "contract DonationsToken",
          "name": "",
          "type": "address"
        }
      ],
      "stateMutability": "view",
      "type": "function"
    },
    {
      "inputs": [
        {
          "internalType": "address",
          "name": "newOwner",
          "type": "address"
        }
      ],
      "name": "transferOwnership",
      "outputs": [],
      "stateMutability": "nonpayable",
      "type": "function"
    }
  ],
  "bytecode": "0x608060405234801561001057600080fd5b5061002d61002261003260201b60201c565b61003a60201b60201c565b6100fe565b600033905090565b60008060009054906101000a900473ffffffffffffffffffffffffffffffffffffffff169050816000806101000a81548173ffffffffffffffffffffffffffffffffffffffff021916908373ffffffffffffffffffffffffffffffffffffffff1602179055508173ffffffffffffffffffffffffffffffffffffffff168173ffffffffffffffffffffffffffffffffffffffff167f8be0079c531659141344cd1fd0a4f28419497f9722a3daafe3b4186f6b6457e060405160405180910390a35050565b615de78061010d6000396000f3fe60806040523480156200001157600080fd5b5060043610620000885760003560e01c8063715018a61162000063578063715018a6146200011b5780638da5cb5b1462000127578063e23b669d1462000149578063f2fde38b14620001695762000088565b806304c2320b146200008d5780632cda1bf714620000c357806336fbad2614620000f9575b600080fd5b620000ab6004803603810190620000a591906200093c565b62000189565b604051620000ba919062000bd0565b60405180910390f35b620000e16004803603810190620000db919062000a4e565b620001d2565b604051620000f0919062000bed565b60405180910390f35b620001036200027a565b60405162000112919062000ce9565b60405180910390f35b6200012562000280565b005b6200013162000311565b60405162000140919062000bb3565b60405180910390f35b62000167600480360381019062000161919062000981565b6200033a565b005b62000187600480360381019062000181919062000910565b620005e2565b005b6001818051602081018201805184825260208301602085012081835280955050505050506000915054906101000a900473ffffffffffffffffffffffffffffffffffffffff1681565b60036020528060005260406000206000915090508054620001f39062000e37565b80601f0160208091040260200160405190810160405280929190818152602001828054620002219062000e37565b8015620002725780601f10620002465761010080835404028352916020019162000272565b820191906000526020600020905b8154815290600101906020018083116200025457829003601f168201915b505050505081565b60025481565b6200028a620006e6565b73ffffffffffffffffffffffffffffffffffffffff16620002aa62000311565b73ffffffffffffffffffffffffffffffffffffffff161462000303576040517f08c379a0000000000000000000000000000000000000000000000000000000008152600401620002fa9062000ca5565b60405180910390fd5b6200030f6000620006ee565b565b60008060009054906101000a900473ffffffffffffffffffffffffffffffffffffffff16905090565b600073ffffffffffffffffffffffffffffffffffffffff1660018660405162000364919062000b9a565b908152602001604051809103902060009054906101000a900473ffffffffffffffffffffffffffffffffffffffff1673ffffffffffffffffffffffffffffffffffffffff1614620003ec576040517f08c379a0000000000000000000000000000000000000000000000000000000008152600401620003e39062000cc7565b60405180910390fd5b84600360006002548152602001908152602001600020908051906020019062000417929190620007b2565b50600260008154809291906200042d9062000ea3565b91905055508484848484604051620004459062000843565b6200045595949392919062000c11565b604051809103906000f08015801562000472573d6000803e3d6000fd5b5060018660405162000485919062000b9a565b908152602001604051809103902060006101000a81548173ffffffffffffffffffffffffffffffffffffffff021916908373ffffffffffffffffffffffffffffffffffffffff160217905550600185604051620004e3919062000b9a565b908152602001604051809103902060009054906101000a900473ffffffffffffffffffffffffffffffffffffffff1673ffffffffffffffffffffffffffffffffffffffff1663f2fde38b336040518263ffffffff1660e01b81526004016200054c919062000bb3565b600060405180830381600087803b1580156200056757600080fd5b505af11580156200057c573d6000803e3d6000fd5b505050503373ffffffffffffffffffffffffffffffffffffffff1685604051620005a7919062000b9a565b60405180910390207f6350646d22f751d3c98d5104d8a0a80e6803a17975e7925b4ece9e807b0d117b60405160405180910390a35050505050565b620005ec620006e6565b73ffffffffffffffffffffffffffffffffffffffff166200060c62000311565b73ffffffffffffffffffffffffffffffffffffffff161462000665576040517f08c379a00000000000000000000000000000000000000000000000000000000081526004016200065c9062000ca5565b60405180910390fd5b600073ffffffffffffffffffffffffffffffffffffffff168173ffffffffffffffffffffffffffffffffffffffff161415620006d8576040517f08c379a0000000000000000000000000000000000000000000000000000000008152600401620006cf9062000c83565b60405180910390fd5b620006e381620006ee565b50565b600033905090565b60008060009054906101000a900473ffffffffffffffffffffffffffffffffffffffff169050816000806101000a81548173ffffffffffffffffffffffffffffffffffffffff021916908373ffffffffffffffffffffffffffffffffffffffff1602179055508173ffffffffffffffffffffffffffffffffffffffff168173ffffffffffffffffffffffffffffffffffffffff167f8be0079c531659141344cd1fd0a4f28419497f9722a3daafe3b4186f6b6457e060405160405180910390a35050565b828054620007c09062000e37565b90600052602060002090601f016020900481019282620007e4576000855562000830565b82601f10620007ff57805160ff191683800117855562000830565b8280016001018555821562000830579182015b828111156200082f57825182559160200191906001019062000812565b5b5090506200083f919062000851565b5090565b614d4d806200106583390190565b5b808211156200086c57600081600090555060010162000852565b5090565b600062000887620008818462000d2f565b62000d06565b905082815260208101848484011115620008a057600080fd5b620008ad84828562000df2565b509392505050565b600081359050620008c68162001030565b92915050565b600082601f830112620008de57600080fd5b8135620008f084826020860162000870565b91505092915050565b6000813590506200090a816200104a565b92915050565b6000602082840312156200092357600080fd5b60006200093384828501620008b5565b91505092915050565b6000602082840312156200094f57600080fd5b600082013567ffffffffffffffff8111156200096a57600080fd5b6200097884828501620008cc565b91505092915050565b600080600080600060a086880312156200099a57600080fd5b600086013567ffffffffffffffff811115620009b557600080fd5b620009c388828901620008cc565b9550506020620009d688828901620008b5565b9450506040620009e988828901620008f9565b935050606086013567ffffffffffffffff81111562000a0757600080fd5b62000a1588828901620008cc565b925050608086013567ffffffffffffffff81111562000a3357600080fd5b62000a4188828901620008cc565b9150509295509295909350565b60006020828403121562000a6157600080fd5b600062000a7184828501620008f9565b91505092915050565b62000a858162000d8c565b82525050565b62000a968162000dca565b82525050565b600062000aa98262000d65565b62000ab5818562000d70565b935062000ac781856020860162000e01565b62000ad28162000f7e565b840191505092915050565b600062000aea8262000d65565b62000af6818562000d81565b935062000b0881856020860162000e01565b80840191505092915050565b600062000b2360268362000d70565b915062000b308262000f8f565b604082019050919050565b600062000b4a60208362000d70565b915062000b578262000fde565b602082019050919050565b600062000b7160148362000d70565b915062000b7e8262001007565b602082019050919050565b62000b948162000dc0565b82525050565b600062000ba8828462000add565b915081905092915050565b600060208201905062000bca600083018462000a7a565b92915050565b600060208201905062000be7600083018462000a8b565b92915050565b6000602082019050818103600083015262000c09818462000a9c565b905092915050565b600060a082019050818103600083015262000c2d818862000a9c565b905062000c3e602083018762000a7a565b62000c4d604083018662000b89565b818103606083015262000c61818562000a9c565b9050818103608083015262000c77818462000a9c565b90509695505050505050565b6000602082019050818103600083015262000c9e8162000b14565b9050919050565b6000602082019050818103600083015262000cc08162000b3b565b9050919050565b6000602082019050818103600083015262000ce28162000b62565b9050919050565b600060208201905062000d00600083018462000b89565b92915050565b600062000d1262000d25565b905062000d20828262000e6d565b919050565b6000604051905090565b600067ffffffffffffffff82111562000d4d5762000d4c62000f4f565b5b62000d588262000f7e565b9050602081019050919050565b600081519050919050565b600082825260208201905092915050565b600081905092915050565b600062000d998262000da0565b9050919050565b600073ffffffffffffffffffffffffffffffffffffffff82169050919050565b6000819050919050565b600062000dd78262000dde565b9050919050565b600062000deb8262000da0565b9050919050565b82818337600083830152505050565b60005b8381101562000e2157808201518184015260208101905062000e04565b8381111562000e31576000848401525b50505050565b6000600282049050600182168062000e5057607f821691505b6020821081141562000e675762000e6662000f20565b5b50919050565b62000e788262000f7e565b810181811067ffffffffffffffff8211171562000e9a5762000e9962000f4f565b5b80604052505050565b600062000eb08262000dc0565b91507fffffffffffffffffffffffffffffffffffffffffffffffffffffffffffffffff82141562000ee65762000ee562000ef1565b5b600182019050919050565b7f4e487b7100000000000000000000000000000000000000000000000000000000600052601160045260246000fd5b7f4e487b7100000000000000000000000000000000000000000000000000000000600052602260045260246000fd5b7f4e487b7100000000000000000000000000000000000000000000000000000000600052604160045260246000fd5b6000601f19601f8301169050919050565b7f4f776e61626c653a206e6577206f776e657220697320746865207a65726f206160008201527f6464726573730000000000000000000000000000000000000000000000000000602082015250565b7f4f776e61626c653a2063616c6c6572206973206e6f7420746865206f776e6572600082015250565b7f5469746c6520616c726561647920657869737473000000000000000000000000600082015250565b6200103b8162000d8c565b81146200104757600080fd5b50565b620010558162000dc0565b81146200106157600080fd5b5056fe60806040526000600e553480156200001657600080fd5b5060405162004d4d38038062004d4d83398181016040528101906200003c91906200048d565b600780546200004b906200062d565b80601f016020809104026020016040519081016040528092919081815260200182805462000079906200062d565b8015620000ca5780601f106200009e57610100808354040283529160200191620000ca565b820191906000526020600020905b815481529060010190602001808311620000ac57829003601f168201915b505050505060078054620000de906200062d565b80601f01602080910402602001604051908101604052809291908181526020018280546200010c906200062d565b80156200015d5780601f1062000131576101008083540402835291602001916200015d565b820191906000526020600020905b8154815290600101906020018083116200013f57829003601f168201915b505050505081600090805190602001906200017a9291906200033d565b508060019080519060200190620001939291906200033d565b505050620001b6620001aa6200026f60201b60201c565b6200027760201b60201c565b83600860006101000a81548173ffffffffffffffffffffffffffffffffffffffff021916908373ffffffffffffffffffffffffffffffffffffffff16021790555084600790805190602001906200020f9291906200033d565b5082600a819055506001600b60006101000a81548160ff02191690831515021790555081600c90805190602001906200024a9291906200033d565b5080600d9080519060200190620002639291906200033d565b5050505050506200073c565b600033905090565b6000600660009054906101000a900473ffffffffffffffffffffffffffffffffffffffff16905081600660006101000a81548173ffffffffffffffffffffffffffffffffffffffff021916908373ffffffffffffffffffffffffffffffffffffffff1602179055508173ffffffffffffffffffffffffffffffffffffffff168173ffffffffffffffffffffffffffffffffffffffff167f8be0079c531659141344cd1fd0a4f28419497f9722a3daafe3b4186f6b6457e060405160405180910390a35050565b8280546200034b906200062d565b90600052602060002090601f0160209004810192826200036f5760008555620003bb565b82601f106200038a57805160ff1916838001178555620003bb565b82800160010185558215620003bb579182015b82811115620003ba5782518255916020019190600101906200039d565b5b509050620003ca9190620003ce565b5090565b5b80821115620003e9576000816000905550600101620003cf565b5090565b600062000404620003fe8462000583565b6200055a565b9050828152602081018484840111156200041d57600080fd5b6200042a848285620005f7565b509392505050565b600081519050620004438162000708565b92915050565b600082601f8301126200045b57600080fd5b81516200046d848260208601620003ed565b91505092915050565b600081519050620004878162000722565b92915050565b600080600080600060a08688031215620004a657600080fd5b600086015167ffffffffffffffff811115620004c157600080fd5b620004cf8882890162000449565b9550506020620004e28882890162000432565b9450506040620004f58882890162000476565b935050606086015167ffffffffffffffff8111156200051357600080fd5b620005218882890162000449565b925050608086015167ffffffffffffffff8111156200053f57600080fd5b6200054d8882890162000449565b9150509295509295909350565b60006200056662000579565b905062000574828262000663565b919050565b6000604051905090565b600067ffffffffffffffff821115620005a157620005a0620006c8565b5b620005ac82620006f7565b9050602081019050919050565b6000620005c682620005cd565b9050919050565b600073ffffffffffffffffffffffffffffffffffffffff82169050919050565b6000819050919050565b60005b8381101562000617578082015181840152602081019050620005fa565b8381111562000627576000848401525b50505050565b600060028204905060018216806200064657607f821691505b602082108114156200065d576200065c62000699565b5b50919050565b6200066e82620006f7565b810181811067ffffffffffffffff8211171562000690576200068f620006c8565b5b80604052505050565b7f4e487b7100000000000000000000000000000000000000000000000000000000600052602260045260246000fd5b7f4e487b7100000000000000000000000000000000000000000000000000000000600052604160045260246000fd5b6000601f19601f8301169050919050565b6200071381620005b9565b81146200071f57600080fd5b50565b6200072d81620005ed565b81146200073957600080fd5b50565b614601806200074c6000396000f3fe608060405234801561001057600080fd5b506004361061014d5760003560e01c8063793cd71e116100c3578063c87b56dd1161007c578063c87b56dd1461036a578063e8a3d4851461039a578063e985e9c5146103b8578063efbe1c1c146103e8578063f2fde38b146103f2578063f8626af81461040e5761014d565b8063793cd71e146102d05780638d59d1f1146102da5780638da5cb5b146102f657806395d89b4114610314578063a22cb46514610332578063b88d4fde1461034e5761014d565b806329f11c8d1161011557806329f11c8d14610208578063370158ea1461022457806342842e0e1461024a5780636352211e1461026657806370a0823114610296578063715018a6146102c65761014d565b806301ffc9a71461015257806306fdde0314610182578063081812fc146101a0578063095ea7b3146101d057806323b872dd146101ec575b600080fd5b61016c60048036038101906101679190612c3c565b610440565b6040516101799190613464565b60405180910390f35b61018a610522565b604051610197919061347f565b60405180910390f35b6101ba60048036038101906101b59190612c8e565b6105b4565b6040516101c7919061339d565b60405180910390f35b6101ea60048036038101906101e59190612bd7565b610639565b005b61020660048036038101906102019190612ad1565b610751565b005b610222600480360381019061021d9190612d34565b6107b1565b005b61022c6108b6565b604051610241999897969594939291906134a1565b60405180910390f35b610264600480360381019061025f9190612ad1565b610ac7565b005b610280600480360381019061027b9190612c8e565b610ae7565b60405161028d919061339d565b60405180910390f35b6102b060048036038101906102ab9190612a6c565b610b99565b6040516102bd9190613763565b60405180910390f35b6102ce610c51565b005b6102d8610cd9565b005b6102f460048036038101906102ef9190612ce0565b610eb1565b005b6102fe61113d565b60405161030b919061339d565b60405180910390f35b61031c611167565b604051610329919061347f565b60405180910390f35b61034c60048036038101906103479190612b9b565b6111f9565b005b61036860048036038101906103639190612b20565b61120f565b005b610384600480360381019061037f9190612c8e565b611271565b604051610391919061347f565b60405180910390f35b6103a261135d565b6040516103af919061347f565b60405180910390f35b6103d260048036038101906103cd9190612a95565b6113ef565b6040516103df9190613464565b60405180910390f35b6103f0611483565b005b61040c60048036038101906104079190612a6c565b611573565b005b61042860048036038101906104239190612c8e565b61166b565b604051610437939291906137ae565b60405180910390f35b60007f80ac58cd000000000000000000000000000000000000000000000000000000007bffffffffffffffffffffffffffffffffffffffffffffffffffffffff1916827bffffffffffffffffffffffffffffffffffffffffffffffffffffffff1916148061050b57507f5b5e139f000000000000000000000000000000000000000000000000000000007bffffffffffffffffffffffffffffffffffffffffffffffffffffffff1916827bffffffffffffffffffffffffffffffffffffffffffffffffffffffff1916145b8061051b575061051a8261173d565b5b9050919050565b60606000805461053190613ceb565b80601f016020809104026020016040519081016040528092919081815260200182805461055d90613ceb565b80156105aa5780601f1061057f576101008083540402835291602001916105aa565b820191906000526020600020905b81548152906001019060200180831161058d57829003601f168201915b5050505050905090565b60006105bf826117a7565b6105fe576040517f08c379a00000000000000000000000000000000000000000000000000000000081526004016105f5906136a3565b60405180910390fd5b6004600083815260200190815260200160002060009054906101000a900473ffffffffffffffffffffffffffffffffffffffff169050919050565b600061064482610ae7565b90508073ffffffffffffffffffffffffffffffffffffffff168373ffffffffffffffffffffffffffffffffffffffff1614156106b5576040517f08c379a00000000000000000000000000000000000000000000000000000000081526004016106ac90613723565b60405180910390fd5b8073ffffffffffffffffffffffffffffffffffffffff166106d4611813565b73ffffffffffffffffffffffffffffffffffffffff1614806107035750610702816106fd611813565b6113ef565b5b610742576040517f08c379a000000000000000000000000000000000000000000000000000000000815260040161073990613603565b60405180910390fd5b61074c838361181b565b505050565b61076261075c611813565b826118d4565b6107a1576040517f08c379a000000000000000000000000000000000000000000000000000000000815260040161079890613743565b60405180910390fd5b6107ac8383836119b2565b505050565b6107b9611813565b73ffffffffffffffffffffffffffffffffffffffff166107d761113d565b73ffffffffffffffffffffffffffffffffffffffff161461082d576040517f08c379a0000000000000000000000000000000000000000000000000000000008152600401610824906136c3565b60405180910390fd5b600b60009054906101000a900460ff1661087c576040517f08c379a000000000000000000000000000000000000000000000000000000000815260040161087390613663565b60405180910390fd5b82600a8190555081600c9080519060200190610899929190612866565b5080600d90805190602001906108b0929190612866565b50505050565b606060008060008060006060806000600780546108d290613ceb565b80601f01602080910402602001604051908101604052809291908181526020018280546108fe90613ceb565b801561094b5780601f106109205761010080835404028352916020019161094b565b820191906000526020600020905b81548152906001019060200180831161092e57829003601f168201915b50505050509850600860009054906101000a900473ffffffffffffffffffffffffffffffffffffffff16975061097f61113d565b96506009549550600a549450600b60009054906101000a900460ff169350600c80546109aa90613ceb565b80601f01602080910402602001604051908101604052809291908181526020018280546109d690613ceb565b8015610a235780601f106109f857610100808354040283529160200191610a23565b820191906000526020600020905b815481529060010190602001808311610a0657829003601f168201915b50505050509250600d8054610a3790613ceb565b80601f0160208091040260200160405190810160405280929190818152602001828054610a6390613ceb565b8015610ab05780601f10610a8557610100808354040283529160200191610ab0565b820191906000526020600020905b815481529060010190602001808311610a9357829003601f168201915b50505050509150600e549050909192939495969798565b610ae28383836040518060200160405280600081525061120f565b505050565b6000806002600084815260200190815260200160002060009054906101000a900473ffffffffffffffffffffffffffffffffffffffff169050600073ffffffffffffffffffffffffffffffffffffffff168173ffffffffffffffffffffffffffffffffffffffff161415610b90576040517f08c379a0000000000000000000000000000000000000000000000000000000008152600401610b8790613643565b60405180910390fd5b80915050919050565b60008073ffffffffffffffffffffffffffffffffffffffff168273ffffffffffffffffffffffffffffffffffffffff161415610c0a576040517f08c379a0000000000000000000000000000000000000000000000000000000008152600401610c0190613623565b60405180910390fd5b600360008373ffffffffffffffffffffffffffffffffffffffff1673ffffffffffffffffffffffffffffffffffffffff168152602001908152602001600020549050919050565b610c59611813565b73ffffffffffffffffffffffffffffffffffffffff16610c7761113d565b73ffffffffffffffffffffffffffffffffffffffff1614610ccd576040517f08c379a0000000000000000000000000000000000000000000000000000000008152600401610cc4906136c3565b60405180910390fd5b610cd76000611c0e565b565b610ce1611813565b73ffffffffffffffffffffffffffffffffffffffff16610cff61113d565b73ffffffffffffffffffffffffffffffffffffffff1614610d55576040517f08c379a0000000000000000000000000000000000000000000000000000000008152600401610d4c906136c3565b60405180910390fd5b600860009054906101000a900473ffffffffffffffffffffffffffffffffffffffff1673ffffffffffffffffffffffffffffffffffffffff1663a9059cbb33600860009054906101000a900473ffffffffffffffffffffffffffffffffffffffff1673ffffffffffffffffffffffffffffffffffffffff166370a08231306040518263ffffffff1660e01b8152600401610def919061339d565b60206040518083038186803b158015610e0757600080fd5b505afa158015610e1b573d6000803e3d6000fd5b505050506040513d601f19601f82011682018060405250810190610e3f9190612cb7565b6040518363ffffffff1660e01b8152600401610e5c92919061343b565b602060405180830381600087803b158015610e7657600080fd5b505af1158015610e8a573d6000803e3d6000fd5b505050506040513d601f19601f82011682018060405250810190610eae9190612c13565b50565b600b60009054906101000a900460ff16610f00576040517f08c379a0000000000000000000000000000000000000000000000000000000008152600401610ef790613663565b60405180910390fd5b60008211610f43576040517f08c379a0000000000000000000000000000000000000000000000000000000008152600401610f3a906136e3565b60405180910390fd5b600860009054906101000a900473ffffffffffffffffffffffffffffffffffffffff1673ffffffffffffffffffffffffffffffffffffffff166323b872dd3330856040518463ffffffff1660e01b8152600401610fa2939291906133b8565b602060405180830381600087803b158015610fbc57600080fd5b505af1158015610fd0573d6000803e3d6000fd5b505050506040513d601f19601f82011682018060405250810190610ff49190612c13565b50816009600082825461100791906138cb565b92505081905550600e600081548092919061102190613d4e565b919050555061103233600e54611cd4565b60405180606001604052808381526020018281526020013373ffffffffffffffffffffffffffffffffffffffff16815250600f6000600e54815260200190815260200160002060008201518160000155602082015181600101908051906020019061109e929190612866565b5060408201518160020160006101000a81548173ffffffffffffffffffffffffffffffffffffffff021916908373ffffffffffffffffffffffffffffffffffffffff1602179055509050503373ffffffffffffffffffffffffffffffffffffffff167f5474ce903c2cd33b4ad8b830da193f8bf2db9c281f64fc473a02665b9dc2d20b838360405161113192919061377e565b60405180910390a25050565b6000600660009054906101000a900473ffffffffffffffffffffffffffffffffffffffff16905090565b60606001805461117690613ceb565b80601f01602080910402602001604051908101604052809291908181526020018280546111a290613ceb565b80156111ef5780601f106111c4576101008083540402835291602001916111ef565b820191906000526020600020905b8154815290600101906020018083116111d257829003601f168201915b5050505050905090565b61120b611204611813565b8383611cf2565b5050565b61122061121a611813565b836118d4565b61125f576040517f08c379a000000000000000000000000000000000000000000000000000000000815260040161125690613743565b60405180910390fd5b61126b84848484611e5f565b50505050565b6060611337600d61128184611ebb565b600f600086815260200190815260200160002060010160076112b8600f600089815260200190815260200160002060000154611ebb565b600f600089815260200190815260200160002060010161130d600f60008b815260200190815260200160002060020160009054906101000a900473ffffffffffffffffffffffffffffffffffffffff16612068565b60405160200161132397969594939291906132d5565b60405160208183030381529060405261229d565b60405160200161134791906132b3565b6040516020818303038152906040529050919050565b6060600c805461136c90613ceb565b80601f016020809104026020016040519081016040528092919081815260200182805461139890613ceb565b80156113e55780601f106113ba576101008083540402835291602001916113e5565b820191906000526020600020905b8154815290600101906020018083116113c857829003601f168201915b5050505050905090565b6000600560008473ffffffffffffffffffffffffffffffffffffffff1673ffffffffffffffffffffffffffffffffffffffff16815260200190815260200160002060008373ffffffffffffffffffffffffffffffffffffffff1673ffffffffffffffffffffffffffffffffffffffff16815260200190815260200160002060009054906101000a900460ff16905092915050565b61148b611813565b73ffffffffffffffffffffffffffffffffffffffff166114a961113d565b73ffffffffffffffffffffffffffffffffffffffff16146114ff576040517f08c379a00000000000000000000000000000000000000000000000000000000081526004016114f6906136c3565b60405180910390fd5b600b60009054906101000a900460ff1661154e576040517f08c379a000000000000000000000000000000000000000000000000000000000815260040161154590613663565b60405180910390fd5b6000600b60006101000a81548160ff021916908315150217905550611571610cd9565b565b61157b611813565b73ffffffffffffffffffffffffffffffffffffffff1661159961113d565b73ffffffffffffffffffffffffffffffffffffffff16146115ef576040517f08c379a00000000000000000000000000000000000000000000000000000000081526004016115e6906136c3565b60405180910390fd5b600073ffffffffffffffffffffffffffffffffffffffff168173ffffffffffffffffffffffffffffffffffffffff16141561165f576040517f08c379a000000000000000000000000000000000000000000000000000000000815260040161165690613563565b60405180910390fd5b61166881611c0e565b50565b600f60205280600052604060002060009150905080600001549080600101805461169490613ceb565b80601f01602080910402602001604051908101604052809291908181526020018280546116c090613ceb565b801561170d5780601f106116e25761010080835404028352916020019161170d565b820191906000526020600020905b8154815290600101906020018083116116f057829003601f168201915b5050505050908060020160009054906101000a900473ffffffffffffffffffffffffffffffffffffffff16905083565b60007f01ffc9a7000000000000000000000000000000000000000000000000000000007bffffffffffffffffffffffffffffffffffffffffffffffffffffffff1916827bffffffffffffffffffffffffffffffffffffffffffffffffffffffff1916149050919050565b60008073ffffffffffffffffffffffffffffffffffffffff166002600084815260200190815260200160002060009054906101000a900473ffffffffffffffffffffffffffffffffffffffff1673ffffffffffffffffffffffffffffffffffffffff1614159050919050565b600033905090565b816004600083815260200190815260200160002060006101000a81548173ffffffffffffffffffffffffffffffffffffffff021916908373ffffffffffffffffffffffffffffffffffffffff160217905550808273ffffffffffffffffffffffffffffffffffffffff1661188e83610ae7565b73ffffffffffffffffffffffffffffffffffffffff167f8c5be1e5ebec7d5bd14f71427d1e84f3dd0314c0f7b2291e5b200ac8c7c3b92560405160405180910390a45050565b60006118df826117a7565b61191e576040517f08c379a0000000000000000000000000000000000000000000000000000000008152600401611915906135e3565b60405180910390fd5b600061192983610ae7565b90508073ffffffffffffffffffffffffffffffffffffffff168473ffffffffffffffffffffffffffffffffffffffff16148061199857508373ffffffffffffffffffffffffffffffffffffffff16611980846105b4565b73ffffffffffffffffffffffffffffffffffffffff16145b806119a957506119a881856113ef565b5b91505092915050565b8273ffffffffffffffffffffffffffffffffffffffff166119d282610ae7565b73ffffffffffffffffffffffffffffffffffffffff1614611a28576040517f08c379a0000000000000000000000000000000000000000000000000000000008152600401611a1f90613703565b60405180910390fd5b600073ffffffffffffffffffffffffffffffffffffffff168273ffffffffffffffffffffffffffffffffffffffff161415611a98576040517f08c379a0000000000000000000000000000000000000000000000000000000008152600401611a8f906135a3565b60405180910390fd5b611aa3838383612448565b611aae60008261181b565b6001600360008573ffffffffffffffffffffffffffffffffffffffff1673ffffffffffffffffffffffffffffffffffffffff1681526020019081526020016000206000828254611afe9190613bc0565b925050819055506001600360008473ffffffffffffffffffffffffffffffffffffffff1673ffffffffffffffffffffffffffffffffffffffff1681526020019081526020016000206000828254611b5591906138cb565b92505081905550816002600083815260200190815260200160002060006101000a81548173ffffffffffffffffffffffffffffffffffffffff021916908373ffffffffffffffffffffffffffffffffffffffff160217905550808273ffffffffffffffffffffffffffffffffffffffff168473ffffffffffffffffffffffffffffffffffffffff167fddf252ad1be2c89b69c2b068fc378daa952ba7f163c4a11628f55a4df523b3ef60405160405180910390a4505050565b6000600660009054906101000a900473ffffffffffffffffffffffffffffffffffffffff16905081600660006101000a81548173ffffffffffffffffffffffffffffffffffffffff021916908373ffffffffffffffffffffffffffffffffffffffff1602179055508173ffffffffffffffffffffffffffffffffffffffff168173ffffffffffffffffffffffffffffffffffffffff167f8be0079c531659141344cd1fd0a4f28419497f9722a3daafe3b4186f6b6457e060405160405180910390a35050565b611cee82826040518060200160405280600081525061244d565b5050565b8173ffffffffffffffffffffffffffffffffffffffff168373ffffffffffffffffffffffffffffffffffffffff161415611d61576040517f08c379a0000000000000000000000000000000000000000000000000000000008152600401611d58906135c3565b60405180910390fd5b80600560008573ffffffffffffffffffffffffffffffffffffffff1673ffffffffffffffffffffffffffffffffffffffff16815260200190815260200160002060008473ffffffffffffffffffffffffffffffffffffffff1673ffffffffffffffffffffffffffffffffffffffff16815260200190815260200160002060006101000a81548160ff0219169083151502179055508173ffffffffffffffffffffffffffffffffffffffff168373ffffffffffffffffffffffffffffffffffffffff167f17307eab39ab6107e8899845ad3d59bd9653f200f220920489ca2b5937696c3183604051611e529190613464565b60405180910390a3505050565b611e6a8484846119b2565b611e76848484846124a8565b611eb5576040517f08c379a0000000000000000000000000000000000000000000000000000000008152600401611eac90613543565b60405180910390fd5b50505050565b60606000821415611f03576040518060400160405280600181526020017f30000000000000000000000000000000000000000000000000000000000000008152509050612063565b600082905060005b60008214611f35578080611f1e90613d4e565b915050600a82611f2e9190613958565b9150611f0b565b60008167ffffffffffffffff811115611f77577f4e487b7100000000000000000000000000000000000000000000000000000000600052604160045260246000fd5b6040519080825280601f01601f191660200182016040528015611fa95781602001600182028036833780820191505090505b5090505b6000851461205c57600182611fc29190613bc0565b9150600a85611fd19190613d97565b6030611fdd91906138cb565b60f81b818381518110612019577f4e487b7100000000000000000000000000000000000000000000000000000000600052603260045260246000fd5b60200101907effffffffffffffffffffffffffffffffffffffffffffffffffffffffffffff1916908160001a905350600a856120559190613958565b9450611fad565b8093505050505b919050565b60606000602867ffffffffffffffff8111156120ad577f4e487b7100000000000000000000000000000000000000000000000000000000600052604160045260246000fd5b6040519080825280601f01601f1916602001820160405280156120df5781602001600182028036833780820191505090505b50905060005b60148110156122935760008160136120fd9190613bc0565b60086121099190613b2b565b60026121159190613a0d565b8573ffffffffffffffffffffffffffffffffffffffff166121369190613958565b60f81b9050600060108260f81c61214d9190613989565b60f81b905060008160f81c60106121649190613b85565b8360f81c6121729190613bf4565b60f81b90506121808261263f565b8585600261218e9190613b2b565b815181106121c5577f4e487b7100000000000000000000000000000000000000000000000000000000600052603260045260246000fd5b60200101907effffffffffffffffffffffffffffffffffffffffffffffffffffffffffffff1916908160001a9053506121fd8161263f565b85600186600261220d9190613b2b565b61221791906138cb565b8151811061224e577f4e487b7100000000000000000000000000000000000000000000000000000000600052603260045260246000fd5b60200101907effffffffffffffffffffffffffffffffffffffffffffffffffffffffffffff1916908160001a905350505050808061228b90613d4e565b9150506120e5565b5080915050919050565b60606000825114156122c057604051806020016040528060008152509050612443565b600060405180606001604052806040815260200161458c60409139905060006003600285516122ef91906138cb565b6122f99190613958565b60046123059190613b2b565b9050600060208261231691906138cb565b67ffffffffffffffff811115612355577f4e487b7100000000000000000000000000000000000000000000000000000000600052604160045260246000fd5b6040519080825280601f01601f1916602001820160405280156123875781602001600182028036833780820191505090505b509050818152600183018586518101602084015b81831015612402576003830192508251603f8160121c1685015160f81b8252600182019150603f81600c1c1685015160f81b8252600182019150603f8160061c1685015160f81b8252600182019150603f811685015160f81b82526001820191505061239b565b60038951066001811461241c576002811461242c57612437565b613d3d60f01b6002830352612437565b603d60f81b60018303525b50505050508093505050505b919050565b505050565b6124578383612685565b61246460008484846124a8565b6124a3576040517f08c379a000000000000000000000000000000000000000000000000000000000815260040161249a90613543565b60405180910390fd5b505050565b60006124c98473ffffffffffffffffffffffffffffffffffffffff16612853565b15612632578373ffffffffffffffffffffffffffffffffffffffff1663150b7a026124f2611813565b8786866040518563ffffffff1660e01b815260040161251494939291906133ef565b602060405180830381600087803b15801561252e57600080fd5b505af192505050801561255f57506040513d601f19601f8201168201806040525081019061255c9190612c65565b60015b6125e2573d806000811461258f576040519150601f19603f3d011682016040523d82523d6000602084013e612594565b606091505b506000815114156125da576040517f08c379a00000000000000000000000000000000000000000000000000000000081526004016125d190613543565b60405180910390fd5b805181602001fd5b63150b7a0260e01b7bffffffffffffffffffffffffffffffffffffffffffffffffffffffff1916817bffffffffffffffffffffffffffffffffffffffffffffffffffffffff191614915050612637565b600190505b949350505050565b6000600a8260f81c60ff16101561266a5760308260f81c6126609190613921565b60f81b9050612680565b60578260f81c61267a9190613921565b60f81b90505b919050565b600073ffffffffffffffffffffffffffffffffffffffff168273ffffffffffffffffffffffffffffffffffffffff1614156126f5576040517f08c379a00000000000000000000000000000000000000000000000000000000081526004016126ec90613683565b60405180910390fd5b6126fe816117a7565b1561273e576040517f08c379a000000000000000000000000000000000000000000000000000000000815260040161273590613583565b60405180910390fd5b61274a60008383612448565b6001600360008473ffffffffffffffffffffffffffffffffffffffff1673ffffffffffffffffffffffffffffffffffffffff168152602001908152602001600020600082825461279a91906138cb565b92505081905550816002600083815260200190815260200160002060006101000a81548173ffffffffffffffffffffffffffffffffffffffff021916908373ffffffffffffffffffffffffffffffffffffffff160217905550808273ffffffffffffffffffffffffffffffffffffffff16600073ffffffffffffffffffffffffffffffffffffffff167fddf252ad1be2c89b69c2b068fc378daa952ba7f163c4a11628f55a4df523b3ef60405160405180910390a45050565b600080823b905060008111915050919050565b82805461287290613ceb565b90600052602060002090601f01602090048101928261289457600085556128db565b82601f106128ad57805160ff19168380011785556128db565b828001600101855582156128db579182015b828111156128da5782518255916020019190600101906128bf565b5b5090506128e891906128ec565b5090565b5b808211156129055760008160009055506001016128ed565b5090565b600061291c61291784613811565b6137ec565b90508281526020810184848401111561293457600080fd5b61293f848285613ca9565b509392505050565b600061295a61295584613842565b6137ec565b90508281526020810184848401111561297257600080fd5b61297d848285613ca9565b509392505050565b6000813590506129948161452f565b92915050565b6000813590506129a981614546565b92915050565b6000815190506129be81614546565b92915050565b6000813590506129d38161455d565b92915050565b6000815190506129e88161455d565b92915050565b600082601f8301126129ff57600080fd5b8135612a0f848260208601612909565b91505092915050565b600082601f830112612a2957600080fd5b8135612a39848260208601612947565b91505092915050565b600081359050612a5181614574565b92915050565b600081519050612a6681614574565b92915050565b600060208284031215612a7e57600080fd5b6000612a8c84828501612985565b91505092915050565b60008060408385031215612aa857600080fd5b6000612ab685828601612985565b9250506020612ac785828601612985565b9150509250929050565b600080600060608486031215612ae657600080fd5b6000612af486828701612985565b9350506020612b0586828701612985565b9250506040612b1686828701612a42565b9150509250925092565b60008060008060808587031215612b3657600080fd5b6000612b4487828801612985565b9450506020612b5587828801612985565b9350506040612b6687828801612a42565b925050606085013567ffffffffffffffff811115612b8357600080fd5b612b8f878288016129ee565b91505092959194509250565b60008060408385031215612bae57600080fd5b6000612bbc85828601612985565b9250506020612bcd8582860161299a565b9150509250929050565b60008060408385031215612bea57600080fd5b6000612bf885828601612985565b9250506020612c0985828601612a42565b9150509250929050565b600060208284031215612c2557600080fd5b6000612c33848285016129af565b91505092915050565b600060208284031215612c4e57600080fd5b6000612c5c848285016129c4565b91505092915050565b600060208284031215612c7757600080fd5b6000612c85848285016129d9565b91505092915050565b600060208284031215612ca057600080fd5b6000612cae84828501612a42565b91505092915050565b600060208284031215612cc957600080fd5b6000612cd784828501612a57565b91505092915050565b60008060408385031215612cf357600080fd5b6000612d0185828601612a42565b925050602083013567ffffffffffffffff811115612d1e57600080fd5b612d2a85828601612a18565b9150509250929050565b600080600060608486031215612d4957600080fd5b6000612d5786828701612a42565b935050602084013567ffffffffffffffff811115612d7457600080fd5b612d8086828701612a18565b925050604084013567ffffffffffffffff811115612d9d57600080fd5b612da986828701612a18565b9150509250925092565b612dbc81613c28565b82525050565b612dcb81613c3a565b82525050565b6000612ddc82613888565b612de6818561389e565b9350612df6818560208601613cb8565b612dff81613e84565b840191505092915050565b6000612e1582613893565b612e1f81856138af565b9350612e2f818560208601613cb8565b612e3881613e84565b840191505092915050565b6000612e4e82613893565b612e5881856138c0565b9350612e68818560208601613cb8565b80840191505092915050565b60008154612e8181613ceb565b612e8b81866138c0565b94506001821660008114612ea65760018114612eb757612eea565b60ff19831686528186019350612eea565b612ec085613873565b60005b83811015612ee257815481890152600182019150602081019050612ec3565b838801955050505b50505092915050565b6000612f006032836138af565b9150612f0b82613ea2565b604082019050919050565b6000612f236026836138af565b9150612f2e82613ef1565b604082019050919050565b6000612f46601c836138af565b9150612f5182613f40565b602082019050919050565b6000612f696023836138c0565b9150612f7482613f69565b602382019050919050565b6000612f8c6024836138af565b9150612f9782613fb8565b604082019050919050565b6000612faf6019836138af565b9150612fba82614007565b602082019050919050565b6000612fd26003836138c0565b9150612fdd82614030565b600382019050919050565b6000612ff5602c836138af565b915061300082614059565b604082019050919050565b60006130186038836138af565b9150613023826140a8565b604082019050919050565b600061303b602a836138af565b9150613046826140f7565b604082019050919050565b600061305e6029836138af565b915061306982614146565b604082019050919050565b60006130816016836138c0565b915061308c82614195565b601682019050919050565b60006130a46013836138af565b91506130af826141be565b602082019050919050565b60006130c76020836138af565b91506130d2826141e7565b602082019050919050565b60006130ea6001836138c0565b91506130f582614210565b600182019050919050565b600061310d602f836138c0565b915061311882614239565b602f82019050919050565b6000613130602c836138af565b915061313b82614288565b604082019050919050565b60006131536012836138c0565b915061315e826142d7565b601282019050919050565b60006131766020836138af565b915061318182614300565b602082019050919050565b60006131996014836138af565b91506131a482614329565b602082019050919050565b60006131bc6029836138af565b91506131c782614352565b604082019050919050565b60006131df6021836138af565b91506131ea826143a1565b604082019050919050565b60006132026034836138c0565b915061320d826143f0565b603482019050919050565b6000613225601d836138c0565b91506132308261443f565b601d82019050919050565b60006132486031836138af565b915061325382614468565b604082019050919050565b600061326b600a836138c0565b9150613276826144b7565b600a82019050919050565b600061328e6028836138c0565b9150613299826144e0565b602882019050919050565b6132ad81613c92565b82525050565b60006132be82613218565b91506132ca8284612e43565b915081905092915050565b60006132e08261325e565b91506132ec828a612e74565b91506132f782613074565b91506133038289612e43565b915061330e82613146565b915061331a8288612e74565b915061332582613281565b91506133318287612e74565b915061333c826131f5565b91506133488286612e43565b915061335382612f5c565b915061335f8285612e74565b915061336a82613100565b91506133768284612e43565b915061338182612fc5565b915061338c826130dd565b915081905098975050505050505050565b60006020820190506133b26000830184612db3565b92915050565b60006060820190506133cd6000830186612db3565b6133da6020830185612db3565b6133e760408301846132a4565b949350505050565b60006080820190506134046000830187612db3565b6134116020830186612db3565b61341e60408301856132a4565b81810360608301526134308184612dd1565b905095945050505050565b60006040820190506134506000830185612db3565b61345d60208301846132a4565b9392505050565b60006020820190506134796000830184612dc2565b92915050565b600060208201905081810360008301526134998184612e0a565b905092915050565b60006101208201905081810360008301526134bc818c612e0a565b90506134cb602083018b612db3565b6134d8604083018a612db3565b6134e560608301896132a4565b6134f260808301886132a4565b6134ff60a0830187612dc2565b81810360c08301526135118186612e0a565b905081810360e08301526135258185612e0a565b90506135356101008301846132a4565b9a9950505050505050505050565b6000602082019050818103600083015261355c81612ef3565b9050919050565b6000602082019050818103600083015261357c81612f16565b9050919050565b6000602082019050818103600083015261359c81612f39565b9050919050565b600060208201905081810360008301526135bc81612f7f565b9050919050565b600060208201905081810360008301526135dc81612fa2565b9050919050565b600060208201905081810360008301526135fc81612fe8565b9050919050565b6000602082019050818103600083015261361c8161300b565b9050919050565b6000602082019050818103600083015261363c8161302e565b9050919050565b6000602082019050818103600083015261365c81613051565b9050919050565b6000602082019050818103600083015261367c81613097565b9050919050565b6000602082019050818103600083015261369c816130ba565b9050919050565b600060208201905081810360008301526136bc81613123565b9050919050565b600060208201905081810360008301526136dc81613169565b9050919050565b600060208201905081810360008301526136fc8161318c565b9050919050565b6000602082019050818103600083015261371c816131af565b9050919050565b6000602082019050818103600083015261373c816131d2565b9050919050565b6000602082019050818103600083015261375c8161323b565b9050919050565b600060208201905061377860008301846132a4565b92915050565b600060408201905061379360008301856132a4565b81810360208301526137a58184612e0a565b90509392505050565b60006060820190506137c360008301866132a4565b81810360208301526137d58185612e0a565b90506137e46040830184612db3565b949350505050565b60006137f6613807565b90506138028282613d1d565b919050565b6000604051905090565b600067ffffffffffffffff82111561382c5761382b613e55565b5b61383582613e84565b9050602081019050919050565b600067ffffffffffffffff82111561385d5761385c613e55565b5b61386682613e84565b9050602081019050919050565b60008190508160005260206000209050919050565b600081519050919050565b600081519050919050565b600082825260208201905092915050565b600082825260208201905092915050565b600081905092915050565b60006138d682613c92565b91506138e183613c92565b9250827fffffffffffffffffffffffffffffffffffffffffffffffffffffffffffffffff0382111561391657613915613dc8565b5b828201905092915050565b600061392c82613c9c565b915061393783613c9c565b92508260ff0382111561394d5761394c613dc8565b5b828201905092915050565b600061396382613c92565b915061396e83613c92565b92508261397e5761397d613df7565b5b828204905092915050565b600061399482613c9c565b915061399f83613c9c565b9250826139af576139ae613df7565b5b828204905092915050565b6000808291508390505b6001851115613a04578086048111156139e0576139df613dc8565b5b60018516156139ef5780820291505b80810290506139fd85613e95565b94506139c4565b94509492505050565b6000613a1882613c92565b9150613a2383613c92565b9250613a507fffffffffffffffffffffffffffffffffffffffffffffffffffffffffffffffff8484613a58565b905092915050565b600082613a685760019050613b24565b81613a765760009050613b24565b8160018114613a8c5760028114613a9657613ac5565b6001915050613b24565b60ff841115613aa857613aa7613dc8565b5b8360020a915084821115613abf57613abe613dc8565b5b50613b24565b5060208310610133831016604e8410600b8410161715613afa5782820a905083811115613af557613af4613dc8565b5b613b24565b613b0784848460016139ba565b92509050818404811115613b1e57613b1d613dc8565b5b81810290505b9392505050565b6000613b3682613c92565b9150613b4183613c92565b9250817fffffffffffffffffffffffffffffffffffffffffffffffffffffffffffffffff0483118215151615613b7a57613b79613dc8565b5b828202905092915050565b6000613b9082613c9c565b9150613b9b83613c9c565b92508160ff0483118215151615613bb557613bb4613dc8565b5b828202905092915050565b6000613bcb82613c92565b9150613bd683613c92565b925082821015613be957613be8613dc8565b5b828203905092915050565b6000613bff82613c9c565b9150613c0a83613c9c565b925082821015613c1d57613c1c613dc8565b5b828203905092915050565b6000613c3382613c72565b9050919050565b60008115159050919050565b60007fffffffff0000000000000000000000000000000000000000000000000000000082169050919050565b600073ffffffffffffffffffffffffffffffffffffffff82169050919050565b6000819050919050565b600060ff82169050919050565b82818337600083830152505050565b60005b83811015613cd6578082015181840152602081019050613cbb565b83811115613ce5576000848401525b50505050565b60006002820490506001821680613d0357607f821691505b60208210811415613d1757613d16613e26565b5b50919050565b613d2682613e84565b810181811067ffffffffffffffff82111715613d4557613d44613e55565b5b80604052505050565b6000613d5982613c92565b91507fffffffffffffffffffffffffffffffffffffffffffffffffffffffffffffffff821415613d8c57613d8b613dc8565b5b600182019050919050565b6000613da282613c92565b9150613dad83613c92565b925082613dbd57613dbc613df7565b5b828206905092915050565b7f4e487b7100000000000000000000000000000000000000000000000000000000600052601160045260246000fd5b7f4e487b7100000000000000000000000000000000000000000000000000000000600052601260045260246000fd5b7f4e487b7100000000000000000000000000000000000000000000000000000000600052602260045260246000fd5b7f4e487b7100000000000000000000000000000000000000000000000000000000600052604160045260246000fd5b6000601f19601f8301169050919050565b60008160011c9050919050565b7f4552433732313a207472616e7366657220746f206e6f6e20455243373231526560008201527f63656976657220696d706c656d656e7465720000000000000000000000000000602082015250565b7f4f776e61626c653a206e6577206f776e657220697320746865207a65726f206160008201527f6464726573730000000000000000000000000000000000000000000000000000602082015250565b7f4552433732313a20746f6b656e20616c7265616479206d696e74656400000000600082015250565b7f7d2c7b2274726169745f74797065223a224d657373616765222c2276616c756560008201527f223a220000000000000000000000000000000000000000000000000000000000602082015250565b7f4552433732313a207472616e7366657220746f20746865207a65726f2061646460008201527f7265737300000000000000000000000000000000000000000000000000000000602082015250565b7f4552433732313a20617070726f766520746f2063616c6c657200000000000000600082015250565b7f227d5d0000000000000000000000000000000000000000000000000000000000600082015250565b7f4552433732313a206f70657261746f7220717565727920666f72206e6f6e657860008201527f697374656e7420746f6b656e0000000000000000000000000000000000000000602082015250565b7f4552433732313a20617070726f76652063616c6c6572206973206e6f74206f7760008201527f6e6572206e6f7220617070726f76656420666f7220616c6c0000000000000000602082015250565b7f4552433732313a2062616c616e636520717565727920666f7220746865207a6560008201527f726f206164647265737300000000000000000000000000000000000000000000602082015250565b7f4552433732313a206f776e657220717565727920666f72206e6f6e657869737460008201527f656e7420746f6b656e0000000000000000000000000000000000000000000000602082015250565b7f222c20226e616d65223a22537570706f72746572202300000000000000000000600082015250565b7f50726f6a656374206e6f74206163746976652100000000000000000000000000600082015250565b7f4552433732313a206d696e7420746f20746865207a65726f2061646472657373600082015250565b7f7d00000000000000000000000000000000000000000000000000000000000000600082015250565b7f227d2c7b2274726169745f74797065223a224f726967696e616c20646f6e617460008201527f6f72222c2276616c7565223a2230780000000000000000000000000000000000602082015250565b7f4552433732313a20617070726f76656420717565727920666f72206e6f6e657860008201527f697374656e7420746f6b656e0000000000000000000000000000000000000000602082015250565b7f222c20226465736372697074696f6e223a220000000000000000000000000000600082015250565b7f4f776e61626c653a2063616c6c6572206973206e6f7420746865206f776e6572600082015250565b7f446f6e6174696f6e20616d6f756e742069732030000000000000000000000000600082015250565b7f4552433732313a207472616e73666572206f6620746f6b656e2074686174206960008201527f73206e6f74206f776e0000000000000000000000000000000000000000000000602082015250565b7f4552433732313a20617070726f76616c20746f2063757272656e74206f776e6560008201527f7200000000000000000000000000000000000000000000000000000000000000602082015250565b7f222c202261747472696275746573223a205b7b2274726169745f74797065223a60008201527f2022446f6e6174696f6e222c2276616c7565223a000000000000000000000000602082015250565b7f646174613a6170706c69636174696f6e2f6a736f6e3b6261736536342c000000600082015250565b7f4552433732313a207472616e736665722063616c6c6572206973206e6f74206f60008201527f776e6572206e6f7220617070726f766564000000000000000000000000000000602082015250565b7f7b22696d616765223a2200000000000000000000000000000000000000000000600082015250565b7f222c202265787465726e616c5f75726c223a2268747470733a2f2f657468646f60008201527f6e2e78797a2f232f000000000000000000000000000000000000000000000000602082015250565b61453881613c28565b811461454357600080fd5b50565b61454f81613c3a565b811461455a57600080fd5b50565b61456681613c46565b811461457157600080fd5b50565b61457d81613c92565b811461458857600080fd5b5056fe4142434445464748494a4b4c4d4e4f505152535455565758595a6162636465666768696a6b6c6d6e6f707172737475767778797a303132333435363738392b2fa2646970667358221220be14ed09fd2cea116b58b97f314fcd33f67381279f44a8de3cb481e5c8cc5f0364736f6c63430008040033a26469706673582212203efee56f3eb5d6c91c31c3344a6de72dbe7234cc50f0ead0ebb538b129053b8b64736f6c63430008040033",
  "linkReferences": {},
  "deployedLinkReferences": {}
}