{
  "_format": "hh-sol-artifact-1",
  "contractName": "Donations",
  "sourceName": "contracts/Donations.sol",
  "abi": [
    {
      "anonymous": false,
      "inputs": [
        {
          "indexed": true,
          "internalType": "string",
          "name": "title",
          "type": "string"
        },
        {
          "indexed": true,
          "internalType": "address",
          "name": "owner",
          "type": "address"
        }
      ],
      "name": "NewProject",
      "type": "event"
    },
    {
      "anonymous": false,
      "inputs": [
        {
          "indexed": true,
          "internalType": "address",
          "name": "previousOwner",
          "type": "address"
        },
        {
          "indexed": true,
          "internalType": "address",
          "name": "newOwner",
          "type": "address"
        }
      ],
      "name": "OwnershipTransferred",
      "type": "event"
    },
    {
      "inputs": [],
      "name": "owner",
      "outputs": [
        {
          "internalType": "address",
          "name": "",
          "type": "address"
        }
      ],
      "stateMutability": "view",
      "type": "function"
    },
    {
      "inputs": [],
      "name": "renounceOwnership",
      "outputs": [],
      "stateMutability": "nonpayable",
      "type": "function"
    },
    {
      "inputs": [
        {
          "internalType": "address",
          "name": "_coin",
          "type": "address"
        },
        {
          "internalType": "string",
          "name": "_title",
          "type": "string"
        },
        {
          "internalType": "uint256",
          "name": "_goal",
          "type": "uint256"
        },
        {
          "internalType": "string",
          "name": "_styling",
          "type": "string"
        },
        {
          "internalType": "string",
          "name": "_image",
          "type": "string"
        }
      ],
      "name": "startProject",
      "outputs": [],
      "stateMutability": "nonpayable",
      "type": "function"
    },
    {
      "inputs": [
        {
          "internalType": "uint256",
          "name": "",
          "type": "uint256"
        }
      ],
      "name": "titles",
      "outputs": [
        {
          "internalType": "string",
          "name": "",
          "type": "string"
        }
      ],
      "stateMutability": "view",
      "type": "function"
    },
    {
      "inputs": [
        {
          "internalType": "string",
          "name": "",
          "type": "string"
        }
      ],
      "name": "tokens",
      "outputs": [
        {
          "internalType": "contract DonationsToken",
          "name": "",
          "type": "address"
        }
      ],
      "stateMutability": "view",
      "type": "function"
    },
    {
      "inputs": [
        {
          "internalType": "address",
          "name": "newOwner",
          "type": "address"
        }
      ],
      "name": "transferOwnership",
      "outputs": [],
      "stateMutability": "nonpayable",
      "type": "function"
    }
  ],
  "bytecode": "0x608060405234801561001057600080fd5b5061002d61002261003260201b60201c565b61003a60201b60201c565b6100fe565b600033905090565b60008060009054906101000a900473ffffffffffffffffffffffffffffffffffffffff169050816000806101000a81548173ffffffffffffffffffffffffffffffffffffffff021916908373ffffffffffffffffffffffffffffffffffffffff1602179055508173ffffffffffffffffffffffffffffffffffffffff168173ffffffffffffffffffffffffffffffffffffffff167f8be0079c531659141344cd1fd0a4f28419497f9722a3daafe3b4186f6b6457e060405160405180910390a35050565b61588e8061010d6000396000f3fe60806040523480156200001157600080fd5b50600436106200006a5760003560e01c806304c2320b146200006f5780632cda1bf714620000a5578063715018a614620000db5780638da5cb5b14620000e7578063a0672a2c1462000109578063f2fde38b1462000129575b600080fd5b6200008d6004803603810190620000879190620009c8565b62000149565b6040516200009c919062000c01565b60405180910390f35b620000c36004803603810190620000bd919062000a0d565b62000192565b604051620000d2919062000c1e565b60405180910390f35b620000e562000247565b005b620000f1620002d8565b60405162000100919062000b72565b60405180910390f35b620001276004803603810190620001219190620008fb565b62000301565b005b620001476004803603810190620001419190620008cf565b620005a1565b005b6001818051602081018201805184825260208301602085012081835280955050505050506000915054906101000a900473ffffffffffffffffffffffffffffffffffffffff1681565b60028181548110620001a357600080fd5b906000526020600020016000915090508054620001c09062000dd9565b80601f0160208091040260200160405190810160405280929190818152602001828054620001ee9062000dd9565b80156200023f5780601f1062000213576101008083540402835291602001916200023f565b820191906000526020600020905b8154815290600101906020018083116200022157829003601f168201915b505050505081565b62000251620006a5565b73ffffffffffffffffffffffffffffffffffffffff1662000271620002d8565b73ffffffffffffffffffffffffffffffffffffffff1614620002ca576040517f08c379a0000000000000000000000000000000000000000000000000000000008152600401620002c19062000c64565b60405180910390fd5b620002d66000620006ad565b565b60008060009054906101000a900473ffffffffffffffffffffffffffffffffffffffff16905090565b600073ffffffffffffffffffffffffffffffffffffffff166001856040516200032b919062000b59565b908152602001604051809103902060009054906101000a900473ffffffffffffffffffffffffffffffffffffffff1673ffffffffffffffffffffffffffffffffffffffff1614620003b3576040517f08c379a0000000000000000000000000000000000000000000000000000000008152600401620003aa9062000c86565b60405180910390fd5b600284908060018154018082558091505060019003906000526020600020016000909190919091509080519060200190620003f092919062000771565b508484848484604051620004049062000802565b6200041495949392919062000b8f565b604051809103906000f08015801562000431573d6000803e3d6000fd5b5060018560405162000444919062000b59565b908152602001604051809103902060006101000a81548173ffffffffffffffffffffffffffffffffffffffff021916908373ffffffffffffffffffffffffffffffffffffffff160217905550600184604051620004a2919062000b59565b908152602001604051809103902060009054906101000a900473ffffffffffffffffffffffffffffffffffffffff1673ffffffffffffffffffffffffffffffffffffffff1663f2fde38b336040518263ffffffff1660e01b81526004016200050b919062000b72565b600060405180830381600087803b1580156200052657600080fd5b505af11580156200053b573d6000803e3d6000fd5b505050503373ffffffffffffffffffffffffffffffffffffffff168460405162000566919062000b59565b60405180910390207f6350646d22f751d3c98d5104d8a0a80e6803a17975e7925b4ece9e807b0d117b60405160405180910390a35050505050565b620005ab620006a5565b73ffffffffffffffffffffffffffffffffffffffff16620005cb620002d8565b73ffffffffffffffffffffffffffffffffffffffff161462000624576040517f08c379a00000000000000000000000000000000000000000000000000000000081526004016200061b9062000c64565b60405180910390fd5b600073ffffffffffffffffffffffffffffffffffffffff168173ffffffffffffffffffffffffffffffffffffffff16141562000697576040517f08c379a00000000000000000000000000000000000000000000000000000000081526004016200068e9062000c42565b60405180910390fd5b620006a281620006ad565b50565b600033905090565b60008060009054906101000a900473ffffffffffffffffffffffffffffffffffffffff169050816000806101000a81548173ffffffffffffffffffffffffffffffffffffffff021916908373ffffffffffffffffffffffffffffffffffffffff1602179055508173ffffffffffffffffffffffffffffffffffffffff168173ffffffffffffffffffffffffffffffffffffffff167f8be0079c531659141344cd1fd0a4f28419497f9722a3daafe3b4186f6b6457e060405160405180910390a35050565b8280546200077f9062000dd9565b90600052602060002090601f016020900481019282620007a35760008555620007ef565b82601f10620007be57805160ff1916838001178555620007ef565b82800160010185558215620007ef579182015b82811115620007ee578251825591602001919060010190620007d1565b5b509050620007fe919062000810565b5090565b6148cf8062000f8a83390190565b5b808211156200082b57600081600090555060010162000811565b5090565b600062000846620008408462000cd1565b62000ca8565b9050828152602081018484840111156200085f57600080fd5b6200086c84828562000d94565b509392505050565b600081359050620008858162000f55565b92915050565b600082601f8301126200089d57600080fd5b8135620008af8482602086016200082f565b91505092915050565b600081359050620008c98162000f6f565b92915050565b600060208284031215620008e257600080fd5b6000620008f28482850162000874565b91505092915050565b600080600080600060a086880312156200091457600080fd5b6000620009248882890162000874565b955050602086013567ffffffffffffffff8111156200094257600080fd5b62000950888289016200088b565b94505060406200096388828901620008b8565b935050606086013567ffffffffffffffff8111156200098157600080fd5b6200098f888289016200088b565b925050608086013567ffffffffffffffff811115620009ad57600080fd5b620009bb888289016200088b565b9150509295509295909350565b600060208284031215620009db57600080fd5b600082013567ffffffffffffffff811115620009f657600080fd5b62000a04848285016200088b565b91505092915050565b60006020828403121562000a2057600080fd5b600062000a3084828501620008b8565b91505092915050565b62000a448162000d2e565b82525050565b62000a558162000d6c565b82525050565b600062000a688262000d07565b62000a74818562000d12565b935062000a8681856020860162000da3565b62000a918162000ea3565b840191505092915050565b600062000aa98262000d07565b62000ab5818562000d23565b935062000ac781856020860162000da3565b80840191505092915050565b600062000ae260268362000d12565b915062000aef8262000eb4565b604082019050919050565b600062000b0960208362000d12565b915062000b168262000f03565b602082019050919050565b600062000b3060148362000d12565b915062000b3d8262000f2c565b602082019050919050565b62000b538162000d62565b82525050565b600062000b67828462000a9c565b915081905092915050565b600060208201905062000b89600083018462000a39565b92915050565b600060a08201905062000ba6600083018862000a39565b818103602083015262000bba818762000a5b565b905062000bcb604083018662000b48565b818103606083015262000bdf818562000a5b565b9050818103608083015262000bf5818462000a5b565b90509695505050505050565b600060208201905062000c18600083018462000a4a565b92915050565b6000602082019050818103600083015262000c3a818462000a5b565b905092915050565b6000602082019050818103600083015262000c5d8162000ad3565b9050919050565b6000602082019050818103600083015262000c7f8162000afa565b9050919050565b6000602082019050818103600083015262000ca18162000b21565b9050919050565b600062000cb462000cc7565b905062000cc2828262000e0f565b919050565b6000604051905090565b600067ffffffffffffffff82111562000cef5762000cee62000e74565b5b62000cfa8262000ea3565b9050602081019050919050565b600081519050919050565b600082825260208201905092915050565b600081905092915050565b600062000d3b8262000d42565b9050919050565b600073ffffffffffffffffffffffffffffffffffffffff82169050919050565b6000819050919050565b600062000d798262000d80565b9050919050565b600062000d8d8262000d42565b9050919050565b82818337600083830152505050565b60005b8381101562000dc357808201518184015260208101905062000da6565b8381111562000dd3576000848401525b50505050565b6000600282049050600182168062000df257607f821691505b6020821081141562000e095762000e0862000e45565b5b50919050565b62000e1a8262000ea3565b810181811067ffffffffffffffff8211171562000e3c5762000e3b62000e74565b5b80604052505050565b7f4e487b7100000000000000000000000000000000000000000000000000000000600052602260045260246000fd5b7f4e487b7100000000000000000000000000000000000000000000000000000000600052604160045260246000fd5b6000601f19601f8301169050919050565b7f4f776e61626c653a206e6577206f776e657220697320746865207a65726f206160008201527f6464726573730000000000000000000000000000000000000000000000000000602082015250565b7f4f776e61626c653a2063616c6c6572206973206e6f7420746865206f776e6572600082015250565b7f5469746c6520616c726561647920657869737473000000000000000000000000600082015250565b62000f608162000d2e565b811462000f6c57600080fd5b50565b62000f7a8162000d62565b811462000f8657600080fd5b5056fe60806040526000600e553480156200001657600080fd5b50604051620048cf380380620048cf83398181016040528101906200003c919062000369565b838481600090805190602001906200005692919062000219565b5080600190805190602001906200006f92919062000219565b50505062000092620000866200014b60201b60201c565b6200015360201b60201c565b84600860006101000a81548173ffffffffffffffffffffffffffffffffffffffff021916908373ffffffffffffffffffffffffffffffffffffffff1602179055508360079080519060200190620000eb92919062000219565b5082600a819055506001600b60006101000a81548160ff02191690831515021790555081600c90805190602001906200012692919062000219565b5080600d90805190602001906200013f92919062000219565b50505050505062000618565b600033905090565b6000600660009054906101000a900473ffffffffffffffffffffffffffffffffffffffff16905081600660006101000a81548173ffffffffffffffffffffffffffffffffffffffff021916908373ffffffffffffffffffffffffffffffffffffffff1602179055508173ffffffffffffffffffffffffffffffffffffffff168173ffffffffffffffffffffffffffffffffffffffff167f8be0079c531659141344cd1fd0a4f28419497f9722a3daafe3b4186f6b6457e060405160405180910390a35050565b828054620002279062000509565b90600052602060002090601f0160209004810192826200024b576000855562000297565b82601f106200026657805160ff191683800117855562000297565b8280016001018555821562000297579182015b828111156200029657825182559160200191906001019062000279565b5b509050620002a69190620002aa565b5090565b5b80821115620002c5576000816000905550600101620002ab565b5090565b6000620002e0620002da846200045f565b62000436565b905082815260208101848484011115620002f957600080fd5b62000306848285620004d3565b509392505050565b6000815190506200031f81620005e4565b92915050565b600082601f8301126200033757600080fd5b815162000349848260208601620002c9565b91505092915050565b6000815190506200036381620005fe565b92915050565b600080600080600060a086880312156200038257600080fd5b600062000392888289016200030e565b955050602086015167ffffffffffffffff811115620003b057600080fd5b620003be8882890162000325565b9450506040620003d18882890162000352565b935050606086015167ffffffffffffffff811115620003ef57600080fd5b620003fd8882890162000325565b925050608086015167ffffffffffffffff8111156200041b57600080fd5b620004298882890162000325565b9150509295509295909350565b60006200044262000455565b90506200045082826200053f565b919050565b6000604051905090565b600067ffffffffffffffff8211156200047d576200047c620005a4565b5b6200048882620005d3565b9050602081019050919050565b6000620004a282620004a9565b9050919050565b600073ffffffffffffffffffffffffffffffffffffffff82169050919050565b6000819050919050565b60005b83811015620004f3578082015181840152602081019050620004d6565b8381111562000503576000848401525b50505050565b600060028204905060018216806200052257607f821691505b6020821081141562000539576200053862000575565b5b50919050565b6200054a82620005d3565b810181811067ffffffffffffffff821117156200056c576200056b620005a4565b5b80604052505050565b7f4e487b7100000000000000000000000000000000000000000000000000000000600052602260045260246000fd5b7f4e487b7100000000000000000000000000000000000000000000000000000000600052604160045260246000fd5b6000601f19601f8301169050919050565b620005ef8162000495565b8114620005fb57600080fd5b50565b6200060981620004c9565b81146200061557600080fd5b50565b6142a780620006286000396000f3fe608060405234801561001057600080fd5b50600436106101e55760003560e01c806370a082311161010f578063b88d4fde116100a2578063efbe1c1c11610071578063efbe1c1c14610551578063f2fde38b1461055b578063f3ccaac014610577578063f8626af814610595576101e5565b8063b88d4fde146104b7578063c87b56dd146104d3578063e8a3d48514610503578063e985e9c514610521576101e5565b80638da5cb5b116100de5780638da5cb5b1461044157806395d89b411461045f578063a22cb4651461047d578063b69ef8a814610499576101e5565b806370a08231146103e1578063715018a614610411578063793cd71e1461041b5780638d59d1f114610425576101e5565b806323b872dd116101875780634019388311610156578063401938831461035957806342842e0e146103775780634a79d50c146103935780636352211e146103b1576101e5565b806323b872dd146102de57806329f11c8d146102fa5780632ecb5e6314610316578063370158ea14610334576101e5565b8063081812fc116101c3578063081812fc14610256578063095ea7b31461028657806311df9995146102a25780631f522595146102c0576101e5565b806301ffc9a7146101ea57806302fb0c5e1461021a57806306fdde0314610238575b600080fd5b61020460048036038101906101ff9190612c13565b6105c6565b60405161021191906133ec565b60405180910390f35b6102226106a8565b60405161022f91906133ec565b60405180910390f35b6102406106bb565b60405161024d9190613422565b60405180910390f35b610270600480360381019061026b9190612c65565b61074d565b60405161027d9190613325565b60405180910390f35b6102a0600480360381019061029b9190612bae565b6107d2565b005b6102aa6108ea565b6040516102b79190613407565b60405180910390f35b6102c8610910565b6040516102d591906136d7565b60405180910390f35b6102f860048036038101906102f39190612aa8565b610916565b005b610314600480360381019061030f9190612d0b565b610976565b005b61031e610a7b565b60405161032b9190613422565b60405180910390f35b61033c610b09565b604051610350989796959493929190613444565b60405180910390f35b610361610d12565b60405161036e91906136d7565b60405180910390f35b610391600480360381019061038c9190612aa8565b610d18565b005b61039b610d38565b6040516103a89190613422565b60405180910390f35b6103cb60048036038101906103c69190612c65565b610dc6565b6040516103d89190613325565b60405180910390f35b6103fb60048036038101906103f69190612a43565b610e78565b60405161040891906136d7565b60405180910390f35b610419610f30565b005b610423610fb8565b005b61043f600480360381019061043a9190612cb7565b611190565b005b610449611376565b6040516104569190613325565b60405180910390f35b6104676113a0565b6040516104749190613422565b60405180910390f35b61049760048036038101906104929190612b72565b611432565b005b6104a1611448565b6040516104ae91906136d7565b60405180910390f35b6104d160048036038101906104cc9190612af7565b61144e565b005b6104ed60048036038101906104e89190612c65565b6114b0565b6040516104fa9190613422565b60405180910390f35b61050b611547565b6040516105189190613422565b60405180910390f35b61053b60048036038101906105369190612a6c565b6115d9565b60405161054891906133ec565b60405180910390f35b61055961166d565b005b61057560048036038101906105709190612a43565b61175d565b005b61057f611855565b60405161058c9190613422565b60405180910390f35b6105af60048036038101906105aa9190612c65565b6118e3565b6040516105bd9291906136f2565b60405180910390f35b60007f80ac58cd000000000000000000000000000000000000000000000000000000007bffffffffffffffffffffffffffffffffffffffffffffffffffffffff1916827bffffffffffffffffffffffffffffffffffffffffffffffffffffffff1916148061069157507f5b5e139f000000000000000000000000000000000000000000000000000000007bffffffffffffffffffffffffffffffffffffffffffffffffffffffff1916827bffffffffffffffffffffffffffffffffffffffffffffffffffffffff1916145b806106a157506106a08261198f565b5b9050919050565b600b60009054906101000a900460ff1681565b6060600080546106ca906139f0565b80601f01602080910402602001604051908101604052809291908181526020018280546106f6906139f0565b80156107435780601f1061071857610100808354040283529160200191610743565b820191906000526020600020905b81548152906001019060200180831161072657829003601f168201915b5050505050905090565b6000610758826119f9565b610797576040517f08c379a000000000000000000000000000000000000000000000000000000000815260040161078e90613637565b60405180910390fd5b6004600083815260200190815260200160002060009054906101000a900473ffffffffffffffffffffffffffffffffffffffff169050919050565b60006107dd82610dc6565b90508073ffffffffffffffffffffffffffffffffffffffff168373ffffffffffffffffffffffffffffffffffffffff16141561084e576040517f08c379a000000000000000000000000000000000000000000000000000000000815260040161084590613697565b60405180910390fd5b8073ffffffffffffffffffffffffffffffffffffffff1661086d611a65565b73ffffffffffffffffffffffffffffffffffffffff16148061089c575061089b81610896611a65565b6115d9565b5b6108db576040517f08c379a00000000000000000000000000000000000000000000000000000000081526004016108d290613597565b60405180910390fd5b6108e58383611a6d565b505050565b600860009054906101000a900473ffffffffffffffffffffffffffffffffffffffff1681565b600e5481565b610927610921611a65565b82611b26565b610966576040517f08c379a000000000000000000000000000000000000000000000000000000000815260040161095d906136b7565b60405180910390fd5b610971838383611c04565b505050565b61097e611a65565b73ffffffffffffffffffffffffffffffffffffffff1661099c611376565b73ffffffffffffffffffffffffffffffffffffffff16146109f2576040517f08c379a00000000000000000000000000000000000000000000000000000000081526004016109e990613657565b60405180910390fd5b600b60009054906101000a900460ff16610a41576040517f08c379a0000000000000000000000000000000000000000000000000000000008152600401610a38906135f7565b60405180910390fd5b82600a8190555081600c9080519060200190610a5e92919061283d565b5080600d9080519060200190610a7592919061283d565b50505050565b600c8054610a88906139f0565b80601f0160208091040260200160405190810160405280929190818152602001828054610ab4906139f0565b8015610b015780601f10610ad657610100808354040283529160200191610b01565b820191906000526020600020905b815481529060010190602001808311610ae457829003601f168201915b505050505081565b6060600080600080600060608060078054610b23906139f0565b80601f0160208091040260200160405190810160405280929190818152602001828054610b4f906139f0565b8015610b9c5780601f10610b7157610100808354040283529160200191610b9c565b820191906000526020600020905b815481529060010190602001808311610b7f57829003601f168201915b50505050509750600860009054906101000a900473ffffffffffffffffffffffffffffffffffffffff169650610bd0611376565b95506009549450600a549350600b60009054906101000a900460ff169250600c8054610bfb906139f0565b80601f0160208091040260200160405190810160405280929190818152602001828054610c27906139f0565b8015610c745780601f10610c4957610100808354040283529160200191610c74565b820191906000526020600020905b815481529060010190602001808311610c5757829003601f168201915b50505050509150600d8054610c88906139f0565b80601f0160208091040260200160405190810160405280929190818152602001828054610cb4906139f0565b8015610d015780601f10610cd657610100808354040283529160200191610d01565b820191906000526020600020905b815481529060010190602001808311610ce457829003601f168201915b505050505090509091929394959697565b600a5481565b610d338383836040518060200160405280600081525061144e565b505050565b60078054610d45906139f0565b80601f0160208091040260200160405190810160405280929190818152602001828054610d71906139f0565b8015610dbe5780601f10610d9357610100808354040283529160200191610dbe565b820191906000526020600020905b815481529060010190602001808311610da157829003601f168201915b505050505081565b6000806002600084815260200190815260200160002060009054906101000a900473ffffffffffffffffffffffffffffffffffffffff169050600073ffffffffffffffffffffffffffffffffffffffff168173ffffffffffffffffffffffffffffffffffffffff161415610e6f576040517f08c379a0000000000000000000000000000000000000000000000000000000008152600401610e66906135d7565b60405180910390fd5b80915050919050565b60008073ffffffffffffffffffffffffffffffffffffffff168273ffffffffffffffffffffffffffffffffffffffff161415610ee9576040517f08c379a0000000000000000000000000000000000000000000000000000000008152600401610ee0906135b7565b60405180910390fd5b600360008373ffffffffffffffffffffffffffffffffffffffff1673ffffffffffffffffffffffffffffffffffffffff168152602001908152602001600020549050919050565b610f38611a65565b73ffffffffffffffffffffffffffffffffffffffff16610f56611376565b73ffffffffffffffffffffffffffffffffffffffff1614610fac576040517f08c379a0000000000000000000000000000000000000000000000000000000008152600401610fa390613657565b60405180910390fd5b610fb66000611e60565b565b610fc0611a65565b73ffffffffffffffffffffffffffffffffffffffff16610fde611376565b73ffffffffffffffffffffffffffffffffffffffff1614611034576040517f08c379a000000000000000000000000000000000000000000000000000000000815260040161102b90613657565b60405180910390fd5b600860009054906101000a900473ffffffffffffffffffffffffffffffffffffffff1673ffffffffffffffffffffffffffffffffffffffff1663a9059cbb33600860009054906101000a900473ffffffffffffffffffffffffffffffffffffffff1673ffffffffffffffffffffffffffffffffffffffff166370a08231306040518263ffffffff1660e01b81526004016110ce9190613325565b60206040518083038186803b1580156110e657600080fd5b505afa1580156110fa573d6000803e3d6000fd5b505050506040513d601f19601f8201168201806040525081019061111e9190612c8e565b6040518363ffffffff1660e01b815260040161113b9291906133c3565b602060405180830381600087803b15801561115557600080fd5b505af1158015611169573d6000803e3d6000fd5b505050506040513d601f19601f8201168201806040525081019061118d9190612bea565b50565b600b60009054906101000a900460ff166111df576040517f08c379a00000000000000000000000000000000000000000000000000000000081526004016111d6906135f7565b60405180910390fd5b600860009054906101000a900473ffffffffffffffffffffffffffffffffffffffff1673ffffffffffffffffffffffffffffffffffffffff166323b872dd3330856040518463ffffffff1660e01b815260040161123e93929190613340565b602060405180830381600087803b15801561125857600080fd5b505af115801561126c573d6000803e3d6000fd5b505050506040513d601f19601f820116820180604052508101906112909190612bea565b5081600960008282546112a39190613801565b92505081905550600e60008154809291906112bd90613a53565b91905055506112ce33600e54611f26565b604051806040016040528083815260200182815250600f6000600e54815260200190815260200160002060008201518160000155602082015181600101908051906020019061131e92919061283d565b509050503373ffffffffffffffffffffffffffffffffffffffff167f5474ce903c2cd33b4ad8b830da193f8bf2db9c281f64fc473a02665b9dc2d20b838360405161136a9291906136f2565b60405180910390a25050565b6000600660009054906101000a900473ffffffffffffffffffffffffffffffffffffffff16905090565b6060600180546113af906139f0565b80601f01602080910402602001604051908101604052809291908181526020018280546113db906139f0565b80156114285780601f106113fd57610100808354040283529160200191611428565b820191906000526020600020905b81548152906001019060200180831161140b57829003601f168201915b5050505050905090565b61144461143d611a65565b8383611f44565b5050565b60095481565b61145f611459611a65565b83611b26565b61149e576040517f08c379a0000000000000000000000000000000000000000000000000000000008152600401611495906136b7565b60405180910390fd5b6114aa848484846120b1565b50505050565b6060611521600d6114c08461210d565b6007806114e2600f60008981526020019081526020016000206000015461210d565b600f600089815260200190815260200160002060010160405160200161150d96959493929190613275565b6040516020818303038152906040526122ba565b6040516020016115319190613253565b6040516020818303038152906040529050919050565b6060600c8054611556906139f0565b80601f0160208091040260200160405190810160405280929190818152602001828054611582906139f0565b80156115cf5780601f106115a4576101008083540402835291602001916115cf565b820191906000526020600020905b8154815290600101906020018083116115b257829003601f168201915b5050505050905090565b6000600560008473ffffffffffffffffffffffffffffffffffffffff1673ffffffffffffffffffffffffffffffffffffffff16815260200190815260200160002060008373ffffffffffffffffffffffffffffffffffffffff1673ffffffffffffffffffffffffffffffffffffffff16815260200190815260200160002060009054906101000a900460ff16905092915050565b611675611a65565b73ffffffffffffffffffffffffffffffffffffffff16611693611376565b73ffffffffffffffffffffffffffffffffffffffff16146116e9576040517f08c379a00000000000000000000000000000000000000000000000000000000081526004016116e090613657565b60405180910390fd5b600b60009054906101000a900460ff16611738576040517f08c379a000000000000000000000000000000000000000000000000000000000815260040161172f906135f7565b60405180910390fd5b6000600b60006101000a81548160ff02191690831515021790555061175b610fb8565b565b611765611a65565b73ffffffffffffffffffffffffffffffffffffffff16611783611376565b73ffffffffffffffffffffffffffffffffffffffff16146117d9576040517f08c379a00000000000000000000000000000000000000000000000000000000081526004016117d090613657565b60405180910390fd5b600073ffffffffffffffffffffffffffffffffffffffff168173ffffffffffffffffffffffffffffffffffffffff161415611849576040517f08c379a0000000000000000000000000000000000000000000000000000000008152600401611840906134f7565b60405180910390fd5b61185281611e60565b50565b600d8054611862906139f0565b80601f016020809104026020016040519081016040528092919081815260200182805461188e906139f0565b80156118db5780601f106118b0576101008083540402835291602001916118db565b820191906000526020600020905b8154815290600101906020018083116118be57829003601f168201915b505050505081565b600f60205280600052604060002060009150905080600001549080600101805461190c906139f0565b80601f0160208091040260200160405190810160405280929190818152602001828054611938906139f0565b80156119855780601f1061195a57610100808354040283529160200191611985565b820191906000526020600020905b81548152906001019060200180831161196857829003601f168201915b5050505050905082565b60007f01ffc9a7000000000000000000000000000000000000000000000000000000007bffffffffffffffffffffffffffffffffffffffffffffffffffffffff1916827bffffffffffffffffffffffffffffffffffffffffffffffffffffffff1916149050919050565b60008073ffffffffffffffffffffffffffffffffffffffff166002600084815260200190815260200160002060009054906101000a900473ffffffffffffffffffffffffffffffffffffffff1673ffffffffffffffffffffffffffffffffffffffff1614159050919050565b600033905090565b816004600083815260200190815260200160002060006101000a81548173ffffffffffffffffffffffffffffffffffffffff021916908373ffffffffffffffffffffffffffffffffffffffff160217905550808273ffffffffffffffffffffffffffffffffffffffff16611ae083610dc6565b73ffffffffffffffffffffffffffffffffffffffff167f8c5be1e5ebec7d5bd14f71427d1e84f3dd0314c0f7b2291e5b200ac8c7c3b92560405160405180910390a45050565b6000611b31826119f9565b611b70576040517f08c379a0000000000000000000000000000000000000000000000000000000008152600401611b6790613577565b60405180910390fd5b6000611b7b83610dc6565b90508073ffffffffffffffffffffffffffffffffffffffff168473ffffffffffffffffffffffffffffffffffffffff161480611bea57508373ffffffffffffffffffffffffffffffffffffffff16611bd28461074d565b73ffffffffffffffffffffffffffffffffffffffff16145b80611bfb5750611bfa81856115d9565b5b91505092915050565b8273ffffffffffffffffffffffffffffffffffffffff16611c2482610dc6565b73ffffffffffffffffffffffffffffffffffffffff1614611c7a576040517f08c379a0000000000000000000000000000000000000000000000000000000008152600401611c7190613677565b60405180910390fd5b600073ffffffffffffffffffffffffffffffffffffffff168273ffffffffffffffffffffffffffffffffffffffff161415611cea576040517f08c379a0000000000000000000000000000000000000000000000000000000008152600401611ce190613537565b60405180910390fd5b611cf5838383612465565b611d00600082611a6d565b6001600360008573ffffffffffffffffffffffffffffffffffffffff1673ffffffffffffffffffffffffffffffffffffffff1681526020019081526020016000206000828254611d5091906138e2565b925050819055506001600360008473ffffffffffffffffffffffffffffffffffffffff1673ffffffffffffffffffffffffffffffffffffffff1681526020019081526020016000206000828254611da79190613801565b92505081905550816002600083815260200190815260200160002060006101000a81548173ffffffffffffffffffffffffffffffffffffffff021916908373ffffffffffffffffffffffffffffffffffffffff160217905550808273ffffffffffffffffffffffffffffffffffffffff168473ffffffffffffffffffffffffffffffffffffffff167fddf252ad1be2c89b69c2b068fc378daa952ba7f163c4a11628f55a4df523b3ef60405160405180910390a4505050565b6000600660009054906101000a900473ffffffffffffffffffffffffffffffffffffffff16905081600660006101000a81548173ffffffffffffffffffffffffffffffffffffffff021916908373ffffffffffffffffffffffffffffffffffffffff1602179055508173ffffffffffffffffffffffffffffffffffffffff168173ffffffffffffffffffffffffffffffffffffffff167f8be0079c531659141344cd1fd0a4f28419497f9722a3daafe3b4186f6b6457e060405160405180910390a35050565b611f4082826040518060200160405280600081525061246a565b5050565b8173ffffffffffffffffffffffffffffffffffffffff168373ffffffffffffffffffffffffffffffffffffffff161415611fb3576040517f08c379a0000000000000000000000000000000000000000000000000000000008152600401611faa90613557565b60405180910390fd5b80600560008573ffffffffffffffffffffffffffffffffffffffff1673ffffffffffffffffffffffffffffffffffffffff16815260200190815260200160002060008473ffffffffffffffffffffffffffffffffffffffff1673ffffffffffffffffffffffffffffffffffffffff16815260200190815260200160002060006101000a81548160ff0219169083151502179055508173ffffffffffffffffffffffffffffffffffffffff168373ffffffffffffffffffffffffffffffffffffffff167f17307eab39ab6107e8899845ad3d59bd9653f200f220920489ca2b5937696c31836040516120a491906133ec565b60405180910390a3505050565b6120bc848484611c04565b6120c8848484846124c5565b612107576040517f08c379a00000000000000000000000000000000000000000000000000000000081526004016120fe906134d7565b60405180910390fd5b50505050565b60606000821415612155576040518060400160405280600181526020017f300000000000000000000000000000000000000000000000000000000000000081525090506122b5565b600082905060005b6000821461218757808061217090613a53565b915050600a826121809190613857565b915061215d565b60008167ffffffffffffffff8111156121c9577f4e487b7100000000000000000000000000000000000000000000000000000000600052604160045260246000fd5b6040519080825280601f01601f1916602001820160405280156121fb5781602001600182028036833780820191505090505b5090505b600085146122ae5760018261221491906138e2565b9150600a856122239190613a9c565b603061222f9190613801565b60f81b81838151811061226b577f4e487b7100000000000000000000000000000000000000000000000000000000600052603260045260246000fd5b60200101907effffffffffffffffffffffffffffffffffffffffffffffffffffffffffffff1916908160001a905350600a856122a79190613857565b94506121ff565b8093505050505b919050565b60606000825114156122dd57604051806020016040528060008152509050612460565b6000604051806060016040528060408152602001614232604091399050600060036002855161230c9190613801565b6123169190613857565b60046123229190613888565b905060006020826123339190613801565b67ffffffffffffffff811115612372577f4e487b7100000000000000000000000000000000000000000000000000000000600052604160045260246000fd5b6040519080825280601f01601f1916602001820160405280156123a45781602001600182028036833780820191505090505b509050818152600183018586518101602084015b8183101561241f576003830192508251603f8160121c1685015160f81b8252600182019150603f81600c1c1685015160f81b8252600182019150603f8160061c1685015160f81b8252600182019150603f811685015160f81b8252600182019150506123b8565b600389510660018114612439576002811461244957612454565b613d3d60f01b6002830352612454565b603d60f81b60018303525b50505050508093505050505b919050565b505050565b612474838361265c565b61248160008484846124c5565b6124c0576040517f08c379a00000000000000000000000000000000000000000000000000000000081526004016124b7906134d7565b60405180910390fd5b505050565b60006124e68473ffffffffffffffffffffffffffffffffffffffff1661282a565b1561264f578373ffffffffffffffffffffffffffffffffffffffff1663150b7a0261250f611a65565b8786866040518563ffffffff1660e01b81526004016125319493929190613377565b602060405180830381600087803b15801561254b57600080fd5b505af192505050801561257c57506040513d601f19601f820116820180604052508101906125799190612c3c565b60015b6125ff573d80600081146125ac576040519150601f19603f3d011682016040523d82523d6000602084013e6125b1565b606091505b506000815114156125f7576040517f08c379a00000000000000000000000000000000000000000000000000000000081526004016125ee906134d7565b60405180910390fd5b805181602001fd5b63150b7a0260e01b7bffffffffffffffffffffffffffffffffffffffffffffffffffffffff1916817bffffffffffffffffffffffffffffffffffffffffffffffffffffffff191614915050612654565b600190505b949350505050565b600073ffffffffffffffffffffffffffffffffffffffff168273ffffffffffffffffffffffffffffffffffffffff1614156126cc576040517f08c379a00000000000000000000000000000000000000000000000000000000081526004016126c390613617565b60405180910390fd5b6126d5816119f9565b15612715576040517f08c379a000000000000000000000000000000000000000000000000000000000815260040161270c90613517565b60405180910390fd5b61272160008383612465565b6001600360008473ffffffffffffffffffffffffffffffffffffffff1673ffffffffffffffffffffffffffffffffffffffff16815260200190815260200160002060008282546127719190613801565b92505081905550816002600083815260200190815260200160002060006101000a81548173ffffffffffffffffffffffffffffffffffffffff021916908373ffffffffffffffffffffffffffffffffffffffff160217905550808273ffffffffffffffffffffffffffffffffffffffff16600073ffffffffffffffffffffffffffffffffffffffff167fddf252ad1be2c89b69c2b068fc378daa952ba7f163c4a11628f55a4df523b3ef60405160405180910390a45050565b600080823b905060008111915050919050565b828054612849906139f0565b90600052602060002090601f01602090048101928261286b57600085556128b2565b82601f1061288457805160ff19168380011785556128b2565b828001600101855582156128b2579182015b828111156128b1578251825591602001919060010190612896565b5b5090506128bf91906128c3565b5090565b5b808211156128dc5760008160009055506001016128c4565b5090565b60006128f36128ee84613747565b613722565b90508281526020810184848401111561290b57600080fd5b6129168482856139ae565b509392505050565b600061293161292c84613778565b613722565b90508281526020810184848401111561294957600080fd5b6129548482856139ae565b509392505050565b60008135905061296b816141d5565b92915050565b600081359050612980816141ec565b92915050565b600081519050612995816141ec565b92915050565b6000813590506129aa81614203565b92915050565b6000815190506129bf81614203565b92915050565b600082601f8301126129d657600080fd5b81356129e68482602086016128e0565b91505092915050565b600082601f830112612a0057600080fd5b8135612a1084826020860161291e565b91505092915050565b600081359050612a288161421a565b92915050565b600081519050612a3d8161421a565b92915050565b600060208284031215612a5557600080fd5b6000612a638482850161295c565b91505092915050565b60008060408385031215612a7f57600080fd5b6000612a8d8582860161295c565b9250506020612a9e8582860161295c565b9150509250929050565b600080600060608486031215612abd57600080fd5b6000612acb8682870161295c565b9350506020612adc8682870161295c565b9250506040612aed86828701612a19565b9150509250925092565b60008060008060808587031215612b0d57600080fd5b6000612b1b8782880161295c565b9450506020612b2c8782880161295c565b9350506040612b3d87828801612a19565b925050606085013567ffffffffffffffff811115612b5a57600080fd5b612b66878288016129c5565b91505092959194509250565b60008060408385031215612b8557600080fd5b6000612b938582860161295c565b9250506020612ba485828601612971565b9150509250929050565b60008060408385031215612bc157600080fd5b6000612bcf8582860161295c565b9250506020612be085828601612a19565b9150509250929050565b600060208284031215612bfc57600080fd5b6000612c0a84828501612986565b91505092915050565b600060208284031215612c2557600080fd5b6000612c338482850161299b565b91505092915050565b600060208284031215612c4e57600080fd5b6000612c5c848285016129b0565b91505092915050565b600060208284031215612c7757600080fd5b6000612c8584828501612a19565b91505092915050565b600060208284031215612ca057600080fd5b6000612cae84828501612a2e565b91505092915050565b60008060408385031215612cca57600080fd5b6000612cd885828601612a19565b925050602083013567ffffffffffffffff811115612cf557600080fd5b612d01858286016129ef565b9150509250929050565b600080600060608486031215612d2057600080fd5b6000612d2e86828701612a19565b935050602084013567ffffffffffffffff811115612d4b57600080fd5b612d57868287016129ef565b925050604084013567ffffffffffffffff811115612d7457600080fd5b612d80868287016129ef565b9150509250925092565b612d9381613916565b82525050565b612da281613928565b82525050565b6000612db3826137be565b612dbd81856137d4565b9350612dcd8185602086016139bd565b612dd681613b89565b840191505092915050565b612dea8161398a565b82525050565b6000612dfb826137c9565b612e0581856137e5565b9350612e158185602086016139bd565b612e1e81613b89565b840191505092915050565b6000612e34826137c9565b612e3e81856137f6565b9350612e4e8185602086016139bd565b80840191505092915050565b60008154612e67816139f0565b612e7181866137f6565b94506001821660008114612e8c5760018114612e9d57612ed0565b60ff19831686528186019350612ed0565b612ea6856137a9565b60005b83811015612ec857815481890152600182019150602081019050612ea9565b838801955050505b50505092915050565b6000612ee66032836137e5565b9150612ef182613b9a565b604082019050919050565b6000612f096026836137e5565b9150612f1482613be9565b604082019050919050565b6000612f2c601c836137e5565b9150612f3782613c38565b602082019050919050565b6000612f4f6023836137f6565b9150612f5a82613c61565b602382019050919050565b6000612f726024836137e5565b9150612f7d82613cb0565b604082019050919050565b6000612f956019836137e5565b9150612fa082613cff565b602082019050919050565b6000612fb86003836137f6565b9150612fc382613d28565b600382019050919050565b6000612fdb602c836137e5565b9150612fe682613d51565b604082019050919050565b6000612ffe6038836137e5565b915061300982613da0565b604082019050919050565b6000613021602a836137e5565b915061302c82613def565b604082019050919050565b60006130446029836137e5565b915061304f82613e3e565b604082019050919050565b60006130676016836137f6565b915061307282613e8d565b601682019050919050565b600061308a6013836137e5565b915061309582613eb6565b602082019050919050565b60006130ad6020836137e5565b91506130b882613edf565b602082019050919050565b60006130d06001836137f6565b91506130db82613f08565b600182019050919050565b60006130f3602c836137e5565b91506130fe82613f31565b604082019050919050565b60006131166020836137e5565b915061312182613f80565b602082019050919050565b60006131396029836137e5565b915061314482613fa9565b604082019050919050565b600061315c6021836137e5565b915061316782613ff8565b604082019050919050565b600061317f6034836137f6565b915061318a82614047565b603482019050919050565b60006131a2601d836137f6565b91506131ad82614096565b601d82019050919050565b60006131c56031836137e5565b91506131d0826140bf565b604082019050919050565b60006131e86028836137f6565b91506131f38261410e565b602882019050919050565b600061320b600a836137f6565b91506132168261415d565b600a82019050919050565b600061322e6027836137f6565b915061323982614186565b602782019050919050565b61324d81613980565b82525050565b600061325e82613195565b915061326a8284612e29565b915081905092915050565b6000613280826131fe565b915061328c8289612e5a565b91506132978261305a565b91506132a38288612e29565b91506132ae826131db565b91506132ba8287612e5a565b91506132c582613221565b91506132d18286612e5a565b91506132dc82613172565b91506132e88285612e29565b91506132f382612f42565b91506132ff8284612e5a565b915061330a82612fab565b9150613315826130c3565b9150819050979650505050505050565b600060208201905061333a6000830184612d8a565b92915050565b60006060820190506133556000830186612d8a565b6133626020830185612d8a565b61336f6040830184613244565b949350505050565b600060808201905061338c6000830187612d8a565b6133996020830186612d8a565b6133a66040830185613244565b81810360608301526133b88184612da8565b905095945050505050565b60006040820190506133d86000830185612d8a565b6133e56020830184613244565b9392505050565b60006020820190506134016000830184612d99565b92915050565b600060208201905061341c6000830184612de1565b92915050565b6000602082019050818103600083015261343c8184612df0565b905092915050565b600061010082019050818103600083015261345f818b612df0565b905061346e602083018a612d8a565b61347b6040830189612d8a565b6134886060830188613244565b6134956080830187613244565b6134a260a0830186612d99565b81810360c08301526134b48185612df0565b905081810360e08301526134c88184612df0565b90509998505050505050505050565b600060208201905081810360008301526134f081612ed9565b9050919050565b6000602082019050818103600083015261351081612efc565b9050919050565b6000602082019050818103600083015261353081612f1f565b9050919050565b6000602082019050818103600083015261355081612f65565b9050919050565b6000602082019050818103600083015261357081612f88565b9050919050565b6000602082019050818103600083015261359081612fce565b9050919050565b600060208201905081810360008301526135b081612ff1565b9050919050565b600060208201905081810360008301526135d081613014565b9050919050565b600060208201905081810360008301526135f081613037565b9050919050565b600060208201905081810360008301526136108161307d565b9050919050565b60006020820190508181036000830152613630816130a0565b9050919050565b60006020820190508181036000830152613650816130e6565b9050919050565b6000602082019050818103600083015261367081613109565b9050919050565b600060208201905081810360008301526136908161312c565b9050919050565b600060208201905081810360008301526136b08161314f565b9050919050565b600060208201905081810360008301526136d0816131b8565b9050919050565b60006020820190506136ec6000830184613244565b92915050565b60006040820190506137076000830185613244565b81810360208301526137198184612df0565b90509392505050565b600061372c61373d565b90506137388282613a22565b919050565b6000604051905090565b600067ffffffffffffffff82111561376257613761613b5a565b5b61376b82613b89565b9050602081019050919050565b600067ffffffffffffffff82111561379357613792613b5a565b5b61379c82613b89565b9050602081019050919050565b60008190508160005260206000209050919050565b600081519050919050565b600081519050919050565b600082825260208201905092915050565b600082825260208201905092915050565b600081905092915050565b600061380c82613980565b915061381783613980565b9250827fffffffffffffffffffffffffffffffffffffffffffffffffffffffffffffffff0382111561384c5761384b613acd565b5b828201905092915050565b600061386282613980565b915061386d83613980565b92508261387d5761387c613afc565b5b828204905092915050565b600061389382613980565b915061389e83613980565b9250817fffffffffffffffffffffffffffffffffffffffffffffffffffffffffffffffff04831182151516156138d7576138d6613acd565b5b828202905092915050565b60006138ed82613980565b91506138f883613980565b92508282101561390b5761390a613acd565b5b828203905092915050565b600061392182613960565b9050919050565b60008115159050919050565b60007fffffffff0000000000000000000000000000000000000000000000000000000082169050919050565b600073ffffffffffffffffffffffffffffffffffffffff82169050919050565b6000819050919050565b60006139958261399c565b9050919050565b60006139a782613960565b9050919050565b82818337600083830152505050565b60005b838110156139db5780820151818401526020810190506139c0565b838111156139ea576000848401525b50505050565b60006002820490506001821680613a0857607f821691505b60208210811415613a1c57613a1b613b2b565b5b50919050565b613a2b82613b89565b810181811067ffffffffffffffff82111715613a4a57613a49613b5a565b5b80604052505050565b6000613a5e82613980565b91507fffffffffffffffffffffffffffffffffffffffffffffffffffffffffffffffff821415613a9157613a90613acd565b5b600182019050919050565b6000613aa782613980565b9150613ab283613980565b925082613ac257613ac1613afc565b5b828206905092915050565b7f4e487b7100000000000000000000000000000000000000000000000000000000600052601160045260246000fd5b7f4e487b7100000000000000000000000000000000000000000000000000000000600052601260045260246000fd5b7f4e487b7100000000000000000000000000000000000000000000000000000000600052602260045260246000fd5b7f4e487b7100000000000000000000000000000000000000000000000000000000600052604160045260246000fd5b6000601f19601f8301169050919050565b7f4552433732313a207472616e7366657220746f206e6f6e20455243373231526560008201527f63656976657220696d706c656d656e7465720000000000000000000000000000602082015250565b7f4f776e61626c653a206e6577206f776e657220697320746865207a65726f206160008201527f6464726573730000000000000000000000000000000000000000000000000000602082015250565b7f4552433732313a20746f6b656e20616c7265616479206d696e74656400000000600082015250565b7f7d2c7b2274726169745f74797065223a224d657373616765222c2276616c756560008201527f223a220000000000000000000000000000000000000000000000000000000000602082015250565b7f4552433732313a207472616e7366657220746f20746865207a65726f2061646460008201527f7265737300000000000000000000000000000000000000000000000000000000602082015250565b7f4552433732313a20617070726f766520746f2063616c6c657200000000000000600082015250565b7f227d5d0000000000000000000000000000000000000000000000000000000000600082015250565b7f4552433732313a206f70657261746f7220717565727920666f72206e6f6e657860008201527f697374656e7420746f6b656e0000000000000000000000000000000000000000602082015250565b7f4552433732313a20617070726f76652063616c6c6572206973206e6f74206f7760008201527f6e6572206e6f7220617070726f76656420666f7220616c6c0000000000000000602082015250565b7f4552433732313a2062616c616e636520717565727920666f7220746865207a6560008201527f726f206164647265737300000000000000000000000000000000000000000000602082015250565b7f4552433732313a206f776e657220717565727920666f72206e6f6e657869737460008201527f656e7420746f6b656e0000000000000000000000000000000000000000000000602082015250565b7f222c20226e616d65223a22537570706f72746572202300000000000000000000600082015250565b7f50726f6a656374206e6f74206163746976652100000000000000000000000000600082015250565b7f4552433732313a206d696e7420746f20746865207a65726f2061646472657373600082015250565b7f7d00000000000000000000000000000000000000000000000000000000000000600082015250565b7f4552433732313a20617070726f76656420717565727920666f72206e6f6e657860008201527f697374656e7420746f6b656e0000000000000000000000000000000000000000602082015250565b7f4f776e61626c653a2063616c6c6572206973206e6f7420746865206f776e6572600082015250565b7f4552433732313a207472616e73666572206f6620746f6b656e2074686174206960008201527f73206e6f74206f776e0000000000000000000000000000000000000000000000602082015250565b7f4552433732313a20617070726f76616c20746f2063757272656e74206f776e6560008201527f7200000000000000000000000000000000000000000000000000000000000000602082015250565b7f222c202261747472696275746573223a205b7b2274726169745f74797065223a60008201527f2022446f6e6174696f6e222c2276616c7565223a000000000000000000000000602082015250565b7f646174613a6170706c69636174696f6e2f6a736f6e3b6261736536342c000000600082015250565b7f4552433732313a207472616e736665722063616c6c6572206973206e6f74206f60008201527f776e6572206e6f7220617070726f766564000000000000000000000000000000602082015250565b7f222c20226465736372697074696f6e223a225468616e6b7320666f722073757060008201527f706f7274696e6720000000000000000000000000000000000000000000000000602082015250565b7f7b22696d616765223a2200000000000000000000000000000000000000000000600082015250565b7f21222c202265787465726e616c5f75726c223a2268747470733a2f2f6574686460008201527f6f6e2e78797a2f00000000000000000000000000000000000000000000000000602082015250565b6141de81613916565b81146141e957600080fd5b50565b6141f581613928565b811461420057600080fd5b50565b61420c81613934565b811461421757600080fd5b50565b61422381613980565b811461422e57600080fd5b5056fe4142434445464748494a4b4c4d4e4f505152535455565758595a6162636465666768696a6b6c6d6e6f707172737475767778797a303132333435363738392b2fa264697066735822122045f633f147f85752429d441c9ae340210e44007cfe5caedf17f033386aa39f8564736f6c63430008040033a26469706673582212207d3a53440aea06c8101a5398839d9053929ece742124b6872edcdbbba41bd2b064736f6c63430008040033",
  "linkReferences": {},
  "deployedLinkReferences": {}
}