{
  "_format": "hh-sol-artifact-1",
  "contractName": "Donations",
  "sourceName": "contracts/Donations.sol",
  "abi": [
    {
      "inputs": [
        {
          "internalType": "address",
          "name": "tokenAddress",
          "type": "address"
        }
      ],
      "stateMutability": "nonpayable",
      "type": "constructor"
    },
    {
      "anonymous": false,
      "inputs": [
        {
          "indexed": true,
          "internalType": "uint256",
          "name": "id",
          "type": "uint256"
        },
        {
          "indexed": true,
          "internalType": "address",
          "name": "sender",
          "type": "address"
        },
        {
          "indexed": false,
          "internalType": "uint256",
          "name": "amount",
          "type": "uint256"
        },
        {
          "indexed": false,
          "internalType": "string",
          "name": "message",
          "type": "string"
        }
      ],
      "name": "Donation",
      "type": "event"
    },
    {
      "anonymous": false,
      "inputs": [
        {
          "indexed": true,
          "internalType": "uint256",
          "name": "id",
          "type": "uint256"
        },
        {
          "indexed": true,
          "internalType": "string",
          "name": "title",
          "type": "string"
        },
        {
          "indexed": true,
          "internalType": "address",
          "name": "owner",
          "type": "address"
        }
      ],
      "name": "NewProject",
      "type": "event"
    },
    {
      "anonymous": false,
      "inputs": [
        {
          "indexed": true,
          "internalType": "address",
          "name": "previousOwner",
          "type": "address"
        },
        {
          "indexed": true,
          "internalType": "address",
          "name": "newOwner",
          "type": "address"
        }
      ],
      "name": "OwnershipTransferred",
      "type": "event"
    },
    {
      "inputs": [
        {
          "internalType": "uint256",
          "name": "id",
          "type": "uint256"
        },
        {
          "internalType": "uint256",
          "name": "amount",
          "type": "uint256"
        },
        {
          "internalType": "string",
          "name": "message",
          "type": "string"
        }
      ],
      "name": "donate",
      "outputs": [],
      "stateMutability": "nonpayable",
      "type": "function"
    },
    {
      "inputs": [
        {
          "internalType": "uint256",
          "name": "id",
          "type": "uint256"
        },
        {
          "internalType": "uint256",
          "name": "goal",
          "type": "uint256"
        },
        {
          "internalType": "string",
          "name": "styling",
          "type": "string"
        }
      ],
      "name": "editProject",
      "outputs": [],
      "stateMutability": "nonpayable",
      "type": "function"
    },
    {
      "inputs": [
        {
          "internalType": "uint256",
          "name": "id",
          "type": "uint256"
        },
        {
          "internalType": "string",
          "name": "tokenUri",
          "type": "string"
        }
      ],
      "name": "editProjectToken",
      "outputs": [],
      "stateMutability": "nonpayable",
      "type": "function"
    },
    {
      "inputs": [
        {
          "internalType": "uint256",
          "name": "id",
          "type": "uint256"
        }
      ],
      "name": "endProject",
      "outputs": [],
      "stateMutability": "nonpayable",
      "type": "function"
    },
    {
      "inputs": [],
      "name": "owner",
      "outputs": [
        {
          "internalType": "address",
          "name": "",
          "type": "address"
        }
      ],
      "stateMutability": "view",
      "type": "function"
    },
    {
      "inputs": [
        {
          "internalType": "uint256",
          "name": "",
          "type": "uint256"
        }
      ],
      "name": "projects",
      "outputs": [
        {
          "internalType": "contract IERC20",
          "name": "coin",
          "type": "address"
        },
        {
          "internalType": "address",
          "name": "owner",
          "type": "address"
        },
        {
          "internalType": "string",
          "name": "title",
          "type": "string"
        },
        {
          "internalType": "uint256",
          "name": "balance",
          "type": "uint256"
        },
        {
          "internalType": "uint256",
          "name": "goal",
          "type": "uint256"
        },
        {
          "internalType": "string",
          "name": "styling",
          "type": "string"
        },
        {
          "internalType": "bool",
          "name": "active",
          "type": "bool"
        }
      ],
      "stateMutability": "view",
      "type": "function"
    },
    {
      "inputs": [],
      "name": "renounceOwnership",
      "outputs": [],
      "stateMutability": "nonpayable",
      "type": "function"
    },
    {
      "inputs": [
        {
          "internalType": "address",
          "name": "coin",
          "type": "address"
        },
        {
          "internalType": "string",
          "name": "title",
          "type": "string"
        },
        {
          "internalType": "uint256",
          "name": "goal",
          "type": "uint256"
        },
        {
          "internalType": "string",
          "name": "styling",
          "type": "string"
        },
        {
          "internalType": "string",
          "name": "tokenUri",
          "type": "string"
        }
      ],
      "name": "startProject",
      "outputs": [],
      "stateMutability": "nonpayable",
      "type": "function"
    },
    {
      "inputs": [
        {
          "internalType": "string",
          "name": "",
          "type": "string"
        }
      ],
      "name": "titles",
      "outputs": [
        {
          "internalType": "uint256",
          "name": "",
          "type": "uint256"
        }
      ],
      "stateMutability": "view",
      "type": "function"
    },
    {
      "inputs": [
        {
          "internalType": "address",
          "name": "newOwner",
          "type": "address"
        }
      ],
      "name": "transferOwnership",
      "outputs": [],
      "stateMutability": "nonpayable",
      "type": "function"
    }
  ],
  "bytecode": "0x608060405260016002553480156200001657600080fd5b5060405162001e2a38038062001e2a83398181016040528101906200003c919062000187565b6200005c62000050620000a460201b60201c565b620000ac60201b60201c565b80600160006101000a81548173ffffffffffffffffffffffffffffffffffffffff021916908373ffffffffffffffffffffffffffffffffffffffff1602179055505062000201565b600033905090565b60008060009054906101000a900473ffffffffffffffffffffffffffffffffffffffff169050816000806101000a81548173ffffffffffffffffffffffffffffffffffffffff021916908373ffffffffffffffffffffffffffffffffffffffff1602179055508173ffffffffffffffffffffffffffffffffffffffff168173ffffffffffffffffffffffffffffffffffffffff167f8be0079c531659141344cd1fd0a4f28419497f9722a3daafe3b4186f6b6457e060405160405180910390a35050565b6000815190506200018181620001e7565b92915050565b6000602082840312156200019a57600080fd5b6000620001aa8482850162000170565b91505092915050565b6000620001c082620001c7565b9050919050565b600073ffffffffffffffffffffffffffffffffffffffff82169050919050565b620001f281620001b3565b8114620001fe57600080fd5b50565b611c1980620002116000396000f3fe608060405234801561001057600080fd5b506004361061009e5760003560e01c80638da5cb5b116100665780638da5cb5b14610137578063a0672a2c14610155578063a1f71b0b14610171578063e3d42e87146101a1578063f2fde38b146101bd5761009e565b8063107046bd146100a357806316c3cdf5146100d95780634b7c6ce6146100f5578063715018a614610111578063744bc3691461011b575b600080fd5b6100bd60048036038101906100b8919061130b565b6101d9565b6040516100d09796959493929190611652565b60405180910390f35b6100f360048036038101906100ee9190611388565b610378565b005b61010f600480360381019061010a9190611388565b6105b8565b005b61011961070e565b005b6101356004803603810190610130919061130b565b610796565b005b61013f6109ad565b60405161014c919061158d565b60405180910390f35b61016f600480360381019061016a91906111e2565b6109d6565b005b61018b600480360381019061018691906112ca565b610cdf565b604051610198919061176f565b60405180910390f35b6101bb60048036038101906101b69190611334565b610d0d565b005b6101d760048036038101906101d291906111b9565b610eab565b005b60036020528060005260406000206000915090508060000160009054906101000a900473ffffffffffffffffffffffffffffffffffffffff16908060010160009054906101000a900473ffffffffffffffffffffffffffffffffffffffff16908060020180546102489061195e565b80601f01602080910402602001604051908101604052809291908181526020018280546102749061195e565b80156102c15780601f10610296576101008083540402835291602001916102c1565b820191906000526020600020905b8154815290600101906020018083116102a457829003601f168201915b5050505050908060030154908060040154908060050180546102e29061195e565b80601f016020809104026020016040519081016040528092919081815260200182805461030e9061195e565b801561035b5780601f106103305761010080835404028352916020019161035b565b820191906000526020600020905b81548152906001019060200180831161033e57829003601f168201915b5050505050908060060160009054906101000a900460ff16905087565b826003600082815260200190815260200160002060060160009054906101000a900460ff166103dc576040517f08c379a00000000000000000000000000000000000000000000000000000000081526004016103d3906116ef565b60405180910390fd5b6003600085815260200190815260200160002060000160009054906101000a900473ffffffffffffffffffffffffffffffffffffffff1673ffffffffffffffffffffffffffffffffffffffff166323b872dd3330866040518463ffffffff1660e01b815260040161044f939291906115a8565b602060405180830381600087803b15801561046957600080fd5b505af115801561047d573d6000803e3d6000fd5b505050506040513d601f19601f820116820180604052508101906104a191906112a1565b50826003600086815260200190815260200160002060030160008282546104c89190611848565b92505081905550600160009054906101000a900473ffffffffffffffffffffffffffffffffffffffff1673ffffffffffffffffffffffffffffffffffffffff1663731133e9338660016040518463ffffffff1660e01b815260040161052f93929190611608565b600060405180830381600087803b15801561054957600080fd5b505af115801561055d573d6000803e3d6000fd5b505050503373ffffffffffffffffffffffffffffffffffffffff16847fae959bbb98142743e209f3538d8da6fedb612ad3a0142ecec18fd4dc09cf642585856040516105aa92919061178a565b60405180910390a350505050565b826003600082815260200190815260200160002060010160009054906101000a900473ffffffffffffffffffffffffffffffffffffffff1673ffffffffffffffffffffffffffffffffffffffff163373ffffffffffffffffffffffffffffffffffffffff161461065d576040517f08c379a00000000000000000000000000000000000000000000000000000000081526004016106549061174f565b60405180910390fd5b836003600082815260200190815260200160002060060160009054906101000a900460ff166106c1576040517f08c379a00000000000000000000000000000000000000000000000000000000081526004016106b8906116ef565b60405180910390fd5b8360036000878152602001908152602001600020600401819055508260036000878152602001908152602001600020600501908051906020019061070692919061106f565b505050505050565b610716610fa3565b73ffffffffffffffffffffffffffffffffffffffff166107346109ad565b73ffffffffffffffffffffffffffffffffffffffff161461078a576040517f08c379a00000000000000000000000000000000000000000000000000000000081526004016107819061170f565b60405180910390fd5b6107946000610fab565b565b806003600082815260200190815260200160002060010160009054906101000a900473ffffffffffffffffffffffffffffffffffffffff1673ffffffffffffffffffffffffffffffffffffffff163373ffffffffffffffffffffffffffffffffffffffff161461083b576040517f08c379a00000000000000000000000000000000000000000000000000000000081526004016108329061174f565b60405180910390fd5b816003600082815260200190815260200160002060060160009054906101000a900460ff1661089f576040517f08c379a0000000000000000000000000000000000000000000000000000000008152600401610896906116ef565b60405180910390fd5b60006003600085815260200190815260200160002060060160006101000a81548160ff0219169083151502179055506003600084815260200190815260200160002060000160009054906101000a900473ffffffffffffffffffffffffffffffffffffffff1673ffffffffffffffffffffffffffffffffffffffff1663a9059cbb3360036000878152602001908152602001600020600301546040518363ffffffff1660e01b81526004016109559291906115df565b602060405180830381600087803b15801561096f57600080fd5b505af1158015610983573d6000803e3d6000fd5b505050506040513d601f19601f820116820180604052508101906109a791906112a1565b50505050565b60008060009054906101000a900473ffffffffffffffffffffffffffffffffffffffff16905090565b60006004856040516109e89190611576565b90815260200160405180910390205414610a37576040517f08c379a0000000000000000000000000000000000000000000000000000000008152600401610a2e9061172f565b60405180910390fd5b6040518060e001604052808673ffffffffffffffffffffffffffffffffffffffff1681526020013373ffffffffffffffffffffffffffffffffffffffff168152602001858152602001600081526020018481526020018381526020016001151581525060036000600254815260200190815260200160002060008201518160000160006101000a81548173ffffffffffffffffffffffffffffffffffffffff021916908373ffffffffffffffffffffffffffffffffffffffff16021790555060208201518160010160006101000a81548173ffffffffffffffffffffffffffffffffffffffff021916908373ffffffffffffffffffffffffffffffffffffffff1602179055506040820151816002019080519060200190610b5992919061106f565b50606082015181600301556080820151816004015560a0820151816005019080519060200190610b8a92919061106f565b5060c08201518160060160006101000a81548160ff021916908315150217905550905050600160009054906101000a900473ffffffffffffffffffffffffffffffffffffffff1673ffffffffffffffffffffffffffffffffffffffff1663782f08ae600254836040518363ffffffff1660e01b8152600401610c0d92919061178a565b600060405180830381600087803b158015610c2757600080fd5b505af1158015610c3b573d6000803e3d6000fd5b50505050600254600485604051610c529190611576565b9081526020016040518091039020819055503373ffffffffffffffffffffffffffffffffffffffff1684604051610c899190611576565b60405180910390206002547fc0da660b30cae13df9ca822dc9c4a728e4e0833b6ba1eda62af70f182352b50760405160405180910390a460026000815480929190610cd3906119c1565b91905055505050505050565b6004818051602081018201805184825260208301602085012081835280955050505050506000915090505481565b816003600082815260200190815260200160002060010160009054906101000a900473ffffffffffffffffffffffffffffffffffffffff1673ffffffffffffffffffffffffffffffffffffffff163373ffffffffffffffffffffffffffffffffffffffff1614610db2576040517f08c379a0000000000000000000000000000000000000000000000000000000008152600401610da99061174f565b60405180910390fd5b826003600082815260200190815260200160002060060160009054906101000a900460ff16610e16576040517f08c379a0000000000000000000000000000000000000000000000000000000008152600401610e0d906116ef565b60405180910390fd5b600160009054906101000a900473ffffffffffffffffffffffffffffffffffffffff1673ffffffffffffffffffffffffffffffffffffffff1663782f08ae85856040518363ffffffff1660e01b8152600401610e7392919061178a565b600060405180830381600087803b158015610e8d57600080fd5b505af1158015610ea1573d6000803e3d6000fd5b5050505050505050565b610eb3610fa3565b73ffffffffffffffffffffffffffffffffffffffff16610ed16109ad565b73ffffffffffffffffffffffffffffffffffffffff1614610f27576040517f08c379a0000000000000000000000000000000000000000000000000000000008152600401610f1e9061170f565b60405180910390fd5b600073ffffffffffffffffffffffffffffffffffffffff168173ffffffffffffffffffffffffffffffffffffffff161415610f97576040517f08c379a0000000000000000000000000000000000000000000000000000000008152600401610f8e906116cf565b60405180910390fd5b610fa081610fab565b50565b600033905090565b60008060009054906101000a900473ffffffffffffffffffffffffffffffffffffffff169050816000806101000a81548173ffffffffffffffffffffffffffffffffffffffff021916908373ffffffffffffffffffffffffffffffffffffffff1602179055508173ffffffffffffffffffffffffffffffffffffffff168173ffffffffffffffffffffffffffffffffffffffff167f8be0079c531659141344cd1fd0a4f28419497f9722a3daafe3b4186f6b6457e060405160405180910390a35050565b82805461107b9061195e565b90600052602060002090601f01602090048101928261109d57600085556110e4565b82601f106110b657805160ff19168380011785556110e4565b828001600101855582156110e4579182015b828111156110e35782518255916020019190600101906110c8565b5b5090506110f191906110f5565b5090565b5b8082111561110e5760008160009055506001016110f6565b5090565b6000611125611120846117df565b6117ba565b90508281526020810184848401111561113d57600080fd5b61114884828561191c565b509392505050565b60008135905061115f81611b9e565b92915050565b60008151905061117481611bb5565b92915050565b600082601f83011261118b57600080fd5b813561119b848260208601611112565b91505092915050565b6000813590506111b381611bcc565b92915050565b6000602082840312156111cb57600080fd5b60006111d984828501611150565b91505092915050565b600080600080600060a086880312156111fa57600080fd5b600061120888828901611150565b955050602086013567ffffffffffffffff81111561122557600080fd5b6112318882890161117a565b9450506040611242888289016111a4565b935050606086013567ffffffffffffffff81111561125f57600080fd5b61126b8882890161117a565b925050608086013567ffffffffffffffff81111561128857600080fd5b6112948882890161117a565b9150509295509295909350565b6000602082840312156112b357600080fd5b60006112c184828501611165565b91505092915050565b6000602082840312156112dc57600080fd5b600082013567ffffffffffffffff8111156112f657600080fd5b6113028482850161117a565b91505092915050565b60006020828403121561131d57600080fd5b600061132b848285016111a4565b91505092915050565b6000806040838503121561134757600080fd5b6000611355858286016111a4565b925050602083013567ffffffffffffffff81111561137257600080fd5b61137e8582860161117a565b9150509250929050565b60008060006060848603121561139d57600080fd5b60006113ab868287016111a4565b93505060206113bc868287016111a4565b925050604084013567ffffffffffffffff8111156113d957600080fd5b6113e58682870161117a565b9150509250925092565b6113f88161189e565b82525050565b611407816118b0565b82525050565b611416816118e6565b82525050565b6114258161190a565b82525050565b600061143682611810565b611440818561182c565b935061145081856020860161192b565b61145981611a97565b840191505092915050565b600061146f82611810565b611479818561183d565b935061148981856020860161192b565b80840191505092915050565b60006114a260268361182c565b91506114ad82611aa8565b604082019050919050565b60006114c560138361182c565b91506114d082611af7565b602082019050919050565b60006114e860208361182c565b91506114f382611b20565b602082019050919050565b600061150b60148361182c565b915061151682611b49565b602082019050919050565b600061152e60008361181b565b915061153982611b72565b600082019050919050565b600061155160128361182c565b915061155c82611b75565b602082019050919050565b611570816118dc565b82525050565b60006115828284611464565b915081905092915050565b60006020820190506115a260008301846113ef565b92915050565b60006060820190506115bd60008301866113ef565b6115ca60208301856113ef565b6115d76040830184611567565b949350505050565b60006040820190506115f460008301856113ef565b6116016020830184611567565b9392505050565b600060808201905061161d60008301866113ef565b61162a6020830185611567565b611637604083018461141c565b818103606083015261164881611521565b9050949350505050565b600060e082019050611667600083018a61140d565b61167460208301896113ef565b8181036040830152611686818861142b565b90506116956060830187611567565b6116a26080830186611567565b81810360a08301526116b4818561142b565b90506116c360c08301846113fe565b98975050505050505050565b600060208201905081810360008301526116e881611495565b9050919050565b60006020820190508181036000830152611708816114b8565b9050919050565b60006020820190508181036000830152611728816114db565b9050919050565b60006020820190508181036000830152611748816114fe565b9050919050565b6000602082019050818103600083015261176881611544565b9050919050565b60006020820190506117846000830184611567565b92915050565b600060408201905061179f6000830185611567565b81810360208301526117b1818461142b565b90509392505050565b60006117c46117d5565b90506117d08282611990565b919050565b6000604051905090565b600067ffffffffffffffff8211156117fa576117f9611a68565b5b61180382611a97565b9050602081019050919050565b600081519050919050565b600082825260208201905092915050565b600082825260208201905092915050565b600081905092915050565b6000611853826118dc565b915061185e836118dc565b9250827fffffffffffffffffffffffffffffffffffffffffffffffffffffffffffffffff0382111561189357611892611a0a565b5b828201905092915050565b60006118a9826118bc565b9050919050565b60008115159050919050565b600073ffffffffffffffffffffffffffffffffffffffff82169050919050565b6000819050919050565b60006118f1826118f8565b9050919050565b6000611903826118bc565b9050919050565b6000611915826118dc565b9050919050565b82818337600083830152505050565b60005b8381101561194957808201518184015260208101905061192e565b83811115611958576000848401525b50505050565b6000600282049050600182168061197657607f821691505b6020821081141561198a57611989611a39565b5b50919050565b61199982611a97565b810181811067ffffffffffffffff821117156119b8576119b7611a68565b5b80604052505050565b60006119cc826118dc565b91507fffffffffffffffffffffffffffffffffffffffffffffffffffffffffffffffff8214156119ff576119fe611a0a565b5b600182019050919050565b7f4e487b7100000000000000000000000000000000000000000000000000000000600052601160045260246000fd5b7f4e487b7100000000000000000000000000000000000000000000000000000000600052602260045260246000fd5b7f4e487b7100000000000000000000000000000000000000000000000000000000600052604160045260246000fd5b6000601f19601f8301169050919050565b7f4f776e61626c653a206e6577206f776e657220697320746865207a65726f206160008201527f6464726573730000000000000000000000000000000000000000000000000000602082015250565b7f50726f6a656374206e6f74206163746976652100000000000000000000000000600082015250565b7f4f776e61626c653a2063616c6c6572206973206e6f7420746865206f776e6572600082015250565b7f5469746c6520616c726561647920657869737473000000000000000000000000600082015250565b50565b7f4e6f742070726f6a656374206f776e6572210000000000000000000000000000600082015250565b611ba78161189e565b8114611bb257600080fd5b50565b611bbe816118b0565b8114611bc957600080fd5b50565b611bd5816118dc565b8114611be057600080fd5b5056fea264697066735822122091d98a00f4c8dcb2c8b0a81e350707df5638e4bce954a9051d114d5063f3efd864736f6c63430008040033",
  "linkReferences": {},
  "deployedLinkReferences": {}
}