{
  "_format": "hh-sol-artifact-1",
  "contractName": "Donations",
  "sourceName": "contracts/Donations.sol",
  "abi": [
    {
      "inputs": [
        {
          "internalType": "address",
          "name": "tokenAddress",
          "type": "address"
        }
      ],
      "stateMutability": "nonpayable",
      "type": "constructor"
    },
    {
      "anonymous": false,
      "inputs": [
        {
          "indexed": true,
          "internalType": "uint256",
          "name": "id",
          "type": "uint256"
        },
        {
          "indexed": true,
          "internalType": "address",
          "name": "sender",
          "type": "address"
        },
        {
          "indexed": false,
          "internalType": "uint256",
          "name": "amount",
          "type": "uint256"
        },
        {
          "indexed": false,
          "internalType": "string",
          "name": "message",
          "type": "string"
        }
      ],
      "name": "Donation",
      "type": "event"
    },
    {
      "anonymous": false,
      "inputs": [
        {
          "indexed": true,
          "internalType": "uint256",
          "name": "id",
          "type": "uint256"
        },
        {
          "indexed": true,
          "internalType": "string",
          "name": "title",
          "type": "string"
        },
        {
          "indexed": true,
          "internalType": "address",
          "name": "owner",
          "type": "address"
        }
      ],
      "name": "NewProject",
      "type": "event"
    },
    {
      "anonymous": false,
      "inputs": [
        {
          "indexed": true,
          "internalType": "address",
          "name": "previousOwner",
          "type": "address"
        },
        {
          "indexed": true,
          "internalType": "address",
          "name": "newOwner",
          "type": "address"
        }
      ],
      "name": "OwnershipTransferred",
      "type": "event"
    },
    {
      "inputs": [
        {
          "internalType": "uint256",
          "name": "id",
          "type": "uint256"
        },
        {
          "internalType": "uint256",
          "name": "amount",
          "type": "uint256"
        },
        {
          "internalType": "string",
          "name": "message",
          "type": "string"
        }
      ],
      "name": "donate",
      "outputs": [],
      "stateMutability": "nonpayable",
      "type": "function"
    },
    {
      "inputs": [
        {
          "internalType": "uint256",
          "name": "id",
          "type": "uint256"
        },
        {
          "internalType": "uint256",
          "name": "goal",
          "type": "uint256"
        },
        {
          "internalType": "string",
          "name": "uri",
          "type": "string"
        }
      ],
      "name": "editProject",
      "outputs": [],
      "stateMutability": "nonpayable",
      "type": "function"
    },
    {
      "inputs": [
        {
          "internalType": "uint256",
          "name": "id",
          "type": "uint256"
        }
      ],
      "name": "endProject",
      "outputs": [],
      "stateMutability": "nonpayable",
      "type": "function"
    },
    {
      "inputs": [],
      "name": "owner",
      "outputs": [
        {
          "internalType": "address",
          "name": "",
          "type": "address"
        }
      ],
      "stateMutability": "view",
      "type": "function"
    },
    {
      "inputs": [
        {
          "internalType": "uint256",
          "name": "",
          "type": "uint256"
        }
      ],
      "name": "projects",
      "outputs": [
        {
          "internalType": "contract IERC20",
          "name": "coin",
          "type": "address"
        },
        {
          "internalType": "address",
          "name": "owner",
          "type": "address"
        },
        {
          "internalType": "string",
          "name": "title",
          "type": "string"
        },
        {
          "internalType": "uint256",
          "name": "balance",
          "type": "uint256"
        },
        {
          "internalType": "uint256",
          "name": "goal",
          "type": "uint256"
        },
        {
          "internalType": "string",
          "name": "uri",
          "type": "string"
        },
        {
          "internalType": "bool",
          "name": "active",
          "type": "bool"
        }
      ],
      "stateMutability": "view",
      "type": "function"
    },
    {
      "inputs": [],
      "name": "renounceOwnership",
      "outputs": [],
      "stateMutability": "nonpayable",
      "type": "function"
    },
    {
      "inputs": [
        {
          "internalType": "address",
          "name": "coin",
          "type": "address"
        },
        {
          "internalType": "string",
          "name": "title",
          "type": "string"
        },
        {
          "internalType": "uint256",
          "name": "goal",
          "type": "uint256"
        },
        {
          "internalType": "string",
          "name": "uri",
          "type": "string"
        }
      ],
      "name": "startProject",
      "outputs": [],
      "stateMutability": "nonpayable",
      "type": "function"
    },
    {
      "inputs": [
        {
          "internalType": "string",
          "name": "",
          "type": "string"
        }
      ],
      "name": "titles",
      "outputs": [
        {
          "internalType": "uint256",
          "name": "",
          "type": "uint256"
        }
      ],
      "stateMutability": "view",
      "type": "function"
    },
    {
      "inputs": [
        {
          "internalType": "address",
          "name": "newOwner",
          "type": "address"
        }
      ],
      "name": "transferOwnership",
      "outputs": [],
      "stateMutability": "nonpayable",
      "type": "function"
    }
  ],
  "bytecode": "0x608060405260016002553480156200001657600080fd5b5060405162001c7338038062001c7383398181016040528101906200003c919062000187565b6200005c62000050620000a460201b60201c565b620000ac60201b60201c565b80600160006101000a81548173ffffffffffffffffffffffffffffffffffffffff021916908373ffffffffffffffffffffffffffffffffffffffff1602179055505062000201565b600033905090565b60008060009054906101000a900473ffffffffffffffffffffffffffffffffffffffff169050816000806101000a81548173ffffffffffffffffffffffffffffffffffffffff021916908373ffffffffffffffffffffffffffffffffffffffff1602179055508173ffffffffffffffffffffffffffffffffffffffff168173ffffffffffffffffffffffffffffffffffffffff167f8be0079c531659141344cd1fd0a4f28419497f9722a3daafe3b4186f6b6457e060405160405180910390a35050565b6000815190506200018181620001e7565b92915050565b6000602082840312156200019a57600080fd5b6000620001aa8482850162000170565b91505092915050565b6000620001c082620001c7565b9050919050565b600073ffffffffffffffffffffffffffffffffffffffff82169050919050565b620001f281620001b3565b8114620001fe57600080fd5b50565b611a6280620002116000396000f3fe608060405234801561001057600080fd5b50600436106100935760003560e01c8063715018a611610066578063715018a614610122578063744bc3691461012c5780638da5cb5b14610148578063a1f71b0b14610166578063f2fde38b1461019657610093565b8063107046bd1461009857806316c3cdf5146100ce5780634b7c6ce6146100ea578063614c54b014610106575b600080fd5b6100b260048036038101906100ad91906111a8565b6101b2565b6040516100c5979695949392919061149b565b60405180910390f35b6100e860048036038101906100e391906111d1565b610351565b005b61010460048036038101906100ff91906111d1565b610591565b005b610120600480360381019061011b91906110ab565b610776565b005b61012a610a7e565b005b610146600480360381019061014191906111a8565b610b06565b005b610150610d1d565b60405161015d91906113d6565b60405180910390f35b610180600480360381019061017b9190611167565b610d46565b60405161018d91906115b8565b60405180910390f35b6101b060048036038101906101ab9190611082565b610d74565b005b60036020528060005260406000206000915090508060000160009054906101000a900473ffffffffffffffffffffffffffffffffffffffff16908060010160009054906101000a900473ffffffffffffffffffffffffffffffffffffffff1690806002018054610221906117a7565b80601f016020809104026020016040519081016040528092919081815260200182805461024d906117a7565b801561029a5780601f1061026f5761010080835404028352916020019161029a565b820191906000526020600020905b81548152906001019060200180831161027d57829003601f168201915b5050505050908060030154908060040154908060050180546102bb906117a7565b80601f01602080910402602001604051908101604052809291908181526020018280546102e7906117a7565b80156103345780601f1061030957610100808354040283529160200191610334565b820191906000526020600020905b81548152906001019060200180831161031757829003601f168201915b5050505050908060060160009054906101000a900460ff16905087565b826003600082815260200190815260200160002060060160009054906101000a900460ff166103b5576040517f08c379a00000000000000000000000000000000000000000000000000000000081526004016103ac90611538565b60405180910390fd5b6003600085815260200190815260200160002060000160009054906101000a900473ffffffffffffffffffffffffffffffffffffffff1673ffffffffffffffffffffffffffffffffffffffff166323b872dd3330866040518463ffffffff1660e01b8152600401610428939291906113f1565b602060405180830381600087803b15801561044257600080fd5b505af1158015610456573d6000803e3d6000fd5b505050506040513d601f19601f8201168201806040525081019061047a919061113e565b50826003600086815260200190815260200160002060030160008282546104a19190611691565b92505081905550600160009054906101000a900473ffffffffffffffffffffffffffffffffffffffff1673ffffffffffffffffffffffffffffffffffffffff1663731133e9338660016040518463ffffffff1660e01b815260040161050893929190611451565b600060405180830381600087803b15801561052257600080fd5b505af1158015610536573d6000803e3d6000fd5b505050503373ffffffffffffffffffffffffffffffffffffffff16847fae959bbb98142743e209f3538d8da6fedb612ad3a0142ecec18fd4dc09cf642585856040516105839291906115d3565b60405180910390a350505050565b826003600082815260200190815260200160002060010160009054906101000a900473ffffffffffffffffffffffffffffffffffffffff1673ffffffffffffffffffffffffffffffffffffffff163373ffffffffffffffffffffffffffffffffffffffff1614610636576040517f08c379a000000000000000000000000000000000000000000000000000000000815260040161062d90611598565b60405180910390fd5b836003600082815260200190815260200160002060060160009054906101000a900460ff1661069a576040517f08c379a000000000000000000000000000000000000000000000000000000000815260040161069190611538565b60405180910390fd5b836003600087815260200190815260200160002060040181905550826003600087815260200190815260200160002060050190805190602001906106df929190610f38565b50600160009054906101000a900473ffffffffffffffffffffffffffffffffffffffff1673ffffffffffffffffffffffffffffffffffffffff1663782f08ae86856040518363ffffffff1660e01b815260040161073d9291906115d3565b600060405180830381600087803b15801561075757600080fd5b505af115801561076b573d6000803e3d6000fd5b505050505050505050565b600060048460405161078891906113bf565b908152602001604051809103902054146107d7576040517f08c379a00000000000000000000000000000000000000000000000000000000081526004016107ce90611578565b60405180910390fd5b6040518060e001604052808573ffffffffffffffffffffffffffffffffffffffff1681526020013373ffffffffffffffffffffffffffffffffffffffff168152602001848152602001600081526020018381526020018281526020016001151581525060036000600254815260200190815260200160002060008201518160000160006101000a81548173ffffffffffffffffffffffffffffffffffffffff021916908373ffffffffffffffffffffffffffffffffffffffff16021790555060208201518160010160006101000a81548173ffffffffffffffffffffffffffffffffffffffff021916908373ffffffffffffffffffffffffffffffffffffffff16021790555060408201518160020190805190602001906108f9929190610f38565b50606082015181600301556080820151816004015560a082015181600501908051906020019061092a929190610f38565b5060c08201518160060160006101000a81548160ff021916908315150217905550905050600160009054906101000a900473ffffffffffffffffffffffffffffffffffffffff1673ffffffffffffffffffffffffffffffffffffffff1663782f08ae600254836040518363ffffffff1660e01b81526004016109ad9291906115d3565b600060405180830381600087803b1580156109c757600080fd5b505af11580156109db573d6000803e3d6000fd5b505050506002546004846040516109f291906113bf565b9081526020016040518091039020819055503373ffffffffffffffffffffffffffffffffffffffff1683604051610a2991906113bf565b60405180910390206002547fc0da660b30cae13df9ca822dc9c4a728e4e0833b6ba1eda62af70f182352b50760405160405180910390a460026000815480929190610a739061180a565b919050555050505050565b610a86610e6c565b73ffffffffffffffffffffffffffffffffffffffff16610aa4610d1d565b73ffffffffffffffffffffffffffffffffffffffff1614610afa576040517f08c379a0000000000000000000000000000000000000000000000000000000008152600401610af190611558565b60405180910390fd5b610b046000610e74565b565b806003600082815260200190815260200160002060010160009054906101000a900473ffffffffffffffffffffffffffffffffffffffff1673ffffffffffffffffffffffffffffffffffffffff163373ffffffffffffffffffffffffffffffffffffffff1614610bab576040517f08c379a0000000000000000000000000000000000000000000000000000000008152600401610ba290611598565b60405180910390fd5b816003600082815260200190815260200160002060060160009054906101000a900460ff16610c0f576040517f08c379a0000000000000000000000000000000000000000000000000000000008152600401610c0690611538565b60405180910390fd5b60006003600085815260200190815260200160002060060160006101000a81548160ff0219169083151502179055506003600084815260200190815260200160002060000160009054906101000a900473ffffffffffffffffffffffffffffffffffffffff1673ffffffffffffffffffffffffffffffffffffffff1663a9059cbb3360036000878152602001908152602001600020600301546040518363ffffffff1660e01b8152600401610cc5929190611428565b602060405180830381600087803b158015610cdf57600080fd5b505af1158015610cf3573d6000803e3d6000fd5b505050506040513d601f19601f82011682018060405250810190610d17919061113e565b50505050565b60008060009054906101000a900473ffffffffffffffffffffffffffffffffffffffff16905090565b6004818051602081018201805184825260208301602085012081835280955050505050506000915090505481565b610d7c610e6c565b73ffffffffffffffffffffffffffffffffffffffff16610d9a610d1d565b73ffffffffffffffffffffffffffffffffffffffff1614610df0576040517f08c379a0000000000000000000000000000000000000000000000000000000008152600401610de790611558565b60405180910390fd5b600073ffffffffffffffffffffffffffffffffffffffff168173ffffffffffffffffffffffffffffffffffffffff161415610e60576040517f08c379a0000000000000000000000000000000000000000000000000000000008152600401610e5790611518565b60405180910390fd5b610e6981610e74565b50565b600033905090565b60008060009054906101000a900473ffffffffffffffffffffffffffffffffffffffff169050816000806101000a81548173ffffffffffffffffffffffffffffffffffffffff021916908373ffffffffffffffffffffffffffffffffffffffff1602179055508173ffffffffffffffffffffffffffffffffffffffff168173ffffffffffffffffffffffffffffffffffffffff167f8be0079c531659141344cd1fd0a4f28419497f9722a3daafe3b4186f6b6457e060405160405180910390a35050565b828054610f44906117a7565b90600052602060002090601f016020900481019282610f665760008555610fad565b82601f10610f7f57805160ff1916838001178555610fad565b82800160010185558215610fad579182015b82811115610fac578251825591602001919060010190610f91565b5b509050610fba9190610fbe565b5090565b5b80821115610fd7576000816000905550600101610fbf565b5090565b6000610fee610fe984611628565b611603565b90508281526020810184848401111561100657600080fd5b611011848285611765565b509392505050565b600081359050611028816119e7565b92915050565b60008151905061103d816119fe565b92915050565b600082601f83011261105457600080fd5b8135611064848260208601610fdb565b91505092915050565b60008135905061107c81611a15565b92915050565b60006020828403121561109457600080fd5b60006110a284828501611019565b91505092915050565b600080600080608085870312156110c157600080fd5b60006110cf87828801611019565b945050602085013567ffffffffffffffff8111156110ec57600080fd5b6110f887828801611043565b93505060406111098782880161106d565b925050606085013567ffffffffffffffff81111561112657600080fd5b61113287828801611043565b91505092959194509250565b60006020828403121561115057600080fd5b600061115e8482850161102e565b91505092915050565b60006020828403121561117957600080fd5b600082013567ffffffffffffffff81111561119357600080fd5b61119f84828501611043565b91505092915050565b6000602082840312156111ba57600080fd5b60006111c88482850161106d565b91505092915050565b6000806000606084860312156111e657600080fd5b60006111f48682870161106d565b93505060206112058682870161106d565b925050604084013567ffffffffffffffff81111561122257600080fd5b61122e86828701611043565b9150509250925092565b611241816116e7565b82525050565b611250816116f9565b82525050565b61125f8161172f565b82525050565b61126e81611753565b82525050565b600061127f82611659565b6112898185611675565b9350611299818560208601611774565b6112a2816118e0565b840191505092915050565b60006112b882611659565b6112c28185611686565b93506112d2818560208601611774565b80840191505092915050565b60006112eb602683611675565b91506112f6826118f1565b604082019050919050565b600061130e601383611675565b915061131982611940565b602082019050919050565b6000611331602083611675565b915061133c82611969565b602082019050919050565b6000611354601483611675565b915061135f82611992565b602082019050919050565b6000611377600083611664565b9150611382826119bb565b600082019050919050565b600061139a601283611675565b91506113a5826119be565b602082019050919050565b6113b981611725565b82525050565b60006113cb82846112ad565b915081905092915050565b60006020820190506113eb6000830184611238565b92915050565b60006060820190506114066000830186611238565b6114136020830185611238565b61142060408301846113b0565b949350505050565b600060408201905061143d6000830185611238565b61144a60208301846113b0565b9392505050565b60006080820190506114666000830186611238565b61147360208301856113b0565b6114806040830184611265565b81810360608301526114918161136a565b9050949350505050565b600060e0820190506114b0600083018a611256565b6114bd6020830189611238565b81810360408301526114cf8188611274565b90506114de60608301876113b0565b6114eb60808301866113b0565b81810360a08301526114fd8185611274565b905061150c60c0830184611247565b98975050505050505050565b60006020820190508181036000830152611531816112de565b9050919050565b6000602082019050818103600083015261155181611301565b9050919050565b6000602082019050818103600083015261157181611324565b9050919050565b6000602082019050818103600083015261159181611347565b9050919050565b600060208201905081810360008301526115b18161138d565b9050919050565b60006020820190506115cd60008301846113b0565b92915050565b60006040820190506115e860008301856113b0565b81810360208301526115fa8184611274565b90509392505050565b600061160d61161e565b905061161982826117d9565b919050565b6000604051905090565b600067ffffffffffffffff821115611643576116426118b1565b5b61164c826118e0565b9050602081019050919050565b600081519050919050565b600082825260208201905092915050565b600082825260208201905092915050565b600081905092915050565b600061169c82611725565b91506116a783611725565b9250827fffffffffffffffffffffffffffffffffffffffffffffffffffffffffffffffff038211156116dc576116db611853565b5b828201905092915050565b60006116f282611705565b9050919050565b60008115159050919050565b600073ffffffffffffffffffffffffffffffffffffffff82169050919050565b6000819050919050565b600061173a82611741565b9050919050565b600061174c82611705565b9050919050565b600061175e82611725565b9050919050565b82818337600083830152505050565b60005b83811015611792578082015181840152602081019050611777565b838111156117a1576000848401525b50505050565b600060028204905060018216806117bf57607f821691505b602082108114156117d3576117d2611882565b5b50919050565b6117e2826118e0565b810181811067ffffffffffffffff82111715611801576118006118b1565b5b80604052505050565b600061181582611725565b91507fffffffffffffffffffffffffffffffffffffffffffffffffffffffffffffffff82141561184857611847611853565b5b600182019050919050565b7f4e487b7100000000000000000000000000000000000000000000000000000000600052601160045260246000fd5b7f4e487b7100000000000000000000000000000000000000000000000000000000600052602260045260246000fd5b7f4e487b7100000000000000000000000000000000000000000000000000000000600052604160045260246000fd5b6000601f19601f8301169050919050565b7f4f776e61626c653a206e6577206f776e657220697320746865207a65726f206160008201527f6464726573730000000000000000000000000000000000000000000000000000602082015250565b7f50726f6a656374206e6f74206163746976652100000000000000000000000000600082015250565b7f4f776e61626c653a2063616c6c6572206973206e6f7420746865206f776e6572600082015250565b7f5469746c6520616c726561647920657869737473000000000000000000000000600082015250565b50565b7f4e6f742070726f6a656374206f776e6572210000000000000000000000000000600082015250565b6119f0816116e7565b81146119fb57600080fd5b50565b611a07816116f9565b8114611a1257600080fd5b50565b611a1e81611725565b8114611a2957600080fd5b5056fea2646970667358221220f0e3cc0fdc6692f5fdce6bcaafd31e0cf8360f1bc2d8ad4a65de370facbbbc9c64736f6c63430008040033",
  "linkReferences": {},
  "deployedLinkReferences": {}
}