{
  "_format": "hh-sol-artifact-1",
  "contractName": "Donations",
  "sourceName": "contracts/Donations.sol",
  "abi": [
    {
      "inputs": [
        {
          "internalType": "address",
          "name": "tokenAddress",
          "type": "address"
        }
      ],
      "stateMutability": "nonpayable",
      "type": "constructor"
    },
    {
      "anonymous": false,
      "inputs": [
        {
          "indexed": true,
          "internalType": "uint256",
          "name": "id",
          "type": "uint256"
        },
        {
          "indexed": true,
          "internalType": "address",
          "name": "sender",
          "type": "address"
        },
        {
          "indexed": false,
          "internalType": "uint256",
          "name": "amount",
          "type": "uint256"
        },
        {
          "indexed": false,
          "internalType": "string",
          "name": "message",
          "type": "string"
        }
      ],
      "name": "Donation",
      "type": "event"
    },
    {
      "anonymous": false,
      "inputs": [
        {
          "indexed": true,
          "internalType": "uint256",
          "name": "id",
          "type": "uint256"
        },
        {
          "indexed": true,
          "internalType": "string",
          "name": "title",
          "type": "string"
        },
        {
          "indexed": true,
          "internalType": "address",
          "name": "owner",
          "type": "address"
        }
      ],
      "name": "NewProject",
      "type": "event"
    },
    {
      "anonymous": false,
      "inputs": [
        {
          "indexed": true,
          "internalType": "address",
          "name": "previousOwner",
          "type": "address"
        },
        {
          "indexed": true,
          "internalType": "address",
          "name": "newOwner",
          "type": "address"
        }
      ],
      "name": "OwnershipTransferred",
      "type": "event"
    },
    {
      "inputs": [
        {
          "internalType": "uint256",
          "name": "id",
          "type": "uint256"
        },
        {
          "internalType": "uint256",
          "name": "amount",
          "type": "uint256"
        },
        {
          "internalType": "string",
          "name": "message",
          "type": "string"
        }
      ],
      "name": "donate",
      "outputs": [],
      "stateMutability": "nonpayable",
      "type": "function"
    },
    {
      "inputs": [
        {
          "internalType": "uint256",
          "name": "id",
          "type": "uint256"
        },
        {
          "internalType": "uint256",
          "name": "goal",
          "type": "uint256"
        },
        {
          "internalType": "string",
          "name": "uri",
          "type": "string"
        }
      ],
      "name": "editProject",
      "outputs": [],
      "stateMutability": "nonpayable",
      "type": "function"
    },
    {
      "inputs": [
        {
          "internalType": "uint256",
          "name": "id",
          "type": "uint256"
        }
      ],
      "name": "endProject",
      "outputs": [],
      "stateMutability": "nonpayable",
      "type": "function"
    },
    {
      "inputs": [],
      "name": "owner",
      "outputs": [
        {
          "internalType": "address",
          "name": "",
          "type": "address"
        }
      ],
      "stateMutability": "view",
      "type": "function"
    },
    {
      "inputs": [
        {
          "internalType": "uint256",
          "name": "",
          "type": "uint256"
        }
      ],
      "name": "projects",
      "outputs": [
        {
          "internalType": "contract IERC20",
          "name": "coin",
          "type": "address"
        },
        {
          "internalType": "address",
          "name": "owner",
          "type": "address"
        },
        {
          "internalType": "string",
          "name": "title",
          "type": "string"
        },
        {
          "internalType": "uint256",
          "name": "balance",
          "type": "uint256"
        },
        {
          "internalType": "uint256",
          "name": "goal",
          "type": "uint256"
        },
        {
          "internalType": "string",
          "name": "uri",
          "type": "string"
        },
        {
          "internalType": "bool",
          "name": "active",
          "type": "bool"
        }
      ],
      "stateMutability": "view",
      "type": "function"
    },
    {
      "inputs": [],
      "name": "projectsCount",
      "outputs": [
        {
          "internalType": "uint256",
          "name": "",
          "type": "uint256"
        }
      ],
      "stateMutability": "view",
      "type": "function"
    },
    {
      "inputs": [],
      "name": "renounceOwnership",
      "outputs": [],
      "stateMutability": "nonpayable",
      "type": "function"
    },
    {
      "inputs": [
        {
          "internalType": "address",
          "name": "coin",
          "type": "address"
        },
        {
          "internalType": "string",
          "name": "title",
          "type": "string"
        },
        {
          "internalType": "uint256",
          "name": "goal",
          "type": "uint256"
        },
        {
          "internalType": "string",
          "name": "uri",
          "type": "string"
        }
      ],
      "name": "startProject",
      "outputs": [],
      "stateMutability": "nonpayable",
      "type": "function"
    },
    {
      "inputs": [
        {
          "internalType": "string",
          "name": "",
          "type": "string"
        }
      ],
      "name": "titles",
      "outputs": [
        {
          "internalType": "uint256",
          "name": "",
          "type": "uint256"
        }
      ],
      "stateMutability": "view",
      "type": "function"
    },
    {
      "inputs": [
        {
          "internalType": "address",
          "name": "newOwner",
          "type": "address"
        }
      ],
      "name": "transferOwnership",
      "outputs": [],
      "stateMutability": "nonpayable",
      "type": "function"
    }
  ],
  "bytecode": "0x608060405260006002553480156200001657600080fd5b5060405162001ca238038062001ca283398181016040528101906200003c919062000187565b6200005c62000050620000a460201b60201c565b620000ac60201b60201c565b80600160006101000a81548173ffffffffffffffffffffffffffffffffffffffff021916908373ffffffffffffffffffffffffffffffffffffffff1602179055505062000201565b600033905090565b60008060009054906101000a900473ffffffffffffffffffffffffffffffffffffffff169050816000806101000a81548173ffffffffffffffffffffffffffffffffffffffff021916908373ffffffffffffffffffffffffffffffffffffffff1602179055508173ffffffffffffffffffffffffffffffffffffffff168173ffffffffffffffffffffffffffffffffffffffff167f8be0079c531659141344cd1fd0a4f28419497f9722a3daafe3b4186f6b6457e060405160405180910390a35050565b6000815190506200018181620001e7565b92915050565b6000602082840312156200019a57600080fd5b6000620001aa8482850162000170565b91505092915050565b6000620001c082620001c7565b9050919050565b600073ffffffffffffffffffffffffffffffffffffffff82169050919050565b620001f281620001b3565b8114620001fe57600080fd5b50565b611a9180620002116000396000f3fe608060405234801561001057600080fd5b506004361061009e5760003560e01c8063744bc36911610066578063744bc369146101375780638da5cb5b14610153578063a1f71b0b14610171578063c73b302e146101a1578063f2fde38b146101bf5761009e565b8063107046bd146100a357806316c3cdf5146100d95780634b7c6ce6146100f5578063614c54b014610111578063715018a61461012d575b600080fd5b6100bd60048036038101906100b891906111d7565b6101db565b6040516100d097969594939291906114ca565b60405180910390f35b6100f360048036038101906100ee9190611200565b61037a565b005b61010f600480360381019061010a9190611200565b6105ba565b005b61012b600480360381019061012691906110da565b61079f565b005b610135610aa7565b005b610151600480360381019061014c91906111d7565b610b2f565b005b61015b610d46565b6040516101689190611405565b60405180910390f35b61018b60048036038101906101869190611196565b610d6f565b60405161019891906115e7565b60405180910390f35b6101a9610d9d565b6040516101b691906115e7565b60405180910390f35b6101d960048036038101906101d491906110b1565b610da3565b005b60036020528060005260406000206000915090508060000160009054906101000a900473ffffffffffffffffffffffffffffffffffffffff16908060010160009054906101000a900473ffffffffffffffffffffffffffffffffffffffff169080600201805461024a906117d6565b80601f0160208091040260200160405190810160405280929190818152602001828054610276906117d6565b80156102c35780601f10610298576101008083540402835291602001916102c3565b820191906000526020600020905b8154815290600101906020018083116102a657829003601f168201915b5050505050908060030154908060040154908060050180546102e4906117d6565b80601f0160208091040260200160405190810160405280929190818152602001828054610310906117d6565b801561035d5780601f106103325761010080835404028352916020019161035d565b820191906000526020600020905b81548152906001019060200180831161034057829003601f168201915b5050505050908060060160009054906101000a900460ff16905087565b826003600082815260200190815260200160002060060160009054906101000a900460ff166103de576040517f08c379a00000000000000000000000000000000000000000000000000000000081526004016103d590611567565b60405180910390fd5b6003600085815260200190815260200160002060000160009054906101000a900473ffffffffffffffffffffffffffffffffffffffff1673ffffffffffffffffffffffffffffffffffffffff166323b872dd3330866040518463ffffffff1660e01b815260040161045193929190611420565b602060405180830381600087803b15801561046b57600080fd5b505af115801561047f573d6000803e3d6000fd5b505050506040513d601f19601f820116820180604052508101906104a3919061116d565b50826003600086815260200190815260200160002060030160008282546104ca91906116c0565b92505081905550600160009054906101000a900473ffffffffffffffffffffffffffffffffffffffff1673ffffffffffffffffffffffffffffffffffffffff1663731133e9338660016040518463ffffffff1660e01b815260040161053193929190611480565b600060405180830381600087803b15801561054b57600080fd5b505af115801561055f573d6000803e3d6000fd5b505050503373ffffffffffffffffffffffffffffffffffffffff16847fae959bbb98142743e209f3538d8da6fedb612ad3a0142ecec18fd4dc09cf642585856040516105ac929190611602565b60405180910390a350505050565b826003600082815260200190815260200160002060010160009054906101000a900473ffffffffffffffffffffffffffffffffffffffff1673ffffffffffffffffffffffffffffffffffffffff163373ffffffffffffffffffffffffffffffffffffffff161461065f576040517f08c379a0000000000000000000000000000000000000000000000000000000008152600401610656906115c7565b60405180910390fd5b836003600082815260200190815260200160002060060160009054906101000a900460ff166106c3576040517f08c379a00000000000000000000000000000000000000000000000000000000081526004016106ba90611567565b60405180910390fd5b83600360008781526020019081526020016000206004018190555082600360008781526020019081526020016000206005019080519060200190610708929190610f67565b50600160009054906101000a900473ffffffffffffffffffffffffffffffffffffffff1673ffffffffffffffffffffffffffffffffffffffff1663782f08ae86856040518363ffffffff1660e01b8152600401610766929190611602565b600060405180830381600087803b15801561078057600080fd5b505af1158015610794573d6000803e3d6000fd5b505050505050505050565b60006004846040516107b191906113ee565b90815260200160405180910390205414610800576040517f08c379a00000000000000000000000000000000000000000000000000000000081526004016107f7906115a7565b60405180910390fd5b6002600081548092919061081390611839565b91905055506040518060e001604052808573ffffffffffffffffffffffffffffffffffffffff1681526020013373ffffffffffffffffffffffffffffffffffffffff168152602001848152602001600081526020018381526020018281526020016001151581525060036000600254815260200190815260200160002060008201518160000160006101000a81548173ffffffffffffffffffffffffffffffffffffffff021916908373ffffffffffffffffffffffffffffffffffffffff16021790555060208201518160010160006101000a81548173ffffffffffffffffffffffffffffffffffffffff021916908373ffffffffffffffffffffffffffffffffffffffff160217905550604082015181600201908051906020019061093a929190610f67565b50606082015181600301556080820151816004015560a082015181600501908051906020019061096b929190610f67565b5060c08201518160060160006101000a81548160ff021916908315150217905550905050600160009054906101000a900473ffffffffffffffffffffffffffffffffffffffff1673ffffffffffffffffffffffffffffffffffffffff1663782f08ae600254836040518363ffffffff1660e01b81526004016109ee929190611602565b600060405180830381600087803b158015610a0857600080fd5b505af1158015610a1c573d6000803e3d6000fd5b50505050600254600484604051610a3391906113ee565b9081526020016040518091039020819055503373ffffffffffffffffffffffffffffffffffffffff1683604051610a6a91906113ee565b60405180910390206002547fc0da660b30cae13df9ca822dc9c4a728e4e0833b6ba1eda62af70f182352b50760405160405180910390a450505050565b610aaf610e9b565b73ffffffffffffffffffffffffffffffffffffffff16610acd610d46565b73ffffffffffffffffffffffffffffffffffffffff1614610b23576040517f08c379a0000000000000000000000000000000000000000000000000000000008152600401610b1a90611587565b60405180910390fd5b610b2d6000610ea3565b565b806003600082815260200190815260200160002060010160009054906101000a900473ffffffffffffffffffffffffffffffffffffffff1673ffffffffffffffffffffffffffffffffffffffff163373ffffffffffffffffffffffffffffffffffffffff1614610bd4576040517f08c379a0000000000000000000000000000000000000000000000000000000008152600401610bcb906115c7565b60405180910390fd5b816003600082815260200190815260200160002060060160009054906101000a900460ff16610c38576040517f08c379a0000000000000000000000000000000000000000000000000000000008152600401610c2f90611567565b60405180910390fd5b60006003600085815260200190815260200160002060060160006101000a81548160ff0219169083151502179055506003600084815260200190815260200160002060000160009054906101000a900473ffffffffffffffffffffffffffffffffffffffff1673ffffffffffffffffffffffffffffffffffffffff1663a9059cbb3360036000878152602001908152602001600020600301546040518363ffffffff1660e01b8152600401610cee929190611457565b602060405180830381600087803b158015610d0857600080fd5b505af1158015610d1c573d6000803e3d6000fd5b505050506040513d601f19601f82011682018060405250810190610d40919061116d565b50505050565b60008060009054906101000a900473ffffffffffffffffffffffffffffffffffffffff16905090565b6004818051602081018201805184825260208301602085012081835280955050505050506000915090505481565b60025481565b610dab610e9b565b73ffffffffffffffffffffffffffffffffffffffff16610dc9610d46565b73ffffffffffffffffffffffffffffffffffffffff1614610e1f576040517f08c379a0000000000000000000000000000000000000000000000000000000008152600401610e1690611587565b60405180910390fd5b600073ffffffffffffffffffffffffffffffffffffffff168173ffffffffffffffffffffffffffffffffffffffff161415610e8f576040517f08c379a0000000000000000000000000000000000000000000000000000000008152600401610e8690611547565b60405180910390fd5b610e9881610ea3565b50565b600033905090565b60008060009054906101000a900473ffffffffffffffffffffffffffffffffffffffff169050816000806101000a81548173ffffffffffffffffffffffffffffffffffffffff021916908373ffffffffffffffffffffffffffffffffffffffff1602179055508173ffffffffffffffffffffffffffffffffffffffff168173ffffffffffffffffffffffffffffffffffffffff167f8be0079c531659141344cd1fd0a4f28419497f9722a3daafe3b4186f6b6457e060405160405180910390a35050565b828054610f73906117d6565b90600052602060002090601f016020900481019282610f955760008555610fdc565b82601f10610fae57805160ff1916838001178555610fdc565b82800160010185558215610fdc579182015b82811115610fdb578251825591602001919060010190610fc0565b5b509050610fe99190610fed565b5090565b5b80821115611006576000816000905550600101610fee565b5090565b600061101d61101884611657565b611632565b90508281526020810184848401111561103557600080fd5b611040848285611794565b509392505050565b60008135905061105781611a16565b92915050565b60008151905061106c81611a2d565b92915050565b600082601f83011261108357600080fd5b813561109384826020860161100a565b91505092915050565b6000813590506110ab81611a44565b92915050565b6000602082840312156110c357600080fd5b60006110d184828501611048565b91505092915050565b600080600080608085870312156110f057600080fd5b60006110fe87828801611048565b945050602085013567ffffffffffffffff81111561111b57600080fd5b61112787828801611072565b93505060406111388782880161109c565b925050606085013567ffffffffffffffff81111561115557600080fd5b61116187828801611072565b91505092959194509250565b60006020828403121561117f57600080fd5b600061118d8482850161105d565b91505092915050565b6000602082840312156111a857600080fd5b600082013567ffffffffffffffff8111156111c257600080fd5b6111ce84828501611072565b91505092915050565b6000602082840312156111e957600080fd5b60006111f78482850161109c565b91505092915050565b60008060006060848603121561121557600080fd5b60006112238682870161109c565b93505060206112348682870161109c565b925050604084013567ffffffffffffffff81111561125157600080fd5b61125d86828701611072565b9150509250925092565b61127081611716565b82525050565b61127f81611728565b82525050565b61128e8161175e565b82525050565b61129d81611782565b82525050565b60006112ae82611688565b6112b881856116a4565b93506112c88185602086016117a3565b6112d18161190f565b840191505092915050565b60006112e782611688565b6112f181856116b5565b93506113018185602086016117a3565b80840191505092915050565b600061131a6026836116a4565b915061132582611920565b604082019050919050565b600061133d6013836116a4565b91506113488261196f565b602082019050919050565b60006113606020836116a4565b915061136b82611998565b602082019050919050565b60006113836014836116a4565b915061138e826119c1565b602082019050919050565b60006113a6600083611693565b91506113b1826119ea565b600082019050919050565b60006113c96012836116a4565b91506113d4826119ed565b602082019050919050565b6113e881611754565b82525050565b60006113fa82846112dc565b915081905092915050565b600060208201905061141a6000830184611267565b92915050565b60006060820190506114356000830186611267565b6114426020830185611267565b61144f60408301846113df565b949350505050565b600060408201905061146c6000830185611267565b61147960208301846113df565b9392505050565b60006080820190506114956000830186611267565b6114a260208301856113df565b6114af6040830184611294565b81810360608301526114c081611399565b9050949350505050565b600060e0820190506114df600083018a611285565b6114ec6020830189611267565b81810360408301526114fe81886112a3565b905061150d60608301876113df565b61151a60808301866113df565b81810360a083015261152c81856112a3565b905061153b60c0830184611276565b98975050505050505050565b600060208201905081810360008301526115608161130d565b9050919050565b6000602082019050818103600083015261158081611330565b9050919050565b600060208201905081810360008301526115a081611353565b9050919050565b600060208201905081810360008301526115c081611376565b9050919050565b600060208201905081810360008301526115e0816113bc565b9050919050565b60006020820190506115fc60008301846113df565b92915050565b600060408201905061161760008301856113df565b818103602083015261162981846112a3565b90509392505050565b600061163c61164d565b90506116488282611808565b919050565b6000604051905090565b600067ffffffffffffffff821115611672576116716118e0565b5b61167b8261190f565b9050602081019050919050565b600081519050919050565b600082825260208201905092915050565b600082825260208201905092915050565b600081905092915050565b60006116cb82611754565b91506116d683611754565b9250827fffffffffffffffffffffffffffffffffffffffffffffffffffffffffffffffff0382111561170b5761170a611882565b5b828201905092915050565b600061172182611734565b9050919050565b60008115159050919050565b600073ffffffffffffffffffffffffffffffffffffffff82169050919050565b6000819050919050565b600061176982611770565b9050919050565b600061177b82611734565b9050919050565b600061178d82611754565b9050919050565b82818337600083830152505050565b60005b838110156117c15780820151818401526020810190506117a6565b838111156117d0576000848401525b50505050565b600060028204905060018216806117ee57607f821691505b60208210811415611802576118016118b1565b5b50919050565b6118118261190f565b810181811067ffffffffffffffff821117156118305761182f6118e0565b5b80604052505050565b600061184482611754565b91507fffffffffffffffffffffffffffffffffffffffffffffffffffffffffffffffff82141561187757611876611882565b5b600182019050919050565b7f4e487b7100000000000000000000000000000000000000000000000000000000600052601160045260246000fd5b7f4e487b7100000000000000000000000000000000000000000000000000000000600052602260045260246000fd5b7f4e487b7100000000000000000000000000000000000000000000000000000000600052604160045260246000fd5b6000601f19601f8301169050919050565b7f4f776e61626c653a206e6577206f776e657220697320746865207a65726f206160008201527f6464726573730000000000000000000000000000000000000000000000000000602082015250565b7f50726f6a656374206e6f74206163746976652100000000000000000000000000600082015250565b7f4f776e61626c653a2063616c6c6572206973206e6f7420746865206f776e6572600082015250565b7f5469746c6520616c726561647920657869737473000000000000000000000000600082015250565b50565b7f4e6f742070726f6a656374206f776e6572210000000000000000000000000000600082015250565b611a1f81611716565b8114611a2a57600080fd5b50565b611a3681611728565b8114611a4157600080fd5b50565b611a4d81611754565b8114611a5857600080fd5b5056fea26469706673582212206e6a01c011e4f6df12136b683709be6563ffbe8bd9359540cdb53426df8aedd064736f6c63430008040033",
  "linkReferences": {},
  "deployedLinkReferences": {}
}