{
  "_format": "hh-sol-artifact-1",
  "contractName": "Donations",
  "sourceName": "contracts/Donations.sol",
  "abi": [
    {
      "inputs": [],
      "stateMutability": "nonpayable",
      "type": "constructor"
    },
    {
      "anonymous": false,
      "inputs": [
        {
          "indexed": true,
          "internalType": "uint256",
          "name": "id",
          "type": "uint256"
        },
        {
          "indexed": true,
          "internalType": "address",
          "name": "sender",
          "type": "address"
        },
        {
          "indexed": false,
          "internalType": "uint256",
          "name": "amount",
          "type": "uint256"
        },
        {
          "indexed": false,
          "internalType": "string",
          "name": "message",
          "type": "string"
        }
      ],
      "name": "Donation",
      "type": "event"
    },
    {
      "anonymous": false,
      "inputs": [
        {
          "indexed": true,
          "internalType": "uint256",
          "name": "id",
          "type": "uint256"
        },
        {
          "indexed": true,
          "internalType": "string",
          "name": "title",
          "type": "string"
        },
        {
          "indexed": true,
          "internalType": "address",
          "name": "owner",
          "type": "address"
        }
      ],
      "name": "NewProject",
      "type": "event"
    },
    {
      "anonymous": false,
      "inputs": [
        {
          "indexed": true,
          "internalType": "address",
          "name": "previousOwner",
          "type": "address"
        },
        {
          "indexed": true,
          "internalType": "address",
          "name": "newOwner",
          "type": "address"
        }
      ],
      "name": "OwnershipTransferred",
      "type": "event"
    },
    {
      "inputs": [
        {
          "internalType": "uint256",
          "name": "id",
          "type": "uint256"
        },
        {
          "internalType": "address",
          "name": "newOwner",
          "type": "address"
        }
      ],
      "name": "changeProjectOwner",
      "outputs": [],
      "stateMutability": "nonpayable",
      "type": "function"
    },
    {
      "inputs": [
        {
          "internalType": "uint256",
          "name": "id",
          "type": "uint256"
        },
        {
          "internalType": "uint256",
          "name": "amount",
          "type": "uint256"
        },
        {
          "internalType": "string",
          "name": "message",
          "type": "string"
        }
      ],
      "name": "donate",
      "outputs": [],
      "stateMutability": "nonpayable",
      "type": "function"
    },
    {
      "inputs": [
        {
          "internalType": "uint256",
          "name": "id",
          "type": "uint256"
        },
        {
          "internalType": "uint256",
          "name": "goal",
          "type": "uint256"
        },
        {
          "internalType": "string",
          "name": "uri",
          "type": "string"
        }
      ],
      "name": "editProject",
      "outputs": [],
      "stateMutability": "nonpayable",
      "type": "function"
    },
    {
      "inputs": [
        {
          "internalType": "uint256",
          "name": "id",
          "type": "uint256"
        }
      ],
      "name": "endProject",
      "outputs": [],
      "stateMutability": "nonpayable",
      "type": "function"
    },
    {
      "inputs": [],
      "name": "owner",
      "outputs": [
        {
          "internalType": "address",
          "name": "",
          "type": "address"
        }
      ],
      "stateMutability": "view",
      "type": "function"
    },
    {
      "inputs": [
        {
          "internalType": "uint256",
          "name": "",
          "type": "uint256"
        }
      ],
      "name": "projects",
      "outputs": [
        {
          "internalType": "contract IERC20",
          "name": "coin",
          "type": "address"
        },
        {
          "internalType": "address",
          "name": "owner",
          "type": "address"
        },
        {
          "internalType": "string",
          "name": "title",
          "type": "string"
        },
        {
          "internalType": "uint256",
          "name": "balance",
          "type": "uint256"
        },
        {
          "internalType": "uint256",
          "name": "goal",
          "type": "uint256"
        },
        {
          "internalType": "string",
          "name": "uri",
          "type": "string"
        },
        {
          "internalType": "bool",
          "name": "active",
          "type": "bool"
        }
      ],
      "stateMutability": "view",
      "type": "function"
    },
    {
      "inputs": [],
      "name": "projectsCount",
      "outputs": [
        {
          "internalType": "uint256",
          "name": "",
          "type": "uint256"
        }
      ],
      "stateMutability": "view",
      "type": "function"
    },
    {
      "inputs": [],
      "name": "renounceOwnership",
      "outputs": [],
      "stateMutability": "nonpayable",
      "type": "function"
    },
    {
      "inputs": [
        {
          "internalType": "address",
          "name": "coin",
          "type": "address"
        },
        {
          "internalType": "string",
          "name": "title",
          "type": "string"
        },
        {
          "internalType": "uint256",
          "name": "goal",
          "type": "uint256"
        },
        {
          "internalType": "string",
          "name": "uri",
          "type": "string"
        }
      ],
      "name": "startProject",
      "outputs": [],
      "stateMutability": "nonpayable",
      "type": "function"
    },
    {
      "inputs": [
        {
          "internalType": "string",
          "name": "",
          "type": "string"
        }
      ],
      "name": "titles",
      "outputs": [
        {
          "internalType": "uint256",
          "name": "",
          "type": "uint256"
        }
      ],
      "stateMutability": "view",
      "type": "function"
    },
    {
      "inputs": [],
      "name": "token",
      "outputs": [
        {
          "internalType": "contract DonationsToken",
          "name": "",
          "type": "address"
        }
      ],
      "stateMutability": "view",
      "type": "function"
    },
    {
      "inputs": [
        {
          "internalType": "address",
          "name": "newOwner",
          "type": "address"
        }
      ],
      "name": "transferOwnership",
      "outputs": [],
      "stateMutability": "nonpayable",
      "type": "function"
    }
  ],
  "bytecode": "0x608060405260006002553480156200001657600080fd5b50620000376200002b620000a960201b60201c565b620000b160201b60201c565b604051620000459062000175565b604051809103906000f08015801562000062573d6000803e3d6000fd5b50600160006101000a81548173ffffffffffffffffffffffffffffffffffffffff021916908373ffffffffffffffffffffffffffffffffffffffff16021790555062000183565b600033905090565b60008060009054906101000a900473ffffffffffffffffffffffffffffffffffffffff169050816000806101000a81548173ffffffffffffffffffffffffffffffffffffffff021916908373ffffffffffffffffffffffffffffffffffffffff1602179055508173ffffffffffffffffffffffffffffffffffffffff168173ffffffffffffffffffffffffffffffffffffffff167f8be0079c531659141344cd1fd0a4f28419497f9722a3daafe3b4186f6b6457e060405160405180910390a35050565b61329a8062001e8883390190565b611cf580620001936000396000f3fe608060405234801561001057600080fd5b50600436106100b45760003560e01c80638da5cb5b116100715780638da5cb5b146101695780639cb2ad9e14610187578063a1f71b0b146101a3578063c73b302e146101d3578063f2fde38b146101f1578063fc0c546a1461020d576100b4565b8063107046bd146100b957806316c3cdf5146100ef5780634b7c6ce61461010b578063614c54b014610127578063715018a614610143578063744bc3691461014d575b600080fd5b6100d360048036038101906100ce91906113b1565b61022b565b6040516100e6979695949392919061170a565b60405180910390f35b61010960048036038101906101049190611416565b6103ca565b005b61012560048036038101906101209190611416565b61060a565b005b610141600480360381019061013c91906112b4565b6107ef565b005b61014b610af7565b005b610167600480360381019061016291906113b1565b610b7f565b005b610171610d96565b60405161017e919061162a565b60405180910390f35b6101a1600480360381019061019c91906113da565b610dbf565b005b6101bd60048036038101906101b89190611370565b610f23565b6040516101ca9190611827565b60405180910390f35b6101db610f51565b6040516101e89190611827565b60405180910390f35b61020b6004803603810190610206919061128b565b610f57565b005b61021561104f565b60405161022291906116ef565b60405180910390f35b60036020528060005260406000206000915090508060000160009054906101000a900473ffffffffffffffffffffffffffffffffffffffff16908060010160009054906101000a900473ffffffffffffffffffffffffffffffffffffffff169080600201805461029a90611a3a565b80601f01602080910402602001604051908101604052809291908181526020018280546102c690611a3a565b80156103135780601f106102e857610100808354040283529160200191610313565b820191906000526020600020905b8154815290600101906020018083116102f657829003601f168201915b50505050509080600301549080600401549080600501805461033490611a3a565b80601f016020809104026020016040519081016040528092919081815260200182805461036090611a3a565b80156103ad5780601f10610382576101008083540402835291602001916103ad565b820191906000526020600020905b81548152906001019060200180831161039057829003601f168201915b5050505050908060060160009054906101000a900460ff16905087565b826003600082815260200190815260200160002060060160009054906101000a900460ff1661042e576040517f08c379a0000000000000000000000000000000000000000000000000000000008152600401610425906117a7565b60405180910390fd5b6003600085815260200190815260200160002060000160009054906101000a900473ffffffffffffffffffffffffffffffffffffffff1673ffffffffffffffffffffffffffffffffffffffff166323b872dd3330866040518463ffffffff1660e01b81526004016104a193929190611645565b602060405180830381600087803b1580156104bb57600080fd5b505af11580156104cf573d6000803e3d6000fd5b505050506040513d601f19601f820116820180604052508101906104f39190611347565b508260036000868152602001908152602001600020600301600082825461051a9190611900565b92505081905550600160009054906101000a900473ffffffffffffffffffffffffffffffffffffffff1673ffffffffffffffffffffffffffffffffffffffff1663731133e9338660016040518463ffffffff1660e01b8152600401610581939291906116a5565b600060405180830381600087803b15801561059b57600080fd5b505af11580156105af573d6000803e3d6000fd5b505050503373ffffffffffffffffffffffffffffffffffffffff16847fae959bbb98142743e209f3538d8da6fedb612ad3a0142ecec18fd4dc09cf642585856040516105fc929190611842565b60405180910390a350505050565b826003600082815260200190815260200160002060010160009054906101000a900473ffffffffffffffffffffffffffffffffffffffff1673ffffffffffffffffffffffffffffffffffffffff163373ffffffffffffffffffffffffffffffffffffffff16146106af576040517f08c379a00000000000000000000000000000000000000000000000000000000081526004016106a690611807565b60405180910390fd5b836003600082815260200190815260200160002060060160009054906101000a900460ff16610713576040517f08c379a000000000000000000000000000000000000000000000000000000000815260040161070a906117a7565b60405180910390fd5b83600360008781526020019081526020016000206004018190555082600360008781526020019081526020016000206005019080519060200190610758929190611141565b50600160009054906101000a900473ffffffffffffffffffffffffffffffffffffffff1673ffffffffffffffffffffffffffffffffffffffff1663782f08ae86856040518363ffffffff1660e01b81526004016107b6929190611842565b600060405180830381600087803b1580156107d057600080fd5b505af11580156107e4573d6000803e3d6000fd5b505050505050505050565b60006004846040516108019190611613565b90815260200160405180910390205414610850576040517f08c379a0000000000000000000000000000000000000000000000000000000008152600401610847906117e7565b60405180910390fd5b6002600081548092919061086390611a9d565b91905055506040518060e001604052808573ffffffffffffffffffffffffffffffffffffffff1681526020013373ffffffffffffffffffffffffffffffffffffffff168152602001848152602001600081526020018381526020018281526020016001151581525060036000600254815260200190815260200160002060008201518160000160006101000a81548173ffffffffffffffffffffffffffffffffffffffff021916908373ffffffffffffffffffffffffffffffffffffffff16021790555060208201518160010160006101000a81548173ffffffffffffffffffffffffffffffffffffffff021916908373ffffffffffffffffffffffffffffffffffffffff160217905550604082015181600201908051906020019061098a929190611141565b50606082015181600301556080820151816004015560a08201518160050190805190602001906109bb929190611141565b5060c08201518160060160006101000a81548160ff021916908315150217905550905050600160009054906101000a900473ffffffffffffffffffffffffffffffffffffffff1673ffffffffffffffffffffffffffffffffffffffff1663782f08ae600254836040518363ffffffff1660e01b8152600401610a3e929190611842565b600060405180830381600087803b158015610a5857600080fd5b505af1158015610a6c573d6000803e3d6000fd5b50505050600254600484604051610a839190611613565b9081526020016040518091039020819055503373ffffffffffffffffffffffffffffffffffffffff1683604051610aba9190611613565b60405180910390206002547fc0da660b30cae13df9ca822dc9c4a728e4e0833b6ba1eda62af70f182352b50760405160405180910390a450505050565b610aff611075565b73ffffffffffffffffffffffffffffffffffffffff16610b1d610d96565b73ffffffffffffffffffffffffffffffffffffffff1614610b73576040517f08c379a0000000000000000000000000000000000000000000000000000000008152600401610b6a906117c7565b60405180910390fd5b610b7d600061107d565b565b806003600082815260200190815260200160002060010160009054906101000a900473ffffffffffffffffffffffffffffffffffffffff1673ffffffffffffffffffffffffffffffffffffffff163373ffffffffffffffffffffffffffffffffffffffff1614610c24576040517f08c379a0000000000000000000000000000000000000000000000000000000008152600401610c1b90611807565b60405180910390fd5b816003600082815260200190815260200160002060060160009054906101000a900460ff16610c88576040517f08c379a0000000000000000000000000000000000000000000000000000000008152600401610c7f906117a7565b60405180910390fd5b60006003600085815260200190815260200160002060060160006101000a81548160ff0219169083151502179055506003600084815260200190815260200160002060000160009054906101000a900473ffffffffffffffffffffffffffffffffffffffff1673ffffffffffffffffffffffffffffffffffffffff1663a9059cbb3360036000878152602001908152602001600020600301546040518363ffffffff1660e01b8152600401610d3e92919061167c565b602060405180830381600087803b158015610d5857600080fd5b505af1158015610d6c573d6000803e3d6000fd5b505050506040513d601f19601f82011682018060405250810190610d909190611347565b50505050565b60008060009054906101000a900473ffffffffffffffffffffffffffffffffffffffff16905090565b816003600082815260200190815260200160002060010160009054906101000a900473ffffffffffffffffffffffffffffffffffffffff1673ffffffffffffffffffffffffffffffffffffffff163373ffffffffffffffffffffffffffffffffffffffff1614610e64576040517f08c379a0000000000000000000000000000000000000000000000000000000008152600401610e5b90611807565b60405180910390fd5b826003600082815260200190815260200160002060060160009054906101000a900460ff16610ec8576040517f08c379a0000000000000000000000000000000000000000000000000000000008152600401610ebf906117a7565b60405180910390fd5b826003600086815260200190815260200160002060010160006101000a81548173ffffffffffffffffffffffffffffffffffffffff021916908373ffffffffffffffffffffffffffffffffffffffff16021790555050505050565b6004818051602081018201805184825260208301602085012081835280955050505050506000915090505481565b60025481565b610f5f611075565b73ffffffffffffffffffffffffffffffffffffffff16610f7d610d96565b73ffffffffffffffffffffffffffffffffffffffff1614610fd3576040517f08c379a0000000000000000000000000000000000000000000000000000000008152600401610fca906117c7565b60405180910390fd5b600073ffffffffffffffffffffffffffffffffffffffff168173ffffffffffffffffffffffffffffffffffffffff161415611043576040517f08c379a000000000000000000000000000000000000000000000000000000000815260040161103a90611787565b60405180910390fd5b61104c8161107d565b50565b600160009054906101000a900473ffffffffffffffffffffffffffffffffffffffff1681565b600033905090565b60008060009054906101000a900473ffffffffffffffffffffffffffffffffffffffff169050816000806101000a81548173ffffffffffffffffffffffffffffffffffffffff021916908373ffffffffffffffffffffffffffffffffffffffff1602179055508173ffffffffffffffffffffffffffffffffffffffff168173ffffffffffffffffffffffffffffffffffffffff167f8be0079c531659141344cd1fd0a4f28419497f9722a3daafe3b4186f6b6457e060405160405180910390a35050565b82805461114d90611a3a565b90600052602060002090601f01602090048101928261116f57600085556111b6565b82601f1061118857805160ff19168380011785556111b6565b828001600101855582156111b6579182015b828111156111b557825182559160200191906001019061119a565b5b5090506111c391906111c7565b5090565b5b808211156111e05760008160009055506001016111c8565b5090565b60006111f76111f284611897565b611872565b90508281526020810184848401111561120f57600080fd5b61121a8482856119f8565b509392505050565b60008135905061123181611c7a565b92915050565b60008151905061124681611c91565b92915050565b600082601f83011261125d57600080fd5b813561126d8482602086016111e4565b91505092915050565b60008135905061128581611ca8565b92915050565b60006020828403121561129d57600080fd5b60006112ab84828501611222565b91505092915050565b600080600080608085870312156112ca57600080fd5b60006112d887828801611222565b945050602085013567ffffffffffffffff8111156112f557600080fd5b6113018782880161124c565b935050604061131287828801611276565b925050606085013567ffffffffffffffff81111561132f57600080fd5b61133b8782880161124c565b91505092959194509250565b60006020828403121561135957600080fd5b600061136784828501611237565b91505092915050565b60006020828403121561138257600080fd5b600082013567ffffffffffffffff81111561139c57600080fd5b6113a88482850161124c565b91505092915050565b6000602082840312156113c357600080fd5b60006113d184828501611276565b91505092915050565b600080604083850312156113ed57600080fd5b60006113fb85828601611276565b925050602061140c85828601611222565b9150509250929050565b60008060006060848603121561142b57600080fd5b600061143986828701611276565b935050602061144a86828701611276565b925050604084013567ffffffffffffffff81111561146757600080fd5b6114738682870161124c565b9150509250925092565b61148681611956565b82525050565b61149581611968565b82525050565b6114a48161199e565b82525050565b6114b3816119c2565b82525050565b6114c2816119e6565b82525050565b60006114d3826118c8565b6114dd81856118e4565b93506114ed818560208601611a07565b6114f681611b73565b840191505092915050565b600061150c826118c8565b61151681856118f5565b9350611526818560208601611a07565b80840191505092915050565b600061153f6026836118e4565b915061154a82611b84565b604082019050919050565b60006115626013836118e4565b915061156d82611bd3565b602082019050919050565b60006115856020836118e4565b915061159082611bfc565b602082019050919050565b60006115a86014836118e4565b91506115b382611c25565b602082019050919050565b60006115cb6000836118d3565b91506115d682611c4e565b600082019050919050565b60006115ee6012836118e4565b91506115f982611c51565b602082019050919050565b61160d81611994565b82525050565b600061161f8284611501565b915081905092915050565b600060208201905061163f600083018461147d565b92915050565b600060608201905061165a600083018661147d565b611667602083018561147d565b6116746040830184611604565b949350505050565b6000604082019050611691600083018561147d565b61169e6020830184611604565b9392505050565b60006080820190506116ba600083018661147d565b6116c76020830185611604565b6116d460408301846114b9565b81810360608301526116e5816115be565b9050949350505050565b6000602082019050611704600083018461149b565b92915050565b600060e08201905061171f600083018a6114aa565b61172c602083018961147d565b818103604083015261173e81886114c8565b905061174d6060830187611604565b61175a6080830186611604565b81810360a083015261176c81856114c8565b905061177b60c083018461148c565b98975050505050505050565b600060208201905081810360008301526117a081611532565b9050919050565b600060208201905081810360008301526117c081611555565b9050919050565b600060208201905081810360008301526117e081611578565b9050919050565b600060208201905081810360008301526118008161159b565b9050919050565b60006020820190508181036000830152611820816115e1565b9050919050565b600060208201905061183c6000830184611604565b92915050565b60006040820190506118576000830185611604565b818103602083015261186981846114c8565b90509392505050565b600061187c61188d565b90506118888282611a6c565b919050565b6000604051905090565b600067ffffffffffffffff8211156118b2576118b1611b44565b5b6118bb82611b73565b9050602081019050919050565b600081519050919050565b600082825260208201905092915050565b600082825260208201905092915050565b600081905092915050565b600061190b82611994565b915061191683611994565b9250827fffffffffffffffffffffffffffffffffffffffffffffffffffffffffffffffff0382111561194b5761194a611ae6565b5b828201905092915050565b600061196182611974565b9050919050565b60008115159050919050565b600073ffffffffffffffffffffffffffffffffffffffff82169050919050565b6000819050919050565b60006119a9826119b0565b9050919050565b60006119bb82611974565b9050919050565b60006119cd826119d4565b9050919050565b60006119df82611974565b9050919050565b60006119f182611994565b9050919050565b82818337600083830152505050565b60005b83811015611a25578082015181840152602081019050611a0a565b83811115611a34576000848401525b50505050565b60006002820490506001821680611a5257607f821691505b60208210811415611a6657611a65611b15565b5b50919050565b611a7582611b73565b810181811067ffffffffffffffff82111715611a9457611a93611b44565b5b80604052505050565b6000611aa882611994565b91507fffffffffffffffffffffffffffffffffffffffffffffffffffffffffffffffff821415611adb57611ada611ae6565b5b600182019050919050565b7f4e487b7100000000000000000000000000000000000000000000000000000000600052601160045260246000fd5b7f4e487b7100000000000000000000000000000000000000000000000000000000600052602260045260246000fd5b7f4e487b7100000000000000000000000000000000000000000000000000000000600052604160045260246000fd5b6000601f19601f8301169050919050565b7f4f776e61626c653a206e6577206f776e657220697320746865207a65726f206160008201527f6464726573730000000000000000000000000000000000000000000000000000602082015250565b7f50726f6a656374206e6f74206163746976652100000000000000000000000000600082015250565b7f4f776e61626c653a2063616c6c6572206973206e6f7420746865206f776e6572600082015250565b7f5469746c6520616c726561647920657869737473000000000000000000000000600082015250565b50565b7f4e6f742070726f6a656374206f776e6572210000000000000000000000000000600082015250565b611c8381611956565b8114611c8e57600080fd5b50565b611c9a81611968565b8114611ca557600080fd5b50565b611cb181611994565b8114611cbc57600080fd5b5056fea2646970667358221220a305418cbe5b12a24947c641172c05ff46fc8ff41e3d85dee6f375577d61450664736f6c6343000804003360806040523480156200001157600080fd5b506040518060200160405280600081525062000033816200005a60201b60201c565b5062000054620000486200007660201b60201c565b6200007e60201b60201c565b62000259565b80600290805190602001906200007292919062000144565b5050565b600033905090565b6000600360009054906101000a900473ffffffffffffffffffffffffffffffffffffffff16905081600360006101000a81548173ffffffffffffffffffffffffffffffffffffffff021916908373ffffffffffffffffffffffffffffffffffffffff1602179055508173ffffffffffffffffffffffffffffffffffffffff168173ffffffffffffffffffffffffffffffffffffffff167f8be0079c531659141344cd1fd0a4f28419497f9722a3daafe3b4186f6b6457e060405160405180910390a35050565b8280546200015290620001f4565b90600052602060002090601f016020900481019282620001765760008555620001c2565b82601f106200019157805160ff1916838001178555620001c2565b82800160010185558215620001c2579182015b82811115620001c1578251825591602001919060010190620001a4565b5b509050620001d19190620001d5565b5090565b5b80821115620001f0576000816000905550600101620001d6565b5090565b600060028204905060018216806200020d57607f821691505b602082108114156200022457620002236200022a565b5b50919050565b7f4e487b7100000000000000000000000000000000000000000000000000000000600052602260045260246000fd5b61303180620002696000396000f3fe608060405234801561001057600080fd5b50600436106100ce5760003560e01c8063731133e91161008c578063a22cb46511610066578063a22cb4651461020f578063e985e9c51461022b578063f242432a1461025b578063f2fde38b14610277576100ce565b8063731133e9146101b9578063782f08ae146101d55780638da5cb5b146101f1576100ce565b8062fdd58e146100d357806301ffc9a7146101035780630e89341c146101335780632eb2c2d6146101635780634e1273f41461017f578063715018a6146101af575b600080fd5b6100ed60048036038101906100e89190611f23565b610293565b6040516100fa9190612713565b60405180910390f35b61011d60048036038101906101189190612046565b61035c565b60405161012a9190612536565b60405180910390f35b61014d60048036038101906101489190612098565b61043e565b60405161015a9190612551565b60405180910390f35b61017d60048036038101906101789190611d99565b6104e3565b005b61019960048036038101906101949190611fda565b610584565b6040516101a691906124dd565b60405180910390f35b6101b7610735565b005b6101d360048036038101906101ce9190611f5f565b6107bd565b005b6101ef60048036038101906101ea91906120c1565b61084b565b005b6101f96108f3565b6040516102069190612400565b60405180910390f35b61022960048036038101906102249190611ee7565b61091d565b005b61024560048036038101906102409190611d5d565b610933565b6040516102529190612536565b60405180910390f35b61027560048036038101906102709190611e58565b6109c7565b005b610291600480360381019061028c9190611d34565b610a68565b005b60008073ffffffffffffffffffffffffffffffffffffffff168373ffffffffffffffffffffffffffffffffffffffff161415610304576040517f08c379a00000000000000000000000000000000000000000000000000000000081526004016102fb906125b3565b60405180910390fd5b60008083815260200190815260200160002060008473ffffffffffffffffffffffffffffffffffffffff1673ffffffffffffffffffffffffffffffffffffffff16815260200190815260200160002054905092915050565b60007fd9b67a26000000000000000000000000000000000000000000000000000000007bffffffffffffffffffffffffffffffffffffffffffffffffffffffff1916827bffffffffffffffffffffffffffffffffffffffffffffffffffffffff1916148061042757507f0e89341c000000000000000000000000000000000000000000000000000000007bffffffffffffffffffffffffffffffffffffffffffffffffffffffff1916827bffffffffffffffffffffffffffffffffffffffffffffffffffffffff1916145b80610437575061043682610b60565b5b9050919050565b606060046000838152602001908152602001600020805461045e906129b3565b80601f016020809104026020016040519081016040528092919081815260200182805461048a906129b3565b80156104d75780601f106104ac576101008083540402835291602001916104d7565b820191906000526020600020905b8154815290600101906020018083116104ba57829003601f168201915b50505050509050919050565b6104eb610bca565b73ffffffffffffffffffffffffffffffffffffffff168573ffffffffffffffffffffffffffffffffffffffff16148061053157506105308561052b610bca565b610933565b5b610570576040517f08c379a000000000000000000000000000000000000000000000000000000000815260040161056790612633565b60405180910390fd5b61057d8585858585610bd2565b5050505050565b606081518351146105ca576040517f08c379a00000000000000000000000000000000000000000000000000000000081526004016105c1906126b3565b60405180910390fd5b6000835167ffffffffffffffff81111561060d577f4e487b7100000000000000000000000000000000000000000000000000000000600052604160045260246000fd5b60405190808252806020026020018201604052801561063b5781602001602082028036833780820191505090505b50905060005b845181101561072a576106d4858281518110610686577f4e487b7100000000000000000000000000000000000000000000000000000000600052603260045260246000fd5b60200260200101518583815181106106c7577f4e487b7100000000000000000000000000000000000000000000000000000000600052603260045260246000fd5b6020026020010151610293565b82828151811061070d577f4e487b7100000000000000000000000000000000000000000000000000000000600052603260045260246000fd5b6020026020010181815250508061072390612a16565b9050610641565b508091505092915050565b61073d610bca565b73ffffffffffffffffffffffffffffffffffffffff1661075b6108f3565b73ffffffffffffffffffffffffffffffffffffffff16146107b1576040517f08c379a00000000000000000000000000000000000000000000000000000000081526004016107a890612673565b60405180910390fd5b6107bb6000610f32565b565b6107c5610bca565b73ffffffffffffffffffffffffffffffffffffffff166107e36108f3565b73ffffffffffffffffffffffffffffffffffffffff1614610839576040517f08c379a000000000000000000000000000000000000000000000000000000000815260040161083090612673565b60405180910390fd5b61084584848484610ff8565b50505050565b610853610bca565b73ffffffffffffffffffffffffffffffffffffffff166108716108f3565b73ffffffffffffffffffffffffffffffffffffffff16146108c7576040517f08c379a00000000000000000000000000000000000000000000000000000000081526004016108be90612673565b60405180910390fd5b806004600084815260200190815260200160002090805190602001906108ee929190611a2c565b505050565b6000600360009054906101000a900473ffffffffffffffffffffffffffffffffffffffff16905090565b61092f610928610bca565b838361118e565b5050565b6000600160008473ffffffffffffffffffffffffffffffffffffffff1673ffffffffffffffffffffffffffffffffffffffff16815260200190815260200160002060008373ffffffffffffffffffffffffffffffffffffffff1673ffffffffffffffffffffffffffffffffffffffff16815260200190815260200160002060009054906101000a900460ff16905092915050565b6109cf610bca565b73ffffffffffffffffffffffffffffffffffffffff168573ffffffffffffffffffffffffffffffffffffffff161480610a155750610a1485610a0f610bca565b610933565b5b610a54576040517f08c379a0000000000000000000000000000000000000000000000000000000008152600401610a4b906125f3565b60405180910390fd5b610a6185858585856112fb565b5050505050565b610a70610bca565b73ffffffffffffffffffffffffffffffffffffffff16610a8e6108f3565b73ffffffffffffffffffffffffffffffffffffffff1614610ae4576040517f08c379a0000000000000000000000000000000000000000000000000000000008152600401610adb90612673565b60405180910390fd5b600073ffffffffffffffffffffffffffffffffffffffff168173ffffffffffffffffffffffffffffffffffffffff161415610b54576040517f08c379a0000000000000000000000000000000000000000000000000000000008152600401610b4b906125d3565b60405180910390fd5b610b5d81610f32565b50565b60007f01ffc9a7000000000000000000000000000000000000000000000000000000007bffffffffffffffffffffffffffffffffffffffffffffffffffffffff1916827bffffffffffffffffffffffffffffffffffffffffffffffffffffffff1916149050919050565b600033905090565b8151835114610c16576040517f08c379a0000000000000000000000000000000000000000000000000000000008152600401610c0d906126d3565b60405180910390fd5b600073ffffffffffffffffffffffffffffffffffffffff168473ffffffffffffffffffffffffffffffffffffffff161415610c86576040517f08c379a0000000000000000000000000000000000000000000000000000000008152600401610c7d90612613565b60405180910390fd5b6000610c90610bca565b9050610ca081878787878761157d565b60005b8451811015610e9d576000858281518110610ce7577f4e487b7100000000000000000000000000000000000000000000000000000000600052603260045260246000fd5b602002602001015190506000858381518110610d2c577f4e487b7100000000000000000000000000000000000000000000000000000000600052603260045260246000fd5b60200260200101519050600080600084815260200190815260200160002060008b73ffffffffffffffffffffffffffffffffffffffff1673ffffffffffffffffffffffffffffffffffffffff16815260200190815260200160002054905081811015610dcd576040517f08c379a0000000000000000000000000000000000000000000000000000000008152600401610dc490612653565b60405180910390fd5b81810360008085815260200190815260200160002060008c73ffffffffffffffffffffffffffffffffffffffff1673ffffffffffffffffffffffffffffffffffffffff168152602001908152602001600020819055508160008085815260200190815260200160002060008b73ffffffffffffffffffffffffffffffffffffffff1673ffffffffffffffffffffffffffffffffffffffff1681526020019081526020016000206000828254610e8291906128a7565b9250508190555050505080610e9690612a16565b9050610ca3565b508473ffffffffffffffffffffffffffffffffffffffff168673ffffffffffffffffffffffffffffffffffffffff168273ffffffffffffffffffffffffffffffffffffffff167f4a39dc06d4c0dbc64b70af90fd698a233a518aa5d07e595d983b8c0526c8f7fb8787604051610f149291906124ff565b60405180910390a4610f2a818787878787611585565b505050505050565b6000600360009054906101000a900473ffffffffffffffffffffffffffffffffffffffff16905081600360006101000a81548173ffffffffffffffffffffffffffffffffffffffff021916908373ffffffffffffffffffffffffffffffffffffffff1602179055508173ffffffffffffffffffffffffffffffffffffffff168173ffffffffffffffffffffffffffffffffffffffff167f8be0079c531659141344cd1fd0a4f28419497f9722a3daafe3b4186f6b6457e060405160405180910390a35050565b600073ffffffffffffffffffffffffffffffffffffffff168473ffffffffffffffffffffffffffffffffffffffff161415611068576040517f08c379a000000000000000000000000000000000000000000000000000000000815260040161105f906126f3565b60405180910390fd5b6000611072610bca565b9050611093816000876110848861176c565b61108d8861176c565b8761157d565b8260008086815260200190815260200160002060008773ffffffffffffffffffffffffffffffffffffffff1673ffffffffffffffffffffffffffffffffffffffff16815260200190815260200160002060008282546110f291906128a7565b925050819055508473ffffffffffffffffffffffffffffffffffffffff16600073ffffffffffffffffffffffffffffffffffffffff168273ffffffffffffffffffffffffffffffffffffffff167fc3d58168c5ae7397731d063d5bbf3d657854427343f4c083240f7aacaa2d0f62878760405161117092919061272e565b60405180910390a461118781600087878787611832565b5050505050565b8173ffffffffffffffffffffffffffffffffffffffff168373ffffffffffffffffffffffffffffffffffffffff1614156111fd576040517f08c379a00000000000000000000000000000000000000000000000000000000081526004016111f490612693565b60405180910390fd5b80600160008573ffffffffffffffffffffffffffffffffffffffff1673ffffffffffffffffffffffffffffffffffffffff16815260200190815260200160002060008473ffffffffffffffffffffffffffffffffffffffff1673ffffffffffffffffffffffffffffffffffffffff16815260200190815260200160002060006101000a81548160ff0219169083151502179055508173ffffffffffffffffffffffffffffffffffffffff168373ffffffffffffffffffffffffffffffffffffffff167f17307eab39ab6107e8899845ad3d59bd9653f200f220920489ca2b5937696c31836040516112ee9190612536565b60405180910390a3505050565b600073ffffffffffffffffffffffffffffffffffffffff168473ffffffffffffffffffffffffffffffffffffffff16141561136b576040517f08c379a000000000000000000000000000000000000000000000000000000000815260040161136290612613565b60405180910390fd5b6000611375610bca565b90506113958187876113868861176c565b61138f8861176c565b8761157d565b600080600086815260200190815260200160002060008873ffffffffffffffffffffffffffffffffffffffff1673ffffffffffffffffffffffffffffffffffffffff1681526020019081526020016000205490508381101561142c576040517f08c379a000000000000000000000000000000000000000000000000000000000815260040161142390612653565b60405180910390fd5b83810360008087815260200190815260200160002060008973ffffffffffffffffffffffffffffffffffffffff1673ffffffffffffffffffffffffffffffffffffffff168152602001908152602001600020819055508360008087815260200190815260200160002060008873ffffffffffffffffffffffffffffffffffffffff1673ffffffffffffffffffffffffffffffffffffffff16815260200190815260200160002060008282546114e191906128a7565b925050819055508573ffffffffffffffffffffffffffffffffffffffff168773ffffffffffffffffffffffffffffffffffffffff168373ffffffffffffffffffffffffffffffffffffffff167fc3d58168c5ae7397731d063d5bbf3d657854427343f4c083240f7aacaa2d0f62888860405161155e92919061272e565b60405180910390a4611574828888888888611832565b50505050505050565b505050505050565b6115a48473ffffffffffffffffffffffffffffffffffffffff16611a19565b15611764578373ffffffffffffffffffffffffffffffffffffffff1663bc197c8187878686866040518663ffffffff1660e01b81526004016115ea95949392919061241b565b602060405180830381600087803b15801561160457600080fd5b505af192505050801561163557506040513d601f19601f82011682018060405250810190611632919061206f565b60015b6116db57611641612aec565b806308c379a0141561169e5750611656612f09565b8061166157506116a0565b806040517f08c379a00000000000000000000000000000000000000000000000000000000081526004016116959190612551565b60405180910390fd5b505b6040517f08c379a00000000000000000000000000000000000000000000000000000000081526004016116d290612573565b60405180910390fd5b63bc197c8160e01b7bffffffffffffffffffffffffffffffffffffffffffffffffffffffff1916817bffffffffffffffffffffffffffffffffffffffffffffffffffffffff191614611762576040517f08c379a000000000000000000000000000000000000000000000000000000000815260040161175990612593565b60405180910390fd5b505b505050505050565b60606000600167ffffffffffffffff8111156117b1577f4e487b7100000000000000000000000000000000000000000000000000000000600052604160045260246000fd5b6040519080825280602002602001820160405280156117df5781602001602082028036833780820191505090505b509050828160008151811061181d577f4e487b7100000000000000000000000000000000000000000000000000000000600052603260045260246000fd5b60200260200101818152505080915050919050565b6118518473ffffffffffffffffffffffffffffffffffffffff16611a19565b15611a11578373ffffffffffffffffffffffffffffffffffffffff1663f23a6e6187878686866040518663ffffffff1660e01b8152600401611897959493929190612483565b602060405180830381600087803b1580156118b157600080fd5b505af19250505080156118e257506040513d601f19601f820116820180604052508101906118df919061206f565b60015b611988576118ee612aec565b806308c379a0141561194b5750611903612f09565b8061190e575061194d565b806040517f08c379a00000000000000000000000000000000000000000000000000000000081526004016119429190612551565b60405180910390fd5b505b6040517f08c379a000000000000000000000000000000000000000000000000000000000815260040161197f90612573565b60405180910390fd5b63f23a6e6160e01b7bffffffffffffffffffffffffffffffffffffffffffffffffffffffff1916817bffffffffffffffffffffffffffffffffffffffffffffffffffffffff191614611a0f576040517f08c379a0000000000000000000000000000000000000000000000000000000008152600401611a0690612593565b60405180910390fd5b505b505050505050565b600080823b905060008111915050919050565b828054611a38906129b3565b90600052602060002090601f016020900481019282611a5a5760008555611aa1565b82601f10611a7357805160ff1916838001178555611aa1565b82800160010185558215611aa1579182015b82811115611aa0578251825591602001919060010190611a85565b5b509050611aae9190611ab2565b5090565b5b80821115611acb576000816000905550600101611ab3565b5090565b6000611ae2611add8461277c565b612757565b90508083825260208201905082856020860282011115611b0157600080fd5b60005b85811015611b315781611b178882611c23565b845260208401935060208301925050600181019050611b04565b5050509392505050565b6000611b4e611b49846127a8565b612757565b90508083825260208201905082856020860282011115611b6d57600080fd5b60005b85811015611b9d5781611b838882611d1f565b845260208401935060208301925050600181019050611b70565b5050509392505050565b6000611bba611bb5846127d4565b612757565b905082815260208101848484011115611bd257600080fd5b611bdd848285612971565b509392505050565b6000611bf8611bf384612805565b612757565b905082815260208101848484011115611c1057600080fd5b611c1b848285612971565b509392505050565b600081359050611c3281612f9f565b92915050565b600082601f830112611c4957600080fd5b8135611c59848260208601611acf565b91505092915050565b600082601f830112611c7357600080fd5b8135611c83848260208601611b3b565b91505092915050565b600081359050611c9b81612fb6565b92915050565b600081359050611cb081612fcd565b92915050565b600081519050611cc581612fcd565b92915050565b600082601f830112611cdc57600080fd5b8135611cec848260208601611ba7565b91505092915050565b600082601f830112611d0657600080fd5b8135611d16848260208601611be5565b91505092915050565b600081359050611d2e81612fe4565b92915050565b600060208284031215611d4657600080fd5b6000611d5484828501611c23565b91505092915050565b60008060408385031215611d7057600080fd5b6000611d7e85828601611c23565b9250506020611d8f85828601611c23565b9150509250929050565b600080600080600060a08688031215611db157600080fd5b6000611dbf88828901611c23565b9550506020611dd088828901611c23565b945050604086013567ffffffffffffffff811115611ded57600080fd5b611df988828901611c62565b935050606086013567ffffffffffffffff811115611e1657600080fd5b611e2288828901611c62565b925050608086013567ffffffffffffffff811115611e3f57600080fd5b611e4b88828901611ccb565b9150509295509295909350565b600080600080600060a08688031215611e7057600080fd5b6000611e7e88828901611c23565b9550506020611e8f88828901611c23565b9450506040611ea088828901611d1f565b9350506060611eb188828901611d1f565b925050608086013567ffffffffffffffff811115611ece57600080fd5b611eda88828901611ccb565b9150509295509295909350565b60008060408385031215611efa57600080fd5b6000611f0885828601611c23565b9250506020611f1985828601611c8c565b9150509250929050565b60008060408385031215611f3657600080fd5b6000611f4485828601611c23565b9250506020611f5585828601611d1f565b9150509250929050565b60008060008060808587031215611f7557600080fd5b6000611f8387828801611c23565b9450506020611f9487828801611d1f565b9350506040611fa587828801611d1f565b925050606085013567ffffffffffffffff811115611fc257600080fd5b611fce87828801611ccb565b91505092959194509250565b60008060408385031215611fed57600080fd5b600083013567ffffffffffffffff81111561200757600080fd5b61201385828601611c38565b925050602083013567ffffffffffffffff81111561203057600080fd5b61203c85828601611c62565b9150509250929050565b60006020828403121561205857600080fd5b600061206684828501611ca1565b91505092915050565b60006020828403121561208157600080fd5b600061208f84828501611cb6565b91505092915050565b6000602082840312156120aa57600080fd5b60006120b884828501611d1f565b91505092915050565b600080604083850312156120d457600080fd5b60006120e285828601611d1f565b925050602083013567ffffffffffffffff8111156120ff57600080fd5b61210b85828601611cf5565b9150509250929050565b600061212183836123e2565b60208301905092915050565b612136816128fd565b82525050565b600061214782612846565b6121518185612874565b935061215c83612836565b8060005b8381101561218d5781516121748882612115565b975061217f83612867565b925050600181019050612160565b5085935050505092915050565b6121a38161290f565b82525050565b60006121b482612851565b6121be8185612885565b93506121ce818560208601612980565b6121d781612b0e565b840191505092915050565b60006121ed8261285c565b6121f78185612896565b9350612207818560208601612980565b61221081612b0e565b840191505092915050565b6000612228603483612896565b915061223382612b2c565b604082019050919050565b600061224b602883612896565b915061225682612b7b565b604082019050919050565b600061226e602b83612896565b915061227982612bca565b604082019050919050565b6000612291602683612896565b915061229c82612c19565b604082019050919050565b60006122b4602983612896565b91506122bf82612c68565b604082019050919050565b60006122d7602583612896565b91506122e282612cb7565b604082019050919050565b60006122fa603283612896565b915061230582612d06565b604082019050919050565b600061231d602a83612896565b915061232882612d55565b604082019050919050565b6000612340602083612896565b915061234b82612da4565b602082019050919050565b6000612363602983612896565b915061236e82612dcd565b604082019050919050565b6000612386602983612896565b915061239182612e1c565b604082019050919050565b60006123a9602883612896565b91506123b482612e6b565b604082019050919050565b60006123cc602183612896565b91506123d782612eba565b604082019050919050565b6123eb81612967565b82525050565b6123fa81612967565b82525050565b6000602082019050612415600083018461212d565b92915050565b600060a082019050612430600083018861212d565b61243d602083018761212d565b818103604083015261244f818661213c565b90508181036060830152612463818561213c565b9050818103608083015261247781846121a9565b90509695505050505050565b600060a082019050612498600083018861212d565b6124a5602083018761212d565b6124b260408301866123f1565b6124bf60608301856123f1565b81810360808301526124d181846121a9565b90509695505050505050565b600060208201905081810360008301526124f7818461213c565b905092915050565b60006040820190508181036000830152612519818561213c565b9050818103602083015261252d818461213c565b90509392505050565b600060208201905061254b600083018461219a565b92915050565b6000602082019050818103600083015261256b81846121e2565b905092915050565b6000602082019050818103600083015261258c8161221b565b9050919050565b600060208201905081810360008301526125ac8161223e565b9050919050565b600060208201905081810360008301526125cc81612261565b9050919050565b600060208201905081810360008301526125ec81612284565b9050919050565b6000602082019050818103600083015261260c816122a7565b9050919050565b6000602082019050818103600083015261262c816122ca565b9050919050565b6000602082019050818103600083015261264c816122ed565b9050919050565b6000602082019050818103600083015261266c81612310565b9050919050565b6000602082019050818103600083015261268c81612333565b9050919050565b600060208201905081810360008301526126ac81612356565b9050919050565b600060208201905081810360008301526126cc81612379565b9050919050565b600060208201905081810360008301526126ec8161239c565b9050919050565b6000602082019050818103600083015261270c816123bf565b9050919050565b600060208201905061272860008301846123f1565b92915050565b600060408201905061274360008301856123f1565b61275060208301846123f1565b9392505050565b6000612761612772565b905061276d82826129e5565b919050565b6000604051905090565b600067ffffffffffffffff82111561279757612796612abd565b5b602082029050602081019050919050565b600067ffffffffffffffff8211156127c3576127c2612abd565b5b602082029050602081019050919050565b600067ffffffffffffffff8211156127ef576127ee612abd565b5b6127f882612b0e565b9050602081019050919050565b600067ffffffffffffffff8211156128205761281f612abd565b5b61282982612b0e565b9050602081019050919050565b6000819050602082019050919050565b600081519050919050565b600081519050919050565b600081519050919050565b6000602082019050919050565b600082825260208201905092915050565b600082825260208201905092915050565b600082825260208201905092915050565b60006128b282612967565b91506128bd83612967565b9250827fffffffffffffffffffffffffffffffffffffffffffffffffffffffffffffffff038211156128f2576128f1612a5f565b5b828201905092915050565b600061290882612947565b9050919050565b60008115159050919050565b60007fffffffff0000000000000000000000000000000000000000000000000000000082169050919050565b600073ffffffffffffffffffffffffffffffffffffffff82169050919050565b6000819050919050565b82818337600083830152505050565b60005b8381101561299e578082015181840152602081019050612983565b838111156129ad576000848401525b50505050565b600060028204905060018216806129cb57607f821691505b602082108114156129df576129de612a8e565b5b50919050565b6129ee82612b0e565b810181811067ffffffffffffffff82111715612a0d57612a0c612abd565b5b80604052505050565b6000612a2182612967565b91507fffffffffffffffffffffffffffffffffffffffffffffffffffffffffffffffff821415612a5457612a53612a5f565b5b600182019050919050565b7f4e487b7100000000000000000000000000000000000000000000000000000000600052601160045260246000fd5b7f4e487b7100000000000000000000000000000000000000000000000000000000600052602260045260246000fd5b7f4e487b7100000000000000000000000000000000000000000000000000000000600052604160045260246000fd5b600060033d1115612b0b5760046000803e612b08600051612b1f565b90505b90565b6000601f19601f8301169050919050565b60008160e01c9050919050565b7f455243313135353a207472616e7366657220746f206e6f6e204552433131353560008201527f526563656976657220696d706c656d656e746572000000000000000000000000602082015250565b7f455243313135353a204552433131353552656365697665722072656a6563746560008201527f6420746f6b656e73000000000000000000000000000000000000000000000000602082015250565b7f455243313135353a2062616c616e636520717565727920666f7220746865207a60008201527f65726f2061646472657373000000000000000000000000000000000000000000602082015250565b7f4f776e61626c653a206e6577206f776e657220697320746865207a65726f206160008201527f6464726573730000000000000000000000000000000000000000000000000000602082015250565b7f455243313135353a2063616c6c6572206973206e6f74206f776e6572206e6f7260008201527f20617070726f7665640000000000000000000000000000000000000000000000602082015250565b7f455243313135353a207472616e7366657220746f20746865207a65726f20616460008201527f6472657373000000000000000000000000000000000000000000000000000000602082015250565b7f455243313135353a207472616e736665722063616c6c6572206973206e6f742060008201527f6f776e6572206e6f7220617070726f7665640000000000000000000000000000602082015250565b7f455243313135353a20696e73756666696369656e742062616c616e636520666f60008201527f72207472616e7366657200000000000000000000000000000000000000000000602082015250565b7f4f776e61626c653a2063616c6c6572206973206e6f7420746865206f776e6572600082015250565b7f455243313135353a2073657474696e6720617070726f76616c2073746174757360008201527f20666f722073656c660000000000000000000000000000000000000000000000602082015250565b7f455243313135353a206163636f756e747320616e6420696473206c656e67746860008201527f206d69736d617463680000000000000000000000000000000000000000000000602082015250565b7f455243313135353a2069647320616e6420616d6f756e7473206c656e6774682060008201527f6d69736d61746368000000000000000000000000000000000000000000000000602082015250565b7f455243313135353a206d696e7420746f20746865207a65726f2061646472657360008201527f7300000000000000000000000000000000000000000000000000000000000000602082015250565b600060443d1015612f1957612f9c565b612f21612772565b60043d036004823e80513d602482011167ffffffffffffffff82111715612f49575050612f9c565b808201805167ffffffffffffffff811115612f675750505050612f9c565b80602083010160043d038501811115612f84575050505050612f9c565b612f93826020018501866129e5565b82955050505050505b90565b612fa8816128fd565b8114612fb357600080fd5b50565b612fbf8161290f565b8114612fca57600080fd5b50565b612fd68161291b565b8114612fe157600080fd5b50565b612fed81612967565b8114612ff857600080fd5b5056fea264697066735822122035ff3ad4b81e14f8c7215adc1c90ef139fadafb26567611432f77600f935230f64736f6c63430008040033",
  "linkReferences": {},
  "deployedLinkReferences": {}
}