{
  "_format": "hh-sol-artifact-1",
  "contractName": "Donations",
  "sourceName": "contracts/Donations.sol",
  "abi": [
    {
      "inputs": [],
      "stateMutability": "nonpayable",
      "type": "constructor"
    },
    {
      "anonymous": false,
      "inputs": [
        {
          "indexed": true,
          "internalType": "address",
          "name": "account",
          "type": "address"
        },
        {
          "indexed": true,
          "internalType": "address",
          "name": "operator",
          "type": "address"
        },
        {
          "indexed": false,
          "internalType": "bool",
          "name": "approved",
          "type": "bool"
        }
      ],
      "name": "ApprovalForAll",
      "type": "event"
    },
    {
      "anonymous": false,
      "inputs": [
        {
          "indexed": true,
          "internalType": "uint256",
          "name": "id",
          "type": "uint256"
        },
        {
          "indexed": true,
          "internalType": "address",
          "name": "sender",
          "type": "address"
        },
        {
          "indexed": false,
          "internalType": "uint256",
          "name": "amount",
          "type": "uint256"
        },
        {
          "indexed": false,
          "internalType": "string",
          "name": "message",
          "type": "string"
        }
      ],
      "name": "Donation",
      "type": "event"
    },
    {
      "anonymous": false,
      "inputs": [
        {
          "indexed": true,
          "internalType": "uint256",
          "name": "id",
          "type": "uint256"
        },
        {
          "indexed": true,
          "internalType": "string",
          "name": "title",
          "type": "string"
        },
        {
          "indexed": true,
          "internalType": "address",
          "name": "owner",
          "type": "address"
        }
      ],
      "name": "NewProject",
      "type": "event"
    },
    {
      "anonymous": false,
      "inputs": [
        {
          "indexed": true,
          "internalType": "address",
          "name": "previousOwner",
          "type": "address"
        },
        {
          "indexed": true,
          "internalType": "address",
          "name": "newOwner",
          "type": "address"
        }
      ],
      "name": "OwnershipTransferred",
      "type": "event"
    },
    {
      "anonymous": false,
      "inputs": [
        {
          "indexed": true,
          "internalType": "address",
          "name": "operator",
          "type": "address"
        },
        {
          "indexed": true,
          "internalType": "address",
          "name": "from",
          "type": "address"
        },
        {
          "indexed": true,
          "internalType": "address",
          "name": "to",
          "type": "address"
        },
        {
          "indexed": false,
          "internalType": "uint256[]",
          "name": "ids",
          "type": "uint256[]"
        },
        {
          "indexed": false,
          "internalType": "uint256[]",
          "name": "values",
          "type": "uint256[]"
        }
      ],
      "name": "TransferBatch",
      "type": "event"
    },
    {
      "anonymous": false,
      "inputs": [
        {
          "indexed": true,
          "internalType": "address",
          "name": "operator",
          "type": "address"
        },
        {
          "indexed": true,
          "internalType": "address",
          "name": "from",
          "type": "address"
        },
        {
          "indexed": true,
          "internalType": "address",
          "name": "to",
          "type": "address"
        },
        {
          "indexed": false,
          "internalType": "uint256",
          "name": "id",
          "type": "uint256"
        },
        {
          "indexed": false,
          "internalType": "uint256",
          "name": "value",
          "type": "uint256"
        }
      ],
      "name": "TransferSingle",
      "type": "event"
    },
    {
      "anonymous": false,
      "inputs": [
        {
          "indexed": false,
          "internalType": "string",
          "name": "value",
          "type": "string"
        },
        {
          "indexed": true,
          "internalType": "uint256",
          "name": "id",
          "type": "uint256"
        }
      ],
      "name": "URI",
      "type": "event"
    },
    {
      "inputs": [
        {
          "internalType": "address",
          "name": "account",
          "type": "address"
        },
        {
          "internalType": "uint256",
          "name": "id",
          "type": "uint256"
        }
      ],
      "name": "balanceOf",
      "outputs": [
        {
          "internalType": "uint256",
          "name": "",
          "type": "uint256"
        }
      ],
      "stateMutability": "view",
      "type": "function"
    },
    {
      "inputs": [
        {
          "internalType": "address[]",
          "name": "accounts",
          "type": "address[]"
        },
        {
          "internalType": "uint256[]",
          "name": "ids",
          "type": "uint256[]"
        }
      ],
      "name": "balanceOfBatch",
      "outputs": [
        {
          "internalType": "uint256[]",
          "name": "",
          "type": "uint256[]"
        }
      ],
      "stateMutability": "view",
      "type": "function"
    },
    {
      "inputs": [
        {
          "internalType": "uint256",
          "name": "_id",
          "type": "uint256"
        },
        {
          "internalType": "address",
          "name": "_newOwner",
          "type": "address"
        }
      ],
      "name": "changeProjectOwner",
      "outputs": [],
      "stateMutability": "nonpayable",
      "type": "function"
    },
    {
      "inputs": [
        {
          "internalType": "uint256",
          "name": "_id",
          "type": "uint256"
        },
        {
          "internalType": "uint256",
          "name": "_amount",
          "type": "uint256"
        },
        {
          "internalType": "string",
          "name": "_message",
          "type": "string"
        }
      ],
      "name": "donate",
      "outputs": [],
      "stateMutability": "nonpayable",
      "type": "function"
    },
    {
      "inputs": [
        {
          "internalType": "uint256",
          "name": "_id",
          "type": "uint256"
        },
        {
          "internalType": "uint256",
          "name": "_goal",
          "type": "uint256"
        },
        {
          "internalType": "string",
          "name": "_uri",
          "type": "string"
        }
      ],
      "name": "editProject",
      "outputs": [],
      "stateMutability": "nonpayable",
      "type": "function"
    },
    {
      "inputs": [
        {
          "internalType": "uint256",
          "name": "_id",
          "type": "uint256"
        }
      ],
      "name": "endProject",
      "outputs": [],
      "stateMutability": "nonpayable",
      "type": "function"
    },
    {
      "inputs": [
        {
          "internalType": "address",
          "name": "account",
          "type": "address"
        },
        {
          "internalType": "address",
          "name": "operator",
          "type": "address"
        }
      ],
      "name": "isApprovedForAll",
      "outputs": [
        {
          "internalType": "bool",
          "name": "",
          "type": "bool"
        }
      ],
      "stateMutability": "view",
      "type": "function"
    },
    {
      "inputs": [],
      "name": "owner",
      "outputs": [
        {
          "internalType": "address",
          "name": "",
          "type": "address"
        }
      ],
      "stateMutability": "view",
      "type": "function"
    },
    {
      "inputs": [
        {
          "internalType": "uint256",
          "name": "",
          "type": "uint256"
        }
      ],
      "name": "projects",
      "outputs": [
        {
          "internalType": "contract IERC20",
          "name": "coin",
          "type": "address"
        },
        {
          "internalType": "address",
          "name": "owner",
          "type": "address"
        },
        {
          "internalType": "string",
          "name": "title",
          "type": "string"
        },
        {
          "internalType": "uint256",
          "name": "balance",
          "type": "uint256"
        },
        {
          "internalType": "uint256",
          "name": "goal",
          "type": "uint256"
        },
        {
          "internalType": "string",
          "name": "uri",
          "type": "string"
        },
        {
          "internalType": "bool",
          "name": "active",
          "type": "bool"
        }
      ],
      "stateMutability": "view",
      "type": "function"
    },
    {
      "inputs": [],
      "name": "projectsCount",
      "outputs": [
        {
          "internalType": "uint256",
          "name": "",
          "type": "uint256"
        }
      ],
      "stateMutability": "view",
      "type": "function"
    },
    {
      "inputs": [],
      "name": "renounceOwnership",
      "outputs": [],
      "stateMutability": "nonpayable",
      "type": "function"
    },
    {
      "inputs": [
        {
          "internalType": "address",
          "name": "from",
          "type": "address"
        },
        {
          "internalType": "address",
          "name": "to",
          "type": "address"
        },
        {
          "internalType": "uint256[]",
          "name": "ids",
          "type": "uint256[]"
        },
        {
          "internalType": "uint256[]",
          "name": "amounts",
          "type": "uint256[]"
        },
        {
          "internalType": "bytes",
          "name": "data",
          "type": "bytes"
        }
      ],
      "name": "safeBatchTransferFrom",
      "outputs": [],
      "stateMutability": "nonpayable",
      "type": "function"
    },
    {
      "inputs": [
        {
          "internalType": "address",
          "name": "from",
          "type": "address"
        },
        {
          "internalType": "address",
          "name": "to",
          "type": "address"
        },
        {
          "internalType": "uint256",
          "name": "id",
          "type": "uint256"
        },
        {
          "internalType": "uint256",
          "name": "amount",
          "type": "uint256"
        },
        {
          "internalType": "bytes",
          "name": "data",
          "type": "bytes"
        }
      ],
      "name": "safeTransferFrom",
      "outputs": [],
      "stateMutability": "nonpayable",
      "type": "function"
    },
    {
      "inputs": [
        {
          "internalType": "address",
          "name": "operator",
          "type": "address"
        },
        {
          "internalType": "bool",
          "name": "approved",
          "type": "bool"
        }
      ],
      "name": "setApprovalForAll",
      "outputs": [],
      "stateMutability": "nonpayable",
      "type": "function"
    },
    {
      "inputs": [
        {
          "internalType": "address",
          "name": "_coin",
          "type": "address"
        },
        {
          "internalType": "string",
          "name": "_title",
          "type": "string"
        },
        {
          "internalType": "uint256",
          "name": "_goal",
          "type": "uint256"
        },
        {
          "internalType": "string",
          "name": "_uri",
          "type": "string"
        }
      ],
      "name": "startProject",
      "outputs": [],
      "stateMutability": "nonpayable",
      "type": "function"
    },
    {
      "inputs": [
        {
          "internalType": "bytes4",
          "name": "interfaceId",
          "type": "bytes4"
        }
      ],
      "name": "supportsInterface",
      "outputs": [
        {
          "internalType": "bool",
          "name": "",
          "type": "bool"
        }
      ],
      "stateMutability": "view",
      "type": "function"
    },
    {
      "inputs": [
        {
          "internalType": "string",
          "name": "",
          "type": "string"
        }
      ],
      "name": "titles",
      "outputs": [
        {
          "internalType": "uint256",
          "name": "",
          "type": "uint256"
        }
      ],
      "stateMutability": "view",
      "type": "function"
    },
    {
      "inputs": [
        {
          "internalType": "address",
          "name": "newOwner",
          "type": "address"
        }
      ],
      "name": "transferOwnership",
      "outputs": [],
      "stateMutability": "nonpayable",
      "type": "function"
    },
    {
      "inputs": [
        {
          "internalType": "uint256",
          "name": "_id",
          "type": "uint256"
        }
      ],
      "name": "uri",
      "outputs": [
        {
          "internalType": "string",
          "name": "",
          "type": "string"
        }
      ],
      "stateMutability": "view",
      "type": "function"
    }
  ],
  "bytecode": "0x608060405260006004553480156200001657600080fd5b506040518060400160405280600981526020017f446f6e6174696f6e7300000000000000000000000000000000000000000000008152506200005e816200008560201b60201c565b506200007f62000073620000a160201b60201c565b620000a960201b60201c565b62000284565b80600290805190602001906200009d9291906200016f565b5050565b600033905090565b6000600360009054906101000a900473ffffffffffffffffffffffffffffffffffffffff16905081600360006101000a81548173ffffffffffffffffffffffffffffffffffffffff021916908373ffffffffffffffffffffffffffffffffffffffff1602179055508173ffffffffffffffffffffffffffffffffffffffff168173ffffffffffffffffffffffffffffffffffffffff167f8be0079c531659141344cd1fd0a4f28419497f9722a3daafe3b4186f6b6457e060405160405180910390a35050565b8280546200017d906200021f565b90600052602060002090601f016020900481019282620001a15760008555620001ed565b82601f10620001bc57805160ff1916838001178555620001ed565b82800160010185558215620001ed579182015b82811115620001ec578251825591602001919060010190620001cf565b5b509050620001fc919062000200565b5090565b5b808211156200021b57600081600090555060010162000201565b5090565b600060028204905060018216806200023857607f821691505b602082108114156200024f576200024e62000255565b5b50919050565b7f4e487b7100000000000000000000000000000000000000000000000000000000600052602260045260246000fd5b613eca80620002946000396000f3fe608060405234801561001057600080fd5b50600436106101205760003560e01c8063715018a6116100ad578063a22cb46511610071578063a22cb4651461031b578063c73b302e14610337578063e985e9c514610355578063f242432a14610385578063f2fde38b146103a157610120565b8063715018a61461028b578063744bc369146102955780638da5cb5b146102b15780639cb2ad9e146102cf578063a1f71b0b146102eb57610120565b806316c3cdf5116100f457806316c3cdf5146101eb5780632eb2c2d6146102075780634b7c6ce6146102235780634e1273f41461023f578063614c54b01461026f57610120565b8062fdd58e1461012557806301ffc9a7146101555780630e89341c14610185578063107046bd146101b5575b600080fd5b61013f600480360381019061013a9190612aa7565b6103bd565b60405161014c91906134d2565b60405180910390f35b61016f600480360381019061016a9190612b78565b610486565b60405161017c9190613218565b60405180910390f35b61019f600480360381019061019a9190612c0b565b610568565b6040516101ac91906132b0565b60405180910390f35b6101cf60048036038101906101ca9190612c0b565b610610565b6040516101e29796959493929190613233565b60405180910390f35b61020560048036038101906102009190612c70565b6107af565b005b610221600480360381019061021c919061288a565b610979565b005b61023d60048036038101906102389190612c70565b610a1a565b005b61025960048036038101906102549190612ae3565b610b70565b60405161026691906131bf565b60405180910390f35b61028960048036038101906102849190612a14565b610d21565b005b610293610f98565b005b6102af60048036038101906102aa9190612c0b565b611020565b005b6102b9611237565b6040516102c69190613082565b60405180910390f35b6102e960048036038101906102e49190612c34565b611261565b005b61030560048036038101906103009190612bca565b6113c5565b60405161031291906134d2565b60405180910390f35b610335600480360381019061033091906129d8565b6113f3565b005b61033f611409565b60405161034c91906134d2565b60405180910390f35b61036f600480360381019061036a919061284e565b61140f565b60405161037c9190613218565b60405180910390f35b61039f600480360381019061039a9190612949565b6114a3565b005b6103bb60048036038101906103b69190612825565b611544565b005b60008073ffffffffffffffffffffffffffffffffffffffff168373ffffffffffffffffffffffffffffffffffffffff16141561042e576040517f08c379a000000000000000000000000000000000000000000000000000000000815260040161042590613312565b60405180910390fd5b60008083815260200190815260200160002060008473ffffffffffffffffffffffffffffffffffffffff1673ffffffffffffffffffffffffffffffffffffffff16815260200190815260200160002054905092915050565b60007fd9b67a26000000000000000000000000000000000000000000000000000000007bffffffffffffffffffffffffffffffffffffffffffffffffffffffff1916827bffffffffffffffffffffffffffffffffffffffffffffffffffffffff1916148061055157507f0e89341c000000000000000000000000000000000000000000000000000000007bffffffffffffffffffffffffffffffffffffffffffffffffffffffff1916827bffffffffffffffffffffffffffffffffffffffffffffffffffffffff1916145b8061056157506105608261163c565b5b9050919050565b606060056000838152602001908152602001600020600501805461058b906137d1565b80601f01602080910402602001604051908101604052809291908181526020018280546105b7906137d1565b80156106045780601f106105d957610100808354040283529160200191610604565b820191906000526020600020905b8154815290600101906020018083116105e757829003601f168201915b50505050509050919050565b60056020528060005260406000206000915090508060000160009054906101000a900473ffffffffffffffffffffffffffffffffffffffff16908060010160009054906101000a900473ffffffffffffffffffffffffffffffffffffffff169080600201805461067f906137d1565b80601f01602080910402602001604051908101604052809291908181526020018280546106ab906137d1565b80156106f85780601f106106cd576101008083540402835291602001916106f8565b820191906000526020600020905b8154815290600101906020018083116106db57829003601f168201915b505050505090806003015490806004015490806005018054610719906137d1565b80601f0160208091040260200160405190810160405280929190818152602001828054610745906137d1565b80156107925780601f1061076757610100808354040283529160200191610792565b820191906000526020600020905b81548152906001019060200180831161077557829003601f168201915b5050505050908060060160009054906101000a900460ff16905087565b826005600082815260200190815260200160002060060160009054906101000a900460ff16610813576040517f08c379a000000000000000000000000000000000000000000000000000000000815260040161080a906133b2565b60405180910390fd5b6005600085815260200190815260200160002060000160009054906101000a900473ffffffffffffffffffffffffffffffffffffffff1673ffffffffffffffffffffffffffffffffffffffff166323b872dd3330866040518463ffffffff1660e01b815260040161088693929190613105565b602060405180830381600087803b1580156108a057600080fd5b505af11580156108b4573d6000803e3d6000fd5b505050506040513d601f19601f820116820180604052508101906108d89190612b4f565b50826005600086815260200190815260200160002060030160008282546108ff91906136a1565b9250508190555061092233856001604051806020016040528060008152506116a6565b3373ffffffffffffffffffffffffffffffffffffffff16847fae959bbb98142743e209f3538d8da6fedb612ad3a0142ecec18fd4dc09cf6425858560405161096b9291906134ed565b60405180910390a350505050565b61098161183c565b73ffffffffffffffffffffffffffffffffffffffff168573ffffffffffffffffffffffffffffffffffffffff1614806109c757506109c6856109c161183c565b61140f565b5b610a06576040517f08c379a00000000000000000000000000000000000000000000000000000000081526004016109fd90613392565b60405180910390fd5b610a138585858585611844565b5050505050565b826005600082815260200190815260200160002060010160009054906101000a900473ffffffffffffffffffffffffffffffffffffffff1673ffffffffffffffffffffffffffffffffffffffff163373ffffffffffffffffffffffffffffffffffffffff1614610abf576040517f08c379a0000000000000000000000000000000000000000000000000000000008152600401610ab6906134b2565b60405180910390fd5b836005600082815260200190815260200160002060060160009054906101000a900460ff16610b23576040517f08c379a0000000000000000000000000000000000000000000000000000000008152600401610b1a906133b2565b60405180910390fd5b83600560008781526020019081526020016000206004018190555082600560008781526020019081526020016000206005019080519060200190610b68929190612508565b505050505050565b60608151835114610bb6576040517f08c379a0000000000000000000000000000000000000000000000000000000008152600401610bad90613452565b60405180910390fd5b6000835167ffffffffffffffff811115610bf9577f4e487b7100000000000000000000000000000000000000000000000000000000600052604160045260246000fd5b604051908082528060200260200182016040528015610c275781602001602082028036833780820191505090505b50905060005b8451811015610d1657610cc0858281518110610c72577f4e487b7100000000000000000000000000000000000000000000000000000000600052603260045260246000fd5b6020026020010151858381518110610cb3577f4e487b7100000000000000000000000000000000000000000000000000000000600052603260045260246000fd5b60200260200101516103bd565b828281518110610cf9577f4e487b7100000000000000000000000000000000000000000000000000000000600052603260045260246000fd5b60200260200101818152505080610d0f90613834565b9050610c2d565b508091505092915050565b6000600684604051610d33919061306b565b90815260200160405180910390205414610d82576040517f08c379a0000000000000000000000000000000000000000000000000000000008152600401610d7990613412565b60405180910390fd5b60046000815480929190610d9590613834565b91905055506040518060e001604052808573ffffffffffffffffffffffffffffffffffffffff1681526020013373ffffffffffffffffffffffffffffffffffffffff168152602001848152602001600081526020018381526020018281526020016001151581525060056000600454815260200190815260200160002060008201518160000160006101000a81548173ffffffffffffffffffffffffffffffffffffffff021916908373ffffffffffffffffffffffffffffffffffffffff16021790555060208201518160010160006101000a81548173ffffffffffffffffffffffffffffffffffffffff021916908373ffffffffffffffffffffffffffffffffffffffff1602179055506040820151816002019080519060200190610ebc929190612508565b50606082015181600301556080820151816004015560a0820151816005019080519060200190610eed929190612508565b5060c08201518160060160006101000a81548160ff021916908315150217905550905050600454600684604051610f24919061306b565b9081526020016040518091039020819055503373ffffffffffffffffffffffffffffffffffffffff1683604051610f5b919061306b565b60405180910390206004547fc0da660b30cae13df9ca822dc9c4a728e4e0833b6ba1eda62af70f182352b50760405160405180910390a450505050565b610fa061183c565b73ffffffffffffffffffffffffffffffffffffffff16610fbe611237565b73ffffffffffffffffffffffffffffffffffffffff1614611014576040517f08c379a000000000000000000000000000000000000000000000000000000000815260040161100b906133f2565b60405180910390fd5b61101e6000611ba4565b565b806005600082815260200190815260200160002060010160009054906101000a900473ffffffffffffffffffffffffffffffffffffffff1673ffffffffffffffffffffffffffffffffffffffff163373ffffffffffffffffffffffffffffffffffffffff16146110c5576040517f08c379a00000000000000000000000000000000000000000000000000000000081526004016110bc906134b2565b60405180910390fd5b816005600082815260200190815260200160002060060160009054906101000a900460ff16611129576040517f08c379a0000000000000000000000000000000000000000000000000000000008152600401611120906133b2565b60405180910390fd5b60006005600085815260200190815260200160002060060160006101000a81548160ff0219169083151502179055506005600084815260200190815260200160002060000160009054906101000a900473ffffffffffffffffffffffffffffffffffffffff1673ffffffffffffffffffffffffffffffffffffffff1663a9059cbb3360056000878152602001908152602001600020600301546040518363ffffffff1660e01b81526004016111df929190613196565b602060405180830381600087803b1580156111f957600080fd5b505af115801561120d573d6000803e3d6000fd5b505050506040513d601f19601f820116820180604052508101906112319190612b4f565b50505050565b6000600360009054906101000a900473ffffffffffffffffffffffffffffffffffffffff16905090565b816005600082815260200190815260200160002060010160009054906101000a900473ffffffffffffffffffffffffffffffffffffffff1673ffffffffffffffffffffffffffffffffffffffff163373ffffffffffffffffffffffffffffffffffffffff1614611306576040517f08c379a00000000000000000000000000000000000000000000000000000000081526004016112fd906134b2565b60405180910390fd5b826005600082815260200190815260200160002060060160009054906101000a900460ff1661136a576040517f08c379a0000000000000000000000000000000000000000000000000000000008152600401611361906133b2565b60405180910390fd5b826005600086815260200190815260200160002060010160006101000a81548173ffffffffffffffffffffffffffffffffffffffff021916908373ffffffffffffffffffffffffffffffffffffffff16021790555050505050565b6006818051602081018201805184825260208301602085012081835280955050505050506000915090505481565b6114056113fe61183c565b8383611c6a565b5050565b60045481565b6000600160008473ffffffffffffffffffffffffffffffffffffffff1673ffffffffffffffffffffffffffffffffffffffff16815260200190815260200160002060008373ffffffffffffffffffffffffffffffffffffffff1673ffffffffffffffffffffffffffffffffffffffff16815260200190815260200160002060009054906101000a900460ff16905092915050565b6114ab61183c565b73ffffffffffffffffffffffffffffffffffffffff168573ffffffffffffffffffffffffffffffffffffffff1614806114f157506114f0856114eb61183c565b61140f565b5b611530576040517f08c379a000000000000000000000000000000000000000000000000000000000815260040161152790613352565b60405180910390fd5b61153d8585858585611dd7565b5050505050565b61154c61183c565b73ffffffffffffffffffffffffffffffffffffffff1661156a611237565b73ffffffffffffffffffffffffffffffffffffffff16146115c0576040517f08c379a00000000000000000000000000000000000000000000000000000000081526004016115b7906133f2565b60405180910390fd5b600073ffffffffffffffffffffffffffffffffffffffff168173ffffffffffffffffffffffffffffffffffffffff161415611630576040517f08c379a000000000000000000000000000000000000000000000000000000000815260040161162790613332565b60405180910390fd5b61163981611ba4565b50565b60007f01ffc9a7000000000000000000000000000000000000000000000000000000007bffffffffffffffffffffffffffffffffffffffffffffffffffffffff1916827bffffffffffffffffffffffffffffffffffffffffffffffffffffffff1916149050919050565b600073ffffffffffffffffffffffffffffffffffffffff168473ffffffffffffffffffffffffffffffffffffffff161415611716576040517f08c379a000000000000000000000000000000000000000000000000000000000815260040161170d90613492565b60405180910390fd5b600061172061183c565b90506117418160008761173288612059565b61173b88612059565b8761211f565b8260008086815260200190815260200160002060008773ffffffffffffffffffffffffffffffffffffffff1673ffffffffffffffffffffffffffffffffffffffff16815260200190815260200160002060008282546117a091906136a1565b925050819055508473ffffffffffffffffffffffffffffffffffffffff16600073ffffffffffffffffffffffffffffffffffffffff168273ffffffffffffffffffffffffffffffffffffffff167fc3d58168c5ae7397731d063d5bbf3d657854427343f4c083240f7aacaa2d0f62878760405161181e92919061351d565b60405180910390a461183581600087878787612127565b5050505050565b600033905090565b8151835114611888576040517f08c379a000000000000000000000000000000000000000000000000000000000815260040161187f90613472565b60405180910390fd5b600073ffffffffffffffffffffffffffffffffffffffff168473ffffffffffffffffffffffffffffffffffffffff1614156118f8576040517f08c379a00000000000000000000000000000000000000000000000000000000081526004016118ef90613372565b60405180910390fd5b600061190261183c565b905061191281878787878761211f565b60005b8451811015611b0f576000858281518110611959577f4e487b7100000000000000000000000000000000000000000000000000000000600052603260045260246000fd5b60200260200101519050600085838151811061199e577f4e487b7100000000000000000000000000000000000000000000000000000000600052603260045260246000fd5b60200260200101519050600080600084815260200190815260200160002060008b73ffffffffffffffffffffffffffffffffffffffff1673ffffffffffffffffffffffffffffffffffffffff16815260200190815260200160002054905081811015611a3f576040517f08c379a0000000000000000000000000000000000000000000000000000000008152600401611a36906133d2565b60405180910390fd5b81810360008085815260200190815260200160002060008c73ffffffffffffffffffffffffffffffffffffffff1673ffffffffffffffffffffffffffffffffffffffff168152602001908152602001600020819055508160008085815260200190815260200160002060008b73ffffffffffffffffffffffffffffffffffffffff1673ffffffffffffffffffffffffffffffffffffffff1681526020019081526020016000206000828254611af491906136a1565b9250508190555050505080611b0890613834565b9050611915565b508473ffffffffffffffffffffffffffffffffffffffff168673ffffffffffffffffffffffffffffffffffffffff168273ffffffffffffffffffffffffffffffffffffffff167f4a39dc06d4c0dbc64b70af90fd698a233a518aa5d07e595d983b8c0526c8f7fb8787604051611b869291906131e1565b60405180910390a4611b9c81878787878761230e565b505050505050565b6000600360009054906101000a900473ffffffffffffffffffffffffffffffffffffffff16905081600360006101000a81548173ffffffffffffffffffffffffffffffffffffffff021916908373ffffffffffffffffffffffffffffffffffffffff1602179055508173ffffffffffffffffffffffffffffffffffffffff168173ffffffffffffffffffffffffffffffffffffffff167f8be0079c531659141344cd1fd0a4f28419497f9722a3daafe3b4186f6b6457e060405160405180910390a35050565b8173ffffffffffffffffffffffffffffffffffffffff168373ffffffffffffffffffffffffffffffffffffffff161415611cd9576040517f08c379a0000000000000000000000000000000000000000000000000000000008152600401611cd090613432565b60405180910390fd5b80600160008573ffffffffffffffffffffffffffffffffffffffff1673ffffffffffffffffffffffffffffffffffffffff16815260200190815260200160002060008473ffffffffffffffffffffffffffffffffffffffff1673ffffffffffffffffffffffffffffffffffffffff16815260200190815260200160002060006101000a81548160ff0219169083151502179055508173ffffffffffffffffffffffffffffffffffffffff168373ffffffffffffffffffffffffffffffffffffffff167f17307eab39ab6107e8899845ad3d59bd9653f200f220920489ca2b5937696c3183604051611dca9190613218565b60405180910390a3505050565b600073ffffffffffffffffffffffffffffffffffffffff168473ffffffffffffffffffffffffffffffffffffffff161415611e47576040517f08c379a0000000000000000000000000000000000000000000000000000000008152600401611e3e90613372565b60405180910390fd5b6000611e5161183c565b9050611e71818787611e6288612059565b611e6b88612059565b8761211f565b600080600086815260200190815260200160002060008873ffffffffffffffffffffffffffffffffffffffff1673ffffffffffffffffffffffffffffffffffffffff16815260200190815260200160002054905083811015611f08576040517f08c379a0000000000000000000000000000000000000000000000000000000008152600401611eff906133d2565b60405180910390fd5b83810360008087815260200190815260200160002060008973ffffffffffffffffffffffffffffffffffffffff1673ffffffffffffffffffffffffffffffffffffffff168152602001908152602001600020819055508360008087815260200190815260200160002060008873ffffffffffffffffffffffffffffffffffffffff1673ffffffffffffffffffffffffffffffffffffffff1681526020019081526020016000206000828254611fbd91906136a1565b925050819055508573ffffffffffffffffffffffffffffffffffffffff168773ffffffffffffffffffffffffffffffffffffffff168373ffffffffffffffffffffffffffffffffffffffff167fc3d58168c5ae7397731d063d5bbf3d657854427343f4c083240f7aacaa2d0f62888860405161203a92919061351d565b60405180910390a4612050828888888888612127565b50505050505050565b60606000600167ffffffffffffffff81111561209e577f4e487b7100000000000000000000000000000000000000000000000000000000600052604160045260246000fd5b6040519080825280602002602001820160405280156120cc5781602001602082028036833780820191505090505b509050828160008151811061210a577f4e487b7100000000000000000000000000000000000000000000000000000000600052603260045260246000fd5b60200260200101818152505080915050919050565b505050505050565b6121468473ffffffffffffffffffffffffffffffffffffffff166124f5565b15612306578373ffffffffffffffffffffffffffffffffffffffff1663f23a6e6187878686866040518663ffffffff1660e01b815260040161218c95949392919061313c565b602060405180830381600087803b1580156121a657600080fd5b505af19250505080156121d757506040513d601f19601f820116820180604052508101906121d49190612ba1565b60015b61227d576121e361390a565b806308c379a0141561224057506121f8613da2565b806122035750612242565b806040517f08c379a000000000000000000000000000000000000000000000000000000000815260040161223791906132b0565b60405180910390fd5b505b6040517f08c379a0000000000000000000000000000000000000000000000000000000008152600401612274906132d2565b60405180910390fd5b63f23a6e6160e01b7bffffffffffffffffffffffffffffffffffffffffffffffffffffffff1916817bffffffffffffffffffffffffffffffffffffffffffffffffffffffff191614612304576040517f08c379a00000000000000000000000000000000000000000000000000000000081526004016122fb906132f2565b60405180910390fd5b505b505050505050565b61232d8473ffffffffffffffffffffffffffffffffffffffff166124f5565b156124ed578373ffffffffffffffffffffffffffffffffffffffff1663bc197c8187878686866040518663ffffffff1660e01b815260040161237395949392919061309d565b602060405180830381600087803b15801561238d57600080fd5b505af19250505080156123be57506040513d601f19601f820116820180604052508101906123bb9190612ba1565b60015b612464576123ca61390a565b806308c379a0141561242757506123df613da2565b806123ea5750612429565b806040517f08c379a000000000000000000000000000000000000000000000000000000000815260040161241e91906132b0565b60405180910390fd5b505b6040517f08c379a000000000000000000000000000000000000000000000000000000000815260040161245b906132d2565b60405180910390fd5b63bc197c8160e01b7bffffffffffffffffffffffffffffffffffffffffffffffffffffffff1916817bffffffffffffffffffffffffffffffffffffffffffffffffffffffff1916146124eb576040517f08c379a00000000000000000000000000000000000000000000000000000000081526004016124e2906132f2565b60405180910390fd5b505b505050505050565b600080823b905060008111915050919050565b828054612514906137d1565b90600052602060002090601f016020900481019282612536576000855561257d565b82601f1061254f57805160ff191683800117855561257d565b8280016001018555821561257d579182015b8281111561257c578251825591602001919060010190612561565b5b50905061258a919061258e565b5090565b5b808211156125a757600081600090555060010161258f565b5090565b60006125be6125b98461356b565b613546565b905080838252602082019050828560208602820111156125dd57600080fd5b60005b8581101561260d57816125f388826126ff565b8452602084019350602083019250506001810190506125e0565b5050509392505050565b600061262a61262584613597565b613546565b9050808382526020820190508285602086028201111561264957600080fd5b60005b85811015612679578161265f8882612810565b84526020840193506020830192505060018101905061264c565b5050509392505050565b6000612696612691846135c3565b613546565b9050828152602081018484840111156126ae57600080fd5b6126b984828561378f565b509392505050565b60006126d46126cf846135f4565b613546565b9050828152602081018484840111156126ec57600080fd5b6126f784828561378f565b509392505050565b60008135905061270e81613e38565b92915050565b600082601f83011261272557600080fd5b81356127358482602086016125ab565b91505092915050565b600082601f83011261274f57600080fd5b813561275f848260208601612617565b91505092915050565b60008135905061277781613e4f565b92915050565b60008151905061278c81613e4f565b92915050565b6000813590506127a181613e66565b92915050565b6000815190506127b681613e66565b92915050565b600082601f8301126127cd57600080fd5b81356127dd848260208601612683565b91505092915050565b600082601f8301126127f757600080fd5b81356128078482602086016126c1565b91505092915050565b60008135905061281f81613e7d565b92915050565b60006020828403121561283757600080fd5b6000612845848285016126ff565b91505092915050565b6000806040838503121561286157600080fd5b600061286f858286016126ff565b9250506020612880858286016126ff565b9150509250929050565b600080600080600060a086880312156128a257600080fd5b60006128b0888289016126ff565b95505060206128c1888289016126ff565b945050604086013567ffffffffffffffff8111156128de57600080fd5b6128ea8882890161273e565b935050606086013567ffffffffffffffff81111561290757600080fd5b6129138882890161273e565b925050608086013567ffffffffffffffff81111561293057600080fd5b61293c888289016127bc565b9150509295509295909350565b600080600080600060a0868803121561296157600080fd5b600061296f888289016126ff565b9550506020612980888289016126ff565b945050604061299188828901612810565b93505060606129a288828901612810565b925050608086013567ffffffffffffffff8111156129bf57600080fd5b6129cb888289016127bc565b9150509295509295909350565b600080604083850312156129eb57600080fd5b60006129f9858286016126ff565b9250506020612a0a85828601612768565b9150509250929050565b60008060008060808587031215612a2a57600080fd5b6000612a38878288016126ff565b945050602085013567ffffffffffffffff811115612a5557600080fd5b612a61878288016127e6565b9350506040612a7287828801612810565b925050606085013567ffffffffffffffff811115612a8f57600080fd5b612a9b878288016127e6565b91505092959194509250565b60008060408385031215612aba57600080fd5b6000612ac8858286016126ff565b9250506020612ad985828601612810565b9150509250929050565b60008060408385031215612af657600080fd5b600083013567ffffffffffffffff811115612b1057600080fd5b612b1c85828601612714565b925050602083013567ffffffffffffffff811115612b3957600080fd5b612b458582860161273e565b9150509250929050565b600060208284031215612b6157600080fd5b6000612b6f8482850161277d565b91505092915050565b600060208284031215612b8a57600080fd5b6000612b9884828501612792565b91505092915050565b600060208284031215612bb357600080fd5b6000612bc1848285016127a7565b91505092915050565b600060208284031215612bdc57600080fd5b600082013567ffffffffffffffff811115612bf657600080fd5b612c02848285016127e6565b91505092915050565b600060208284031215612c1d57600080fd5b6000612c2b84828501612810565b91505092915050565b60008060408385031215612c4757600080fd5b6000612c5585828601612810565b9250506020612c66858286016126ff565b9150509250929050565b600080600060608486031215612c8557600080fd5b6000612c9386828701612810565b9350506020612ca486828701612810565b925050604084013567ffffffffffffffff811115612cc157600080fd5b612ccd868287016127e6565b9150509250925092565b6000612ce3838361304d565b60208301905092915050565b612cf8816136f7565b82525050565b6000612d0982613635565b612d138185613663565b9350612d1e83613625565b8060005b83811015612d4f578151612d368882612cd7565b9750612d4183613656565b925050600181019050612d22565b5085935050505092915050565b612d6581613709565b82525050565b6000612d7682613640565b612d808185613674565b9350612d9081856020860161379e565b612d998161392c565b840191505092915050565b612dad8161376b565b82525050565b6000612dbe8261364b565b612dc88185613685565b9350612dd881856020860161379e565b612de18161392c565b840191505092915050565b6000612df78261364b565b612e018185613696565b9350612e1181856020860161379e565b80840191505092915050565b6000612e2a603483613685565b9150612e358261394a565b604082019050919050565b6000612e4d602883613685565b9150612e5882613999565b604082019050919050565b6000612e70602b83613685565b9150612e7b826139e8565b604082019050919050565b6000612e93602683613685565b9150612e9e82613a37565b604082019050919050565b6000612eb6602983613685565b9150612ec182613a86565b604082019050919050565b6000612ed9602583613685565b9150612ee482613ad5565b604082019050919050565b6000612efc603283613685565b9150612f0782613b24565b604082019050919050565b6000612f1f601383613685565b9150612f2a82613b73565b602082019050919050565b6000612f42602a83613685565b9150612f4d82613b9c565b604082019050919050565b6000612f65602083613685565b9150612f7082613beb565b602082019050919050565b6000612f88601483613685565b9150612f9382613c14565b602082019050919050565b6000612fab602983613685565b9150612fb682613c3d565b604082019050919050565b6000612fce602983613685565b9150612fd982613c8c565b604082019050919050565b6000612ff1602883613685565b9150612ffc82613cdb565b604082019050919050565b6000613014602183613685565b915061301f82613d2a565b604082019050919050565b6000613037601283613685565b915061304282613d79565b602082019050919050565b61305681613761565b82525050565b61306581613761565b82525050565b60006130778284612dec565b915081905092915050565b60006020820190506130976000830184612cef565b92915050565b600060a0820190506130b26000830188612cef565b6130bf6020830187612cef565b81810360408301526130d18186612cfe565b905081810360608301526130e58185612cfe565b905081810360808301526130f98184612d6b565b90509695505050505050565b600060608201905061311a6000830186612cef565b6131276020830185612cef565b613134604083018461305c565b949350505050565b600060a0820190506131516000830188612cef565b61315e6020830187612cef565b61316b604083018661305c565b613178606083018561305c565b818103608083015261318a8184612d6b565b90509695505050505050565b60006040820190506131ab6000830185612cef565b6131b8602083018461305c565b9392505050565b600060208201905081810360008301526131d98184612cfe565b905092915050565b600060408201905081810360008301526131fb8185612cfe565b9050818103602083015261320f8184612cfe565b90509392505050565b600060208201905061322d6000830184612d5c565b92915050565b600060e082019050613248600083018a612da4565b6132556020830189612cef565b81810360408301526132678188612db3565b9050613276606083018761305c565b613283608083018661305c565b81810360a08301526132958185612db3565b90506132a460c0830184612d5c565b98975050505050505050565b600060208201905081810360008301526132ca8184612db3565b905092915050565b600060208201905081810360008301526132eb81612e1d565b9050919050565b6000602082019050818103600083015261330b81612e40565b9050919050565b6000602082019050818103600083015261332b81612e63565b9050919050565b6000602082019050818103600083015261334b81612e86565b9050919050565b6000602082019050818103600083015261336b81612ea9565b9050919050565b6000602082019050818103600083015261338b81612ecc565b9050919050565b600060208201905081810360008301526133ab81612eef565b9050919050565b600060208201905081810360008301526133cb81612f12565b9050919050565b600060208201905081810360008301526133eb81612f35565b9050919050565b6000602082019050818103600083015261340b81612f58565b9050919050565b6000602082019050818103600083015261342b81612f7b565b9050919050565b6000602082019050818103600083015261344b81612f9e565b9050919050565b6000602082019050818103600083015261346b81612fc1565b9050919050565b6000602082019050818103600083015261348b81612fe4565b9050919050565b600060208201905081810360008301526134ab81613007565b9050919050565b600060208201905081810360008301526134cb8161302a565b9050919050565b60006020820190506134e7600083018461305c565b92915050565b6000604082019050613502600083018561305c565b81810360208301526135148184612db3565b90509392505050565b6000604082019050613532600083018561305c565b61353f602083018461305c565b9392505050565b6000613550613561565b905061355c8282613803565b919050565b6000604051905090565b600067ffffffffffffffff821115613586576135856138db565b5b602082029050602081019050919050565b600067ffffffffffffffff8211156135b2576135b16138db565b5b602082029050602081019050919050565b600067ffffffffffffffff8211156135de576135dd6138db565b5b6135e78261392c565b9050602081019050919050565b600067ffffffffffffffff82111561360f5761360e6138db565b5b6136188261392c565b9050602081019050919050565b6000819050602082019050919050565b600081519050919050565b600081519050919050565b600081519050919050565b6000602082019050919050565b600082825260208201905092915050565b600082825260208201905092915050565b600082825260208201905092915050565b600081905092915050565b60006136ac82613761565b91506136b783613761565b9250827fffffffffffffffffffffffffffffffffffffffffffffffffffffffffffffffff038211156136ec576136eb61387d565b5b828201905092915050565b600061370282613741565b9050919050565b60008115159050919050565b60007fffffffff0000000000000000000000000000000000000000000000000000000082169050919050565b600073ffffffffffffffffffffffffffffffffffffffff82169050919050565b6000819050919050565b60006137768261377d565b9050919050565b600061378882613741565b9050919050565b82818337600083830152505050565b60005b838110156137bc5780820151818401526020810190506137a1565b838111156137cb576000848401525b50505050565b600060028204905060018216806137e957607f821691505b602082108114156137fd576137fc6138ac565b5b50919050565b61380c8261392c565b810181811067ffffffffffffffff8211171561382b5761382a6138db565b5b80604052505050565b600061383f82613761565b91507fffffffffffffffffffffffffffffffffffffffffffffffffffffffffffffffff8214156138725761387161387d565b5b600182019050919050565b7f4e487b7100000000000000000000000000000000000000000000000000000000600052601160045260246000fd5b7f4e487b7100000000000000000000000000000000000000000000000000000000600052602260045260246000fd5b7f4e487b7100000000000000000000000000000000000000000000000000000000600052604160045260246000fd5b600060033d11156139295760046000803e61392660005161393d565b90505b90565b6000601f19601f8301169050919050565b60008160e01c9050919050565b7f455243313135353a207472616e7366657220746f206e6f6e204552433131353560008201527f526563656976657220696d706c656d656e746572000000000000000000000000602082015250565b7f455243313135353a204552433131353552656365697665722072656a6563746560008201527f6420746f6b656e73000000000000000000000000000000000000000000000000602082015250565b7f455243313135353a2062616c616e636520717565727920666f7220746865207a60008201527f65726f2061646472657373000000000000000000000000000000000000000000602082015250565b7f4f776e61626c653a206e6577206f776e657220697320746865207a65726f206160008201527f6464726573730000000000000000000000000000000000000000000000000000602082015250565b7f455243313135353a2063616c6c6572206973206e6f74206f776e6572206e6f7260008201527f20617070726f7665640000000000000000000000000000000000000000000000602082015250565b7f455243313135353a207472616e7366657220746f20746865207a65726f20616460008201527f6472657373000000000000000000000000000000000000000000000000000000602082015250565b7f455243313135353a207472616e736665722063616c6c6572206973206e6f742060008201527f6f776e6572206e6f7220617070726f7665640000000000000000000000000000602082015250565b7f50726f6a656374206e6f74206163746976652100000000000000000000000000600082015250565b7f455243313135353a20696e73756666696369656e742062616c616e636520666f60008201527f72207472616e7366657200000000000000000000000000000000000000000000602082015250565b7f4f776e61626c653a2063616c6c6572206973206e6f7420746865206f776e6572600082015250565b7f5469746c6520616c726561647920657869737473000000000000000000000000600082015250565b7f455243313135353a2073657474696e6720617070726f76616c2073746174757360008201527f20666f722073656c660000000000000000000000000000000000000000000000602082015250565b7f455243313135353a206163636f756e747320616e6420696473206c656e67746860008201527f206d69736d617463680000000000000000000000000000000000000000000000602082015250565b7f455243313135353a2069647320616e6420616d6f756e7473206c656e6774682060008201527f6d69736d61746368000000000000000000000000000000000000000000000000602082015250565b7f455243313135353a206d696e7420746f20746865207a65726f2061646472657360008201527f7300000000000000000000000000000000000000000000000000000000000000602082015250565b7f4e6f742070726f6a656374206f776e6572210000000000000000000000000000600082015250565b600060443d1015613db257613e35565b613dba613561565b60043d036004823e80513d602482011167ffffffffffffffff82111715613de2575050613e35565b808201805167ffffffffffffffff811115613e005750505050613e35565b80602083010160043d038501811115613e1d575050505050613e35565b613e2c82602001850186613803565b82955050505050505b90565b613e41816136f7565b8114613e4c57600080fd5b50565b613e5881613709565b8114613e6357600080fd5b50565b613e6f81613715565b8114613e7a57600080fd5b50565b613e8681613761565b8114613e9157600080fd5b5056fea264697066735822122046bdba88febd2a68db227de96642fde63e2de3af5c26f39734cb17f396c392b464736f6c63430008040033",
  "linkReferences": {},
  "deployedLinkReferences": {}
}