{
  "_format": "hh-sol-artifact-1",
  "contractName": "Donations",
  "sourceName": "contracts/Donations.sol",
  "abi": [
    {
      "inputs": [
        {
          "internalType": "address",
          "name": "tokenAddress",
          "type": "address"
        }
      ],
      "stateMutability": "nonpayable",
      "type": "constructor"
    },
    {
      "anonymous": false,
      "inputs": [
        {
          "indexed": false,
          "internalType": "uint256",
          "name": "id",
          "type": "uint256"
        },
        {
          "indexed": true,
          "internalType": "address",
          "name": "sender",
          "type": "address"
        },
        {
          "indexed": false,
          "internalType": "uint256",
          "name": "amount",
          "type": "uint256"
        },
        {
          "indexed": true,
          "internalType": "string",
          "name": "message",
          "type": "string"
        }
      ],
      "name": "Donation",
      "type": "event"
    },
    {
      "anonymous": false,
      "inputs": [
        {
          "indexed": true,
          "internalType": "address",
          "name": "previousOwner",
          "type": "address"
        },
        {
          "indexed": true,
          "internalType": "address",
          "name": "newOwner",
          "type": "address"
        }
      ],
      "name": "OwnershipTransferred",
      "type": "event"
    },
    {
      "inputs": [
        {
          "internalType": "uint256",
          "name": "id",
          "type": "uint256"
        },
        {
          "internalType": "uint256",
          "name": "amount",
          "type": "uint256"
        },
        {
          "internalType": "string",
          "name": "message",
          "type": "string"
        }
      ],
      "name": "donate",
      "outputs": [],
      "stateMutability": "nonpayable",
      "type": "function"
    },
    {
      "inputs": [
        {
          "internalType": "uint256",
          "name": "id",
          "type": "uint256"
        },
        {
          "internalType": "uint256",
          "name": "goal",
          "type": "uint256"
        },
        {
          "internalType": "string",
          "name": "styling",
          "type": "string"
        }
      ],
      "name": "editProject",
      "outputs": [],
      "stateMutability": "nonpayable",
      "type": "function"
    },
    {
      "inputs": [
        {
          "internalType": "uint256",
          "name": "id",
          "type": "uint256"
        },
        {
          "internalType": "string",
          "name": "tokenUri",
          "type": "string"
        }
      ],
      "name": "editProjectToken",
      "outputs": [],
      "stateMutability": "nonpayable",
      "type": "function"
    },
    {
      "inputs": [
        {
          "internalType": "uint256",
          "name": "id",
          "type": "uint256"
        }
      ],
      "name": "endProject",
      "outputs": [],
      "stateMutability": "nonpayable",
      "type": "function"
    },
    {
      "inputs": [],
      "name": "owner",
      "outputs": [
        {
          "internalType": "address",
          "name": "",
          "type": "address"
        }
      ],
      "stateMutability": "view",
      "type": "function"
    },
    {
      "inputs": [
        {
          "internalType": "uint256",
          "name": "",
          "type": "uint256"
        }
      ],
      "name": "projects",
      "outputs": [
        {
          "internalType": "contract IERC20",
          "name": "coin",
          "type": "address"
        },
        {
          "internalType": "address",
          "name": "owner",
          "type": "address"
        },
        {
          "internalType": "string",
          "name": "title",
          "type": "string"
        },
        {
          "internalType": "uint256",
          "name": "balance",
          "type": "uint256"
        },
        {
          "internalType": "uint256",
          "name": "goal",
          "type": "uint256"
        },
        {
          "internalType": "string",
          "name": "styling",
          "type": "string"
        },
        {
          "internalType": "bool",
          "name": "active",
          "type": "bool"
        }
      ],
      "stateMutability": "view",
      "type": "function"
    },
    {
      "inputs": [],
      "name": "renounceOwnership",
      "outputs": [],
      "stateMutability": "nonpayable",
      "type": "function"
    },
    {
      "inputs": [
        {
          "internalType": "address",
          "name": "coin",
          "type": "address"
        },
        {
          "internalType": "string",
          "name": "title",
          "type": "string"
        },
        {
          "internalType": "uint256",
          "name": "goal",
          "type": "uint256"
        },
        {
          "internalType": "string",
          "name": "styling",
          "type": "string"
        },
        {
          "internalType": "string",
          "name": "tokenUri",
          "type": "string"
        }
      ],
      "name": "startProject",
      "outputs": [],
      "stateMutability": "nonpayable",
      "type": "function"
    },
    {
      "inputs": [
        {
          "internalType": "address",
          "name": "newOwner",
          "type": "address"
        }
      ],
      "name": "transferOwnership",
      "outputs": [],
      "stateMutability": "nonpayable",
      "type": "function"
    }
  ],
  "bytecode": "0x608060405260006002553480156200001657600080fd5b5060405162001c7138038062001c7183398181016040528101906200003c919062000187565b6200005c62000050620000a460201b60201c565b620000ac60201b60201c565b80600160006101000a81548173ffffffffffffffffffffffffffffffffffffffff021916908373ffffffffffffffffffffffffffffffffffffffff1602179055505062000201565b600033905090565b60008060009054906101000a900473ffffffffffffffffffffffffffffffffffffffff169050816000806101000a81548173ffffffffffffffffffffffffffffffffffffffff021916908373ffffffffffffffffffffffffffffffffffffffff1602179055508173ffffffffffffffffffffffffffffffffffffffff168173ffffffffffffffffffffffffffffffffffffffff167f8be0079c531659141344cd1fd0a4f28419497f9722a3daafe3b4186f6b6457e060405160405180910390a35050565b6000815190506200018181620001e7565b92915050565b6000602082840312156200019a57600080fd5b6000620001aa8482850162000170565b91505092915050565b6000620001c082620001c7565b9050919050565b600073ffffffffffffffffffffffffffffffffffffffff82169050919050565b620001f281620001b3565b8114620001fe57600080fd5b50565b611a6080620002116000396000f3fe608060405234801561001057600080fd5b50600436106100935760003560e01c8063744bc36911610066578063744bc369146101105780638da5cb5b1461012c578063a0672a2c1461014a578063e3d42e8714610166578063f2fde38b1461018257610093565b8063107046bd1461009857806316c3cdf5146100ce5780634b7c6ce6146100ea578063715018a614610106575b600080fd5b6100b260048036038101906100ad91906111b0565b61019e565b6040516100c597969594939291906114d4565b60405180910390f35b6100e860048036038101906100e3919061122d565b61033d565b005b61010460048036038101906100ff919061122d565b610592565b005b61010e6106e8565b005b61012a600480360381019061012591906111b0565b610770565b005b6101346109a3565b604051610141919061140f565b60405180910390f35b610164600480360381019061015f91906110c8565b6109cc565b005b610180600480360381019061017b91906111d9565b610bf3565b005b61019c6004803603810190610197919061109f565b610d91565b005b60036020528060005260406000206000915090508060000160009054906101000a900473ffffffffffffffffffffffffffffffffffffffff16908060010160009054906101000a900473ffffffffffffffffffffffffffffffffffffffff169080600201805461020d906117ce565b80601f0160208091040260200160405190810160405280929190818152602001828054610239906117ce565b80156102865780601f1061025b57610100808354040283529160200191610286565b820191906000526020600020905b81548152906001019060200180831161026957829003601f168201915b5050505050908060030154908060040154908060050180546102a7906117ce565b80601f01602080910402602001604051908101604052809291908181526020018280546102d3906117ce565b80156103205780601f106102f557610100808354040283529160200191610320565b820191906000526020600020905b81548152906001019060200180831161030357829003601f168201915b5050505050908060060160009054906101000a900460ff16905087565b826003600082815260200190815260200160002060060160009054906101000a900460ff166103a1576040517f08c379a000000000000000000000000000000000000000000000000000000000815260040161039890611571565b60405180910390fd5b6003600085815260200190815260200160002060000160009054906101000a900473ffffffffffffffffffffffffffffffffffffffff1673ffffffffffffffffffffffffffffffffffffffff166323b872dd3330866040518463ffffffff1660e01b81526004016104149392919061142a565b602060405180830381600087803b15801561042e57600080fd5b505af1158015610442573d6000803e3d6000fd5b505050506040513d601f19601f820116820180604052508101906104669190611187565b508260036000868152602001908152602001600020600301600082825461048d91906116b8565b92505081905550600160009054906101000a900473ffffffffffffffffffffffffffffffffffffffff1673ffffffffffffffffffffffffffffffffffffffff1663731133e9338660016040518463ffffffff1660e01b81526004016104f49392919061148a565b600060405180830381600087803b15801561050e57600080fd5b505af1158015610522573d6000803e3d6000fd5b505050508160405161053491906113f8565b60405180910390203373ffffffffffffffffffffffffffffffffffffffff167fae959bbb98142743e209f3538d8da6fedb612ad3a0142ecec18fd4dc09cf64258686604051610584929190611601565b60405180910390a350505050565b826003600082815260200190815260200160002060010160009054906101000a900473ffffffffffffffffffffffffffffffffffffffff1673ffffffffffffffffffffffffffffffffffffffff163373ffffffffffffffffffffffffffffffffffffffff1614610637576040517f08c379a000000000000000000000000000000000000000000000000000000000815260040161062e906115b1565b60405180910390fd5b836003600082815260200190815260200160002060060160009054906101000a900460ff1661069b576040517f08c379a000000000000000000000000000000000000000000000000000000000815260040161069290611571565b60405180910390fd5b836003600087815260200190815260200160002060040181905550826003600087815260200190815260200160002060050190805190602001906106e0929190610f55565b505050505050565b6106f0610e89565b73ffffffffffffffffffffffffffffffffffffffff1661070e6109a3565b73ffffffffffffffffffffffffffffffffffffffff1614610764576040517f08c379a000000000000000000000000000000000000000000000000000000000815260040161075b90611591565b60405180910390fd5b61076e6000610e91565b565b806003600082815260200190815260200160002060010160009054906101000a900473ffffffffffffffffffffffffffffffffffffffff1673ffffffffffffffffffffffffffffffffffffffff163373ffffffffffffffffffffffffffffffffffffffff1614610815576040517f08c379a000000000000000000000000000000000000000000000000000000000815260040161080c906115b1565b60405180910390fd5b816003600082815260200190815260200160002060060160009054906101000a900460ff16610879576040517f08c379a000000000000000000000000000000000000000000000000000000000815260040161087090611571565b60405180910390fd5b60006003600085815260200190815260200160002060060160006101000a81548160ff0219169083151502179055506003600084815260200190815260200160002060000160009054906101000a900473ffffffffffffffffffffffffffffffffffffffff1673ffffffffffffffffffffffffffffffffffffffff1663a9059cbb3360036000878152602001908152602001600020600301546040518363ffffffff1660e01b815260040161092f929190611461565b602060405180830381600087803b15801561094957600080fd5b505af115801561095d573d6000803e3d6000fd5b505050506040513d601f19601f820116820180604052508101906109819190611187565b5060006003600085815260200190815260200160002060030181905550505050565b60008060009054906101000a900473ffffffffffffffffffffffffffffffffffffffff16905090565b6040518060e001604052808673ffffffffffffffffffffffffffffffffffffffff1681526020013373ffffffffffffffffffffffffffffffffffffffff168152602001858152602001600081526020018481526020018381526020016001151581525060036000600254815260200190815260200160002060008201518160000160006101000a81548173ffffffffffffffffffffffffffffffffffffffff021916908373ffffffffffffffffffffffffffffffffffffffff16021790555060208201518160010160006101000a81548173ffffffffffffffffffffffffffffffffffffffff021916908373ffffffffffffffffffffffffffffffffffffffff1602179055506040820151816002019080519060200190610aee929190610f55565b50606082015181600301556080820151816004015560a0820151816005019080519060200190610b1f929190610f55565b5060c08201518160060160006101000a81548160ff021916908315150217905550905050600160009054906101000a900473ffffffffffffffffffffffffffffffffffffffff1673ffffffffffffffffffffffffffffffffffffffff1663782f08ae600254836040518363ffffffff1660e01b8152600401610ba29291906115d1565b600060405180830381600087803b158015610bbc57600080fd5b505af1158015610bd0573d6000803e3d6000fd5b5050505060026000815480929190610be790611831565b91905055505050505050565b816003600082815260200190815260200160002060010160009054906101000a900473ffffffffffffffffffffffffffffffffffffffff1673ffffffffffffffffffffffffffffffffffffffff163373ffffffffffffffffffffffffffffffffffffffff1614610c98576040517f08c379a0000000000000000000000000000000000000000000000000000000008152600401610c8f906115b1565b60405180910390fd5b826003600082815260200190815260200160002060060160009054906101000a900460ff16610cfc576040517f08c379a0000000000000000000000000000000000000000000000000000000008152600401610cf390611571565b60405180910390fd5b600160009054906101000a900473ffffffffffffffffffffffffffffffffffffffff1673ffffffffffffffffffffffffffffffffffffffff1663782f08ae85856040518363ffffffff1660e01b8152600401610d599291906115d1565b600060405180830381600087803b158015610d7357600080fd5b505af1158015610d87573d6000803e3d6000fd5b5050505050505050565b610d99610e89565b73ffffffffffffffffffffffffffffffffffffffff16610db76109a3565b73ffffffffffffffffffffffffffffffffffffffff1614610e0d576040517f08c379a0000000000000000000000000000000000000000000000000000000008152600401610e0490611591565b60405180910390fd5b600073ffffffffffffffffffffffffffffffffffffffff168173ffffffffffffffffffffffffffffffffffffffff161415610e7d576040517f08c379a0000000000000000000000000000000000000000000000000000000008152600401610e7490611551565b60405180910390fd5b610e8681610e91565b50565b600033905090565b60008060009054906101000a900473ffffffffffffffffffffffffffffffffffffffff169050816000806101000a81548173ffffffffffffffffffffffffffffffffffffffff021916908373ffffffffffffffffffffffffffffffffffffffff1602179055508173ffffffffffffffffffffffffffffffffffffffff168173ffffffffffffffffffffffffffffffffffffffff167f8be0079c531659141344cd1fd0a4f28419497f9722a3daafe3b4186f6b6457e060405160405180910390a35050565b828054610f61906117ce565b90600052602060002090601f016020900481019282610f835760008555610fca565b82601f10610f9c57805160ff1916838001178555610fca565b82800160010185558215610fca579182015b82811115610fc9578251825591602001919060010190610fae565b5b509050610fd79190610fdb565b5090565b5b80821115610ff4576000816000905550600101610fdc565b5090565b600061100b6110068461164f565b61162a565b90508281526020810184848401111561102357600080fd5b61102e84828561178c565b509392505050565b600081359050611045816119e5565b92915050565b60008151905061105a816119fc565b92915050565b600082601f83011261107157600080fd5b8135611081848260208601610ff8565b91505092915050565b60008135905061109981611a13565b92915050565b6000602082840312156110b157600080fd5b60006110bf84828501611036565b91505092915050565b600080600080600060a086880312156110e057600080fd5b60006110ee88828901611036565b955050602086013567ffffffffffffffff81111561110b57600080fd5b61111788828901611060565b94505060406111288882890161108a565b935050606086013567ffffffffffffffff81111561114557600080fd5b61115188828901611060565b925050608086013567ffffffffffffffff81111561116e57600080fd5b61117a88828901611060565b9150509295509295909350565b60006020828403121561119957600080fd5b60006111a78482850161104b565b91505092915050565b6000602082840312156111c257600080fd5b60006111d08482850161108a565b91505092915050565b600080604083850312156111ec57600080fd5b60006111fa8582860161108a565b925050602083013567ffffffffffffffff81111561121757600080fd5b61122385828601611060565b9150509250929050565b60008060006060848603121561124257600080fd5b60006112508682870161108a565b93505060206112618682870161108a565b925050604084013567ffffffffffffffff81111561127e57600080fd5b61128a86828701611060565b9150509250925092565b61129d8161170e565b82525050565b6112ac81611720565b82525050565b6112bb81611756565b82525050565b6112ca8161177a565b82525050565b60006112db82611680565b6112e5818561169c565b93506112f581856020860161179b565b6112fe81611907565b840191505092915050565b600061131482611680565b61131e81856116ad565b935061132e81856020860161179b565b80840191505092915050565b600061134760268361169c565b915061135282611918565b604082019050919050565b600061136a60138361169c565b915061137582611967565b602082019050919050565b600061138d60208361169c565b915061139882611990565b602082019050919050565b60006113b060008361168b565b91506113bb826119b9565b600082019050919050565b60006113d360128361169c565b91506113de826119bc565b602082019050919050565b6113f28161174c565b82525050565b60006114048284611309565b915081905092915050565b60006020820190506114246000830184611294565b92915050565b600060608201905061143f6000830186611294565b61144c6020830185611294565b61145960408301846113e9565b949350505050565b60006040820190506114766000830185611294565b61148360208301846113e9565b9392505050565b600060808201905061149f6000830186611294565b6114ac60208301856113e9565b6114b960408301846112c1565b81810360608301526114ca816113a3565b9050949350505050565b600060e0820190506114e9600083018a6112b2565b6114f66020830189611294565b818103604083015261150881886112d0565b905061151760608301876113e9565b61152460808301866113e9565b81810360a083015261153681856112d0565b905061154560c08301846112a3565b98975050505050505050565b6000602082019050818103600083015261156a8161133a565b9050919050565b6000602082019050818103600083015261158a8161135d565b9050919050565b600060208201905081810360008301526115aa81611380565b9050919050565b600060208201905081810360008301526115ca816113c6565b9050919050565b60006040820190506115e660008301856113e9565b81810360208301526115f881846112d0565b90509392505050565b600060408201905061161660008301856113e9565b61162360208301846113e9565b9392505050565b6000611634611645565b90506116408282611800565b919050565b6000604051905090565b600067ffffffffffffffff82111561166a576116696118d8565b5b61167382611907565b9050602081019050919050565b600081519050919050565b600082825260208201905092915050565b600082825260208201905092915050565b600081905092915050565b60006116c38261174c565b91506116ce8361174c565b9250827fffffffffffffffffffffffffffffffffffffffffffffffffffffffffffffffff038211156117035761170261187a565b5b828201905092915050565b60006117198261172c565b9050919050565b60008115159050919050565b600073ffffffffffffffffffffffffffffffffffffffff82169050919050565b6000819050919050565b600061176182611768565b9050919050565b60006117738261172c565b9050919050565b60006117858261174c565b9050919050565b82818337600083830152505050565b60005b838110156117b957808201518184015260208101905061179e565b838111156117c8576000848401525b50505050565b600060028204905060018216806117e657607f821691505b602082108114156117fa576117f96118a9565b5b50919050565b61180982611907565b810181811067ffffffffffffffff82111715611828576118276118d8565b5b80604052505050565b600061183c8261174c565b91507fffffffffffffffffffffffffffffffffffffffffffffffffffffffffffffffff82141561186f5761186e61187a565b5b600182019050919050565b7f4e487b7100000000000000000000000000000000000000000000000000000000600052601160045260246000fd5b7f4e487b7100000000000000000000000000000000000000000000000000000000600052602260045260246000fd5b7f4e487b7100000000000000000000000000000000000000000000000000000000600052604160045260246000fd5b6000601f19601f8301169050919050565b7f4f776e61626c653a206e6577206f776e657220697320746865207a65726f206160008201527f6464726573730000000000000000000000000000000000000000000000000000602082015250565b7f50726f6a656374206e6f74206163746976652100000000000000000000000000600082015250565b7f4f776e61626c653a2063616c6c6572206973206e6f7420746865206f776e6572600082015250565b50565b7f4e6f742070726f6a656374206f776e6572210000000000000000000000000000600082015250565b6119ee8161170e565b81146119f957600080fd5b50565b611a0581611720565b8114611a1057600080fd5b50565b611a1c8161174c565b8114611a2757600080fd5b5056fea2646970667358221220005365b99e855bc0b639dee62a7d8a4bbb9aa5d36fe0b800a416810cd2478f0064736f6c63430008040033",
  "linkReferences": {},
  "deployedLinkReferences": {}
}