{
  "_format": "hh-sol-artifact-1",
  "contractName": "Donations",
  "sourceName": "contracts/Donations.sol",
  "abi": [
    {
      "inputs": [
        {
          "internalType": "string",
          "name": "_title",
          "type": "string"
        },
        {
          "internalType": "address",
          "name": "coin",
          "type": "address"
        },
        {
          "internalType": "address",
          "name": "projectOwner",
          "type": "address"
        }
      ],
      "stateMutability": "nonpayable",
      "type": "constructor"
    },
    {
      "anonymous": false,
      "inputs": [
        {
          "indexed": true,
          "internalType": "address",
          "name": "owner",
          "type": "address"
        },
        {
          "indexed": true,
          "internalType": "address",
          "name": "approved",
          "type": "address"
        },
        {
          "indexed": true,
          "internalType": "uint256",
          "name": "tokenId",
          "type": "uint256"
        }
      ],
      "name": "Approval",
      "type": "event"
    },
    {
      "anonymous": false,
      "inputs": [
        {
          "indexed": true,
          "internalType": "address",
          "name": "owner",
          "type": "address"
        },
        {
          "indexed": true,
          "internalType": "address",
          "name": "operator",
          "type": "address"
        },
        {
          "indexed": false,
          "internalType": "bool",
          "name": "approved",
          "type": "bool"
        }
      ],
      "name": "ApprovalForAll",
      "type": "event"
    },
    {
      "anonymous": false,
      "inputs": [
        {
          "indexed": false,
          "internalType": "uint256",
          "name": "id",
          "type": "uint256"
        }
      ],
      "name": "End",
      "type": "event"
    },
    {
      "anonymous": false,
      "inputs": [
        {
          "indexed": false,
          "internalType": "uint256",
          "name": "id",
          "type": "uint256"
        },
        {
          "indexed": false,
          "internalType": "address",
          "name": "coin",
          "type": "address"
        },
        {
          "indexed": false,
          "internalType": "address",
          "name": "projectOwner",
          "type": "address"
        }
      ],
      "name": "NewProject",
      "type": "event"
    },
    {
      "anonymous": false,
      "inputs": [
        {
          "indexed": false,
          "internalType": "uint256",
          "name": "id",
          "type": "uint256"
        },
        {
          "indexed": false,
          "internalType": "uint256",
          "name": "projectId",
          "type": "uint256"
        },
        {
          "indexed": false,
          "internalType": "address",
          "name": "owner",
          "type": "address"
        },
        {
          "indexed": false,
          "internalType": "uint256",
          "name": "amount",
          "type": "uint256"
        },
        {
          "indexed": false,
          "internalType": "string",
          "name": "message",
          "type": "string"
        }
      ],
      "name": "NewToken",
      "type": "event"
    },
    {
      "anonymous": false,
      "inputs": [
        {
          "indexed": true,
          "internalType": "address",
          "name": "previousOwner",
          "type": "address"
        },
        {
          "indexed": true,
          "internalType": "address",
          "name": "newOwner",
          "type": "address"
        }
      ],
      "name": "OwnershipTransferred",
      "type": "event"
    },
    {
      "anonymous": false,
      "inputs": [
        {
          "indexed": true,
          "internalType": "address",
          "name": "from",
          "type": "address"
        },
        {
          "indexed": true,
          "internalType": "address",
          "name": "to",
          "type": "address"
        },
        {
          "indexed": true,
          "internalType": "uint256",
          "name": "tokenId",
          "type": "uint256"
        }
      ],
      "name": "Transfer",
      "type": "event"
    },
    {
      "inputs": [
        {
          "internalType": "address",
          "name": "to",
          "type": "address"
        },
        {
          "internalType": "uint256",
          "name": "tokenId",
          "type": "uint256"
        }
      ],
      "name": "approve",
      "outputs": [],
      "stateMutability": "nonpayable",
      "type": "function"
    },
    {
      "inputs": [
        {
          "internalType": "address",
          "name": "owner",
          "type": "address"
        }
      ],
      "name": "balanceOf",
      "outputs": [
        {
          "internalType": "uint256",
          "name": "",
          "type": "uint256"
        }
      ],
      "stateMutability": "view",
      "type": "function"
    },
    {
      "inputs": [],
      "name": "contractURI",
      "outputs": [
        {
          "internalType": "string",
          "name": "",
          "type": "string"
        }
      ],
      "stateMutability": "view",
      "type": "function"
    },
    {
      "inputs": [
        {
          "internalType": "uint256",
          "name": "id",
          "type": "uint256"
        },
        {
          "internalType": "uint256",
          "name": "amount",
          "type": "uint256"
        },
        {
          "internalType": "string",
          "name": "message",
          "type": "string"
        }
      ],
      "name": "donate",
      "outputs": [],
      "stateMutability": "nonpayable",
      "type": "function"
    },
    {
      "inputs": [
        {
          "internalType": "uint256",
          "name": "id",
          "type": "uint256"
        }
      ],
      "name": "end",
      "outputs": [],
      "stateMutability": "nonpayable",
      "type": "function"
    },
    {
      "inputs": [
        {
          "internalType": "uint256",
          "name": "tokenId",
          "type": "uint256"
        }
      ],
      "name": "getApproved",
      "outputs": [
        {
          "internalType": "address",
          "name": "",
          "type": "address"
        }
      ],
      "stateMutability": "view",
      "type": "function"
    },
    {
      "inputs": [
        {
          "internalType": "address",
          "name": "owner",
          "type": "address"
        },
        {
          "internalType": "address",
          "name": "operator",
          "type": "address"
        }
      ],
      "name": "isApprovedForAll",
      "outputs": [
        {
          "internalType": "bool",
          "name": "",
          "type": "bool"
        }
      ],
      "stateMutability": "view",
      "type": "function"
    },
    {
      "inputs": [],
      "name": "name",
      "outputs": [
        {
          "internalType": "string",
          "name": "",
          "type": "string"
        }
      ],
      "stateMutability": "view",
      "type": "function"
    },
    {
      "inputs": [
        {
          "internalType": "address",
          "name": "coin",
          "type": "address"
        },
        {
          "internalType": "address",
          "name": "projectOwner",
          "type": "address"
        }
      ],
      "name": "newProject",
      "outputs": [],
      "stateMutability": "nonpayable",
      "type": "function"
    },
    {
      "inputs": [],
      "name": "owner",
      "outputs": [
        {
          "internalType": "address",
          "name": "",
          "type": "address"
        }
      ],
      "stateMutability": "view",
      "type": "function"
    },
    {
      "inputs": [
        {
          "internalType": "uint256",
          "name": "tokenId",
          "type": "uint256"
        }
      ],
      "name": "ownerOf",
      "outputs": [
        {
          "internalType": "address",
          "name": "",
          "type": "address"
        }
      ],
      "stateMutability": "view",
      "type": "function"
    },
    {
      "inputs": [
        {
          "internalType": "uint256",
          "name": "",
          "type": "uint256"
        }
      ],
      "name": "projects",
      "outputs": [
        {
          "internalType": "bool",
          "name": "active",
          "type": "bool"
        },
        {
          "internalType": "contract IERC20",
          "name": "coin",
          "type": "address"
        },
        {
          "internalType": "address",
          "name": "owner",
          "type": "address"
        },
        {
          "internalType": "uint256",
          "name": "donated",
          "type": "uint256"
        }
      ],
      "stateMutability": "view",
      "type": "function"
    },
    {
      "inputs": [],
      "name": "renounceOwnership",
      "outputs": [],
      "stateMutability": "nonpayable",
      "type": "function"
    },
    {
      "inputs": [
        {
          "internalType": "address",
          "name": "from",
          "type": "address"
        },
        {
          "internalType": "address",
          "name": "to",
          "type": "address"
        },
        {
          "internalType": "uint256",
          "name": "tokenId",
          "type": "uint256"
        }
      ],
      "name": "safeTransferFrom",
      "outputs": [],
      "stateMutability": "nonpayable",
      "type": "function"
    },
    {
      "inputs": [
        {
          "internalType": "address",
          "name": "from",
          "type": "address"
        },
        {
          "internalType": "address",
          "name": "to",
          "type": "address"
        },
        {
          "internalType": "uint256",
          "name": "tokenId",
          "type": "uint256"
        },
        {
          "internalType": "bytes",
          "name": "_data",
          "type": "bytes"
        }
      ],
      "name": "safeTransferFrom",
      "outputs": [],
      "stateMutability": "nonpayable",
      "type": "function"
    },
    {
      "inputs": [
        {
          "internalType": "address",
          "name": "operator",
          "type": "address"
        },
        {
          "internalType": "bool",
          "name": "approved",
          "type": "bool"
        }
      ],
      "name": "setApprovalForAll",
      "outputs": [],
      "stateMutability": "nonpayable",
      "type": "function"
    },
    {
      "inputs": [
        {
          "internalType": "bytes4",
          "name": "interfaceId",
          "type": "bytes4"
        }
      ],
      "name": "supportsInterface",
      "outputs": [
        {
          "internalType": "bool",
          "name": "",
          "type": "bool"
        }
      ],
      "stateMutability": "view",
      "type": "function"
    },
    {
      "inputs": [],
      "name": "symbol",
      "outputs": [
        {
          "internalType": "string",
          "name": "",
          "type": "string"
        }
      ],
      "stateMutability": "view",
      "type": "function"
    },
    {
      "inputs": [],
      "name": "title",
      "outputs": [
        {
          "internalType": "string",
          "name": "",
          "type": "string"
        }
      ],
      "stateMutability": "view",
      "type": "function"
    },
    {
      "inputs": [
        {
          "internalType": "uint256",
          "name": "tokenId",
          "type": "uint256"
        }
      ],
      "name": "tokenURI",
      "outputs": [
        {
          "internalType": "string",
          "name": "",
          "type": "string"
        }
      ],
      "stateMutability": "view",
      "type": "function"
    },
    {
      "inputs": [
        {
          "internalType": "uint256",
          "name": "",
          "type": "uint256"
        }
      ],
      "name": "tokens",
      "outputs": [
        {
          "internalType": "uint256",
          "name": "projectId",
          "type": "uint256"
        },
        {
          "internalType": "address",
          "name": "owner",
          "type": "address"
        },
        {
          "internalType": "uint256",
          "name": "amount",
          "type": "uint256"
        }
      ],
      "stateMutability": "view",
      "type": "function"
    },
    {
      "inputs": [
        {
          "internalType": "address",
          "name": "from",
          "type": "address"
        },
        {
          "internalType": "address",
          "name": "to",
          "type": "address"
        },
        {
          "internalType": "uint256",
          "name": "tokenId",
          "type": "uint256"
        }
      ],
      "name": "transferFrom",
      "outputs": [],
      "stateMutability": "nonpayable",
      "type": "function"
    },
    {
      "inputs": [
        {
          "internalType": "address",
          "name": "newOwner",
          "type": "address"
        }
      ],
      "name": "transferOwnership",
      "outputs": [],
      "stateMutability": "nonpayable",
      "type": "function"
    }
  ],
  "bytecode": "0x60806040523480156200001157600080fd5b50604051620041ae380380620041ae833981810160405281019062000037919062000467565b82838160009080519060200190620000519291906200032e565b5080600190805190602001906200006a9291906200032e565b5050506200008d620000816200023c60201b60201c565b6200024460201b60201c565b8260099080519060200190620000a59291906200032e565b5033600a60006101000a81548173ffffffffffffffffffffffffffffffffffffffff021916908373ffffffffffffffffffffffffffffffffffffffff160217905550620000fe60086200030a60201b6200171a1760201c565b60405180608001604052806001151581526020018373ffffffffffffffffffffffffffffffffffffffff1681526020018273ffffffffffffffffffffffffffffffffffffffff1681526020016000815250600c60006200016a60086200032060201b620017301760201c565b815260200190815260200160002060008201518160000160006101000a81548160ff02191690831515021790555060208201518160000160016101000a81548173ffffffffffffffffffffffffffffffffffffffff021916908373ffffffffffffffffffffffffffffffffffffffff16021790555060408201518160010160006101000a81548173ffffffffffffffffffffffffffffffffffffffff021916908373ffffffffffffffffffffffffffffffffffffffff1602179055506060820151816002015590505050505062000694565b600033905090565b6000600660009054906101000a900473ffffffffffffffffffffffffffffffffffffffff16905081600660006101000a81548173ffffffffffffffffffffffffffffffffffffffff021916908373ffffffffffffffffffffffffffffffffffffffff1602179055508173ffffffffffffffffffffffffffffffffffffffff168173ffffffffffffffffffffffffffffffffffffffff167f8be0079c531659141344cd1fd0a4f28419497f9722a3daafe3b4186f6b6457e060405160405180910390a35050565b6001816000016000828254019250508190555050565b600081600001549050919050565b8280546200033c906200059f565b90600052602060002090601f016020900481019282620003605760008555620003ac565b82601f106200037b57805160ff1916838001178555620003ac565b82800160010185558215620003ac579182015b82811115620003ab5782518255916020019190600101906200038e565b5b509050620003bb9190620003bf565b5090565b5b80821115620003da576000816000905550600101620003c0565b5090565b6000620003f5620003ef84620004ff565b620004d6565b9050828152602081018484840111156200040e57600080fd5b6200041b84828562000569565b509392505050565b60008151905062000434816200067a565b92915050565b600082601f8301126200044c57600080fd5b81516200045e848260208601620003de565b91505092915050565b6000806000606084860312156200047d57600080fd5b600084015167ffffffffffffffff8111156200049857600080fd5b620004a6868287016200043a565b9350506020620004b98682870162000423565b9250506040620004cc8682870162000423565b9150509250925092565b6000620004e2620004f5565b9050620004f08282620005d5565b919050565b6000604051905090565b600067ffffffffffffffff8211156200051d576200051c6200063a565b5b620005288262000669565b9050602081019050919050565b6000620005428262000549565b9050919050565b600073ffffffffffffffffffffffffffffffffffffffff82169050919050565b60005b83811015620005895780820151818401526020810190506200056c565b8381111562000599576000848401525b50505050565b60006002820490506001821680620005b857607f821691505b60208210811415620005cf57620005ce6200060b565b5b50919050565b620005e08262000669565b810181811067ffffffffffffffff821117156200060257620006016200063a565b5b80604052505050565b7f4e487b7100000000000000000000000000000000000000000000000000000000600052602260045260246000fd5b7f4e487b7100000000000000000000000000000000000000000000000000000000600052604160045260246000fd5b6000601f19601f8301169050919050565b620006858162000535565b81146200069157600080fd5b50565b613b0a80620006a46000396000f3fe608060405234801561001057600080fd5b506004361061014d5760003560e01c80636352211e116100c3578063b88d4fde1161007c578063b88d4fde146103a1578063c87b56dd146103bd578063ce45aa74146103ed578063e8a3d48514610409578063e985e9c514610427578063f2fde38b146104575761014d565b80636352211e146102df57806370a082311461030f578063715018a61461033f5780638da5cb5b1461034957806395d89b4114610367578063a22cb465146103855761014d565b8063107046bd11610115578063107046bd1461020857806316c3cdf51461023b57806323b872dd1461025757806342842e0e146102735780634a79d50c1461028f5780634f64b2be146102ad5761014d565b806301ffc9a71461015257806306fdde0314610182578063081812fc146101a0578063095ea7b3146101d05780630ad24528146101ec575b600080fd5b61016c600480360381019061016791906127c7565b610473565b6040516101799190612e08565b60405180910390f35b61018a610555565b6040516101979190612e68565b60405180910390f35b6101ba60048036038101906101b5919061285a565b6105e7565b6040516101c79190612d41565b60405180910390f35b6101ea60048036038101906101e59190612762565b61066c565b005b6102066004803603810190610201919061285a565b610784565b005b610222600480360381019061021d919061285a565b610a45565b6040516102329493929190612e23565b60405180910390f35b61025560048036038101906102509190612883565b610ac2565b005b610271600480360381019061026c919061265c565b610d72565b005b61028d6004803603810190610288919061265c565b610dd2565b005b610297610df2565b6040516102a49190612e68565b60405180910390f35b6102c760048036038101906102c2919061285a565b610e80565b6040516102d69392919061311c565b60405180910390f35b6102f960048036038101906102f4919061285a565b610eca565b6040516103069190612d41565b60405180910390f35b610329600480360381019061032491906125f7565b610f7c565b60405161033691906130ca565b60405180910390f35b610347611034565b005b6103516110bc565b60405161035e9190612d41565b60405180910390f35b61036f6110e6565b60405161037c9190612e68565b60405180910390f35b61039f600480360381019061039a9190612726565b611178565b005b6103bb60048036038101906103b691906126ab565b61118e565b005b6103d760048036038101906103d2919061285a565b6111f0565b6040516103e49190612e68565b60405180910390f35b61040760048036038101906104029190612620565b6112ca565b005b6104116114c0565b60405161041e9190612e68565b60405180910390f35b610441600480360381019061043c9190612620565b61158e565b60405161044e9190612e08565b60405180910390f35b610471600480360381019061046c91906125f7565b611622565b005b60007f80ac58cd000000000000000000000000000000000000000000000000000000007bffffffffffffffffffffffffffffffffffffffffffffffffffffffff1916827bffffffffffffffffffffffffffffffffffffffffffffffffffffffff1916148061053e57507f5b5e139f000000000000000000000000000000000000000000000000000000007bffffffffffffffffffffffffffffffffffffffffffffffffffffffff1916827bffffffffffffffffffffffffffffffffffffffffffffffffffffffff1916145b8061054e575061054d8261173e565b5b9050919050565b60606000805461056490613421565b80601f016020809104026020016040519081016040528092919081815260200182805461059090613421565b80156105dd5780601f106105b2576101008083540402835291602001916105dd565b820191906000526020600020905b8154815290600101906020018083116105c057829003601f168201915b5050505050905090565b60006105f2826117a8565b610631576040517f08c379a00000000000000000000000000000000000000000000000000000000081526004016106289061300a565b60405180910390fd5b6004600083815260200190815260200160002060009054906101000a900473ffffffffffffffffffffffffffffffffffffffff169050919050565b600061067782610eca565b90508073ffffffffffffffffffffffffffffffffffffffff168373ffffffffffffffffffffffffffffffffffffffff1614156106e8576040517f08c379a00000000000000000000000000000000000000000000000000000000081526004016106df9061308a565b60405180910390fd5b8073ffffffffffffffffffffffffffffffffffffffff16610707611814565b73ffffffffffffffffffffffffffffffffffffffff161480610736575061073581610730611814565b61158e565b5b610775576040517f08c379a000000000000000000000000000000000000000000000000000000000815260040161076c90612f6a565b60405180910390fd5b61077f838361181c565b505050565b803373ffffffffffffffffffffffffffffffffffffffff16600c600083815260200190815260200160002060010160009054906101000a900473ffffffffffffffffffffffffffffffffffffffff1673ffffffffffffffffffffffffffffffffffffffff16148061082757503373ffffffffffffffffffffffffffffffffffffffff1661080f6110bc565b73ffffffffffffffffffffffffffffffffffffffff16145b610866576040517f08c379a000000000000000000000000000000000000000000000000000000000815260040161085d90612eea565b60405180910390fd5b81600c600082815260200190815260200160002060000160009054906101000a900460ff166108ca576040517f08c379a00000000000000000000000000000000000000000000000000000000081526004016108c190612fca565b60405180910390fd5b6000600c600085815260200190815260200160002060000160006101000a81548160ff021916908315150217905550600c600084815260200190815260200160002060000160019054906101000a900473ffffffffffffffffffffffffffffffffffffffff1673ffffffffffffffffffffffffffffffffffffffff1663a9059cbb600c600086815260200190815260200160002060010160009054906101000a900473ffffffffffffffffffffffffffffffffffffffff16600c6000878152602001908152602001600020600201546040518363ffffffff1660e01b81526004016109b6929190612ddf565b602060405180830381600087803b1580156109d057600080fd5b505af11580156109e4573d6000803e3d6000fd5b505050506040513d601f19601f82011682018060405250810190610a08919061279e565b507f2c03d2f09622b67ee91478a7e43219c7ced47eff3a3f8bda2eef920181e8676683604051610a3891906130ca565b60405180910390a1505050565b600c6020528060005260406000206000915090508060000160009054906101000a900460ff16908060000160019054906101000a900473ffffffffffffffffffffffffffffffffffffffff16908060010160009054906101000a900473ffffffffffffffffffffffffffffffffffffffff16908060020154905084565b82600c600082815260200190815260200160002060000160009054906101000a900460ff16610b26576040517f08c379a0000000000000000000000000000000000000000000000000000000008152600401610b1d90612fca565b60405180910390fd5b60008311610b69576040517f08c379a0000000000000000000000000000000000000000000000000000000008152600401610b609061304a565b60405180910390fd5b600c600085815260200190815260200160002060000160019054906101000a900473ffffffffffffffffffffffffffffffffffffffff1673ffffffffffffffffffffffffffffffffffffffff166323b872dd3330866040518463ffffffff1660e01b8152600401610bdc93929190612d5c565b602060405180830381600087803b158015610bf657600080fd5b505af1158015610c0a573d6000803e3d6000fd5b505050506040513d601f19601f82011682018060405250810190610c2e919061279e565b5082600c60008681526020019081526020016000206002016000828254610c55919061328c565b92505081905550610c66600761171a565b610c7933610c746007611730565b6118d5565b60405180606001604052808581526020013373ffffffffffffffffffffffffffffffffffffffff16815260200184815250600b6000610cb86007611730565b81526020019081526020016000206000820151816000015560208201518160010160006101000a81548173ffffffffffffffffffffffffffffffffffffffff021916908373ffffffffffffffffffffffffffffffffffffffff160217905550604082015181600201559050507f8e6ae23f399b1427f0ea8f9eefcdc304453920e68a6ac78a558eb88a905c677e610d4f6007611730565b85338686604051610d64959493929190613153565b60405180910390a150505050565b610d83610d7d611814565b826118f3565b610dc2576040517f08c379a0000000000000000000000000000000000000000000000000000000008152600401610db9906130aa565b60405180910390fd5b610dcd8383836119d1565b505050565b610ded8383836040518060200160405280600081525061118e565b505050565b60098054610dff90613421565b80601f0160208091040260200160405190810160405280929190818152602001828054610e2b90613421565b8015610e785780601f10610e4d57610100808354040283529160200191610e78565b820191906000526020600020905b815481529060010190602001808311610e5b57829003601f168201915b505050505081565b600b6020528060005260406000206000915090508060000154908060010160009054906101000a900473ffffffffffffffffffffffffffffffffffffffff16908060020154905083565b6000806002600084815260200190815260200160002060009054906101000a900473ffffffffffffffffffffffffffffffffffffffff169050600073ffffffffffffffffffffffffffffffffffffffff168173ffffffffffffffffffffffffffffffffffffffff161415610f73576040517f08c379a0000000000000000000000000000000000000000000000000000000008152600401610f6a90612faa565b60405180910390fd5b80915050919050565b60008073ffffffffffffffffffffffffffffffffffffffff168273ffffffffffffffffffffffffffffffffffffffff161415610fed576040517f08c379a0000000000000000000000000000000000000000000000000000000008152600401610fe490612f8a565b60405180910390fd5b600360008373ffffffffffffffffffffffffffffffffffffffff1673ffffffffffffffffffffffffffffffffffffffff168152602001908152602001600020549050919050565b61103c611814565b73ffffffffffffffffffffffffffffffffffffffff1661105a6110bc565b73ffffffffffffffffffffffffffffffffffffffff16146110b0576040517f08c379a00000000000000000000000000000000000000000000000000000000081526004016110a79061302a565b60405180910390fd5b6110ba6000611c2d565b565b6000600660009054906101000a900473ffffffffffffffffffffffffffffffffffffffff16905090565b6060600180546110f590613421565b80601f016020809104026020016040519081016040528092919081815260200182805461112190613421565b801561116e5780601f106111435761010080835404028352916020019161116e565b820191906000526020600020905b81548152906001019060200180831161115157829003601f168201915b5050505050905090565b61118a611183611814565b8383611cf3565b5050565b61119f611199611814565b836118f3565b6111de576040517f08c379a00000000000000000000000000000000000000000000000000000000081526004016111d5906130aa565b60405180910390fd5b6111ea84848484611e60565b50505050565b6060600a60009054906101000a900473ffffffffffffffffffffffffffffffffffffffff1673ffffffffffffffffffffffffffffffffffffffff16637754305c6040518163ffffffff1660e01b815260040160006040518083038186803b15801561125a57600080fd5b505afa15801561126e573d6000803e3d6000fd5b505050506040513d6000823e3d601f19601f820116820180604052508101906112979190612819565b60096112a284611ebc565b6040516020016112b493929190612d05565b6040516020818303038152906040529050919050565b6112d2611814565b73ffffffffffffffffffffffffffffffffffffffff166112f06110bc565b73ffffffffffffffffffffffffffffffffffffffff1614611346576040517f08c379a000000000000000000000000000000000000000000000000000000000815260040161133d9061302a565b60405180910390fd5b611350600861171a565b60405180608001604052806001151581526020018373ffffffffffffffffffffffffffffffffffffffff1681526020018273ffffffffffffffffffffffffffffffffffffffff1681526020016000815250600c60006113af6008611730565b815260200190815260200160002060008201518160000160006101000a81548160ff02191690831515021790555060208201518160000160016101000a81548173ffffffffffffffffffffffffffffffffffffffff021916908373ffffffffffffffffffffffffffffffffffffffff16021790555060408201518160010160006101000a81548173ffffffffffffffffffffffffffffffffffffffff021916908373ffffffffffffffffffffffffffffffffffffffff160217905550606082015181600201559050507fd5a069f277e62d5424460614fb30a4acf02de4b972fcb7e56a216d134e7092ba6114a36008611730565b83836040516114b4939291906130e5565b60405180910390a15050565b6060600a60009054906101000a900473ffffffffffffffffffffffffffffffffffffffff1673ffffffffffffffffffffffffffffffffffffffff16637754305c6040518163ffffffff1660e01b815260040160006040518083038186803b15801561152a57600080fd5b505afa15801561153e573d6000803e3d6000fd5b505050506040513d6000823e3d601f19601f820116820180604052508101906115679190612819565b600960405160200161157a929190612ce1565b604051602081830303815290604052905090565b6000600560008473ffffffffffffffffffffffffffffffffffffffff1673ffffffffffffffffffffffffffffffffffffffff16815260200190815260200160002060008373ffffffffffffffffffffffffffffffffffffffff1673ffffffffffffffffffffffffffffffffffffffff16815260200190815260200160002060009054906101000a900460ff16905092915050565b61162a611814565b73ffffffffffffffffffffffffffffffffffffffff166116486110bc565b73ffffffffffffffffffffffffffffffffffffffff161461169e576040517f08c379a00000000000000000000000000000000000000000000000000000000081526004016116959061302a565b60405180910390fd5b600073ffffffffffffffffffffffffffffffffffffffff168173ffffffffffffffffffffffffffffffffffffffff16141561170e576040517f08c379a000000000000000000000000000000000000000000000000000000000815260040161170590612eaa565b60405180910390fd5b61171781611c2d565b50565b6001816000016000828254019250508190555050565b600081600001549050919050565b60007f01ffc9a7000000000000000000000000000000000000000000000000000000007bffffffffffffffffffffffffffffffffffffffffffffffffffffffff1916827bffffffffffffffffffffffffffffffffffffffffffffffffffffffff1916149050919050565b60008073ffffffffffffffffffffffffffffffffffffffff166002600084815260200190815260200160002060009054906101000a900473ffffffffffffffffffffffffffffffffffffffff1673ffffffffffffffffffffffffffffffffffffffff1614159050919050565b600033905090565b816004600083815260200190815260200160002060006101000a81548173ffffffffffffffffffffffffffffffffffffffff021916908373ffffffffffffffffffffffffffffffffffffffff160217905550808273ffffffffffffffffffffffffffffffffffffffff1661188f83610eca565b73ffffffffffffffffffffffffffffffffffffffff167f8c5be1e5ebec7d5bd14f71427d1e84f3dd0314c0f7b2291e5b200ac8c7c3b92560405160405180910390a45050565b6118ef828260405180602001604052806000815250612069565b5050565b60006118fe826117a8565b61193d576040517f08c379a000000000000000000000000000000000000000000000000000000000815260040161193490612f4a565b60405180910390fd5b600061194883610eca565b90508073ffffffffffffffffffffffffffffffffffffffff168473ffffffffffffffffffffffffffffffffffffffff1614806119b757508373ffffffffffffffffffffffffffffffffffffffff1661199f846105e7565b73ffffffffffffffffffffffffffffffffffffffff16145b806119c857506119c7818561158e565b5b91505092915050565b8273ffffffffffffffffffffffffffffffffffffffff166119f182610eca565b73ffffffffffffffffffffffffffffffffffffffff1614611a47576040517f08c379a0000000000000000000000000000000000000000000000000000000008152600401611a3e9061306a565b60405180910390fd5b600073ffffffffffffffffffffffffffffffffffffffff168273ffffffffffffffffffffffffffffffffffffffff161415611ab7576040517f08c379a0000000000000000000000000000000000000000000000000000000008152600401611aae90612f0a565b60405180910390fd5b611ac28383836120c4565b611acd60008261181c565b6001600360008573ffffffffffffffffffffffffffffffffffffffff1673ffffffffffffffffffffffffffffffffffffffff1681526020019081526020016000206000828254611b1d9190613313565b925050819055506001600360008473ffffffffffffffffffffffffffffffffffffffff1673ffffffffffffffffffffffffffffffffffffffff1681526020019081526020016000206000828254611b74919061328c565b92505081905550816002600083815260200190815260200160002060006101000a81548173ffffffffffffffffffffffffffffffffffffffff021916908373ffffffffffffffffffffffffffffffffffffffff160217905550808273ffffffffffffffffffffffffffffffffffffffff168473ffffffffffffffffffffffffffffffffffffffff167fddf252ad1be2c89b69c2b068fc378daa952ba7f163c4a11628f55a4df523b3ef60405160405180910390a4505050565b6000600660009054906101000a900473ffffffffffffffffffffffffffffffffffffffff16905081600660006101000a81548173ffffffffffffffffffffffffffffffffffffffff021916908373ffffffffffffffffffffffffffffffffffffffff1602179055508173ffffffffffffffffffffffffffffffffffffffff168173ffffffffffffffffffffffffffffffffffffffff167f8be0079c531659141344cd1fd0a4f28419497f9722a3daafe3b4186f6b6457e060405160405180910390a35050565b8173ffffffffffffffffffffffffffffffffffffffff168373ffffffffffffffffffffffffffffffffffffffff161415611d62576040517f08c379a0000000000000000000000000000000000000000000000000000000008152600401611d5990612f2a565b60405180910390fd5b80600560008573ffffffffffffffffffffffffffffffffffffffff1673ffffffffffffffffffffffffffffffffffffffff16815260200190815260200160002060008473ffffffffffffffffffffffffffffffffffffffff1673ffffffffffffffffffffffffffffffffffffffff16815260200190815260200160002060006101000a81548160ff0219169083151502179055508173ffffffffffffffffffffffffffffffffffffffff168373ffffffffffffffffffffffffffffffffffffffff167f17307eab39ab6107e8899845ad3d59bd9653f200f220920489ca2b5937696c3183604051611e539190612e08565b60405180910390a3505050565b611e6b8484846119d1565b611e77848484846120c9565b611eb6576040517f08c379a0000000000000000000000000000000000000000000000000000000008152600401611ead90612e8a565b60405180910390fd5b50505050565b60606000821415611f04576040518060400160405280600181526020017f30000000000000000000000000000000000000000000000000000000000000008152509050612064565b600082905060005b60008214611f36578080611f1f90613484565b915050600a82611f2f91906132e2565b9150611f0c565b60008167ffffffffffffffff811115611f78577f4e487b7100000000000000000000000000000000000000000000000000000000600052604160045260246000fd5b6040519080825280601f01601f191660200182016040528015611faa5781602001600182028036833780820191505090505b5090505b6000851461205d57600182611fc39190613313565b9150600a85611fd291906134cd565b6030611fde919061328c565b60f81b81838151811061201a577f4e487b7100000000000000000000000000000000000000000000000000000000600052603260045260246000fd5b60200101907effffffffffffffffffffffffffffffffffffffffffffffffffffffffffffff1916908160001a905350600a8561205691906132e2565b9450611fae565b8093505050505b919050565b6120738383612260565b61208060008484846120c9565b6120bf576040517f08c379a00000000000000000000000000000000000000000000000000000000081526004016120b690612e8a565b60405180910390fd5b505050565b505050565b60006120ea8473ffffffffffffffffffffffffffffffffffffffff1661242e565b15612253578373ffffffffffffffffffffffffffffffffffffffff1663150b7a02612113611814565b8786866040518563ffffffff1660e01b81526004016121359493929190612d93565b602060405180830381600087803b15801561214f57600080fd5b505af192505050801561218057506040513d601f19601f8201168201806040525081019061217d91906127f0565b60015b612203573d80600081146121b0576040519150601f19603f3d011682016040523d82523d6000602084013e6121b5565b606091505b506000815114156121fb576040517f08c379a00000000000000000000000000000000000000000000000000000000081526004016121f290612e8a565b60405180910390fd5b805181602001fd5b63150b7a0260e01b7bffffffffffffffffffffffffffffffffffffffffffffffffffffffff1916817bffffffffffffffffffffffffffffffffffffffffffffffffffffffff191614915050612258565b600190505b949350505050565b600073ffffffffffffffffffffffffffffffffffffffff168273ffffffffffffffffffffffffffffffffffffffff1614156122d0576040517f08c379a00000000000000000000000000000000000000000000000000000000081526004016122c790612fea565b60405180910390fd5b6122d9816117a8565b15612319576040517f08c379a000000000000000000000000000000000000000000000000000000000815260040161231090612eca565b60405180910390fd5b612325600083836120c4565b6001600360008473ffffffffffffffffffffffffffffffffffffffff1673ffffffffffffffffffffffffffffffffffffffff1681526020019081526020016000206000828254612375919061328c565b92505081905550816002600083815260200190815260200160002060006101000a81548173ffffffffffffffffffffffffffffffffffffffff021916908373ffffffffffffffffffffffffffffffffffffffff160217905550808273ffffffffffffffffffffffffffffffffffffffff16600073ffffffffffffffffffffffffffffffffffffffff167fddf252ad1be2c89b69c2b068fc378daa952ba7f163c4a11628f55a4df523b3ef60405160405180910390a45050565b600080823b905060008111915050919050565b600061245461244f846131d2565b6131ad565b90508281526020810184848401111561246c57600080fd5b6124778482856133df565b509392505050565b600061249261248d84613203565b6131ad565b9050828152602081018484840111156124aa57600080fd5b6124b58482856133df565b509392505050565b60006124d06124cb84613203565b6131ad565b9050828152602081018484840111156124e857600080fd5b6124f38482856133ee565b509392505050565b60008135905061250a81613a78565b92915050565b60008135905061251f81613a8f565b92915050565b60008151905061253481613a8f565b92915050565b60008135905061254981613aa6565b92915050565b60008151905061255e81613aa6565b92915050565b600082601f83011261257557600080fd5b8135612585848260208601612441565b91505092915050565b600082601f83011261259f57600080fd5b81356125af84826020860161247f565b91505092915050565b600082601f8301126125c957600080fd5b81516125d98482602086016124bd565b91505092915050565b6000813590506125f181613abd565b92915050565b60006020828403121561260957600080fd5b6000612617848285016124fb565b91505092915050565b6000806040838503121561263357600080fd5b6000612641858286016124fb565b9250506020612652858286016124fb565b9150509250929050565b60008060006060848603121561267157600080fd5b600061267f868287016124fb565b9350506020612690868287016124fb565b92505060406126a1868287016125e2565b9150509250925092565b600080600080608085870312156126c157600080fd5b60006126cf878288016124fb565b94505060206126e0878288016124fb565b93505060406126f1878288016125e2565b925050606085013567ffffffffffffffff81111561270e57600080fd5b61271a87828801612564565b91505092959194509250565b6000806040838503121561273957600080fd5b6000612747858286016124fb565b925050602061275885828601612510565b9150509250929050565b6000806040838503121561277557600080fd5b6000612783858286016124fb565b9250506020612794858286016125e2565b9150509250929050565b6000602082840312156127b057600080fd5b60006127be84828501612525565b91505092915050565b6000602082840312156127d957600080fd5b60006127e78482850161253a565b91505092915050565b60006020828403121561280257600080fd5b60006128108482850161254f565b91505092915050565b60006020828403121561282b57600080fd5b600082015167ffffffffffffffff81111561284557600080fd5b612851848285016125b8565b91505092915050565b60006020828403121561286c57600080fd5b600061287a848285016125e2565b91505092915050565b60008060006060848603121561289857600080fd5b60006128a6868287016125e2565b93505060206128b7868287016125e2565b925050604084013567ffffffffffffffff8111156128d457600080fd5b6128e08682870161258e565b9150509250925092565b6128f381613347565b82525050565b61290281613359565b82525050565b600061291382613249565b61291d818561325f565b935061292d8185602086016133ee565b612936816135ba565b840191505092915050565b61294a816133bb565b82525050565b600061295b82613254565b6129658185613270565b93506129758185602086016133ee565b61297e816135ba565b840191505092915050565b600061299482613254565b61299e8185613281565b93506129ae8185602086016133ee565b80840191505092915050565b600081546129c781613421565b6129d18186613281565b945060018216600081146129ec57600181146129fd57612a30565b60ff19831686528186019350612a30565b612a0685613234565b60005b83811015612a2857815481890152600182019150602081019050612a09565b838801955050505b50505092915050565b6000612a46603283613270565b9150612a51826135cb565b604082019050919050565b6000612a69602683613270565b9150612a748261361a565b604082019050919050565b6000612a8c601c83613270565b9150612a9782613669565b602082019050919050565b6000612aaf601183613270565b9150612aba82613692565b602082019050919050565b6000612ad2602483613270565b9150612add826136bb565b604082019050919050565b6000612af5601983613270565b9150612b008261370a565b602082019050919050565b6000612b18602c83613270565b9150612b2382613733565b604082019050919050565b6000612b3b603883613270565b9150612b4682613782565b604082019050919050565b6000612b5e602a83613270565b9150612b69826137d1565b604082019050919050565b6000612b81602983613270565b9150612b8c82613820565b604082019050919050565b6000612ba4601383613270565b9150612baf8261386f565b602082019050919050565b6000612bc7602083613270565b9150612bd282613898565b602082019050919050565b6000612bea602c83613270565b9150612bf5826138c1565b604082019050919050565b6000612c0d602083613270565b9150612c1882613910565b602082019050919050565b6000612c30601483613270565b9150612c3b82613939565b602082019050919050565b6000612c53602983613270565b9150612c5e82613962565b604082019050919050565b6000612c76602183613270565b9150612c81826139b1565b604082019050919050565b6000612c99603183613270565b9150612ca482613a00565b604082019050919050565b6000612cbc600183613281565b9150612cc782613a4f565b600182019050919050565b612cdb816133b1565b82525050565b6000612ced8285612989565b9150612cf982846129ba565b91508190509392505050565b6000612d118286612989565b9150612d1d82856129ba565b9150612d2882612caf565b9150612d348284612989565b9150819050949350505050565b6000602082019050612d5660008301846128ea565b92915050565b6000606082019050612d7160008301866128ea565b612d7e60208301856128ea565b612d8b6040830184612cd2565b949350505050565b6000608082019050612da860008301876128ea565b612db560208301866128ea565b612dc26040830185612cd2565b8181036060830152612dd48184612908565b905095945050505050565b6000604082019050612df460008301856128ea565b612e016020830184612cd2565b9392505050565b6000602082019050612e1d60008301846128f9565b92915050565b6000608082019050612e3860008301876128f9565b612e456020830186612941565b612e5260408301856128ea565b612e5f6060830184612cd2565b95945050505050565b60006020820190508181036000830152612e828184612950565b905092915050565b60006020820190508181036000830152612ea381612a39565b9050919050565b60006020820190508181036000830152612ec381612a5c565b9050919050565b60006020820190508181036000830152612ee381612a7f565b9050919050565b60006020820190508181036000830152612f0381612aa2565b9050919050565b60006020820190508181036000830152612f2381612ac5565b9050919050565b60006020820190508181036000830152612f4381612ae8565b9050919050565b60006020820190508181036000830152612f6381612b0b565b9050919050565b60006020820190508181036000830152612f8381612b2e565b9050919050565b60006020820190508181036000830152612fa381612b51565b9050919050565b60006020820190508181036000830152612fc381612b74565b9050919050565b60006020820190508181036000830152612fe381612b97565b9050919050565b6000602082019050818103600083015261300381612bba565b9050919050565b6000602082019050818103600083015261302381612bdd565b9050919050565b6000602082019050818103600083015261304381612c00565b9050919050565b6000602082019050818103600083015261306381612c23565b9050919050565b6000602082019050818103600083015261308381612c46565b9050919050565b600060208201905081810360008301526130a381612c69565b9050919050565b600060208201905081810360008301526130c381612c8c565b9050919050565b60006020820190506130df6000830184612cd2565b92915050565b60006060820190506130fa6000830186612cd2565b61310760208301856128ea565b61311460408301846128ea565b949350505050565b60006060820190506131316000830186612cd2565b61313e60208301856128ea565b61314b6040830184612cd2565b949350505050565b600060a0820190506131686000830188612cd2565b6131756020830187612cd2565b61318260408301866128ea565b61318f6060830185612cd2565b81810360808301526131a18184612950565b90509695505050505050565b60006131b76131c8565b90506131c38282613453565b919050565b6000604051905090565b600067ffffffffffffffff8211156131ed576131ec61358b565b5b6131f6826135ba565b9050602081019050919050565b600067ffffffffffffffff82111561321e5761321d61358b565b5b613227826135ba565b9050602081019050919050565b60008190508160005260206000209050919050565b600081519050919050565b600081519050919050565b600082825260208201905092915050565b600082825260208201905092915050565b600081905092915050565b6000613297826133b1565b91506132a2836133b1565b9250827fffffffffffffffffffffffffffffffffffffffffffffffffffffffffffffffff038211156132d7576132d66134fe565b5b828201905092915050565b60006132ed826133b1565b91506132f8836133b1565b9250826133085761330761352d565b5b828204905092915050565b600061331e826133b1565b9150613329836133b1565b92508282101561333c5761333b6134fe565b5b828203905092915050565b600061335282613391565b9050919050565b60008115159050919050565b60007fffffffff0000000000000000000000000000000000000000000000000000000082169050919050565b600073ffffffffffffffffffffffffffffffffffffffff82169050919050565b6000819050919050565b60006133c6826133cd565b9050919050565b60006133d882613391565b9050919050565b82818337600083830152505050565b60005b8381101561340c5780820151818401526020810190506133f1565b8381111561341b576000848401525b50505050565b6000600282049050600182168061343957607f821691505b6020821081141561344d5761344c61355c565b5b50919050565b61345c826135ba565b810181811067ffffffffffffffff8211171561347b5761347a61358b565b5b80604052505050565b600061348f826133b1565b91507fffffffffffffffffffffffffffffffffffffffffffffffffffffffffffffffff8214156134c2576134c16134fe565b5b600182019050919050565b60006134d8826133b1565b91506134e3836133b1565b9250826134f3576134f261352d565b5b828206905092915050565b7f4e487b7100000000000000000000000000000000000000000000000000000000600052601160045260246000fd5b7f4e487b7100000000000000000000000000000000000000000000000000000000600052601260045260246000fd5b7f4e487b7100000000000000000000000000000000000000000000000000000000600052602260045260246000fd5b7f4e487b7100000000000000000000000000000000000000000000000000000000600052604160045260246000fd5b6000601f19601f8301169050919050565b7f4552433732313a207472616e7366657220746f206e6f6e20455243373231526560008201527f63656976657220696d706c656d656e7465720000000000000000000000000000602082015250565b7f4f776e61626c653a206e6577206f776e657220697320746865207a65726f206160008201527f6464726573730000000000000000000000000000000000000000000000000000602082015250565b7f4552433732313a20746f6b656e20616c7265616479206d696e74656400000000600082015250565b7f4e6f742070726f6a656374206f776e6572000000000000000000000000000000600082015250565b7f4552433732313a207472616e7366657220746f20746865207a65726f2061646460008201527f7265737300000000000000000000000000000000000000000000000000000000602082015250565b7f4552433732313a20617070726f766520746f2063616c6c657200000000000000600082015250565b7f4552433732313a206f70657261746f7220717565727920666f72206e6f6e657860008201527f697374656e7420746f6b656e0000000000000000000000000000000000000000602082015250565b7f4552433732313a20617070726f76652063616c6c6572206973206e6f74206f7760008201527f6e6572206e6f7220617070726f76656420666f7220616c6c0000000000000000602082015250565b7f4552433732313a2062616c616e636520717565727920666f7220746865207a6560008201527f726f206164647265737300000000000000000000000000000000000000000000602082015250565b7f4552433732313a206f776e657220717565727920666f72206e6f6e657869737460008201527f656e7420746f6b656e0000000000000000000000000000000000000000000000602082015250565b7f50726f6a656374206e6f74206163746976652100000000000000000000000000600082015250565b7f4552433732313a206d696e7420746f20746865207a65726f2061646472657373600082015250565b7f4552433732313a20617070726f76656420717565727920666f72206e6f6e657860008201527f697374656e7420746f6b656e0000000000000000000000000000000000000000602082015250565b7f4f776e61626c653a2063616c6c6572206973206e6f7420746865206f776e6572600082015250565b7f446f6e6174696f6e20616d6f756e742069732030000000000000000000000000600082015250565b7f4552433732313a207472616e73666572206f6620746f6b656e2074686174206960008201527f73206e6f74206f776e0000000000000000000000000000000000000000000000602082015250565b7f4552433732313a20617070726f76616c20746f2063757272656e74206f776e6560008201527f7200000000000000000000000000000000000000000000000000000000000000602082015250565b7f4552433732313a207472616e736665722063616c6c6572206973206e6f74206f60008201527f776e6572206e6f7220617070726f766564000000000000000000000000000000602082015250565b7f2f00000000000000000000000000000000000000000000000000000000000000600082015250565b613a8181613347565b8114613a8c57600080fd5b50565b613a9881613359565b8114613aa357600080fd5b50565b613aaf81613365565b8114613aba57600080fd5b50565b613ac6816133b1565b8114613ad157600080fd5b5056fea2646970667358221220c3671a302ca47433c8773a3f3b5720106eb30a4d3de3a9adb86b0d81472f64a164736f6c63430008040033",
  "linkReferences": {},
  "deployedLinkReferences": {}
}